:0400000013EF00F00A
:060008005B8207EFABF084
:100018005B80E0CF60F060C0E0FF5B901000BEEF57
:02002800AEF038
:10F5B600000101000B0102000B0201000C02020017
:10F5C6000C03010108030201080101000B010200FE
:10F5D6000B0401000C0402000C05000000F4F50900
:10F5E60002F705BCF801ECF888F854F811F80D0A92
:10F5F600564C3533204D454E554500000000000061
:10F6060000000000000000000000000020312E561F
:10F616004C35335F494E495400000000000000009D
:10F626000000000000000000000020322E434F4E74
:10F636005449494F55532052414E47494E470000C1
:10F64600000000000000000020332E53494E474CB6
:10F65600452052414E47494E470000000000000039
:10F6660000000000000020342E53494E474C452030
:10F6760052414E47494E47204841000000000000D5
:10F686000000000020352E53494E474C452052417C
:10F696004E47494E47204853000000000000000036
:10F6A600000020362E53494E474C452052414E47C6
:10F6B600494E47204C5200000000000000000000A8
:10F6C60020372E564C35332044617461204449530B
:10F6D600504C41590000000000000000000020725C
:10F6E6002E455849540000000000000000000000AC
:10F6F6000000000000000000000000000D0A525348
:10F70600343835204D454E554500000000000000B8
:10F716000000000000000000000020312E5258209A
:10F726004D4F4445000000000000000000000000AE
:10F73600000000000000000020322E5458204D4FDB
:10F74600444500000000000000000000000000002A
:10F7560000000000000020332E4F5645522052551F
:10F766004E204552524F5220434C5200000000009A
:10F776000000000020722E45584954000000000089
:10F786000000000000000000000000000000000073
:10F796000000007274630000000000000001726542
:10F7A60067000000000000000269326300000000EC
:10F7B60000000003766C3533000000000000047082
:10F7C600623200000000000000056C6F6700000058
:10F7D60000000000066C6F676F6666000000000799
:10F7E6006C6F676F6E0000000000086C6F67636CDB
:10F7F6007200000000097273343835000000000002
:10F806000A6E6F6E650000000000000902430002E8
:10F816000100C032090400000102020100052400B3
:10F82600100104240202052406000105240100013A
:10F83600070581030A000209040100020A0000000C
:10F84600070502024000000705820240000034035B
:10F856004300440043002000520053002D003200B4
:10F8660033003200200045006D0075006C00610019
:10F87600740069006F006E002000440065006D0092
:10F886006F0034034D006900630072006F0063006F
:10F89600680069007000200054006500630068007D
:10F8A6006E006F006C006F00670079002000490051
:10F8B6006E0063002E000D0A52533438352054581A
:10F8C600203D2000000000000000000000000000B5
:10F8D600000000001201000202000008D8040A001D
:10F8E60000010102000104030904205049452020BB
:10F8F6002020203D203078253032782C2030782585
:10F906003032782C203078253032782C203078250B
:10F916003032782C203078253032780D0A0020508D
:10F92600495220202020203D203078253032782C66
:10F93600203078253032782C203078253032782CDB
:10F94600203078253032782C203078253032780DEA
:10F956000A002049505220202020203D20307825C2
:10F966003032782C203078253032782C20307825AB
:10F976003032782C203078253032782C203078259B
:10F986003032780D0A00493D25642C533D2530322E
:10F99600782C43313D253032782C43323D253032A8
:10F9A600782C42463D25303278202025730D0A00FA
:10F9B600202A20202020202A202A20202020202023
:10F9C6002A202A2A2A20202A2020202A200D0A0D31
:10F9D6000A00202A20202020202A202020202A2039
:10F9E600202020202A2A2A20202A2020202A200DF2
:10F9F6000A00202A202A202A202A2020202A202AFB
:10FA060020202020202A2020202A2A20202A200DDB
:10FA16000A00202A20202A20202A20202A2A2A2AD0
:10FA26002A202020202A2020202A202A202A200DB1
:10FA36000A00202A20202020202A20202A202020D8
:10FA4600202A2020202A2020202A20202A2A200D91
:10FA56000A00533D253032782C43313D253032782B
:10FA66002C43323D253032782C42463D25303278C3
:10FA760020002A2A2A204F5343494C4C41544F52C6
:10FA8600202A2A2A2A2A2A2A2A2A2A2A2A0D0A0041
:10FA960064743D3078253032782C20636F6D5F7347
:10FAA6007465705F666C673D25640D0A002A2A2A14
:10FAB60020494E54455252555054202A2A2A2A2A61
:10FAC6002A2A2A2A2A2A2A0D0A000D0A2A2A2A203E
:10FAD6005553422D434443205365747570202A2A9A
:10FAE6002A0D0A000A2A2A2A205541525431202A70
:10FAF6002A2A2A2A2A2A2A2A2A2A2A0D0A000A2AE7
:10FB06002A2A205541525432202A2A2A2A2A2A2AC7
:10FB16002A2A2A2A2A0D0A00205350425247312007
:10FB26002020203D20307825303278253032780D5F
:10FB36000A0020535042524732202020203D2030D8
:10FB46007825303278253032780D0A000D0A3230A9
:10FB560025642F25642F25642025643A25643A25DB
:10FB6600640D0A002A2A2A20504F5254202A2A2A93
:10FB76002A2A2A2A2A2A2A2A2A0D0A002A2A2A2050
:10FB8600493243202A2A2A2A2A2A2A2A2A2A2A2A99
:10FB96000D0A0049324320726567697374612064F7
:10FBA6006973706C61790D0A0020535350314144DA
:10FBB6004420203D203078253032780D0A0A002076
:10FBC6005353503241444420203D20307825303272
:10FBD600780D0A0A00436F6D6D616E64206E6F7456
:10FBE60020666F756E642E200D0A002A2A2A20557B
:10FBF60053415254205365747570202A2A2A0D0ADF
:10FC06000020524353544131202020203D2030789B
:10FC1600253032780D0A00205458535441312020A3
:10FC260020203D203078253032780D0A00205458A7
:10FC360053544132202020203D2030782530327820
:10FC46000D0A0020524353544133202020203D20EA
:10FC56003078253032780D0A002042415544434F12
:10FC66004E3120203D203078253032780D0A002094
:10FC760042415544434F4E3220203D2030782530B6
:10FC860032780D0A00433D25642C696E6465783D23
:10FC960025642C666C673D2564200055415254341A
:10FCA60038355F52435354413D253032780D0A00B2
:10FCB600554152543438355F54585354413D2530DC
:10FCC60032780D0A00676574636834383528292050
:10FCD600646174613D25780D0A00204F53435455E5
:10FCE6004E45203D203078253032780D0A0A002016
:10FCF60053535031434F4E31203D2030782530321A
:10FD0600780D0A002053535032434F4E31203D2088
:10FD16003078253032780D0A002053535031434F46
:10FD26004E32203D203078253032780D0A0020539F
:10FD3600535032434F4E32203D20307825303278B2
:10FD46000D0A00205353503153544154203D203066
:10FD560078253032780D0A002053535032535441DF
:10FD660054203D203078253032780D0A0020545238
:10FD760049534520203D203078253032780D0A0A37
:10FD8600002052434F4E202020203D203078253041
:10FD960032780D0A00204F5343434F4E20203D201A
:10FDA6003078253032780D0A0020494E54434F4EA4
:10FDB60020203D203078253032780D0A00204F5320
:10FDC60043434F4E32203D203078253032780D0A9D
:10FDD6000020494E54434F4E32203D203078253086
:10FDE60032780D0A0020494E54434F4E33203D20B1
:10FDF6003078253032780D0A006D61696E5F6C6F60
:10FE06006F705F6469737028290D0A00496E697402
:10FE160069616C697A6520456E640D0A0D0A0020D9
:10FE2600545249534120203D203078253032780DF8
:10FE36000A0020545249534220203D203078253074
:10FE460032780D0A0020545249534320203D203079
:10FE560078253032780D0A00205452495344202028
:10FE66003D203078253032780D0A00555342204E19
:10FE76004F5420434F4E4543540D0A0025643A25FE
:10FE8600643A25642025642E2564200020205353DF
:10FE96005032434F4E313D25780D0A0020205353F2
:10FEA6005032434F4E323D25780D0A0020205353E1
:10FEB6005032535441543D25780D0A005750543D55
:10FEC60025642C5250543D25640D0A0054696D6515
:10FED600725F696E697428290D0A002020535350F9
:10FEE600324144443D25780D0A00707574636834C8
:10FEF6003835282578290D0A004C4F47204F4646AD
:10FF0600203D2025640D0A00525334383520433DE8
:10FF1600307825780D0A00443D25642C696E6465A9
:10FF2600783D256420005553422053555350454E85
:10FF360044540D0A0020205353504144443D257833
:10FF46000D0A004C4F47204F4E203D2025640D0AD8
:10FF560000253032642E253033642E25642000209F
:10FF66002066616C73653D25780D0A004352454E47
:10FF76002052455345540D0A0055534220434F4ED7
:10FF86004543540D0A002020747275653D25780D91
:10FF96000A004C4F4720434C4541520D0A00636D01
:10FFA600645F6D6573673D200020205344413D2505
:10FFB600780D0A00202053434C3D25780D0A004257
:10FFC6007574746F6E310D0A00427574746F6E32FB
:10FFD6000D0A00203A3A2025730D0A004C4F47209F
:10FFE60053544F50005553423E2000533D25642044
:0AFFF600006C6C7300082008000086
:020000040001F9
:10000000D50E0001B56FF90EB66F08ECBCF0C20E4C
:100010000001B56FFE0EB66FC4C6B7F0C5C6B8F026
:10002000C6C6B9F0C7C6BAF008ECBCF0C6C6D1F077
:10003000C7C6D2F0000E0001CA6F000EC96FD1C052
:1000400061F0D2C062F0000E646F1D0E636F1CEC95
:10005000BCF0840E00016125D96E040E6221DA6EB7
:100060000A0EDE18D8A437EF80F039EF80F04BEF9E
:1000700080F0D1C061F0D2C062F0000E646F1D0E3E
:10008000636F1CECBCF0840E00016125D96E040E78
:100090006221DA6EDF6AD1C061F0D2C062F0000E78
:1000A000646F1D0E636F1CECBCF0810E00016125B6
:1000B000D96E040E6221DA6EDF50C56FC551CF6F65
:1000C000D06BD1C061F0D2C062F0000E646F1D0E23
:1000D000636F1CECBCF0820E00016125D96E040E2A
:1000E0006221DA6EDECFCDF0DDCFCEF0D1C061F08F
:1000F000D2C062F0000E646F1D0E636F1CECBCF08A
:10010000840E00016125D96E040E6221DA6EDF5083
:10011000C56FC551CB6FCC6B570EB56FFF0EB66F69
:10012000CFC0B7F0D0C0B8F0CDC0B9F0CEC0BAF0F3
:10013000CBC0BBF0CCC0BCF008ECBCF0E6EF81F06B
:10014000D1C061F0D2C062F0000E646F1D0E636F0B
:100150001CECBCF0990E00016125D96E040E6221E1
:10016000DA6EDF50C56FC551CF6FD06BD1C061F073
:10017000D2C062F0000E646F1D0E636F1CECBCF009
:100180009A0E00016125D96E040E6221DA6EDF50ED
:10019000C56FC551CD6FCE6BD1C061F0D2C062F0DA
:1001A000000E646F1D0E636F1CECBCF09B0E000113
:1001B0006125D96E040E6221DA6EDF50C56FC5511C
:1001C000CB6FCC6BD1C061F0D2C062F0000E646F17
:1001D0001D0E636F1CECBCF09C0E00016125D96EF6
:1001E000040E6221DA6EDF50C56FC551C76FC86B50
:1001F000580EB56FFA0EB66FCFC0B7F0D0C0B8F0DA
:10020000CDC0B9F0CEC0BAF0CBC0BBF0CCC0BCF012
:10021000C7C0BDF0C8C0BEF008ECBCF01DEF82F056
:10022000D1C061F0D2C062F0000E646F1D0E636F2A
:100230001CECBCF0990E00016125D96E040E622100
:10024000DA6EDF50C56FC551CF6FD06BF10EB56F51
:10025000FF0EB66FCFC0B7F0D0C0B8F008ECBCF05E
:100260001DEF82F0D1C061F0D2C062F0000E646F69
:100270001D0E636F1CECBCF0990E00016125D96E58
:10028000040E6221DA6EDF50C56FC551CF6FD06B9F
:10029000D1C061F0D2C062F0000E646F1D0E636FBA
:1002A0001CECBCF09A0E00016125D96E040E62218F
:1002B000DA6EDF50C56FC551CD6FCE6BD1C061F026
:1002C000D2C062F0000E646F1D0E636F1CECBCF0B8
:1002D0009B0E00016125D96E040E6221DA6EDF509B
:1002E000C56FC551CB6FCC6B8B0EB56FFC0EB66F67
:1002F000CFC0B7F0D0C0B8F0CDC0B9F0CEC0BAF022
:10030000CBC0BBF0CCC0BCF008ECBCF01DEF82F061
:10031000D1C061F0D2C062F0000E646F1D0E636F39
:100320001CECBCF0990E00016125D96E040E62210F
:10033000DA6EDF50C56FC551CF6FD06BD1C061F0A1
:10034000D2C062F0000E646F1D0E636F1CECBCF037
:100350009A0E00016125D96E040E6221DA6EDF501B
:10036000C56FC551CD6FCE6B1D0EB56FFF0EB66F4D
:10037000CFC0B7F0D0C0B8F0CDC0B9F0CEC0BAF0A1
:1003800008ECBCF01DEF82F0D1C061F0D2C062F089
:10039000000E646F1D0E636F1CECBCF0990E000123
:1003A0006125D96E040E6221DA6EDF50C56FC5512A
:1003B000CF6FD06B220EB56FFF0EB66FCFC0B7F008
:1003C000D0C0B8F008ECBCF01DEF82F0D1C061F0F5
:1003D000D2C062F0000E0001646F1D0E636F1CEC52
:1003E000BCF0800E00016125D96E040E6221DA6E28
:1003F000DF50C56FC66BC651000AD8B402EF82F059
:100400001DEF82F0C551000AD8B4A0EF80F0010AB8
:10041000D8B410EF81F0030AD8B432EF81F0010AAA
:10042000D8B488EF81F0070AD8B4C4EF81F0010A8C
:10043000D8B41DEF82F01DEF82F0D1C061F0D2C0C0
:1004400062F0000E0001646F1D0E636F1CECBCF0C7
:10045000850E00016125CF6F040E6221D06FB10EB1
:10046000B56FF90EB66FCFC0B7F0D0C0B8F008ECDA
:10047000BCF00001D14BD22BD25109E1150ED15D58
:10048000D8A045EF82F047EF82F04BEF82F0000EEC
:10049000D26F000ED16F26EEC4F0D151DE1807E105
:1004A000D251DE18D8A457EF82F059EF82F05BEFFB
:1004B00082F068EF82F0C94BCA2BCA5109E1140ED1
:1004C000C95DD8A066EF82F068EF82F01FEF80F080
:1004D0001200000E0101B06F000EAE6F000EA66F8D
:1004E000000EA76F240EA86F410EA96FA6C161F080
:1004F000A7C162F0A8C163F0A9C164F0A6ECA6F0A0
:1005000061C0AAF162C0ABF163C0ACF164C0ADF1EF
:100510009AEC8EF0080AD8A490EF82F092EF82F065
:1005200057EF84F001010105D8A499EF82F09BEF09
:1005300082F050EF84F032EF84F0230E0101836FDC
:10054000B02B830EB025D96EDA6A010EDA22DF6A8B
:10055000B02B830EB025D96EDA6A010EDA22010EB5
:10056000DF6EB02B830EB025D96EDA6A010EDA2267
:100570002A0EDF6EB02B830EB025D96EDA6A010E1B
:10058000DA2204C1DFFFB02B830EB025D96EDA6A00
:10059000010EDA22DF6AB02B830EB025D96EDA6A3B
:1005A000010EDA22DF6AB02B830EB025D96EDA6A2B
:1005B000010EDA22DF6AB02B830EB025D96EDA6A1B
:1005C000010EDA22DF6AB02B000EAF6FF1EF82F07E
:1005D000830EAF25D96EDA6A010EDA22DF50AE271C
:1005E000AF2BB051AF5DD8A0F8EF82F0FAEF82F0F8
:1005F000E8EF82F0830EB025D96EDA6A010EDA22B6
:10060000240EDF6EB02B830EB025D96EDA6A010E90
:10061000DA22AEC1DFFFB02B830E0001616F010E45
:10062000626FB0C163F0D8ECB7F057EF84F0230EDF
:100630000101836FB02B830EB025D96EDA6A010EEB
:10064000DA22DF6AB02B830EB025D96EDA6A010E8A
:10065000DA22010EDF6EB02B830EB025D96EDA6A76
:10066000010EDA222A0EDF6EB02B830EB025D96E72
:10067000DA6A010EDA2204C1DFFFB02B830EB02547
:10068000D96EDA6A010EDA22DF6AB02B830EB0254A
:10069000D96EDA6A010EDA22100EDF6EB02B830EED
:1006A000B025D96EDA6A010EDA22010EDF6EB02BA8
:1006B000830EB025D96EDA6A010EDA22DF6AB02B1A
:1006C000830EB025D96EDA6A010EDA22DF6AB02B0A
:1006D000000EAF6F75EF83F0830EAF25D96EDA6A27
:1006E000010EDA22DF50AE27AF2BB051AF5DD8A09C
:1006F0007CEF83F07EEF83F06CEF83F0FAEF82F013
:10070000230E0101836FB02B830EB025D96EDA6AF8
:10071000010EDA22DF6AB02B830EB025D96EDA6AB9
:10072000010EDA22010EDF6EB02B830EB025D96EDA
:10073000DA6A010EDA222A0EDF6EB02B830EB025A4
:10074000D96EDA6A010EDA2204C1DFFFB02B830E04
:10075000B025D96EDA6A010EDA22DF6AB02B000EFC
:10076000AF6FBCEF83F0830EAF25D96EDA6A010E4E
:10077000DA22DF50AE27AF2BB051AF5DD8A0C3EF68
:1007800083F0C5EF83F0B3EF83F0FAEF82F0230E2E
:100790000101836FB02B830EB025D96EDA6A010E8A
:1007A000DA22DF6AB02B830EB025D96EDA6A010E29
:1007B000DA22010EDF6EB02B830EB025D96EDA6A15
:1007C000010EDA222A0EDF6EB02B830EB025D96E11
:1007D000DA6A010EDA2204C1DFFFB02B830EB025E6
:1007E000D96EDA6A010EDA22DF6AB02B830EB025E9
:1007F000D96EDA6A010EDA22AAC1DFFFB02B830EAE
:10080000B025D96EDA6A010EDA22ABC1DFFFB02B58
:10081000830EB025D96EDA6A010EDA22ACC1DFFF91
:10082000B02B830EB025D96EDA6A010EDA22ADC183
:10083000DFFFB02B000EAF6F27EF84F0830EAF25E4
:10084000D96EDA6A010EDA22DF50AE27AF2BB05133
:10085000AF5DD8A02EEF84F030EF84F01EEF84F06F
:10086000FAEF82F004510001CC6FCD6BCD51000A3C
:10087000D8B43DEF84F057EF84F0CC51010AD8B4DE
:100880009DEF82F0030AD8B417EF83F0010AD8B4C1
:1008900080EF83F0070AD8B4C7EF83F057EF84F0F6
:1008A000000E0001E86F000EE66F57EF84F01200B3
:1008B000010E00016D6F000E6F6F000E6E6F6AC04B
:1008C000D9FF6BC0DAFFDE6ADD6A68C0D9FF69C094
:1008D000DAFF300EDE18D8A470EF84F072EF84F0E7
:1008E00095EF85F020EE01F06851D9266951DA22A2
:1008F000780EDE18D8A47FEF84F081EF84F095EFB6
:1009000085F0020E706F70516825D96E000E692156
:10091000DA6EDF50D8A48FEF84F091EF84F093EF7C
:1009200084F00EEF85F070516825D96E000E6921B4
:10093000DA6E600EDF649FEF84F0A1EF84F0AFEF1A
:1009400084F070516825D96E000E6921DA6E660E4A
:10095000DF64ADEF84F0AFEF84F0E7EF84F0705127
:100960006825D96E000E6921DA6E400EDF64BBEF98
:1009700084F0BDEF84F0CBEF84F070516825D96E20
:10098000000E6921DA6E460EDF64C9EF84F0CBEF0A
:1009900084F0E7EF84F070516825D96E000E69216C
:1009A000DA6E2F0EDF64D7EF84F0D9EF84F001EF19
:1009B00085F070516825D96E000E6921DA6E3A0E05
:1009C000DF60E5EF84F0E7EF84F001EF85F06E5132
:1009D0006F11D8A4EEEF84F0F0EF84F0F6EF84F01E
:1009E000000E6F6F010E6E6F05EF85F06E3B6F3B73
:1009F000F00E6F176E510F0B6F13F00E6E1705EFA1
:100A000085F0000E6D6F0EEF85F0702B070E706590
:100A10000CEF85F00EEF85F083EF84F06D05D8A420
:100A200014EF85F016EF85F03EEF86F0020E706F42
:100A300070516825D96E000E6921DA6EDF50D8A496
:100A400024EF85F026EF85F028EF85F03EEF86F065
:100A500070516825D96E000E6921DA6E2F0EDF64A1
:100A600034EF85F036EF85F062EF85F07051682540
:100A7000D96E000E6921DA6E3A0EDF6042EF85F022
:100A800044EF85F062EF85F070516825D96E000E55
:100A90006921DA6EDF506C6F0F0E6C176C51616F4D
:100AA000626B6EC063F06FC064F01CECBCF06AC097
:100AB000D9FF6BC0DAFF00016151DE266251DD22F1
:100AC00081EF85F070516825D96E000E6921DA6ECC
:100AD000DF506C6F0F0E6C17090E6C25616F626B27
:100AE000000E62236EC063F06FC064F01CECBCF0BB
:100AF0006AC0D9FF6BC0DAFF00016151DE26625186
:100B0000DD226E3B6F3B0F0E6E176F51F00B6E13B5
:100B10000F0E6F17702B070E706591EF85F093EF36
:100B200085F018EF85F03EEF86F0000E706F705183
:100B30006825D96E000E6921DA6EDF50D8A4A3EFC4
:100B400085F0A5EF85F0A7EF85F0F0EF85F0705107
:100B50006825D96E000E6921DA6E2F0EDF64B3EFBF
:100B600085F0B5EF85F0E2EF85F070516825D96E1C
:100B7000000E6921DA6E3A0EDF60C1EF85F0C3EF37
:100B800085F0E2EF85F06E516F11D8A4CAEF85F0C1
:100B9000CCEF85F0D2EF85F0000E6F6F010E6E6F17
:100BA000E6EF85F06EC061F06FC062F0000E646F1A
:100BB0000A0E636F1CECBCF061C06EF062C06FF097
:100BC000E6EF85F0000E6D6FF0EF85F00001702B01
:100BD000070E7065EEEF85F0F0EF85F097EF85F08A
:100BE0006D05D8A4F6EF85F0F8EF85F03EEF86F0BE
:100BF000000E706F70516825D96E000E6921DA6E93
:100C0000DF50D8A406EF86F008EF86F00AEF86F0F2
:100C10003EEF86F070516825D96E000E6921DA6EBC
:100C2000DF506C6F0F0E6C176C51616F626B6EC092
:100C300063F06FC064F01CECBCF06AC0D9FF6BC0FD
:100C4000DAFF00016151DE266251DD226EC061F0E3
:100C50006FC062F0000E646F0A0E636F94ECB4F024
:100C600061C06EF062C06FF00001702B070E7065FE
:100C70003CEF86F03EEF86F0FAEF85F012000D01B2
:100C80003205D8A446EF86F048EF86F062EF86F092
:100C900030511F0B0009D8A450EF86F052EF86F0B8
:100CA00062EF86F00D8E030E3119D8A45AEF86F04C
:100CB0005CEF86F060EF86F0010E2B6E62EF86F03F
:100CC000000E2B6E3251D8A468EF86F06AEF86F0E2
:100CD000F9EF87F030511F0B020AD8A472EF86F0AB
:100CE00074EF86F0F9EF87F034510F0B0009D8B498
:100CF0007CEF86F07EEF86F0F9EF87F034510F0B32
:100D00000001776F030E776188EF86F08AEF86F037
:100D1000F9EF87F0200EF819D8A491EF86F093EF41
:100D200086F0F9EF87F00D8E0D0134BF9AEF86F053
:100D30009CEF86F0BCEF86F034510F0B0001776F0B
:100D40007751020DD30EF324D96E000EF420DA6E23
:100D5000DECF7CF0DDCF7DF00D0134510F0B0001B3
:100D6000776F786B160E7725D96E000E7821DA6EC4
:100D7000DF507B6FDAEF86F034510F0B0001776F95
:100D80007751020D100EF324D96E000EF420DA6EA6
:100D9000DECF7CF0DDCF7DF00D0134510F0B000173
:100DA000776F786B190E7725D96E000E7821DA6E81
:100DB000DF507B6F7BB1DFEF86F0E1EF86F0E9EF8C
:100DC00086F0FB0E7C157C6FFF0E7D157D6FEEEFC0
:100DD00086F0040E7C117C6F7D517D6F0D0134BF58
:100DE000F4EF86F0F6EF86F008EF87F034510F0B42
:100DF0000001776F7751020DD30EF324D96E000EE8
:100E0000F420DA6E7CC0DEFF7DC0DDFF18EF87F0D6
:100E100034510F0B0001776F7751020D100EF32440
:100E2000D96E000EF420DA6E7CC0DEFF7DC0DDFFDF
:100E3000030E0D013119D8A420EF87F022EF87F0BF
:100E40005EEF87F07CC0D9FF7DC0DAFF0001DFAE26
:100E50002CEF87F02EEF87F050EF87F00D0134BFB5
:100E600034EF87F036EF87F044EF87F034510F0B03
:100E70000001776F786B160E7725D96E000E7821FA
:100E8000DA6EDF8250EF87F034510F0B0001776F7D
:100E9000786B190E7725D96E000E7821DA6EDF8215
:100EA0007CC0D9FF7DC0DAFF000EDB847CC0D9FF97
:100EB0007DC0DAFF000EDB8EF9EF87F0040E000133
:100EC0007C197C6F7D517D6F7CC0D9FF7DC0DAFFBE
:100ED000DFAE6DEF87F06FEF87F08BEF87F07CC0B0
:100EE000D9FF7DC0DAFF7F0EDF167CC0D9FF7DC041
:100EF000DAFF000EDB8C000E706F050E6F6F7CC08A
:100F000071F07DC072F0000E746F020E736F8DEC85
:100F1000B0F091EF87F07CC0D9FF7DC0DAFF000E02
:100F2000DB8C040E00017C197C6F7D517D6F7BB3DF
:100F30009CEF87F09EEF87F0A9EF87F07CC0D9FF88
:100F40007DC0DAFFDFAEA7EF87F0A9EF87F0E1EF12
:100F500087F00D0134BFAFEF87F0B1EF87F0BFEF3F
:100F600087F034510F0B0001776F786B160E7725E1
:100F7000D96E000E7821DA6EDF92CBEF87F0345114
:100F80000F0B0001776F786B190E7725D96E000E65
:100F90007821DA6EDF927CC0D9FF7DC0DAFF3B0E8C
:100FA000DF16000E706F050E6F6F7CC071F07DC094
:100FB00072F0000E746F020E736F8DECB0F0E7EFFD
:100FC00087F07CC0D9FF7DC0DAFF3B0EDF160D0134
:100FD00034510F0B0001776F786B260E7725796FF0
:100FE0000F0E78217A6F79C0D9FF7AC0DAFFFE0E32
:100FF000DF1612009DC0D9FF9EC0DAFFDECFF6FFDC
:10100000DDCFF7FF000EF86E0800F550250AD8A4D2
:101010000CEF88F00EEF88F09DEF89F09DC0D9FFAE
:101020009EC0DAFFDE2A000EDD22000E0001DA6F1C
:10103000000ED96FD9C0E3F0DB69DC69000EA46F44
:10104000000EA36F50EF88F0E3839DC0D9FF9EC0D0
:10105000DAFFDE2A000EDD2250EF88F0000EA46FCA
:10106000010EA36F50EF88F09DC0D9FF9EC0DAFF3C
:10107000DECFF6FFDDCFF7FF000EF86E0800F5506B
:10108000A16FA26BA251000AD8B449EF88F02EEFED
:1010900088F0A151300AD8B424EF88F02EEF88F000
:1010A000A351A411D8B457EF88F059EF88F034EF6A
:1010B00088F09DC067F09EC068F09FC069F0A0C036
:1010C0006AF0CAECACF067C0D9F068C0DAF0000191
:1010D000DABF6FEF88F06DEF88F074EF88F0E3818E
:1010E000D96DDA1FD8B0DA2B9DC0D9FF9EC0DAFFC8
:1010F000DECFABF0DDCFACF0ABC0F6FFACC0F7FF9E
:10110000000EF86E0800F550640AD8B48AEF88F033
:101110008CEF88F09CEF88F0ABC0F6FFACC0F7FF17
:10112000000EF86E0800F550690AD8A49AEF88F00E
:101130009CEF88F0CAEF88F09FC0D9FFA0C0DAFF0B
:10114000DFCFA1F0020EDE26DFCFA2F0000EDD22FF
:10115000A1C0D9FFA2C0DAFFDECFA7F0DDCFA8F093
:10116000010EAB25A16F000EAC21A26F9DC0D9FF6F
:101170009EC0DAFFA1C0DEFFA2C0DDFF9BC08BF0E6
:101180009CC08CF0A7C08DF0A8C08EF0E8EC95F064
:10119000B4EF89F0ABC0F6FFACC0F7FF000EF86EFD
:1011A0000800F550780AD8A4D8EF88F0DAEF88F074
:1011B00022EF89F09FC0D9FFA0C0DAFFDFCFA1F0F6
:1011C000020EDE26DFCFA2F0000EDD22A1C0D9FF85
:1011D000A2C0DAFFDECFA7F0DDCFA8F0010EAB256D
:1011E000A16F000EAC21A26F9DC0D9FF9EC0DAFF97
:1011F000A1C0DEFFA2C0DDFF0AEF89F09BC08BF02B
:101200009CC08CF0A7C08DF0A8C08EF064EC9BF061
:10121000B4EF89F0ABC0F6FFACC0F7FF000EF86E7C
:101220000800F550A16FA26BA251000AD8B41BEFC1
:1012300089F022EF89F0A151780AD8B4FEEF88F046
:1012400022EF89F09DC0D9FF9EC0DAFFDECFF6FF06
:10125000DDCFF7FF000EF86E0800F550730AD8B422
:1012600034EF89F036EF89F052EF89F09DC0D9FF55
:101270009EC0DAFFDECF61F0DDCF62F0F70E636F64
:10128000FF0E646F000E666F030E656F31ECA8F001
:10129000000161516211D8A450EF89F052EF89F03A
:1012A00094EF89F09DC0D9FF9EC0DAFFDECFF6FF34
:1012B000DDCFF7FF000EF86E0800F550730AD8B4C2
:1012C00064EF89F066EF89F06CEF89F0000EA66F8D
:1012D000030EA56F70EF89F0000EA66F010EA56FCB
:1012E0009DC0D9FF9EC0DAFFA551DE26A651DD22A2
:1012F0009BC079F09CC07AF09FC0D9FFA0C0DAFFF4
:10130000DFCFA1F0020EDE26DFCFA2F0000EDD223D
:10131000A1C0D9FFA2C0DAFFDECF7BF0DDCF7CF029
:10132000A6EC97F0B4EF89F09DC0D9FF9EC0DAFF1C
:10133000DE2A000EDD22B4EF89F09DC0D9FF9EC0E9
:10134000DAFFDECFF6FFDDCFF7FF000EF86E080004
:10135000F5500001706F716B9BC072F09CC073F010
:1013600033ECADF094EF89F01200FFECBAF000011D
:101370007051CA6FCA51D8B4C0EF89F0C2EF89F07A
:101380005DEF8BF048EF8BF0000EE26F000EE16F27
:10139000010EF06FE00ECA25C56FC66BFF0EC623A7
:1013A000C65107E15F0EC55DD8B0D9EF89F0DBEF1C
:1013B00089F0F8EF89F0E2BFE9EF89F0E25107E147
:1013C0000F0EE15DD8B0E7EF89F0E9EF89F0F8EFB3
:1013D00089F04B0EE125D96E010EE221DA6ECAC00A
:1013E000DFFFE14BE22BCA515EECAEF05DEF8BF01C
:1013F000080ECA19D8A4FFEF89F001EF8AF019EF9F
:101400008AF0E2BF0CEF8AF0E25108E1E105D8A0D2
:101410000CEF8AF00EEF8AF019EF8AF0E107D8A0FE
:10142000E207FB0EB56FFF0EB66F08ECBCF05DEF88
:101430008BF00D0ECA19D8A420EF8AF022EF8AF0A3
:1014400046EF8BF04B0EE125D96E010EE221DA6EEC
:10145000DF6AD50EB56FF90EB66F08ECBCF0020E60
:101460000001F06F000EC76F000E01015B6F000EF0
:10147000636F000E6C6F000E6B6F000E6E6F000ED0
:101480006D6F000E0001C96F000EC86F000ECC6FAB
:10149000000ECB6F4B0ECB25D96E010ECC21DA6E30
:1014A000DF50D8A456EF8AF058EF8AF087EF8AF021
:1014B0006EEF8AF05B0EC825D96E010EC921DA6E77
:1014C000DF6AC84BC92B2FEF8BF0630EC825D96E8E
:1014D000010EC921DA6EDF6A2FEF8BF0C751C56F9D
:1014E000C66BC651000AD8B478EF8AF02FEF8BF0A4
:1014F000C551000AD8B42FEF8BF0010AD8B45AEFC7
:101500008AF0030AD8B465EF8AF02FEF8BF04B0E08
:10151000CB25D96E010ECC21DA6E200EDE18D8A4B0
:1015200094EF8AF096EF8AF008EF8BF0CDEF8AF017
:101530004B0ECB25D96E010ECC21DA6EDF6AC72B9C
:1015400021EF8BF001015B51D8B4A9EF8AF0ABEF2A
:101550008AF021EF8BF05B0E0001C825D96E010ED9
:10156000C921DA6EDF6AC72B000EC96F000EC86F83
:1015700021EF8BF001016351D8B4C1EF8AF0C3EFC2
:101580008AF021EF8BF0630E0001C825D96E010EA1
:10159000C921DA6EDF6A21EF8BF0C751C56FC66BC8
:1015A000C651000AD8B4D7EF8AF021EF8BF0C551AD
:1015B000000AD8B498EF8AF0010AD8B4A2EF8AF0F2
:1015C000030AD8B4BAEF8AF021EF8BF04B0ECB258B
:1015D000D96E010ECC21DA6E5B0EC825E16E010ECC
:1015E000C921E26EDFCFE7FFC84BC92B21EF8BF09B
:1015F0004B0ECB25D96E010ECC21DA6E630EC825B9
:10160000E16E010EC921E26EDFCFE7FFF4EF8AF051
:10161000C751C56FC66BC651000AD8B412EF8BF024
:1016200021EF8BF0C551000AD8B421EF8BF0010AED
:10163000D8B4E6EF8AF0030AD8B4F8EF8AF021EFC5
:101640008BF00001CB4BCC2BCC5109E1100ECB5DC4
:10165000D8A02DEF8BF02FEF8BF04AEF8AF05B0EC6
:10166000686F010E696F6B0E6A6F010E6B6F58EC3D
:1016700084F0630E0001686F010E696F6D0E6A6F72
:10168000010E6B6F58EC84F05DEF8BF05DEF8BF02B
:10169000F051C56FC66BC651000AD8B452EF8BF03B
:1016A0005DEF8BF0C551000AD8B4C4EF89F0010A90
:1016B000D8B4CAEF89F05DEF8BF00001F051120051
:1016C0000D013205D8A467EF8BF069EF8BF083EF43
:1016D0008BF030511F0B0009D8A471EF8BF073EF22
:1016E0008BF083EF8BF00D8E030E3119D8A47BEFB6
:1016F0008BF07DEF8BF081EF8BF0010E2B6E83EF83
:101700008BF0000E2B6E3251D8A489EF8BF08BEF4B
:101710008BF007EF8DF030511F0B020AD8A493EF26
:101720008BF095EF8BF007EF8DF034510F0B000924
:10173000D8B49DEF8BF09FEF8BF007EF8DF0345115
:101740000F0B446E030E4460A8EF8BF0AAEF8BF0F2
:1017500007EF8DF0200E0001F819D8A4B2EF8BF03E
:10176000B4EF8BF007EF8DF00D8E0D0134BFBBEFA2
:101770008BF0BDEF8BF0DAEF8BF034510F0B446E32
:101780004450020DD30EF324D96E000EF420DA6E0D
:10179000DECF49F0DDCF4AF034510F0B446E456A7D
:1017A000160E4424D96E000E4520DA6EDF50486EC6
:1017B000F5EF8BF034510F0B446E4450020D100EB8
:1017C000F324D96E000EF420DA6EDECF49F0DDCFBF
:1017D0004AF034510F0B446E456A190E4424D96EF9
:1017E000000E4520DA6EDF50486E48B0FAEF8BF0FD
:1017F000FCEF8BF004EF8CF0FB0E4914496EFF0EEA
:101800004A144A6E09EF8CF0040E4910496E4A5092
:101810004A6E34BF0EEF8CF010EF8CF021EF8CF09D
:1018200034510F0B446E4450020DD30EF324D96E85
:10183000000EF420DA6E49C0DEFF4AC0DDFF30EF53
:101840008CF034510F0B446E4450020D100EF324F3
:10185000D96E000EF420DA6E49C0DEFF4AC0DDFF0B
:10186000030E3119D8A437EF8CF039EF8CF071EFFB
:101870008CF049C0D9FF4AC0DAFFDFAE42EF8CF0EE
:1018800044EF8CF063EF8CF034BF49EF8CF04BEFFA
:101890008CF058EF8CF034510F0B446E456A160EE5
:1018A0004424D96E000E4520DA6EDF8263EF8CF09F
:1018B00034510F0B446E456A190E4424D96E000E44
:1018C0004520DA6EDF8249C0D9FF4AC0DAFF000E38
:1018D000DB8449C0D9FF4AC0DAFF000EDB8E07EF78
:1018E0008DF0040E4918496E4A504A6E49C0D9FF1E
:1018F0004AC0DAFFDFAE7FEF8CF081EF8CF09DEF16
:101900008CF049C0D9FF4AC0DAFF7F0EDF1649C00C
:10191000D9FF4AC0DAFF000EDB8C000E3D6E050ECB
:101920003C6E49C03EF04AC03FF0000E416E020ED0
:10193000406E97ECB1F0A3EF8CF049C0D9FF4AC0DC
:10194000DAFF000EDB8C040E4918496E4A504A6ECD
:1019500048B2ADEF8CF0AFEF8CF0BAEF8CF049C02D
:10196000D9FF4AC0DAFFDFAEB8EF8CF0BAEF8CF0E7
:10197000F0EF8CF00D0134BFC0EF8CF0C2EF8CF0B3
:10198000CFEF8CF034510F0B446E456A160E442491
:10199000D96E000E4520DA6EDF92DAEF8CF034510A
:1019A0000F0B446E456A190E4424D96E000E452073
:1019B000DA6EDF9249C0D9FF4AC0DAFF3B0EDF166C
:1019C000000E3D6E050E3C6E49C03EF04AC03FF031
:1019D000000E416E020E406E97ECB1F0F6EF8CF007
:1019E00049C0D9FF4AC0DAFF3B0EDF160D01345162
:1019F0000F0B446E456A260E4424466E0F0E45209A
:101A0000476E46C0D9FF47C0DAFFFE0EDF16120050
:101A1000D50E0001B56FF90EB66F08ECBCF0820E62
:101A20000001B56FFB0EB66F08ECBCF0490E00016B
:101A3000B56FFD0EB66FC7CFB7F0B86B08ECBCF052
:101A4000F50E0001B56FFC0EB66FC6CFB7F0B86BE0
:101A500008ECBCF01F0E0001B56FFD0EB66FC5CFD0
:101A6000B7F0B86B08ECBCF0AF0E0001B56FFB0E21
:101A7000B66FC8CFB7F0B86B08ECBCF05E0E0001D3
:101A8000B56FFD0EB66F73CFB7F0B86B08ECBCF056
:101A90000A0E0001B56FFD0EB66F72CFB7F0B86BCE
:101AA00008ECBCF0340E0001B56FFD0EB66F71CFBF
:101AB000B7F0B86B08ECBCF0C50E0001B56FFB0EBB
:101AC000B66F74CFB7F0B86B08ECBCF06A0E0001CB
:101AD000B56FFB0EB66F08ECBCF0250E0001B56FBC
:101AE000FE0EB66F92CFB7F0B86B08ECBCF0380EB4
:101AF0000001B56FFE0EB66F93CFB7F0B86B08EC70
:101B0000BCF04B0E0001B56FFE0EB66F94CFB7F070
:101B1000B86B08ECBCF05E0E0001B56FFE0EB66F40
:101B200095CFB7F0B86B08ECBCF0730E0001B56F41
:101B3000FD0EB66F96CFB7F0B86B08ECBCF0780E20
:101B40000001B56FFA0EB66F08ECBCF09B0E0001F9
:101B5000B56FFD0EB66FD3CFB7F0B86B08ECBCF025
:101B6000C30E0001B56FFD0EB66F87CFB7F0B86B2F
:101B700008ECBCF0E00E0001B56FFC0EB66F9BCF19
:101B8000B7F0B86B08ECBCF0B30E0001B56FFA0EFD
:101B9000B66F08ECBCF0870E0001B56FFD0EB66F96
:101BA000D0CFB7F0B86B08ECBCF0AF0E0001B56F4A
:101BB000FD0EB66FF2CFB7F0B86B08ECBCF0D70EE5
:101BC0000001B56FFD0EB66FF1CFB7F0B86B08EC42
:101BD000BCF0EB0E0001B56FFD0EB66FF0CFB7F0A5
:101BE000B86B08ECBCF0240E0001B56FF90EB66FAF
:101BF0009ECFB7F0B86BA1CFB9F0BA6BA4CFBBF052
:101C0000BC6B8FCFBDF0BE6B98CFBFF0C06B08EC44
:101C1000BCF0F00E0001B56FF80EB66F9DCFB7F0B7
:101C2000B86BA0CFB9F0BA6BA3CFBBF0BC6B8ECFB3
:101C3000BDF0BE6B91CFBFF0C06B08ECBCF0580E8E
:101C40000001B56FF90EB66F9FCFB7F0B86BA2CF9A
:101C5000B9F0BA6BA5CFBBF0BC6B90CFBDF0BE6B3B
:101C600099CFBFF0C06B08ECBCF0EA0E0001B56F75
:101C7000FA0EB66F08ECBCF01D0E0001B56FFC0E3D
:101C8000B66FADCFB7F0B86B08ECBCF0070E000133
:101C9000B56FFC0EB66FACCFB7F0B86B08ECBCF00C
:101CA0005F0E0001B56FFC0EB66F7ECFB7F0B86B5C
:101CB00008ECBCF01E0E0001B56FFB0EB66F7FCFB7
:101CC000B7F0B86BB0CFB9F0BA6B08ECBCF0040E4B
:101CD0000001B56FFB0EB66F08ECBCF0330E0001CF
:101CE000B56FFC0EB66FA8CFB7F0B86B08ECBCF0C0
:101CF000490E0001B56FFC0EB66F9CCFB7F0B86B04
:101D000008ECBCF0750E0001B56FFC0EB66F7CCF11
:101D1000B7F0B86B08ECBCF0380E0001B56FFB0EE5
:101D2000B66F7DCFB7F0B86BABCFB9F0BA6B08EC3C
:101D3000BCF01200000E0001C96FAC50E519D8B418
:101D4000A4EF8EF0A6EF8EF0B1EF8EF0ACCFE5F001
:101D5000A10EB56FFC0EB66FE5C0B7F0B86B08EC1E
:101D6000BCF0AD500001E419D8B4B9EF8EF0BBEF70
:101D70008EF0C6EF8EF0ADCFE4F0B60EB56FFC0E70
:101D8000B66FE4C0B7F0B86B08ECBCF00101475186
:101D9000D8B4CDEF8EF0CFEF8EF019EF90F050EC7D
:101DA000BBF00001CB6FDFEF8FF0230ECB19D8A46F
:101DB000DCEF8EF0DEEF8EF00CEF90F0000EE625FB
:101DC000D96EDA6A010EDA22CBC0DFFF010EE86FAE
:101DD000E62B0CEF90F0000EE625D96EDA6A010EC4
:101DE000DA22CBC0DFFF020EE86FE8EF8EF0000EC4
:101DF000E625D96EDA6A010EDA22CBC0DFFF030EC8
:101E0000E86FE8EF8EF02A0ECB19D8A40AEF8FF016
:101E10000CEF8FF018EF8FF0000EE625D96EDA6A1E
:101E2000010EDA22CBC0DFFF040EE86FE8EF8EF080
:101E3000000EE86F000EE66F0CEF90F0000EE62546
:101E4000D96EDA6A010EDA22CBC0DFFF050EE86F29
:101E5000E8EF8EF0240ECB19D8A431EF8FF033EFDA
:101E60008FF01EEF8FF0000EE625D96EDA6A010EB4
:101E7000DA22CBC0DFFF060EE86FE8EF8EF0000E2F
:101E8000CA6F000EC96F4DEF8FF0000ECA25D96ED4
:101E9000DA6A010EDA22DF50C927000ECA25D96E90
:101EA000DA6A010EDA22240EDE18D8A45AEF8FF077
:101EB0005CEF8FF045EF8FF0CB51C919D8A463EFD9
:101EC0008FF065EF8FF018EF8FF0000EE625D96EDA
:101ED000DA6A010EDA22CBC0DFFF080EE86FE62BCC
:101EE000A40EB56FFF0EB66F08ECBCF0000E00013B
:101EF000CA6FC3EF8FF0720EB56FFA0EB66F000E99
:101F0000CA25D96EDA6A010EDA22DF50C56FC551D3
:101F1000B76FB86B08ECBCF0000E0001CA25D96E93
:101F2000DA6A010EDA221F0EDF6499EF8FF09BEF61
:101F30008FF0B6EF8FF0000ECA25D96EDA6A010E67
:101F4000DA227F0EDF60A7EF8FF0A9EF8FF0B6EFF8
:101F50008FF0000ECA25D96EDA6A010EDA22DF5040
:101F6000C56FC551C76FC86BBAEF8FF0000EC86F51
:101F70002E0EC76F6F0ECA25D96EDA6A010EDA22ED
:101F8000C7C0DFFFCA2BE651CA5DD8A0CAEF8FF0E9
:101F9000CCEF8FF07BEF8FF0700ECA25D96EDA6A26
:101FA000010EDA22DF6AD90EB56FFF0EB66F6F0E23
:101FB000B76F010EB86F08ECBCF00CEF90F0E85171
:101FC000C56FC66BC651000AD8B4E9EF8FF00CEFAD
:101FD00090F0C551000AD8B4D5EF8EF0010AD8B4FC
:101FE000EBEF8EF0030AD8B4F7EF8EF0010AD8B405
:101FF00003EF8FF0070AD8B41EEF8FF0010AD8B4B0
:102000002AEF8FF0030AD8B43FEF8FF00E0AD8B44E
:102010000CEF90F00CEF90F0960E0001B56FFA0EF9
:10202000B66FCBC0B7F0B86BE8C0B9F0BA6B08ECCC
:10203000BCF00001E85112000001716F0001F15184
:10204000D8B425EF90F027EF90F029EF90F08FEFC4
:1020500091F0F351D8A42FEF90F031EF90F029EFE9
:1020600090F0010EF36FC4C661F0C5C662F0000EB9
:10207000646F1D0E636F1CECBCF0810E00016125C6
:10208000D96E040E6221DA6E0DECBDF0DF6EC4C6AF
:1020900061F0C5C662F0000E0001646F1D0E636F33
:1020A0001CECBCF0820E00016125D96E040E622189
:1020B000DA6EF9ECBCF0000161C0DEFF62C0DDFF4A
:1020C000C4C661F0C5C662F0000E646F1D0E636F7A
:1020D0001CECBCF0840E00016125D96E040E622157
:1020E000DA6E0AECBDF0DF6EC4C661F0C5C662F000
:1020F000000E0001646F1D0E636F1CECBCF0990EA6
:1021000000016125D96E040E6221DA6E69C0DFFF1D
:10211000C4C661F0C5C662F0000E646F1D0E636F29
:102120001CECBCF09A0E00016125D96E040E6221F0
:10213000DA6E6AC0DFFFC4C661F0C5C662F0000E89
:10214000646F1D0E636F1CECBCF09B0E00016125DB
:10215000D96E040E6221DA6E6BC0DFFFC4C661F077
:10216000C5C662F0000E646F1D0E636F1CECBCF000
:102170009C0E00016125D96E040E6221DA6E6CC0DE
:10218000DFFFC4C661F0C5C662F0000E646F1D0EAD
:10219000636F1CECBCF0800E00016125D96E040E4B
:1021A0006221DA6E71C0DFFF000E736F000E726F76
:1021B00023EF91F067C0F6FF68C0F7FF000EF86EDE
:1021C000C4C661F0C5C662F0000E646F1D0E636F79
:1021D0001CECBCF0850E000161256D6F040E6221C0
:1021E0006E6F72516D25D96E73516E21DA6E0800D3
:1021F000F5CFDFFF735109E1150E725DD8A003EF33
:1022000091F005EF91F01FEF91F0C4C661F0C5C6E3
:1022100062F0000E646F1D0E636F1CECBCF0850E47
:10222000000161256D6F040E62216E6F72516D2584
:10223000D96E73516E21DA6EDF6A33EF91F0724B13
:10224000732B674B682B67C0F6FF68C0F7FF000E63
:10225000F86E0800F5500009D8A431EF91F033EF83
:1022600091F0DAEF90F0C4C661F0C5C662F0000EDE
:10227000646F1D0E636F1CECBCF0850E00016125C0
:102280006D6F040E62216E6F72516D25D96E7351A0
:102290006E21DA6EDF6A26EEC4F0DE2A000EDD2241
:1022A00026EEC4F0010EDB5009E1150EDE5CD8A06D
:1022B0005CEF91F05EEF91F064EF91F0000EE8CFEB
:1022C000C4F6000EE8CFC5F626EEC6F016EEC4F052
:1022D000DE50E61807E1DE50E618D8A472EF91F060
:1022E00074EF91F08DEF91F026EEC6F0DE2A000E2D
:1022F000DD2226EEC6F0010EDB5009E1150EDE5C94
:10230000D8A085EF91F087EF91F08DEF91F0000E5E
:10231000E8CFC6F6000EE8CFC7F6000EF36F120046
:102320000001F805D8A497EF91F099EF91F0A8EF8C
:1023300091F065BA9EEF91F0A0EF91F0A8EF91F0C7
:10234000000E626E0F0136813689020E0001F86FB1
:1023500062A4ADEF91F0AFEF91F0BAEF91F00F0101
:1023600036A5B5EF91F0B7EF91F0BAEF91F0629426
:10237000E5ECB9F065A2BFEF91F0C1EF91F0C4EFC9
:1023800091F0A198B2EF92F062A0C9EF91F0CBEF7B
:1023900091F0DAEF91F00F0136A1D1EF91F0D3EF88
:1023A00091F0DAEF91F011EC9CF0A088040E00019E
:1023B000F86F629062A8DFEF91F0E1EF91F0EBEF40
:1023C00091F00F0136A9E7EF91F0E9EF91F0EBEF13
:1023D00091F068ECBBF062ACF0EF91F0F2EF91F0AD
:1023E00020EF92F00F0136ADF8EF91F0FAEF91F097
:1023F00009EF92F0000E0001706F730E6F6F000E08
:10240000716F000E726F000E746F010E736F8DECA2
:10241000B0F0629C1CECBBF00001EB51D8B413EFA0
:1024200092F015EF92F016EF92F0EB07EB51D8A473
:102430001CEF92F01EEF92F020EF92F0A3ECA9F0C7
:1024400062AA25EF92F027EF92F031EF92F00F01A0
:1024500036AB2DEF92F02FEF92F031EF92F0C9EC06
:10246000B6F062A236EF92F038EF92F050EF92F0B1
:102470000F0136A33EEF92F040EF92F050EF92F052
:102480007F0E0001706F6F69000E716F000E726F2A
:10249000000E746F010E736F8DECB0F0000E636E62
:1024A000040E0001F86157EF92F059EF92F05CEFE3
:1024B00092F0A198B2EF92F00F0136A762EF92F07E
:1024C00064EF92F0B1EF92F0000E0001816F62A60E
:1024D0006CEF92F06EEF92F0B1EF92F064CFFBF000
:1024E000FB31E832E8320F0BEC6F6296FBB57BEF05
:1024F00092F07DEF92F086EF92F0160EEC25D96EF9
:10250000DA6A000EDA22DF708DEF92F0190EEC25F8
:10251000D96EDA6A000EDA22DF70EC51D8A493EF9C
:1025200092F095EF92F099EF92F01DECAFF0A7EFDB
:1025300092F0000E706F720E6F6FFB0E716F000ED7
:10254000726F000E746F000E736F8DECB0F00001AF
:10255000812B030E8165AFEF92F0B1EF92F067EF40
:1025600092F0A19812000001F805D8A4BAEF92F0F9
:10257000BCEF92F0CBEF92F065BAC1EF92F0C3EFEF
:1025800092F0CBEF92F0000E626E0F013681368929
:10259000020E0001F86F62A4D0EF92F0D2EF92F039
:1025A000DDEF92F00F0136A5D8EF92F0DAEF92F05E
:1025B000DDEF92F0629467ECBAF065A2E2EF92F080
:1025C000E4EF92F0E7EF92F0A198D2EF93F062A0DF
:1025D000ECEF92F0EEEF92F0FDEF92F00F0136A1EA
:1025E000F4EF92F0F6EF92F0FDEF92F0B8EC9CF081
:1025F000A088040E0001F86F629062A802EF93F0C9
:1026000004EF93F00EEF93F00F0136A90AEF93F069
:102610000CEF93F00EEF93F0AFECBBF062AC13EF66
:1026200093F015EF93F042EF93F00F0136AD1BEFEF
:1026300093F01DEF93F02BEF93F0000E3D6E730EB1
:102640003C6E000E3E6E000E3F6E000E416E010E9F
:10265000406E97ECB1F0629C36ECBBF00001EB51A0
:10266000D8B435EF93F037EF93F038EF93F0EB07F2
:10267000EB51D8A43EEF93F040EF93F042EF93F08C
:102680001AECAAF062AA47EF93F049EF93F053EFE8
:1026900093F00F0136AB4FEF93F051EF93F053EF00
:1026A00093F0FAECB6F062A258EF93F05AEF93F081
:1026B00071EF93F00F0136A360EF93F062EF93F0A8
:1026C00071EF93F07F0E3D6E3C68000E3E6E000E83
:1026D0003F6E000E416E010E406E97ECB1F0000EA1
:1026E000636E040E0001F86178EF93F07AEF93F0D7
:1026F0007DEF93F0A198D2EF93F00F0136A783EF0F
:1027000093F085EF93F0D1EF93F0000E4E6E62A63A
:102710008CEF93F08EEF93F0D1EF93F064CFFBF05A
:102720000001FB31E832E8320F0BEC6F6296FBB52B
:102730009CEF93F09EEF93F0A7EF93F0160EEC252D
:10274000D96EDA6A000EDA22DF70AEEF93F0190E5E
:10275000EC25D96EDA6A000EDA22DF70EC51D8A4CB
:10276000B4EF93F0B6EF93F0BAEF93F07AECAFF0EA
:10277000C8EF93F0000E3D6E720E3C6EFB0E3E6E87
:10278000000E3F6E000E416E000E406E97ECB1F0F1
:102790004E2A030E4E64CFEF93F0D1EF93F087EF04
:1027A00093F0A1981200B5EC89F0020AD8A4DBEFEF
:1027B00093F0DDEF93F0EEEF94F0000E0001F06F78
:1027C0004B0E676F010E686FFE0E696FFF0E6A6F2A
:1027D0001CECB4F0000167516811D8B4F2EF93F02B
:1027E000F4EF93F0EAEF94F0EF05D8A4FAEF93F04A
:1027F000FCEF93F0FEEF93F0EAEF94F0020EEF1986
:10280000D8A405EF94F007EF94F047EF94F025EF8C
:1028100094F0030E0001EF6FEAEF94F0720E0001E6
:10282000B56FFF0EB66F08ECBCF0AC98000E00015F
:10283000626F010E616FA6ECBAF0AC88EAEF94F01B
:10284000000E0001EF6FEAEF94F001014B51A66F0B
:10285000A76BA751000AD8B430EF94F0EAEF94F0D8
:10286000A651310AD8B4EAEF94F0030AD8B409EFBC
:1028700094F0010AD8B40EEF94F0610AD8B420EFB6
:1028800094F0200AD8B420EF94F0EAEF94F0030E0D
:10289000EF19D8A44EEF94F050EF94F0B3EF94F00A
:1028A000F00EB56FFE0EB66F4BC1B7F0B86B08EC0B
:1028B000BCF001014B51F3ECBBF0020E0001EF6FD5
:1028C000EAEF94F0010E59ECB4F0EAEF94F008EC62
:1028D0008DF0EAEF94F0010E0001EF6FEAEF94F053
:1028E0008AA475EF94F077EF94F07AEF94F08A94DD
:1028F000EAEF94F08A84EAEF94F000EC80F0EAEFDB
:1029000094F0000E0001F26FFF0EB56FFE0EB66F71
:10291000F2C0B7F0B86B08ECBCF0EAEF94F000013D
:10292000F22B490EB56FFF0EB66FF2C0B7F0B86B61
:1029300008ECBCF0EAEF94F0980E0001B56FFF0EC2
:10294000B66F08ECBCF08DECBCF0000EE2ECBAF017
:10295000EAEF94F0DB0E0001B56FFB0EB66F08ECEA
:10296000BCF0EAEF94F061ECACF00101A66FA76B4C
:10297000A751000AD8B4BFEF94F0EAEF94F0A65143
:10298000000AD8B462EF94F0010AD8B467EF94F06B
:10299000020AD8B46BEF94F0070AD8B470EF94F041
:1029A000010AD8B47DEF94F0030AD8B481EF94F013
:1029B000010AD8B48FEF94F00F0AD8B49CEF94F0CA
:1029C000010AD8B45DEF94F0030AD8B4AAEF94F0EA
:1029D000EAEF94F00001EF51FCECADF0120083B48B
:1029E000F4EF94F0F6EF94F0AEEF95F0CF0E000117
:1029F000B56FFF0EB66F08ECBCF080A002EF95F04B
:102A000004EF95F007EF95F0899008EF95F0898035
:102A1000A60E0001B56F010EB66F990EB76FFB0ED3
:102A2000B86F2AECB8F0A60E00016E6F010E6F6F42
:102A3000E8ECBCF0A60E0001B56F010EB66FBA0E41
:102A4000B76FFF0EB86F95B028EF95F02CEF95F0AB
:102A5000C96BC92B2EEF95F00001C96BC951B96F35
:102A6000BA6B2AECB8F0A60E00016E6F010E6F6F04
:102A7000E8ECBCF0A60E0001B56F010EB66FAF0E0C
:102A8000B76FFF0EB86F95B248EF95F04CEF95F029
:102A9000C96BC92B4EEF95F00001C96BC951B96FD5
:102AA000BA6B2AECB8F0A60E00016E6F010E6F6FC4
:102AB000E8ECBCF0A60E0001B56F010EB66FB20EC9
:102AC000B76FFE0EB86F73CFB9F0BA6B2AECB8F0DF
:102AD000A60E00016E6F010E6F6FE8ECBCF0A60E43
:102AE0000001B56F010EB66F920EB76FFE0EB86F94
:102AF00072CFB9F0BA6B2AECB8F0A60E00016E6F77
:102B0000010E6F6FE8ECBCF0A60E0001B56F010E70
:102B1000B66FA20EB76FFE0EB86F71CFB9F0BA6B79
:102B20002AECB8F0A60E00016E6F010E6F6FE8EC94
:102B3000BCF0A60E0001B56F010EB66FE10EB76FC7
:102B4000FE0EB86F74CFB9F0BA6B2AECB8F0A60ECF
:102B500000016E6F010E6F6FE8ECBCF083B6B3EF4F
:102B600095F0B5EF95F0E7EF95F080A2BAEF95F00C
:102B7000BCEF95F0BFEF95F08992C0EF95F0898298
:102B8000C50E0001B56FFF0EB66F08ECBCF0D80E95
:102B90000001636F010E646FF0ECABF0520E0001A8
:102BA000B56FFB0EB66FD8C1B7F0B86BD9C1B9F02D
:102BB000BA6BDAC1BBF0BC6BDCC1BDF0BE6BDDC172
:102BC000BFF0C06BDEC1C1F0C26B08ECBCF01200FC
:102BD00000018EBFEEEF95F0F1EF95F0010EF2EFF0
:102BE00095F0000E956F9551D8B4F9EF95F0FBEF85
:102BF00095F0FFEF95F08D6D8E1FD8B08E2BDCBF5A
:102C000004EF96F006EF96F007EF96F0E393DCBF43
:102C10000EEF96F00CEF96F014EF96F0000E926F18
:102C2000010E916F18EF96F0DBC091F0DCC092F0CE
:102C3000D9C093F0DAC094F09551D8B422EF96F051
:102C400024EF96F03BEF96F09307D8A094079551A8
:102C5000D8A42DEF96F02FEF96F035EF96F0000EFA
:102C6000906F2B0E8F6F39EF96F0000E906F2D0E38
:102C70008F6F8FC095F0000E976F1F0E966F000E2E
:102C80000201DF6F75EF96F09607D8A09707C00E88
:102C90009625D96E020E9721DA6E8DC061F08EC036
:102CA00062F0000E646F0A0E636FE6ECB0F061C074
:102CB00067F062C068F006ECBAF000016751300FAF
:102CC000DF6E9107D8A092079307D8A094078DC014
:102CD00061F08EC062F0000E646F0A0E636F99ECB3
:102CE000ADF061C08DF062C08EF0000197BF81EF42
:102CF00096F0975108E19605D8A081EF96F083EF02
:102D000096F0ADEF96F08D518E11D8A48AEF96F023
:102D10008CEF96F044EF96F092BF99EF96F09251B7
:102D200006E19105D8B097EF96F099EF96F044EF51
:102D300096F094BFA4EF96F0945108E19305D8A0C3
:102D4000A4EF96F0A6EF96F0ADEF96F0E3B3ABEFFD
:102D500096F0ADEF96F044EF96F09551D8B4B3EFFE
:102D600096F0B5EF96F0C0EF96F09607D8A09707CB
:102D7000C00E9625D96E020E9721DA6E95C0DFFF40
:102D80008BC080F08CC081F0C00E9625826F020E41
:102D90009721836F93C084F094C085F03FECB1F02D
:102DA0001200A09801013F514011D8B4DAEF96F01B
:102DB000DCEF96F0EAEF96F03FC1D9FF40C1DAFFB1
:102DC000DFAEE5EF96F0E7EF96F0EAEF96F0A08839
:102DD000A5EF97F0030E0001F619D8A4F2EF96F0D4
:102DE000F4EF96F0F6EF96F0000EF66FF651D8A4D9
:102DF000FCEF96F0FEEF96F001EF97F0A088A5EFBC
:102E000097F0020EF619D8A408EF97F00AEF97F0A2
:102E10001EEF97F0010E616F000E626F000E636F80
:102E2000000E646F020EFEEC9DF061C03FF162C0C7
:102E300040F1030E0001F66FA4EF97F0F605D8A459
:102E400024EF97F026EF97F0A4EF97F0400EE96596
:102E50002CEF97F02EEF97F032EF97F0400E6D6F5A
:102E600034EF97F0E9C06DF06D51E95DE96F240E24
:102E70000101396F030E3A6F6DC06CF04951D8A44F
:102E800044EF97F046EF97F075EF97F059EF97F012
:102E90003CC1D9FF3DC1DAFF39C1E1FF3AC1E2FFD0
:102EA000DFCFE7FF0101394B3A2B3C4B3D2B0001B3
:102EB0006C0700016C51D8A460EF97F062EF97F0B7
:102EC00048EF97F07EEF97F03CC1D9FF3DC1DAFFA4
:102ED00039C1E1FF3AC1E2FFDFCFE7FF0101394B22
:102EE0003A2B3C4B3D2B00016C0700016C51D8A4E0
:102EF0007CEF97F07EEF97F064EF97F0E951D8A45C
:102F000084EF97F086EF97F095EF97F0400E6D19EC
:102F1000D8A48DEF97F08FEF97F093EF97F0020E14
:102F2000F66F95EF97F0030EF66F010E616F240EAA
:102F3000626F030E636F6DC064F0020EFEEC9DF0D5
:102F400061C03FF162C040F1A088120021EEF2F0B2
:102F500010EE7EF0060EDBCFE3FFE806FCE27BC05E
:102F600089F07CC08AF0000189518A11D8A4BBEF96
:102F700097F0BDEF97F0C1EF97F07E0E896F000ECE
:102F80008A6F89C061F08AC062F0AEECB7F061C0B0
:102F90008DF062C08EF0DBC08BF0DCC08CF00001E5
:102FA0008CBFD5EF97F0D7EF97F0ECEF97F08D51FE
:102FB0008B5D8C51800A7D6F8E51800A7D59D8A01F
:102FC000E4EF97F0E6EF97F0E8EF97F0ECEF97F08B
:102FD0008BC08DF08CC08EF08DC08BF08EC08CF0CD
:102FE000D9C087F0DAC088F0E3B1F9EF97F0FBEFD2
:102FF00097F019EF98F00AEF98F0000E716F200E1D
:10300000706F79C072F07AC073F033ECADF00001EC
:103010008D4B8E2B87518D5D8E51800A7D6F88512F
:10302000800A7D59D8A017EF98F019EF98F0FDEFBE
:1030300097F0000E866F000E856F40EF98F089C004
:10304000F6FF8AC0F7FF000EF86E0F0EF76403D08C
:103050000800F55005D0F6CFE9FFF7CFEAFFEF50B3
:1030600000017D6F7D51706F716B79C072F07AC015
:1030700073F033ECADF00001894B8A2B854B862B26
:103080008B51855D8651800A7D6F8C51800A7D59F8
:10309000D8A04DEF98F04FEF98F01FEF98F0E3A114
:1030A00054EF98F056EF98F074EF98F065EF98F0C1
:1030B000000E716F200E706F79C072F07AC073F0DD
:1030C00033ECADF000018D4B8E2B87518D5D8E5111
:1030D000800A7D6F8851800A7D59D8A072EF98F0E0
:1030E00074EF98F058EF98F01200800E0D0130192F
:1030F000D8A47DEF98F07FEF98F033EF99F0C00EF1
:103100000D6E19EF99F0DA0E0A6EF80E0B6E000EC6
:103110000F6E120E0E6E33EF99F00D013251D8A4DE
:1031200094EF98F096EF98F0DBEF98F03251020DA3
:10313000F20EF324F66EF50EF420F76EF86A000E28
:10314000F8220900F5CF0AF00A00F5CF0BF0020EC5
:103150000A240001616F000E0B20626F61C0F6FF50
:1031600062C0F7FF000EF86E0F0EF76403D0080080
:10317000F55005D0F6CFE9FFF7CFEAFFEF500E6E1E
:10318000030E0A240001616F000E0B20626F61C004
:10319000F6FF62C0F7FF000EF86E0F0EF76403D063
:1031A0000800F55005D0F6CFE9FFF7CFEAFFEF5062
:1031B0000F6E33EF99F0000E0D6E33EF99F0030EA2
:1031C0000D013261E6EF98F0E8EF98F011EF99F019
:1031D0003251020DEC0EF324F66EF50EF420F76E6C
:1031E000F86A000EF8220900F5CF0AF00A00F5CFC0
:1031F0000BF00AC0F6FF0BC0F7FF000EF86E0F0EC3
:10320000F76403D00800F55005D0F6CFE9FFF7CFFB
:10321000EAFFEF500001616F61510E6E0F6A33EFEC
:1032200099F0000E0D6E33EF99F0000E0D6E33EF36
:1032300099F033510001616F626B6251000AD8B49A
:1032400024EF99F015EF99F06151010AD8B483EF9A
:1032500098F0030AD8B48DEF98F0010AD8B4DFEFE4
:1032600098F015EF99F0120061C06BF062C06CF03D
:10327000000165516611D8A440EF99F042EF99F032
:1032800044EF99F0EFEF99F06BC0D9FF6CC0DAFF13
:1032900063C0DFFF65516B25676F66516C21686FF6
:1032A000FF0E6725D96EFF0E6821DA6E63C0DFFF5F
:1032B000665107E1030E655DD8B061EF99F063EFE9
:1032C00099F065EF99F0EFEF99F020EE01F06B5176
:1032D000D9266C51DA2263C0DFFF20EE02F06B5179
:1032E000D9266C51DA2263C0DFFF65516B25676F09
:1032F00066516C21686FFE0E6725D96EFF0E68213E
:10330000DA6E63C0DFFF65516B25676F66516C2114
:10331000686FFD0E6725D96EFF0E6821DA6E63C0F7
:10332000DFFF665107E1070E655DD8B09AEF99F0AF
:103330009CEF99F09EEF99F0EFEF99F020EE03F0FB
:103340006B51D9266C51DA2263C0DFFF65516B25C2
:10335000676F66516C21686FFC0E6725D96EFF0E92
:103360006821DA6E63C0DFFF665107E1090E655D13
:10337000D8B0BDEF99F0BFEF99F0C1EF99F0EFEF42
:1033800099F06BC067F06CC068F0671F681F674BEF
:10339000682B030E6715696F6A6B69516B276A5159
:1033A0006C236951655F6A51665BFC0E6517FF0E01
:1033B0006617E6EF99F06BC0D9FF6CC0DAFF63C007
:1033C000DFFF6507D8A066076B4B6C2B6551661154
:1033D000D8A4EDEF99F0EFEF99F0DBEF99F0120040
:1033E0002EC038F02FC039F032503310D8A4FBEF84
:1033F00099F0FDEF99F0FFEF99F0AAEF9AF038C03D
:10340000D9FF39C0DAFF30C0DFFF32503824346EC4
:1034100033503920356EFF0E3424D96EFF0E35201F
:10342000DA6E30C0DFFF335007E1030E325CD8B0F4
:103430001CEF9AF01EEF9AF020EF9AF0AAEF9AF0A4
:1034400020EE01F03850D9263950DA2230C0DFFFA3
:1034500020EE02F03850D9263950DA2230C0DFFF92
:1034600032503824346E33503920356EFE0E3424F9
:10347000D96EFF0E3520DA6E30C0DFFF32503824AF
:10348000346E33503920356EFD0E3424D96EFF0E64
:103490003520DA6E30C0DFFF335007E1070E325CB3
:1034A000D8B055EF9AF057EF9AF059EF9AF0AAEF8B
:1034B0009AF020EE03F03850D9263950DA2230C085
:1034C000DFFF32503824346E33503920356EFC0E15
:1034D0003424D96EFF0E3520DA6E30C0DFFF335052
:1034E00007E1090E325CD8B078EF9AF07AEF9AF0E3
:1034F0007CEF9AF0AAEF9AF038C034F039C035F07A
:10350000341E351E344A352A030E3414366E376A9B
:1035100036503826375039223650325E3750335ABB
:10352000FC0E3216FF0E3316A1EF9AF038C0D9FF09
:1035300039C0DAFF30C0DFFF3206D8A03306384A80
:10354000392A32503310D8A4A8EF9AF0AAEF9AF093
:1035500096EF9AF01200800E0D013019D8A4B3EF47
:103560009AF0B5EF9AF063EF9BF0C00E0D6E4AEF44
:103570009BF0DA0E0A6EF80E0B6E000E0F6E120E36
:103580000E6E63EF9BF03251D8A4C9EF9AF0CBEFE7
:103590009AF00EEF9BF03251020DF20EF324F66E0C
:1035A000F50EF420F76EF86A000EF8220900F5CF48
:1035B0000AF00A00F5CF0BF0020E0A242E6E000E60
:1035C0000B202F6E2EC0F6FF2FC0F7FF000EF86EF7
:1035D0000F0EF76403D00800F55005D0F6CFE9FFD1
:1035E000F7CFEAFFEF500E6E030E0A242E6E000E88
:1035F0000B202F6E2EC0F6FF2FC0F7FF000EF86EC7
:103600000F0EF76403D00800F55005D0F6CFE9FFA0
:10361000F7CFEAFFEF500F6E63EF9BF0000E0D6ED9
:1036200063EF9BF0030E326118EF9BF01AEF9BF0F3
:1036300042EF9BF03251020DEC0EF324F66EF50EC4
:10364000F420F76EF86A000EF8220900F5CF0AF0B0
:103650000A00F5CF0BF00AC0F6FF0BC0F7FF000E13
:10366000F86E0F0EF76403D00800F55005D0F6CFC2
:10367000E9FFF7CFEAFFEF502E6E2E500E6E0F6A65
:1036800063EF9BF0000E0D6E63EF9BF0000E0D6E6E
:1036900063EF9BF033512E6E2F6A2F50000AD8B47F
:1036A00054EF9BF046EF9BF02E50010AD8B4B9EFCF
:1036B0009AF0030AD8B4C3EF9AF0010AD8B412EF13
:1036C0009BF046EF9BF012000001DCBF6AEF9BF01D
:1036D0006CEF9BF06DEF9BF0E393DCBF74EF9BF01E
:1036E00072EF9BF07AEF9BF0000E956F010E946FD6
:1036F0007EEF9BF0DBC094F0DCC095F0D9C096F073
:10370000DAC097F0000E996F1F0E986F000E02013D
:10371000DF6FC7EF9BF09807D8A099078D510F0B6B
:103720009A6F090E9A6597EF9BF099EF9BF0A1EFC6
:103730009BF0570E9A25926F936B000E9323A7EF81
:103740009BF0300E9A25926F936B000E932392C0DC
:103750009AF0C00E9825D96E020E9921DA6E9AC0A1
:10376000DFFF9407D8A095079607D8A097078DC0CC
:103770008FF08EC090F0040E916FD89090338F33FD
:10378000912FBDEF9BF08FC08DF090C08EF00001A7
:1037900099BFD4EF9BF0995109E1020E985DD8A032
:1037A000D4EF9BF0D6EF9BF000EF9CF08D518E1183
:1037B000D8A4DDEF9BF0DFEF9BF08BEF9BF095BF84
:1037C000ECEF9BF0955106E19405D8B0EAEF9BF041
:1037D000ECEF9BF08BEF9BF097BFF7EF9BF09751CF
:1037E00008E19605D8A0F7EF9BF0F9EF9BF000EF0A
:1037F0009CF0E3B3FEEF9BF000EF9CF08BEF9BF0AF
:103800008BC080F08CC081F0C00E9825826F020EB4
:103810009921836F96C084F097C085F03FECB1F09A
:103820001200A098000E636E000E626E000E0F0173
:10383000266F270E0001616F0F0E626F000E646F1E
:10384000000E636F000E666F020E656F34EC99F028
:10385000160E0F01396F9F0E376F7B0E366F000EFD
:1038600000016D6F6D51040D000EF324D96E0D0E25
:10387000F420DA6EDE6ADE6ADE6ADD6A6D2B0B0E1C
:103880006D6545EF9CF047EF9CF032EF9CF0658C46
:10389000000E0F01386F6598659C6296000E0D6EE4
:1038A000000E046E000E066E000E056E62B65BEF33
:1038B0009CF05DEF9CF04DEF9CF0010E276E010E29
:1038C000266E000E256E000E246E000E2A6E000E6F
:1038D00000016D6F6D51020D100EF324D96E000EB4
:1038E000F420DA6EDE6ADD6A6D51020DD30EF32428
:1038F000D96E000EF420DA6EDE6ADD6A190E6D25CF
:10390000D96EDA6A000EDA22DF6A160E6D25D96EDC
:10391000DA6A000EDA22DF6A6D2B020E6D6593EF14
:103920009CF095EF9CF06AEF9CF0080E106E0D0E67
:10393000116E160E0F01266F0D0E0D01036F300E66
:10394000026F080E016F040E006F008F000E000161
:10395000FC6F000E0101356F000E366F000E376FE1
:10396000000E386F000E236E000E0001F86F12007B
:10397000A098000E636E000E626E000E0F01266F9F
:10398000270E2E6E0F0E2F6E000E316E000E306E53
:10399000000E336E020E326EF0EC99F0160E0F012F
:1039A000396F9F0E376F7B0E366F000E3A6E3A50AE
:1039B000040D000EF324D96E0D0EF420DA6EDE6ACB
:1039C000DE6ADE6ADD6A3A2A0B0E3A64EAEF9CF0A0
:1039D000ECEF9CF0D7EF9CF0658C000E0F01386F78
:1039E0006598659C6296000E0D6E000E046E000ECA
:1039F000066E000E056E62B600EF9DF002EF9DF0C0
:103A0000F2EF9CF0010E276E010E266E000E256E61
:103A1000000E246E000E2A6E000E3A6E3A50020D11
:103A2000100EF324D96E000EF420DA6EDE6ADD6A21
:103A30003A50020DD30EF324D96E000EF420DA6E44
:103A4000DE6ADD6A190E3A24D96EDA6A000EDA22CD
:103A5000DF6A160E3A24D96EDA6A000EDA22DF6ABD
:103A60003A2A020E3A6437EF9DF039EF9DF00EEFDF
:103A70009DF0080E106E0D0E116E160E0F01266FC2
:103A80000D0E0D01036F300E026F080E016F040E54
:103A9000006F008F000E0001FC6F000E0101356FFA
:103AA000000E366F000E376F000E386F000E236E5B
:103AB000000E0001F86F120020EE01F01E50D92612
:103AC0001F50DA22DF500001626F6251055C000E68
:103AD0000658D8B06EEF9DF070EF9DF072EF9DF03C
:103AE00005C062F06251055E000E065A000E616F5D
:103AF00089EF9DF0380E6125D96EDA6A0D0EDA2253
:103B000001C0E1FF02C0E2FFDFCFE7FF014A022A66
:103B1000612B6251615DD8A090EF9DF092EF9DF016
:103B20007AEF9DF005500610D8B499EF9DF09BEF09
:103B30009DF0D4EF9DF020EE01F01C50D9261D50D1
:103B4000DA22080EDF6E20EE02F01C50D9261D503E
:103B5000DA22380EDE6E0D0EDD6E1EC0D9FF1FC0DC
:103B6000DAFFDFBCB6EF9DF0B8EF9DF0C6EF9DF039
:103B70001CC0D9FF1DC0DAFF480EDF6E1CC0D9FF84
:103B80001DC0DAFF000EDB8EFDEF9DF01CC0D9FFDB
:103B90001DC0DAFF080EDF6E1CC0D9FF1DC0DAFFA2
:103BA000000EDB8EFDEF9DF020EE01F01C50D926BB
:103BB0001D50DA22080EDF6E20EE02F01C50D926CE
:103BC0001D50DA22300EDE6E0D0EDD6E1CC0D9FFE8
:103BD0001DC0DAFF040EDF6E1CC0D9FF1DC0DAFF66
:103BE000000EDB8E049E2850D8A4F9EF9DF0FBEF69
:103BF0009DF0FDEF9DF0A3ECA9F012000001696FAC
:103C000000016151D8B407EF9EF009EF9EF017EF65
:103C10009EF06951020D100EF324D96E000EF420AF
:103C2000DA6EDECF6AF0DDCF6BF023EF9EF06951E4
:103C3000020DD30EF324D96E000EF420DA6EDECF1F
:103C40006AF0DDCF6BF06A516B11D8A42AEF9EF0B9
:103C50002CEF9EF032EF9EF0000E616F000E626F4F
:103C60009EEF9EF020EE02F06A51D9266B51DA22C7
:103C700062C0DEFF63C0DDFF20EE01F06A51D9268D
:103C80006B51DA2264C0DFFF6AC0D9FF6BC0DAFF74
:103C9000400EDF166AC0D9FF6BC0DAFF000EDB866C
:103CA0006AC0D9FF6BC0DAFF000EDB8E6151D8B459
:103CB0005CEF9EF05EEF9EF07DEF9EF06951020D8D
:103CC000100EF324D96E000EF420DA6EDECF65F00C
:103CD000DDCF66F0040E6519676F6651686F695134
:103CE000020D100EF324D96E000EF420DA6E67C0B8
:103CF000DEFF68C0DDFF9AEF9EF06951020DD30E22
:103D0000F324D96E000EF420DA6EDECF65F0DDCF3D
:103D100066F0040E6519676F6651686F6951020D90
:103D2000D30EF324D96E000EF420DA6E67C0DEFFE6
:103D300068C0DDFF6AC061F06BC062F0120020EE67
:103D400001F01E50D9261F50DA22DF502F6E2F505F
:103D5000055C000E0658D8B0B0EF9EF0B2EF9EF0B2
:103D6000B4EF9EF005C02FF02F50055E000E065AEE
:103D7000000E2E6ECBEF9EF0380E2E24D96EDA6A2E
:103D80000D0EDA2201C0E1FF02C0E2FFDFCFE7FF44
:103D9000014A022A2E2A2F502E5CD8A0D2EF9EF084
:103DA000D4EF9EF0BCEF9EF005500610D8B4DBEFC8
:103DB0009EF0DDEF9EF016EF9FF020EE01F01C501C
:103DC000D9261D50DA22080EDF6E20EE02F01C50BC
:103DD000D9261D50DA22380EDE6E0D0EDD6E1EC0A5
:103DE000D9FF1FC0DAFFDFBCF8EF9EF0FAEF9EF0BC
:103DF00008EF9FF01CC0D9FF1DC0DAFF480EDF6E30
:103E00001CC0D9FF1DC0DAFF000EDB8E3FEF9FF014
:103E10001CC0D9FF1DC0DAFF080EDF6E1CC0D9FF21
:103E20001DC0DAFF000EDB8E3FEF9FF020EE01F0A9
:103E30001C50D9261D50DA22080EDF6E20EE02F04B
:103E40001C50D9261D50DA22300EDE6E0D0EDD6EAE
:103E50001CC0D9FF1DC0DAFF040EDF6E1CC0D9FFE5
:103E60001DC0DAFF000EDB8E049E2850D8A43BEF65
:103E70009FF03DEF9FF03FEF9FF01AECAAF0120089
:103E800065980DBE46EF9FF048EF9FF08DEF9FF0D5
:103E900004AE4DEF9FF04FEF9FF061EF9FF0020EE9
:103EA0002C6E2450D8A457EF9FF059EF9FF05BEF92
:103EB0009FF047ECB2F0000E266E000E276EDFEF8B
:103EC0009FF020EE01F01C50D9261D50DA22080E7A
:103ED000DF6E20EE02F01C50D9261D50DA22300E83
:103EE000DE6E0D0EDD6E1CC0D9FF1DC0DAFF0C0E9C
:103EF000DF6E1CC0D9FF1DC0DAFF000EDB8E10C0C4
:103F0000D9FF11C0DAFF040EDF6E10C0D9FF11C057
:103F1000DAFF000EDB8EDFEF9FF00D0130AF93EF85
:103F20009FF095EF9FF0B1EF9FF0010E2C6E2550A2
:103F3000D8A49DEF9FF09FEF9FF0A1EF9FF047EC7B
:103F4000B2F0000E266E000E276E2850D8A4ABEFFC
:103F50009FF0ADEF9FF0DFEF9FF0A3ECA9F0DFEF54
:103F60009FF0020E2C6E20EE01F01C50D9261D5041
:103F7000DA22080EDF6E20EE02F01C50D9261D500A
:103F8000DA22300EDE6E0D0EDD6E1CC0D9FF1DC0B4
:103F9000DAFF040EDF6E1CC0D9FF1DC0DAFF000E71
:103FA000DB8E000E266E000E276E2850D8A4DBEFA5
:103FB0009FF0DDEF9FF0DFEF9FF0ADEF9FF012007D
:103FC00065980DBEE6EF9FF0E8EF9FF02DEFA0F0B3
:103FD00004AEEDEF9FF0EFEF9FF001EFA0F0020EC7
:103FE0002C6E2450D8A4F7EF9FF0F9EF9FF0FBEF71
:103FF0009FF09DECB2F0000E266E000E276E7FEF54
:10400000A0F020EE01F01C50D9261D50DA22080E37
:10401000DF6E20EE02F01C50D9261D50DA22300E41
:10402000DE6E0D0EDD6E1CC0D9FF1DC0DAFF0C0E5A
:10403000DF6E1CC0D9FF1DC0DAFF000EDB8E10C082
:10404000D9FF11C0DAFF040EDF6E10C0D9FF11C016
:10405000DAFF000EDB8E7FEFA0F00D0130AF33EF03
:10406000A0F035EFA0F051EFA0F0010E2C6E25501E
:10407000D8A43DEFA0F03FEFA0F041EFA0F09DEC01
:10408000B2F0000E266E000E276E2850D8A44BEF1B
:10409000A0F04DEFA0F07FEFA0F01AECAAF07FEFB8
:1040A000A0F0020E2C6E20EE01F01C50D9261D50FF
:1040B000DA22080EDF6E20EE02F01C50D9261D50C9
:1040C000DA22300EDE6E0D0EDD6E1CC0D9FF1DC073
:1040D000DAFF040EDF6E1CC0D9FF1DC0DAFF000E30
:1040E000DB8E000E266E000E276E2850D8A47BEFC4
:1040F000A0F07DEFA0F07FEFA0F04DEFA0F0120058
:10410000000EF3ECB2F09B8C0F013985F19E700E1E
:10411000D36E1F0E486F1F0E496F000E926E300E49
:10412000936E000E946E0F0E956E000E806E000E54
:10413000816E000E826E000E836E92909292929427
:1041400093948980898295869584000E0001626F20
:104150000A0E616FA6ECBAF02BECB7F0F1ECBCF0F4
:1041600059ECB9F014ECBDF08DECBCF011EC9CF006
:104170007AECB8F0010E0001F76FA7ECBCF090EC00
:1041800091F063ECBCF0D20E0001B56FFE0EB66F7D
:1041900008ECBCF0B3ECBCF054ECBCF047ECBAF06B
:1041A0003B0E0001B56FFF0EB66F74CFB7F0B86B62
:1041B00008ECBCF08C0E0001B56FFF0EB66F000E60
:1041C000B86F010EB76F08ECBCF0650E0001B56F5B
:1041D000FF0EB66F000EB86F000EB76F08ECBCF0A4
:1041E000FF0E0001B56FFD0EB66F08ECBCF0B7EC2A
:1041F000B5F07FECBCF0E806D8A401EFA1F003EF26
:10420000A1F007EFA1F002ECBDF0EFEC94F071EC3F
:10421000BCF0E806D8A40FEFA1F011EFA1F015EF64
:10422000A1F0FEECBCF015ECBDF0D3EC93F069EC22
:1042300082F06FECA3F0F9EFA0F013EF00F0366E10
:104240002E50D8B426EFA1F028EFA1F036EFA1F060
:104250003650020D100EF324D96E000EF420DA6EE3
:10426000DECF37F0DDCF38F042EFA1F03650020D4F
:10427000D30EF324D96E000EF420DA6EDECF37F0C1
:10428000DDCF38F037503810D8A449EFA1F04BEF0C
:10429000A1F051EFA1F0000E2E6E000E2F6EBDEFBB
:1042A000A1F020EE02F03750D9263850DA222FC084
:1042B000DEFF30C0DDFF20EE01F03750D926385048
:1042C000DA2231C0DFFF37C0D9FF38C0DAFF400E35
:1042D000DF1637C0D9FF38C0DAFF000EDB8637C0E3
:1042E000D9FF38C0DAFF000EDB8E2E50D8B47BEF3A
:1042F000A1F07DEFA1F09CEFA1F03650020D100E61
:10430000F324D96E000EF420DA6EDECF32F0DDCF6A
:1043100033F0040E3218346E3350356E3650020DC1
:10432000100EF324D96E000EF420DA6E34C0DEFFD6
:1043300035C0DDFFB9EFA1F03650020DD30EF324E6
:10434000D96E000EF420DA6EDECF32F0DDCF33F01E
:10435000040E3218346E3350356E3650020DD30EC3
:10436000F324D96E000EF420DA6E34C0DEFF35C0BF
:10437000DDFF37C02EF038C02FF012000D013039AC
:10438000E832030B0009D8B4C8EFA1F0CAEFA1F0DE
:1043900014EFA2F04EEFA2F00D8E080EF86F4EEF64
:1043A000A2F075EC98F04EEFA2F091ECAAF04EEF6F
:1043B000A2F0FC0E0A6E000E0B6E0D80010E0E6E4A
:1043C0000D8E4EEFA2F04FECA2F04EEFA2F03FECBC
:1043D00086F04EEFA2F0F90E0D0134250A6E0B6A3D
:1043E000000E0B220D80010E0E6E0D8E4EEFA2F010
:1043F0000D8EF90E0D013425D96EDA6A000EDA221F
:1044000032CDDFFF4EEFA2F0000E706F020E6F6F25
:10441000000E716F000E726F000E746F000E736FDE
:104420008DECB0F04EEFA2F0315100017E6F7F6B4A
:104430007F51000AD8B41FEFA2F04EEFA2F07E51D8
:10444000000AD8B4E3EFA1F0010AD8B4E7EFA1F075
:10445000020AD8B4E7EFA1F0060AD8B4CCEFA1F075
:10446000030AD8B4D1EFA1F0010AD8B404EFA2F046
:104470000F0AD8B4D9EFA1F0010AD8B4D5EFA1F052
:10448000030AD8B4EBEFA1F0010AD8B4F8EFA1F019
:10449000070AD8B44EEFA2F04EEFA2F01200000EC1
:1044A0000D01386F000E396FB6EFA2F00D8E2B04A0
:1044B000D8A45DEFA2F05FEFA2F0D1EFA2F00D0162
:1044C0003883D1EFA2F00D8ED1EFA2F00D8E0D0149
:1044D00034510F0B0009D8B470EFA2F072EFA2F0C4
:1044E000D1EFA2F034BF77EFA2F079EFA2F08BEF1B
:1044F000A2F034510F0B0001616F6151020DD30E18
:10450000F324D96E000EF420DA6EDECF63F0DDCF37
:1045100064F09BEFA2F034510F0B0001616F615109
:10452000020D100EF324D96E000EF420DA6EDECFE9
:1045300063F0DDCF64F063C0D9FF64C0DAFFDFAEA3
:10454000A4EFA2F0A6EFA2F0D1EFA2F063C0D9FFD2
:1045500064C0DAFFDFA4AFEFA2F0B1EFA2F0D1EFB9
:10456000A2F0010E0D01386FD1EFA2F030511F0BF8
:104570000001616F626B6251000AD8B4C2EFA2F011
:10458000D1EFA2F06151000AD8B456EFA2F0010AAF
:10459000D8B463EFA2F0030AD8B466EFA2F0D1EF6B
:1045A000A2F00DAED6EFA2F0D8EFA2F0DFEFA2F0AE
:1045B000380E0A6E0D0E0B6E0D80020E0E6E12007E
:1045C0000D013039E832030B0009D8B4EAEFA2F04C
:1045D000ECEFA2F035EFA3F06EEFA3F00D8E080E16
:1045E0000001F86F6EEFA3F0ABEC9AF06EEFA3F062
:1045F0007DECABF06EEFA3F0FC0E0A6E000E0B6EBE
:104600000D80010E0E6E0D8E6EEFA3F0FAECA3F08E
:104610006EEFA3F060EC8BF06EEFA3F0F90E342593
:104620000A6E0B6A000E0B220D80010E0E6E0D8EAF
:104630006EEFA3F00D8EF90E3425D96EDA6A000EF6
:10464000DA2232CDDFFF6EEFA3F0000E3D6E020ED8
:104650003C6E000E3E6E000E3F6E000E416E000E70
:10466000406E97ECB1F06EEFA3F031514B6E4C6A97
:104670004C50000AD8B43FEFA3F06EEFA3F04B50BC
:10468000000AD8B406EFA3F0010AD8B40AEFA3F0E9
:10469000020AD8B40AEFA3F0060AD8B4EEEFA2F0EB
:1046A000030AD8B4F4EFA2F0010AD8B425EFA3F0BE
:1046B0000F0AD8B4FCEFA2F0010AD8B4F8EFA2F0C8
:1046C000030AD8B40EEFA3F0010AD8B41AEFA3F08E
:1046D000070AD8B46EEFA3F06EEFA3F01200200E1D
:1046E0000001F86176EFA3F078EFA3F08BEFA3F071
:1046F000F451D8A47EEFA3F080EFA3F0F9EFA3F07C
:10470000710EB56FFE0EB66F08ECBCF0010E000125
:10471000F46FF9EFA3F0F405D8A491EFA3F093EFB1
:10472000A3F09CEFA3F07F0EB56FFF0EB66F08EC01
:10473000BCF0020E0001F46F65A2A1EFA3F0A3EF9D
:10474000A3F0ABEFA3F02C0EB56FFF0EB66F08EC25
:10475000BCF0F9EFA3F0F651D8A4B1EFA3F0B3EF9A
:10476000A3F0F7EFA3F0F551D8B4B9EFA3F0BBEF86
:10477000A3F0F7EFA3F0000EC56F000EC525D96EAC
:10478000DA6A020EDA22DF50D8B4C9EFA3F0CBEF19
:10479000A3F0DBEFA3F0000EC525D96EDA6A020E96
:1047A000DA22800EC525E16EE26A020EE222DFCF38
:1047B000E7FFE6EFA3F0800EC525D96EDA6A020E98
:1047C000DA22DF6A000EF56FEFEFA3F0C52B3F0E84
:1047D000C565EDEFA3F0EFEFA3F0BDEFA3F0800E02
:1047E000616F020E626FC5C063F080ECBBF0D1EC6C
:1047F00096F01200000E0D01386F000E396F5CEF5D
:10480000A4F00D8E2B04D8A408EFA4F00AEFA4F0B6
:1048100076EFA4F0388376EFA4F00D8E76EFA4F057
:104820000D8E34510F0B0009D8B419EFA4F01BEF13
:10483000A4F076EFA4F034BF20EFA4F022EFA4F0B0
:1048400033EFA4F034510F0B2E6E2E50020DD30E09
:10485000F324D96E000EF420DA6EDECF30F0DDCF17
:1048600031F042EFA4F034510F0B2E6E2E50020D9A
:10487000100EF324D96E000EF420DA6EDECF30F085
:10488000DDCF31F030C0D9FF31C0DAFFDFAE4BEF02
:10489000A4F04DEFA4F076EFA4F030C0D9FF31C002
:1048A000DAFFDFA456EFA4F058EFA4F076EFA4F0FF
:1048B000010E386F76EFA4F030511F0B2E6E2F6A69
:1048C0002F50000AD8B467EFA4F076EFA4F02E5072
:1048D000000AD8B401EFA4F0010AD8B40DEFA4F097
:1048E000030AD8B410EFA4F076EFA4F00DAE7BEF7E
:1048F000A4F07DEFA4F084EFA4F0380E0A6E0D0E44
:104900000B6E0D80020E0E6E1200080E0001616F1C
:104910000F5007E1080E0E5CD8B091EFA4F093EFB2
:10492000A4F0ABEFA4F00EC061F02D50D8A49BEF23
:10493000A4F09DEFA4F0A1EFA4F0010E2D6EABEF5B
:10494000A4F02D04D8A4A7EFA4F0A9EFA4F0ABEF36
:10495000A4F0020E2D6E61510E5E000E0F5A20EE75
:1049600001F01050D9261150DA2261C0DFFF380E55
:10497000DF6F0D0EE06F0DB0C0EFA4F0C2EFA4F03A
:1049800006EFA5F0E0EFA4F00AC0F6FF0BC0F7FFBA
:10499000000EF86EDFC0D9FFE0C0DAFF0F0EF7643B
:1049A00003D00800F55005D0F6CFE9FFF7CFEAFFB6
:1049B000EF50DF6E0A4A0B2A0001DF4BE02B610744
:1049C0006151D8A4E6EFA4F0E8EFA4F0C4EFA4F09E
:1049D0000EEFA5F00AC0F6FF0BC0F7FF000EF86E51
:1049E000DFC0D9FFE0C0DAFF0F0EF76403D0080084
:1049F000F55005D0F6CFE9FFF7CFEAFFEF50DF6EB5
:104A00000A4A0B2A0001DF4BE02B61076151D8A451
:104A10000CEFA5F00EEFA5F0EAEFA4F01200080EDF
:104A20002E6E0F5007E1080E0E5CD8B01AEFA5F0FD
:104A30001CEFA5F034EFA5F00EC02EF02D50D8A439
:104A400024EFA5F026EFA5F02AEFA5F0010E2D6EBC
:104A500034EFA5F02D04D8A430EFA5F032EFA5F087
:104A600034EFA5F0020E2D6E2E500E5E000E0F5A82
:104A700020EE01F01050D9261150DA222EC0DFFFAF
:104A8000380E0001DF6F0D0EE06F0DB04AEFA5F09C
:104A90004CEFA5F090EFA5F06AEFA5F00AC0F6FF85
:104AA0000BC0F7FF000EF86EDFC0D9FFE0C0DAFFE1
:104AB0000F0EF76403D00800F55005D0F6CFE9FFDC
:104AC000F7CFEAFFEF50DF6E0A4A0B2A0001DF4BF7
:104AD000E02B2E062E50D8A470EFA5F072EFA5F0B3
:104AE0004EEFA5F098EFA5F00AC0F6FF0BC0F7FF58
:104AF000000EF86EDFC0D9FFE0C0DAFF0F0EF764DA
:104B000003D00800F55005D0F6CFE9FFF7CFEAFF54
:104B1000EF50DF6E0A4A0B2A0001DF4BE02B2E0616
:104B20002E50D8A496EFA5F098EFA5F074EFA5F05D
:104B3000120010C0D9FF11C0DAFF000EDFBC010E59
:104B40000001626F040E1018106E1150116E080EE5
:104B5000F819D8A4AEEFA5F0B0EFA5F0C5EFA5F019
:104B60000D0132517F0B0F01386F3851D8B4BBEFB4
:104B7000A5F0BDEFA5F0C2EFA5F0100E0001F86F93
:104B8000C5EFA5F0040E0001F86F2C04D8A4CBEFFC
:104B9000A5F0CDEFA5F015EFA6F020EE02F0105035
:104BA000D9261150DA22380EDE6E0D0EDD6E85EC40
:104BB000A4F0020E2D18D8A4E0EFA5F0E2EFA5F0C6
:104BC000F0EFA5F010C0D9FF11C0DAFF040EDF6EC0
:104BD00010C0D9FF11C0DAFF000EDB8E1FEFA6F068
:104BE00000016251D8A4F7EFA5F0F9EFA5F007EFA7
:104BF000A6F010C0D9FF11C0DAFF480EDF6E10C05A
:104C0000D9FF11C0DAFF000EDB8E1FEFA6F010C037
:104C1000D9FF11C0DAFF080EDF6E10C0D9FF11C036
:104C2000DAFF000EDB8E1FEFA6F004AE1AEFA6F03F
:104C30001CEFA6F01DEFA6F0049E000E2C6E1200D5
:104C400010C0D9FF11C0DAFF000EDFBC010E2F6EBD
:104C5000040E1018106E1150116E080E0001F81994
:104C6000D8A435EFA6F037EFA6F04CEFA6F00D0173
:104C700032517F0B0F01386F3851D8B442EFA6F094
:104C800044EFA6F049EFA6F0100E0001F86F4CEFCC
:104C9000A6F0040E0001F86F2C04D8A452EFA6F081
:104CA00054EFA6F09BEFA6F020EE02F01050D926AC
:104CB0001150DA22380EDE6E0D0EDD6E0FECA5F00F
:104CC000020E2D18D8A467EFA6F069EFA6F077EFD3
:104CD000A6F010C0D9FF11C0DAFF040EDF6E10C0BD
:104CE000D9FF11C0DAFF000EDB8EA5EFA6F02F5022
:104CF000D8A47DEFA6F07FEFA6F08DEFA6F010C050
:104D0000D9FF11C0DAFF480EDF6E10C0D9FF11C005
:104D1000DAFF000EDB8EA5EFA6F010C0D9FF11C0A0
:104D2000DAFF080EDF6E10C0D9FF11C0DAFF000EE7
:104D3000DB8EA5EFA6F004AEA0EFA6F0A2EFA6F0E2
:104D4000A3EFA6F0049E000E2C6E12000001633546
:104D500064356A6F6A51D8A4B0EFA6F0B2EFA6F03E
:104D6000BCEFA6F0000E616F000E626F000E636F65
:104D7000000E646F29EFA7F061C065F062C066F0B5
:104D800063C067F064C068F0200ECCEFA6F0D89046
:104D90006833673366336533E82EC7EFA6F0655195
:104DA000696F638FFF0E6117FF0E6217FF0E6317A7
:104DB000000E6417960E6A5F6ABFE3EFA6F0E1EF9C
:104DC000A6F0F9EFA6F06A51800A970FD8B0EBEF82
:104DD000A6F0EDEFA6F0EFEFA6F0B2EFA6F0D890B8
:104DE00064336333623361336A3FEFEFA6F011EF50
:104DF000A7F01F0E6A65FFEFA6F001EFA7F009EF1D
:104E0000A7F0B2EFA6F0D890613762376337643706
:104E10006A076A51D8A40FEFA7F011EFA7F003EFCC
:104E2000A7F06951D8B417EFA7F019EFA7F021EF59
:104E3000A7F0641F631F621F616D000E622363236E
:104E4000642361C061F062C062F063C063F064C05B
:104E500064F012000D0130511F0BE806D8B433EF97
:104E6000A7F035EFA7F037EFA7F0ADEFA7F0303997
:104E7000E832030BE806D8B440EFA7F042EFA7F002
:104E800044EFA7F0ADEFA7F03451D8B44AEFA7F044
:104E90004CEFA7F08BEFA7F03405D8B452EFA7F092
:104EA00054EFA7F08BEFA7F0ADEFA7F0970E0A6EC7
:104EB000010E0B6E000E0F6E080E0E6E0D800D8E25
:104EC000ADEFA7F0970E0A6E010E0B6E0D8EADEFD3
:104ED000A7F036CD05F037CD06F09F0E016E010E1E
:104EE000026E000E076E000E086E000E096E048E34
:104EF000ADEFA7F09F0E0A6E010E0B6E000E0F6E47
:104F0000070E0E6EC10E0D6EADEFA7F032CD48F15B
:104F10000D8EADEFA7F031510001616F626B6251F0
:104F2000000AD8B496EFA7F0ADEFA7F06151000AE0
:104F3000D8B456EFA7F0010AD8B462EFA7F0210A5F
:104F4000D8B469EFA7F0010AD8B47AEFA7F0030A42
:104F5000D8B486EFA7F0ADEFA7F012000D013051E5
:104F60001F0BE806D8B4B7EFA7F0B9EFA7F0BBEF77
:104F7000A7F030EFA8F03039E832030BE806D8B4D8
:104F8000C4EFA7F0C6EFA7F0C8EFA7F030EFA8F086
:104F90003451D8B4CEEFA7F0D0EFA7F00FEFA8F0C0
:104FA0003405D8B4D6EFA7F0D8EFA7F00FEFA8F0EC
:104FB00030EFA8F0970E0A6E010E0B6E000E0F6E0A
:104FC000080E0E6E0D800D8E30EFA8F0970E0A6E53
:104FD000010E0B6E0D8E30EFA8F036CD05F037CDFB
:104FE00006F09F0E016E010E026E000E076E000E9F
:104FF000086E000E096E048E30EFA8F09F0E0A6E48
:10500000010E0B6E000E0F6E070E0E6EC10E0D6EB2
:1050100030EFA8F032CD48F10D8E30EFA8F03151CD
:105020002E6E2F6A2F50000AD8B419EFA8F030EF77
:10503000A8F02E50000AD8B4DAEFA7F0010AD8B4CD
:10504000E6EFA7F0210AD8B4EDEFA7F0010AD8B433
:10505000FEEFA7F0030AD8B40AEFA8F030EFA8F0EB
:10506000120061C068F062C069F063C06AF064C099
