:0400000013EF00F00A
:060008005B820CEFA8F082
:100018005B80E0CF60F060C0E0FF5B901000ABEF6A
:02002800AEF038
:10F63C00004EF6095CF70516F90146F9E2F8AEF84A
:10F64C006BF80D0A564C3533204D454E5545000090
:10F65C00000000000000000000000000000000009E
:10F66C0020312E564C35335F494E49540000000072
:10F67C00000000000000000000000000000020322C
:10F68C002E434F4E5449494F55532052414E4749F2
:10F69C004E470000000000000000000020332E53F5
:10F6AC00494E474C452052414E47494E47000000B9
:10F6BC000000000000000000000020342E53494ED2
:10F6CC00474C452052414E47494E47204841000087
:10F6DC00000000000000000020352E53494E474C1E
:10F6EC00452052414E47494E4720485300000000E8
:10F6FC0000000000000020362E53494E474C452098
:10F70C0052414E47494E47204C5200000000000029
:10F71C000000000020372E564C35332044617461B4
:10F72C0020444953504C4159000000000000000097
:10F73C00000020722E4558495400000000000000C3
:10F74C0000000000000000000000000000000000AD
:10F75C000D0A5253343835204D454E5545000000A6
:10F76C00000000000000000000000000000020313C
:10F77C002E5258204D4F4445000000000000000060
:10F78C0000000000000000000000000020322E5499
:10F79C0058204D4F444500000000000000000000C0
:10F7AC000000000000000000000020332E4F5645E2
:10F7BC00522052554E204552524F5220434C52002B
:10F7CC00000000000000000020722E455849540033
:10F7DC00000000000000000000000000000000001D
:10F7EC0000000000000000727463000000000000C4
:10F7FC0000017265670000000000000002693263BE
:10F80C000000000000000003766C3533000000009F
:10F81C0000000470623200000000000000056C6FF4
:10F82C006700000000000000066C6F676F666600E2
:10F83C00000000076C6F676F6E0000000000086C22
:10F84C006F67636C72000000000972733438350006
:10F85C00000000000A6E6F6E6500000000000009D9
:10F86C00024300020100C03209040000010202013F
:10F87C0000052400100104240202052406000105E1
:10F88C0024010001070581030A000209040100029A
:10F89C000A00000007050202400000070582024032
:10F8AC000000340343004400430020005200530086
:10F8BC002D00320033003200200045006D00750031
:10F8CC006C006100740069006F006E002000440041
:10F8DC0065006D006F0034034D0069006300720019
:10F8EC006F00630068006900700020005400650020
:10F8FC00630068006E006F006C006F006700790099
:10F90C00200049006E0063002E000D0A525334385B
:10F91C0035205458203D200000000000000000005D
:10F92C0000000000000000001201000202000008AC
:10F93C00D8040A000001010200010403090420504C
:10F94C00494520202020203D203078253032782C4D
:10F95C00203078253032782C203078253032782CB5
:10F96C00203078253032782C203078253032780DC4
:10F97C000A002050495220202020203D203078259C
:10F98C003032782C203078253032782C2030782585
:10F99C003032782C203078253032782C2030782575
:10F9AC003032780D0A002049505220202020203D72
:10F9BC00203078253032782C203078253032782C55
:10F9CC00203078253032782C203078253032782C45
:10F9DC00203078253032780D0A00493D25642C53AF
:10F9EC003D253032782C43313D253032782C433252
:10F9FC003D253032782C42463D253032782020256A
:10FA0C00730D0A00202A20202020202A202A2020C2
:10FA1C00202020202A202A2A2A20202A2020202A9E
:10FA2C00200D0A0D0A00202A20202020202A202028
:10FA3C0020202A20202020202A2A2A20202A202088
:10FA4C00202A200D0A00202A202A202A202A2020C1
:10FA5C00202A202A20202020202A2020202A2A2068
:10FA6C00202A200D0A00202A20202A20202A2020AB
:10FA7C002A2A2A2A2A202020202A2020202A202A2A
:10FA8C00202A200D0A00202A20202020202A202095
:10FA9C002A202020202A2020202A2020202A202032
:10FAAC002A2A200D0A00533D253032782C43313D53
:10FABC00253032782C43323D253032782C42463D6D
:10FACC002530327820002A2A2A204F5343494C4CA7
:10FADC0041544F52202A2A2A2A2A2A2A2A2A2A2AF6
:10FAEC002A0D0A002A2A2A20494E544552525550B2
:10FAFC0054202A2A2A2A2A2A2A2A2A2A2A2A0D0A77
:10FB0C00000D0A2A2A2A205553422D4344432053E0
:10FB1C0065747570202A2A2A0D0A000A2A2A2A20BE
:10FB2C005541525431202A2A2A2A2A2A2A2A2A2A98
:10FB3C002A2A0D0A000A2A2A2A2055415254322018
:10FB4C002A2A2A2A2A2A2A2A2A2A2A2A0D0A00207A
:10FB5C00535042524731202020203D203078253010
:10FB6C003278253032780D0A0020535042524732F9
:10FB7C00202020203D2030782530327825303278F6
:10FB8C000D0A000D0A323025642F25642F256420C0
:10FB9C0025643A25643A25640D0A002A2A2A205045
:10FBAC004F5254202A2A2A2A2A2A2A2A2A2A2A2A3C
:10FBBC000D0A002A2A2A20493243202A2A2A2A2AD4
:10FBCC002A2A2A2A2A2A2A0D0A0049324320726537
:10FBDC00676973746120646973706C61790D0A00D4
:10FBEC00205353503141444420203D20307825305F
:10FBFC0032780D0A0A0020535350324144442020DD
:10FC0C003D203078253032780D0A0A00436F6D6D37
:10FC1C00616E64206E6F7420666F756E642E200D9D
:10FC2C000A002A2A2A2055534152542053657475D0
:10FC3C0070202A2A2A0D0A002052435354413120A5
:10FC4C002020203D203078253032780D0A002054B9
:10FC5C005853544131202020203D2030782530321B
:10FC6C00780D0A0020545853544132202020203D56
:10FC7C00203078253032780D0A00205243535441FD
:10FC8C0033202020203D203078253032780D0A009A
:10FC9C002042415544434F4E3120203D20307825A1
:10FCAC003032780D0A002042415544434F4E3220E9
:10FCBC00203D203078253032780D0A00433D2564F4
:10FCCC002C696E6465783D25642C666C673D2564F3
:10FCDC0020006765746368343835282920646174A2
:10FCEC00613D25780D0A00204F534354554E452055
:10FCFC003D203078253032780D0A0A0020535350BD
:10FD0C0031434F4E31203D203078253032780D0A6A
:10FD1C00002053535032434F4E31203D2030782534
:10FD2C003032780D0A002053535031434F4E32205D
:10FD3C003D203078253032780D0A00205353503254
:10FD4C00434F4E32203D203078253032780D0A005A
:10FD5C00205353503153544154203D20307825309A
:10FD6C0032780D0A00205353503253544154203DE5
:10FD7C00203078253032780D0A00205452495345F2
:10FD8C0020203D203078253032780D0A0A00205290
:10FD9C00434F4E202020203D203078253032780DE6
:10FDAC000A00204F5343434F4E20203D20307825EE
:10FDBC003032780D0A0020494E54434F4E20203DDE
:10FDCC00203078253032780D0A00204F5343434FB2
:10FDDC004E32203D203078253032780D0A002049F3
:10FDEC004E54434F4E32203D203078253032780D22
:10FDFC000A0020494E54434F4E33203D2030782585
:10FE0C003032780D0A006D61696E5F6C6F6F705FD8
:10FE1C006469737028290D0A00496E697469616CF4
:10FE2C00697A6520456E640D0A0D0A00205452490A
:10FE3C00534120203D203078253032780D0A0020A7
:10FE4C00545249534220203D203078253032780DD1
:10FE5C000A0020545249534320203D20307825304D
:10FE6C0032780D0A0020545249534420203D203052
:10FE7C0078253032780D0A00555342204E4F5420CD
:10FE8C00434F4E4543540D0A0025643A25643A25E8
:10FE9C00642025642E2564200020205353503243C7
:10FEAC004F4E313D25780D0A0020205353503243DC
:10FEBC004F4E323D25780D0A0020205353503253BB
:10FECC005441543D25780D0A005750543D25642C5F
:10FEDC005250543D25640D0A0054696D65725F697A
:10FEEC006E697428290D0A00202053535032414466
:10FEFC00443D25780D0A00707574636834383528D4
:10FF0C002578290D0A004C4F47204F4646203D20AE
:10FF1C0025640D0A00525334383520433D30782582
:10FF2C00780D0A00443D25642C696E6465783D2586
:10FF3C006420005553422053555350454E44540DA4
:10FF4C000A0020205353504144443D25780D0A00AB
:10FF5C004C4F47204F4E203D2025640D0A00253084
:10FF6C0032642E253033642E2564200020206661F7
:10FF7C006C73653D25780D0A004352454E20524561
:10FF8C005345540D0A0055534220434F4E4543549C
:10FF9C000D0A002020747275653D25780D0A004C01
:10FFAC004F4720434C4541520D0A002020534441F9
:10FFBC003D25780D0A00202053434C3D25780D0A31
:10FFCC0000427574746F6E310D0A00427574746F53
:10FFDC006E320D0A004C4F472053544F500055536E
:10FFEC00423E2000533D256420006C6C73000820B9
:03FFFC00080000FA
:020000040001F9
:100000002F0E0001B56FFA0EB66FFDECB7F0D50EEE
:100010000001B56FFE0EB66F84C5B7F085C5B8F0A8
:1000200086C5B9F087C5BAF0FDECB7F086C589F191
:1000300087C58AF1000E0101826F000E816F89C1B0
:1000400061F08AC162F0000E0001646F1D0E636FE3
:1000500011ECB8F0440E00016125D96E030E622147
:10006000DA6E0A0EDE18D8A438EF80F03AEF80F08E
:100070004CEF80F089C161F08AC162F0000E646FBC
:100080001D0E636F11ECB8F0440E00016125D96EAE
:10009000030E6221DA6EDF6A89C161F08AC162F003
:1000A000000E646F1D0E636F11ECB8F0410E00017D
:1000B0006125D96E030E6221DA6EDF50C56FC5511E
:1000C0000101876F886B89C161F08AC162F0000EFF
:1000D0000001646F1D0E636F11ECB8F0420E000159
:1000E0006125D96E030E6221DA6EDECF85F1DDCF98
:1000F00086F189C161F08AC162F0000E646F1D0E45
:10010000636F11ECB8F0440E00016125D96E030E47
:100110006221DA6EDF50C56FC5510101836F846BB8
:100120006A0E0001B56FFF0EB66F87C1B7F088C1C8
:10013000B8F085C1B9F086C1BAF083C1BBF084C103
:10014000BCF0FDECB7F001EF82F089C161F08AC12B
:1001500062F0000E646F1D0E636F11ECB8F0590E63
:1001600000016125D96E030E6221DA6EDF50C56F82
:10017000C5510101876F886B89C161F08AC162F046
:10018000000E0001646F1D0E636F11ECB8F05A0E83
:1001900000016125D96E030E6221DA6EDF50C56F52
:1001A000C5510101856F866B89C161F08AC162F01A
:1001B000000E0001646F1D0E636F11ECB8F05B0E52
:1001C00000016125D96E030E6221DA6EDF50C56F22
:1001D000C5510101836F846B89C161F08AC162F0EE
:1001E000000E0001646F1D0E636F11ECB8F05C0E21
:1001F00000016125D96E030E6221DA6EDF50C56FF2
:10020000C55101017F6F806BB20E0001B56FFA0E10
:10021000B66F87C1B7F088C1B8F085C1B9F086C1A3
:10022000BAF083C1BBF084C1BCF07FC1BDF080C116
:10023000BEF0FDECB7F038EF82F089C161F08AC101
:1002400062F0000E646F1D0E636F11ECB8F0590E72
:1002500000016125D96E030E6221DA6EDF50C56F91
:10026000C5510101876F886BF00E0001B56FFF0E5D
:10027000B66F87C1B7F088C1B8F0FDECB7F038EFC2
:1002800082F089C161F08AC162F0000E646F1D0EB8
:10029000636F11ECB8F0590E00016125D96E030EA1
:1002A0006221DA6EDF50C56FC5510101876F886B1F
:1002B00089C161F08AC162F0000E0001646F1D0EF9
:1002C000636F11ECB8F05A0E00016125D96E030E70
:1002D0006221DA6EDF50C56FC5510101856F866BF3
:1002E00089C161F08AC162F0000E0001646F1D0EC9
:1002F000636F11ECB8F05B0E00016125D96E030E3F
:100300006221DA6EDF50C56FC5510101836F846BC6
:10031000C80E0001B56FFC0EB66F87C1B7F088C17B
:10032000B8F085C1B9F086C1BAF083C1BBF084C111
:10033000BCF0FDECB7F038EF82F089C161F08AC102
:1003400062F0000E646F1D0E636F11ECB8F0590E71
:1003500000016125D96E030E6221DA6EDF50C56F90
:10036000C5510101876F886B89C161F08AC162F054
:10037000000E0001646F1D0E636F11ECB8F05A0E91
:1003800000016125D96E030E6221DA6EDF50C56F60
:10039000C5510101856F866B300E0001B56FFF0EF0
:1003A000B66F87C1B7F088C1B8F085C1B9F086C112
:1003B000BAF0FDECB7F038EF82F089C161F08AC184
:1003C00062F0000E646F1D0E636F11ECB8F0590EF1
:1003D00000016125D96E030E6221DA6EDF50C56F10
:1003E000C5510101876F886B350E0001B56FFF0E97
:1003F000B66F87C1B7F088C1B8F0FDECB7F038EF41
:1004000082F089C161F08AC162F0000E0001646F60
:100410001D0E636F11ECB8F0400E00016125D96E1E
:10042000030E6221DA6EDF50C56FC66BC651000A3B
:10043000D8B41DEF82F038EF82F0C551000AD8B46D
:10044000A5EF80F0010AD8B41DEF81F0030AD8B4FB
:1004500041EF81F0010AD8B49DEF81F0070AD8B4CA
:10046000DDEF81F0010AD8B438EF82F038EF82F086
:1004700089C161F08AC162F0000E0001646F1D0E37
:10048000636F11ECB8F0450E000161250101876F23
:10049000030E000162210101886F0B0E0001B56F90
:1004A000FA0EB66F87C1B7F088C1B8F0FDECB7F0AF
:1004B0000101894B8A2B8A5109E1150E895DD8A06B
:1004C00064EF82F066EF82F06AEF82F0000E8A6FCE
:1004D000000E896F25EE84F08951DE1807E18A51FC
:1004E000DE18D8A476EF82F078EF82F07AEF82F00F
:1004F00087EF82F0814B822B825109E1140E815DDE
:10050000D8A085EF82F087EF82F01FEF80F0120015
:10051000010E00016D6F000E6F6F000E6E6F6AC0EE
:10052000D9FF6BC0DAFFDE6ADD6A68C0D9FF69C037
:10053000DAFF300EDE18D8A4A0EF82F0A2EF82F02E
:10054000C5EF83F020EE01F06851D9266951DA2217
:10055000780EDE18D8A4AFEF82F0B1EF82F0C5EFCD
:1005600083F0020E706F70516825D96E000E6921FC
:10057000DA6EDF50D8A4BFEF82F0C1EF82F0C3EF94
:1005800082F03EEF83F070516825D96E000E69212C
:10059000DA6E600EDF64CFEF82F0D1EF82F0DFEF32
:1005A00082F070516825D96E000E6921DA6E660EF0
:1005B000DF64DDEF82F0DFEF82F017EF83F0705140
:1005C0006825D96E000E6921DA6E400EDF64EBEF0C
:1005D00082F0EDEF82F0FBEF82F070516825D96E6A
:1005E000000E6921DA6E460EDF64F9EF82F0FBEF50
:1005F00082F017EF83F070516825D96E000E6921E3
:10060000DA6E2F0EDF6407EF83F009EF83F031EF2E
:1006100083F070516825D96E000E6921DA6E3A0EAA
:10062000DF6015EF83F017EF83F031EF83F06E5149
:100630006F11D8A41EEF83F020EF83F026EF83F034
:10064000000E6F6F010E6E6F35EF83F06E3B6F3BE8
:10065000F00E6F176E510F0B6F13F00E6E1735EF14
:1006600083F0000E6D6F3EEF83F0702B070E706508
:100670003CEF83F03EEF83F0B3EF82F06D05D8A43A
:1006800044EF83F046EF83F06EEF84F0020E706F5C
:1006900070516825D96E000E6921DA6EDF50D8A43A
:1006A00054EF83F056EF83F058EF83F06EEF84F051
:1006B00070516825D96E000E6921DA6E2F0EDF6445
:1006C00064EF83F066EF83F092EF83F0705168255A
:1006D000D96E000E6921DA6E3A0EDF6072EF83F098
:1006E00074EF83F092EF83F070516825D96E000E9D
:1006F0006921DA6EDF506C6F0F0E6C176C51616FF1
:10070000626B6EC063F06FC064F011ECB8F06AC049
:10071000D9FF6BC0DAFF00016151DE266251DD2294
:10072000B1EF83F070516825D96E000E6921DA6E41
:10073000DF506C6F0F0E6C17090E6C25616F626BCA
:10074000000E62236EC063F06FC064F011ECB8F06D
:100750006AC0D9FF6BC0DAFF00016151DE26625129
:10076000DD226E3B6F3B0F0E6E176F51F00B6E1359
:100770000F0E6F17702B070E7065C1EF83F0C3EF7C
:1007800083F048EF83F06EEF84F0000E706F7051CD
:100790006825D96E000E6921DA6EDF50D8A4D3EF38
:1007A00083F0D5EF83F0D7EF83F020EF84F0705122
:1007B0006825D96E000E6921DA6E2F0EDF64E3EF33
:1007C00083F0E5EF83F012EF84F070516825D96E65
:1007D000000E6921DA6E3A0EDF60F1EF83F0F3EF7D
:1007E00083F012EF84F06E516F11D8A4FAEF83F00A
:1007F000FCEF83F002EF84F0000E6F6F010E6E6F5E
:1008000016EF84F06EC061F06FC062F0000E646F8E
:100810000A0E636F11ECB8F061C06EF062C06FF049
:1008200016EF84F0000E6D6F20EF84F00001702B46
:10083000070E70651EEF84F020EF84F0C7EF83F0A1
:100840006D05D8A426EF84F028EF84F06EEF84F0D5
:10085000000E706F70516825D96E000E6921DA6E36
:10086000DF50D8A436EF84F038EF84F03AEF84F00C
:100870006EEF84F070516825D96E000E6921DA6E32
:10088000DF506C6F0F0E6C176C51616F626B6EC036
:1008900063F06FC064F011ECB8F06AC0D9FF6BC0B0
:1008A000DAFF00016151DE266251DD226EC061F087
:1008B0006FC062F0000E646F0A0E636F9FECB0F0C1
:1008C00061C06EF062C06FF00001702B070E7065A2
:1008D0006CEF84F06EEF84F02AEF84F012000D01CB
:1008E0003205D8A476EF84F078EF84F092EF84F0AC
:1008F00030511F0B0009D8A480EF84F082EF84F000
:1009000092EF84F03A8E030E3119D8A48AEF84F066
:100910008CEF84F090EF84F0010E576E92EF84F02C
:10092000000E576E3251D8A498EF84F09AEF84F0FD
:1009300029EF86F030511F0B020AD8A4A2EF84F0F1
:10094000A4EF84F029EF86F034510F0B0009D8B4DE
:10095000ACEF84F0AEEF84F029EF86F034510F0B4A
:100960000001776F030E7761B8EF84F0BAEF84F07F
:1009700029EF86F0200EF219D8A4C1EF84F0C3EF5E
:1009800084F029EF86F03A8E0D0134BFCAEF84F06F
:10099000CCEF84F0ECEF84F034510F0B0001776F53
:1009A0007751020DCF0EF324D96E000EF420DA6ECB
:1009B000DECF7CF0DDCF7DF00D0134510F0B000157
:1009C000776F786B430E7725D96E000E7821DA6E3B
:1009D000DF507B6F0AEF85F034510F0B0001776F0A
:1009E0007751020D3D0EF324D96E000EF420DA6E1D
:1009F000DECF7CF0DDCF7DF00D0134510F0B000117
:100A0000776F786B460E7725D96E000E7821DA6EF7
:100A1000DF507B6F7BB10FEF85F011EF85F019EFA1
:100A200085F0FB0E7C157C6FFF0E7D157D6F1EEF34
:100A300085F0040E7C117C6F7D517D6F0D0134BFFC
:100A400024EF85F026EF85F038EF85F034510F0B59
:100A50000001776F7751020DCF0EF324D96E000E8F
:100A6000F420DA6E7CC0DEFF7DC0DDFF48EF85F04C
:100A700034510F0B0001776F7751020D3D0EF324B7
:100A8000D96E000EF420DA6E7CC0DEFF7DC0DDFF83
:100A9000030E0D013119D8A450EF85F052EF85F007
:100AA0008EEF85F07CC0D9FF7DC0DAFF0001DFAE9C
:100AB0005CEF85F05EEF85F080EF85F00D0134BFCF
:100AC00064EF85F066EF85F074EF85F034510F0B1D
:100AD0000001776F786B430E7725D96E000E782171
:100AE000DA6EDF8280EF85F034510F0B0001776FF3
:100AF000786B460E7725D96E000E7821DA6EDF828C
:100B00007CC0D9FF7DC0DAFF000EDB847CC0D9FF3A
:100B10007DC0DAFF000EDB8E29EF86F0040E0001A7
:100B20007C197C6F7D517D6F7CC0D9FF7DC0DAFF61
:100B3000DFAE9DEF85F09FEF85F0BBEF85F07CC0C9
:100B4000D9FF7DC0DAFF7F0EDF167CC0D9FF7DC0E4
:100B5000DAFF000EDB8C000E706F050E6F6F7CC02D
:100B600071F07DC072F0000E746F020E736F45EC71
:100B7000ACF0C1EF85F07CC0D9FF7DC0DAFF000E7C
:100B8000DB8C040E00017C197C6F7D517D6F7BB383
:100B9000CCEF85F0CEEF85F0D9EF85F07CC0D9FFA2
:100BA0007DC0DAFFDFAED7EF85F0D9EF85F011EF2A
:100BB00086F00D0134BFDFEF85F0E1EF85F0EFEF58
:100BC00085F034510F0B0001776F786B430E77255A
:100BD000D96E000E7821DA6EDF92FBEF85F034518A
:100BE0000F0B0001776F786B460E7725D96E000EDC
:100BF0007821DA6EDF927CC0D9FF7DC0DAFF3B0E30
:100C0000DF16000E706F050E6F6F7CC071F07DC037
:100C100072F0000E746F020E736F45ECACF017EFBC
:100C200086F07CC0D9FF7DC0DAFF3B0EDF160D01D8
:100C300034510F0B0001776F786B260E7725796F93
:100C40000F0E78217A6F79C0D9FF7AC0DAFFFE0ED5
:100C5000DF1612009DC0D9FF9EC0DAFFDECFF6FF7F
:100C6000DDCFF7FF000EF86E0800F550250AD8A476
:100C70003CEF86F03EEF86F0CDEF87F09DC0D9FFC8
:100C80009EC0DAFFDE2A000EDD22000E0001D66FC4
:100C9000000ED56FD5C0E1F0D769D869000EA46FFA
:100CA000000EA36F80EF86F0E1839DC0D9FF9EC048
:100CB000DAFFDE2A000EDD2280EF86F0000EA46F40
:100CC000010EA36F80EF86F09DC0D9FF9EC0DAFFB2
:100CD000DECFF6FFDDCFF7FF000EF86E0800F5500F
:100CE000A16FA26BA251000AD8B479EF86F05EEF33
:100CF00086F0A151300AD8B454EF86F05EEF86F04A
:100D0000A351A411D8B487EF86F089EF86F064EF81
:100D100086F09DC067F09EC068F09FC069F0A0C0DB
:100D20006AF0E1ECA8F067C0D5F068C0D6F0000129
:100D3000D6BF9FEF86F09DEF86F0A4EF86F0E181AD
:100D4000D56DD61FD8B0D62B9DC0D9FF9EC0DAFF77
:100D5000DECFABF0DDCFACF0ABC0F6FFACC0F7FF41
:100D6000000EF86E0800F550640AD8B4BAEF86F0A9
:100D7000BCEF86F0CCEF86F0ABC0F6FFACC0F7FF5F
:100D8000000EF86E0800F550690AD8A4CAEF86F084
:100D9000CCEF86F0FAEF86F09FC0D9FFA0C0DAFF53
:100DA000DFCFA1F0020EDE26DFCFA2F0000EDD22A3
:100DB000A1C0D9FFA2C0DAFFDECFA7F0DDCFA8F037
:100DC000010EAB25A16F000EAC21A26F9DC0D9FF13
:100DD0009EC0DAFFA1C0DEFFA2C0DDFF9BC08BF08A
:100DE0009CC08CF0A7C08DF0A8C08EF08FEC92F064
:100DF000E4EF87F0ABC0F6FFACC0F7FF000EF86E73
:100E00000800F550780AD8A408EF87F00AEF87F0B9
:100E100052EF87F09FC0D9FFA0C0DAFFDFCFA1F06B
:100E2000020EDE26DFCFA2F0000EDD22A1C0D9FF28
:100E3000A2C0DAFFDECFA7F0DDCFA8F0010EAB2510
:100E4000A16F000EAC21A26F9DC0D9FF9EC0DAFF3A
:100E5000A1C0DEFFA2C0DDFF3AEF87F09BC08BF0A0
:100E60009CC08CF0A7C08DF0A8C08EF009EC98F063
:100E7000E4EF87F0ABC0F6FFACC0F7FF000EF86EF2
:100E80000800F550A16FA26BA251000AD8B44BEF35
:100E900087F052EF87F0A151780AD8B42EEF87F08F
:100EA00052EF87F09DC0D9FF9EC0DAFFDECFF6FF7C
:100EB000DDCFF7FF000EF86E0800F550730AD8B4C6
:100EC00064EF87F066EF87F082EF87F09DC0D9FF6F
:100ED0009EC0DAFFDECF61F0DDCF62F0F60E636F09
:100EE000FF0E646F000E666F030E656F52ECA4F088
:100EF000000161516211D8A480EF87F082EF87F082
:100F0000C4EF87F09DC0D9FF9EC0DAFFDECFF6FFA9
:100F1000DDCFF7FF000EF86E0800F550730AD8B465
:100F200094EF87F096EF87F09CEF87F0000EA66FA6
:100F3000030EA56FA0EF87F0000EA66F010EA56F40
:100F40009DC0D9FF9EC0DAFFA551DE26A651DD2245
:100F50009BC079F09CC07AF09FC0D9FFA0C0DAFF97
:100F6000DFCFA1F0020EDE26DFCFA2F0000EDD22E1
:100F7000A1C0D9FFA2C0DAFFDECF7BF0DDCF7CF0CD
:100F80004BEC94F0E4EF87F09DC0D9FF9EC0DAFFF0
:100F9000DE2A000EDD22E4EF87F09DC0D9FF9EC05F
:100FA000DAFFDECFF6FFDDCFF7FF000EF86E0800A8
:100FB000F5500001706F716B9BC072F09CC073F0B4
:100FC0004AECA9F0C4EF87F01200F5ECB6F000018E
:100FD0007051CA6FCA51D8B4F0EF87F0F2EF87F0C2
:100FE0008DEF89F078EF89F0000EE06F000EDF6F73
:100FF000010EEA6FE00ECA25C56FC66BFF0EC62351
:10100000C65107E15F0EC55DD8B009EF88F00BEF60
:1010100088F028EF88F0E0BF19EF88F0E05107E191
:101020000F0EDF5DD8B017EF88F019EF88F028EFCA
:1010300088F0330EDF25D96E010EE021DA6ECAC0CA
:10104000DFFFDF4BE02BCA5175ECAAF08DEF89F082
:10105000080ECA19D8A42FEF88F031EF88F049EFB5
:1010600088F0E0BF3CEF88F0E05108E1DF05D8A050
:101070003CEF88F03EEF88F049EF88F0DF07D8A01A
:10108000E007FA0EB56FFF0EB66FFDECB7F08DEF0F
:1010900089F00D0ECA19D8A450EF88F052EF88F0ED
:1010A00076EF89F0330EDF25D96E010EE021DA6E7E
:1010B000DF6A2F0EB56FFA0EB66FFDECB7F0020EB9
:1010C0000001EA6F000EC76F000E0101436F000EB2
:1010D0004B6F000E546F000E536F000E566F000ED4
:1010E000556F000E0001C96F000EC86F000ECC6F67
:1010F000000ECB6F330ECB25D96E010ECC21DA6EEC
:10110000DF50D8A486EF88F088EF88F0B7EF88F03A
:101110009EEF88F0430EC825D96E010EC921DA6E04
:10112000DF6AC84BC92B5FEF89F04B0EC825D96E1B
:10113000010EC921DA6EDF6A5FEF89F0C751C56F12
:10114000C66BC651000AD8B4A8EF88F05FEF89F0EB
:10115000C551000AD8B45FEF89F0010AD8B48AEF0C
:1011600088F0030AD8B495EF88F05FEF89F0330E6A
:10117000CB25D96E010ECC21DA6E200EDE18D8A454
:10118000C4EF88F0C6EF88F038EF89F0FDEF88F003
:10119000330ECB25D96E010ECC21DA6EDF6AC72B58
:1011A00051EF89F001014351D8B4D9EF88F0DBEF5A
:1011B00088F051EF89F0430E0001C825D96E010E69
:1011C000C921DA6EDF6AC72B000EC96F000EC86F27
:1011D00051EF89F001014B51D8B4F1EF88F0F3EFF2
:1011E00088F051EF89F04B0E0001C825D96E010E31
:1011F000C921DA6EDF6A51EF89F0C751C56FC66B3E
:10120000C651000AD8B407EF89F051EF89F0C551F3
:10121000000AD8B4C8EF88F0010AD8B4D2EF88F039
:10122000030AD8B4EAEF88F051EF89F0330ECB25EA
:10123000D96E010ECC21DA6E430EC825E16E010E87
:10124000C921E26EDFCFE7FFC84BC92B51EF89F010
:10125000330ECB25D96E010ECC21DA6E4B0EC8258C
:10126000E16E010EC921E26EDFCFE7FF24EF89F0C6
:10127000C751C56FC66BC651000AD8B442EF89F09A
:1012800051EF89F0C551000AD8B451EF89F0010A35
:10129000D8B416EF89F0030AD8B428EF89F051EFDB
:1012A00089F00001CB4BCC2BCC5109E1100ECB5D6A
:1012B000D8A05DEF89F05FEF89F07AEF88F0430EF8
:1012C000686F010E696F530E6A6F010E6B6F88ECC9
:1012D00082F04B0E0001686F010E696F550E6A6F48
:1012E000010E6B6F88EC82F08DEF89F08DEF89F045
:1012F000EA51C56FC66BC651000AD8B482EF89F0B7
:101300008DEF89F0C551000AD8B4F4EF87F0010AD7
:10131000D8B4FAEF87F08DEF89F00001EA5112009E
:101320000D013205D8A497EF89F099EF89F0B3EF5A
:1013300089F030511F0B0009D8A4A1EF89F0A3EF69
:1013400089F0B3EF89F03A8E030E3119D8A4ABEFD0
:1013500089F0ADEF89F0B1EF89F0010E576EB3EF70
:1013600089F0000E576E3251D8A4B9EF89F0BBEF67
:1013700089F037EF8BF030511F0B020AD8A4C3EF6E
:1013800089F0C5EF89F037EF8BF034510F0B00096E
:10139000D8B4CDEF89F0CFEF89F037EF8BF034512F
:1013A0000F0B176E030E1760D8EF89F0DAEF89F094
:1013B00037EF8BF0200E0001F219D8A4E2EF89F08C
:1013C000E4EF89F037EF8BF03A8E0D0134BFEBEF8D
:1013D00089F0EDEF89F00AEF8AF034510F0B176EA8
:1013E0001750020DCF0EF324D96E000EF420DA6EE2
:1013F000DECF1CF0DDCF1DF034510F0B176E186AD5
:10140000430E1724D96E000E1820DA6EDF501B6EC3
:1014100025EF8AF034510F0B176E1750020D3D0E59
:10142000F324D96E000EF420DA6EDECF1CF0DDCF8F
:101430001DF034510F0B176E186A460E1724D96E23
:10144000000E1820DA6EDF501B6E1BB02AEF8AF0F8
:101450002CEF8AF034EF8AF0FB0E1C141C6EFF0E8A
:101460001D141D6E39EF8AF0040E1C101C6E1D50E9
:101470001D6E34BF3EEF8AF040EF8AF051EF8AF0E4
:1014800034510F0B176E1750020DCF0EF324D96E87
:10149000000EF420DA6E1CC0DEFF1DC0DDFF60EF21
:1014A0008AF034510F0B176E1750020D3D0EF324C6
:1014B000D96E000EF420DA6E1CC0DEFF1DC0DDFF09
:1014C000030E3119D8A467EF8AF069EF8AF0A1EF13
:1014D0008AF01CC0D9FF1DC0DAFFDFAE72EF8AF0C0
:1014E00074EF8AF093EF8AF034BF79EF8AF07BEFE4
:1014F0008AF088EF8AF034510F0B176E186A430E8A
:101500001724D96E000E1820DA6EDF8293EF8AF06E
:1015100034510F0B176E186A460E1724D96E000E41
:101520001820DA6EDF821CC0D9FF1DC0DAFF000E62
:10153000DB841CC0D9FF1DC0DAFF000EDB8E37EF45
:101540008BF0040E1C181C6E1D501D6E1CC0D9FFA4
:101550001DC0DAFFDFAEAFEF8AF0B1EF8AF0CDEF5A
:101560008AF01CC0D9FF1DC0DAFF7F0EDF161CC039
:10157000D9FF1DC0DAFF000EDB8C000E106E050EC9
:101580000F6E1CC011F01DC012F0000E146E020E82
:10159000136E4FECADF0D3EF8AF01CC0D9FF1DC025
:1015A000DAFF000EDB8C040E1C181C6E1D501D6E25
:1015B0001BB2DDEF8AF0DFEF8AF0EAEF8AF01CC0A1
:1015C000D9FF1DC0DAFFDFAEE8EF8AF0EAEF8AF05C
:1015D00020EF8BF00D0134BFF0EF8AF0F2EF8AF0CC
:1015E000FFEF8AF034510F0B176E186A430E172461
:1015F000D96E000E1820DA6EDF920AEF8BF03451AC
:101600000F0B176E186A460E1724D96E000E18209D
:10161000DA6EDF921CC0D9FF1DC0DAFF3B0EDF1669
:10162000000E106E050E0F6E1CC011F01DC012F0E2
:10163000000E146E020E136E4FECADF026EF8BF021
:101640001CC0D9FF1DC0DAFF3B0EDF160D0134515F
:101650000F0B176E186A260E1724196E0F0E18201E
:101660001A6E19C0D9FF1AC0DAFFFE0EDF1612007B
:101670002F0E0001B56FFA0EB66FFDECB7F0BF0E7E
:101680000001B56FFB0EB66FFDECB7F05C0E00010C
:10169000B56FFD0EB66FC7CFB7F0B86BFDECB7F006
:1016A000080E0001B56FFD0EB66FC6CFB7F0B86B70
:1016B000FDECB7F0320E0001B56FFD0EB66FC5CF71
:1016C000B7F0B86BFDECB7F0EC0E0001B56FFB0E98
:1016D000B66FC8CFB7F0B86BFDECB7F0710E000174
:1016E000B56FFD0EB66F73CFB7F0B86BFDECB7F00A
:1016F0001D0E0001B56FFD0EB66F72CFB7F0B86B5F
:10170000FDECB7F0470E0001B56FFD0EB66F71CF5F
:10171000B7F0B86BFDECB7F0020E0001B56FFC0E30
:10172000B66F74CFB7F0B86BFDECB7F0A70E000141
:10173000B56FFB0EB66FFDECB7F0380E0001B56F5C
:10174000FE0EB66F92CFB7F0B86BFDECB7F04B0E54
:101750000001B56FFE0EB66F93CFB7F0B86BFDEC1E
:10176000B7F05E0E0001B56FFE0EB66F94CFB7F006
:10177000B86BFDECB7F0710E0001B56FFE0EB66FE1
:1017800095CFB7F0B86BFDECB7F0860E0001B56FE2
:10179000FD0EB66F96CFB7F0B86BFDECB7F0D20E7A
:1017A0000001B56FFA0EB66FFDECB7F0AE0E00019A
:1017B000B56FFD0EB66FD3CFB7F0B86BFDECB7F0D9
:1017C000D60E0001B56FFD0EB66F87CFB7F0B86BC0
:1017D000FDECB7F0F30E0001B56FFC0EB66F9BCFBA
:1017E000B7F0B86BFDECB7F0F00E0001B56FFA0E74
:1017F000B66FFDECB7F09A0E0001B56FFD0EB66F37
:10180000D0CFB7F0B86BFDECB7F0C20E0001B56FEA
:10181000FD0EB66FF2CFB7F0B86BFDECB7F0EA0E85
:101820000001B56FFD0EB66FF1CFB7F0B86BFDECF0
:10183000B7F0FE0E0001B56FFD0EB66FF0CFB7F03A
:10184000B86BFDECB7F07E0E0001B56FF90EB66F08
:101850009ECFB7F0B86BA1CFB9F0BA6BA4CFBBF0F5
:10186000BC6B8FCFBDF0BE6B98CFBFF0C06BFDECF3
:10187000B7F04A0E0001B56FF90EB66F9DCFB7F005
:10188000B86BA0CFB9F0BA6BA3CFBBF0BC6B8ECF57
:10189000BDF0BE6B91CFBFF0C06BFDECB7F0B20EE8
:1018A0000001B56FF90EB66F9FCFB7F0B86BA2CF3E
:1018B000B9F0BA6BA5CFBBF0BC6B90CFBDF0BE6BDF
:1018C00099CFBFF0C06BFDECB7F0270E0001B56FEC
:1018D000FB0EB66FFDECB7F05A0E0001B56FFC0EB3
:1018E000B66FADCFB7F0B86BFDECB7F0440E0001AA
:1018F000B56FFC0EB66FACCFB7F0B86BFDECB7F0C0
:101900009C0E0001B56FFC0EB66F7ECFB7F0B86BC2
:10191000FDECB7F05B0E0001B56FFB0EB66F7FCF2D
:10192000B7F0B86BB0CFB9F0BA6BFDECB7F0410EC1
:101930000001B56FFB0EB66FFDECB7F0700E000145
:10194000B56FFC0EB66FA8CFB7F0B86BFDECB7F073
:10195000860E0001B56FFC0EB66F9CCFB7F0B86B6A
:10196000FDECB7F0B20E0001B56FFC0EB66F7CCF88
:10197000B7F0B86BFDECB7F0750E0001B56FFB0E5C
:10198000B66F7DCFB7F0B86BABCFB9F0BA6BFDECEB
:10199000B7F012000001716F0001EB51D8B4D3EF22
:1019A0008CF0D5EF8CF0D7EF8CF03DEF8EF0ED5151
:1019B000D8A4DDEF8CF0DFEF8CF0D7EF8CF0010EC8
:1019C000ED6F84C561F085C562F0000E646F1D0E79
:1019D000636F11ECB8F0410E00016125D96E030E62
:1019E0006221DA6EEBECB8F0DF6E84C561F085C57C
:1019F00062F0000E0001646F1D0E636F11ECB8F011
:101A0000420E00016125D96E030E6221DA6EDBEC15
:101A1000B8F0000161C0DEFF62C0DDFF84C561F087
:101A200085C562F0000E646F1D0E636F11ECB8F097
:101A3000440E00016125D96E030E6221DA6EE8ECD6
:101A4000B8F0DF6E84C561F085C562F0000E00015C
:101A5000646F1D0E636F11ECB8F0590E0001612523
:101A6000D96E030E6221DA6E69C0DFFF84C561F0B2
:101A700085C562F0000E646F1D0E636F11ECB8F047
:101A80005A0E00016125D96E030E6221DA6E6AC01A
:101A9000DFFF84C561F085C562F0000E646F1D0E26
:101AA000636F11ECB8F05B0E00016125D96E030E77
:101AB0006221DA6E6BC0DFFF84C561F085C562F01C
:101AC000000E646F1D0E636F11ECB8F05C0E000128
:101AD0006125D96E030E6221DA6E6CC0DFFF84C50A
:101AE00061F085C562F0000E646F1D0E636F11EC2E
:101AF000B8F0400E00016125D96E030E6221DA6E46
:101B000071C0DFFF000E736F000E726FD1EF8DF0AA
:101B100067C0F6FF68C0F7FF000EF86E84C561F07D
:101B200085C562F0000E646F1D0E636F11ECB8F096
:101B3000450E000161256D6F030E62216E6F7251BB
:101B40006D25D96E73516E21DA6E0800F5CFDFFF77
:101B5000735109E1150E725DD8A0B1EF8DF0B3EFAE
:101B60008DF0CDEF8DF084C561F085C562F0000E7B
:101B7000646F1D0E636F11ECB8F0450E0001612516
:101B80006D6F030E62216E6F72516D25D96E7351A8
:101B90006E21DA6EDF6AE1EF8DF0724B732B674BCB
:101BA000682B67C0F6FF68C0F7FF000EF86E0800EC
:101BB000F5500009D8A4DFEF8DF0E1EF8DF088EF4C
:101BC0008DF084C561F085C562F0000E646F1D0E56
:101BD000636F11ECB8F0450E000161256D6F030EC7
:101BE00062216E6F72516D25D96E73516E21DA6E5E
:101BF000DF6A25EE84F0DE2A000EDD2225EE84F079
:101C0000010EDB5009E1150EDE5CD8A00AEF8EF064
:101C10000CEF8EF012EF8EF0000EE8CF84F5000E80
:101C2000E8CF85F525EE86F015EE84F0DE50E61857
:101C300007E1DE50E618D8A420EF8EF022EF8EF0F8
:101C40003BEF8EF025EE86F0DE2A000EDD2225EE3B
:101C500086F0010EDB5009E1150EDE5CD8A033EFF3
:101C60008EF035EF8EF03BEF8EF0000EE8CF86F56C
:101C7000000EE8CF87F5000EED6F12000001F205AF
:101C8000D8A445EF8EF047EF8EF056EF8EF065BA90
:101C90004CEF8EF04EEF8EF056EF8EF0000E626E2F
:101CA0000F0136813689020E0001F26F62A45BEFEC
:101CB0008EF05DEF8EF068EF8EF00F0136A563EFCA
:101CC0008EF065EF8EF068EF8EF062949CECB5F0CC
:101CD00065A26DEF8EF06FEF8EF072EF8EF0A1982F
:101CE00060EF8FF062A077EF8EF079EF8EF088EFE3
:101CF0008EF00F0136A17FEF8EF081EF8EF088EF2E
:101D00008EF0B6EC98F0A088040E0001F26F62909D
:101D100062A88DEF8EF08FEF8EF099EF8EF00F01AD
:101D200036A995EF8EF097EF8EF099EF8EF061EC7B
:101D3000B7F062AC9EEF8EF0A0EF8EF0CEEF8EF09B
:101D40000F0136ADA6EF8EF0A8EF8EF0B7EF8EF054
:101D5000000E0001706F730E6F6F000E716F000E3A
:101D6000726F000E746F010E736F45ECACF0629CE5
:101D70002DECB7F00001E551D8B4C1EF8EF0C3EF00
:101D80008EF0C4EF8EF0E507E551D8A4CAEF8EF0CF
:101D9000CCEF8EF0CEEF8EF0C4ECA5F062AAD3EFBC
:101DA0008EF0D5EF8EF0DFEF8EF00F0136ABDBEF6C
:101DB0008EF0DDEF8EF0DFEF8EF0CCECB2F062A2B1
:101DC000E4EF8EF0E6EF8EF0FEEF8EF00F0136A31B
:101DD000ECEF8EF0EEEF8EF0FEEF8EF07F0E000156
:101DE000706F6F69000E716F000E726F000E746F6E
:101DF000010E736F45ECACF0000E636E040E000133
:101E0000F26105EF8FF007EF8FF00AEF8FF0A198E6
:101E100060EF8FF00F0136A710EF8FF012EF8FF009
:101E20005FEF8FF0000E0001816F62A61AEF8FF056
:101E30001CEF8FF05FEF8FF064CFFCF0FC31E832E5
:101E4000E8320F0BE66F6296FCB529EF8FF02BEFAF
:101E50008FF034EF8FF0430EE625D96EDA6A000E6C
:101E6000DA22DF703BEF8FF0460EE625D96EDA6A94
:101E7000000EDA22DF70E651D8A441EF8FF043EF75
:101E80008FF047EF8FF0D5ECAAF055EF8FF0000EF2
:101E9000706F720E6F6FFC0E716F000E726F000E1E
:101EA000746F000E736F45ECACF00001812B030ED4
:101EB00081655DEF8FF05FEF8FF015EF8FF0A198E8
:101EC00012000001F205D8A468EF8FF06AEF8FF0DE
:101ED00079EF8FF065BA6FEF8FF071EF8FF079EFD8
:101EE0008FF0000E626E0F0136813689020E0001FE
:101EF000F26F62A47EEF8FF080EF8FF08BEF8FF0A8
:101F00000F0136A586EF8FF088EF8FF08BEF8FF003
:101F100062943EECB6F065A290EF8FF092EF8FF0F6
:101F200095EF8FF0A19880EF90F062A09AEF8FF07C
:101F30009CEF8FF0ABEF8FF00F0136A1A2EF8FF087
:101F4000A4EF8FF0ABEF8FF05DEC99F0A088040E5A
:101F50000001F26F629062A8B0EF8FF0B2EF8FF0E5
:101F6000BCEF8FF00F0136A9B8EF8FF0BAEF8FF00A
:101F7000BCEF8FF090ECB7F062ACC1EF8FF0C3EF25
:101F80008FF0F0EF8FF00F0136ADC9EF8FF0CBEF90
:101F90008FF0D9EF8FF0000E106E730E0F6E000EE3
:101FA000116E000E126E000E146E010E136E4FECC9
:101FB000ADF0629C47ECB7F00001E551D8B4E3EF17
:101FC0008FF0E5EF8FF0E6EF8FF0E507E551D8A44D
:101FD000ECEF8FF0EEEF8FF0F0EF8FF03BECA6F030
:101FE00062AAF5EF8FF0F7EF8FF001EF90F00F019D
:101FF00036ABFDEF8FF0FFEF8FF001EF90F0FDECCF
:10200000B2F062A206EF90F008EF90F01FEF90F0B0
:102010000F0136A30EEF90F010EF90F01FEF90F04D
:102020007F0E106E0F68000E116E000E126E000E05
:10203000146E010E136E4FECADF0000E636E040EC5
:102040000001F26126EF90F028EF90F02BEF90F076
:10205000A19880EF90F00F0136A731EF90F033EFA9
:1020600090F07FEF90F0000E216E62A63AEF90F0B4
:102070003CEF90F07FEF90F064CFFCF00001FC317A
:10208000E832E8320F0BE66F6296FCB54AEF90F04B
:102090004CEF90F055EF90F0430EE625D96EDA6ADA
:1020A000000EDA22DF705CEF90F0460EE625D96E66
:1020B000DA6A000EDA22DF70E651D8A462EF90F0FF
:1020C00064EF90F068EF90F032ECABF076EF90F0C8
:1020D000000E106E720E0F6EFC0E116E000E126E60
:1020E000000E146E000E136E4FECADF0212A030E9D
:1020F00021647DEF90F07FEF90F035EF90F0A198A4
:102100001200E5EC87F0020AD8A489EF90F08BEF7B
:1021100090F095EF91F0000E0001EA6F330E676FBB
:10212000010E686FFD0E696FFF0E6A6F27ECB0F04D
:10213000000167516811D8B4A0EF90F0A2EF90F0C1
:1021400091EF91F0E905D8A4A8EF90F0AAEF90F0F4
:10215000ACEF90F091EF91F0020EE919D8A4B3EF33
:1021600090F0B5EF90F0F3EF90F0D0EF90F0030E19
:10217000E96F91EF91F0850EB56FFF0EB66FFDEC34
:10218000B7F0AC98000E0001626F010E616F9CEC1D
:10219000B6F0AC8891EF91F0000EE96F91EF91F0FD
:1021A000010133510001CD6FCE6BCE51000AD8B47E
:1021B000DCEF90F091EF91F0CD51310AD8B491EF6E
:1021C00091F0030AD8B4B7EF90F0010AD8B4BBEF8E
:1021D00090F0610AD8B4CCEF90F0200AD8B4CCEFDC
:1021E00090F091EF91F0030EE919D8A4FAEF90F076
:1021F000FCEF90F05AEF91F0030EB56FFF0EB66F43
:1022000033C1B7F0B86BFDECB7F001013351D3EC3B
:10221000B7F0020E0001E96F91EF91F0010E64EC4E
:10222000B0F091EF91F038EC8BF091EF91F0010E5E
:10223000E96F91EF91F08AA420EF91F022EF91F0F5
:1022400025EF91F08A9491EF91F08A8491EF91F0CB
:1022500000EC80F091EF91F0000EEC6F120EB56F74
:10226000FF0EB66FECC0B7F0B86BFDECB7F091EFB6
:1022700091F0EC2B5C0EB56FFF0EB66FECC0B7F0B3
:10228000B86BFDECB7F091EF91F0AB0EB56FFF0EB0
:10229000B66FFDECB7F084ECB8F0000ED8ECB6F0F9
:1022A00091EF91F0180EB56FFC0EB66FFDECB7F024
:1022B00091EF91F078ECA8F00001CD6FCE6BCE518C
:1022C000000AD8B466EF91F091EF91F0CD51000A79
:1022D000D8B40EEF91F0010AD8B413EF91F0020ACE
:1022E000D8B417EF91F0070AD8B41BEF91F0010AA8
:1022F000D8B428EF91F0030AD8B42CEF91F0010A7A
:10230000D8B439EF91F00F0AD8B445EF91F0010A33
:10231000D8B409EF91F0030AD8B452EF91F091EFDD
:1023200091F00001E95113ECAAF0120083B49BEF85
:1023300091F09DEF91F055EF92F0D70E0001B56F3F
:10234000FF0EB66FFDECB7F080A0A9EF91F0ABEFF8
:1023500091F0AEEF91F08990AFEF91F089807F0E10
:102360000001B56F010EB66FD60EB76FFB0EB86FDA
:1023700004ECB4F07F0E00016E6F010E6F6FCAECBB
:10238000B8F07F0E0001B56F010EB66FC20EB76FC9
:10239000FF0EB86F95B0CFEF91F0D3EF91F0C96B0E
:1023A000C92BD5EF91F00001C96BC951B96FBA6B58
:1023B00004ECB4F07F0E00016E6F010E6F6FCAEC7B
:1023C000B8F07F0E0001B56F010EB66FB70EB76F94
:1023D000FF0EB86F95B2EFEF91F0F3EF91F0C96B8C
:1023E000C92BF5EF91F00001C96BC951B96FBA6BF8
:1023F00004ECB4F07F0E00016E6F010E6F6FCAEC3B
:10240000B8F07F0E0001B56F010EB66FC50EB76F45
:10241000FE0EB86F73CFB9F0BA6B04ECB4F07F0E58
:1024200000016E6F010E6F6FCAECB8F07F0E0001F5
:10243000B56F010EB66FA50EB76FFE0EB86F72CFF7
:10244000B9F0BA6B04ECB4F07F0E00016E6F010EB0
:102450006F6FCAECB8F07F0E0001B56F010EB66F5A
:10246000B50EB76FFE0EB86F71CFB9F0BA6B04EC52
:10247000B4F07F0E00016E6F010E6F6FCAECB8F002
:102480007F0E0001B56F010EB66FF40EB76FFE0E32
:10249000B86F74CFB9F0BA6B04ECB4F07F0E0001E2
:1024A0006E6F010E6F6FCAECB8F083B65AEF92F000
:1024B0005CEF92F08EEF92F080A261EF92F063EF0A
:1024C00092F066EF92F0899267EF92F08982CD0EDA
:1024D0000001B56FFF0EB66FFDECB7F0B10E000155
:1024E000636F010E646F9BECA7F08F0E0001B56F58
:1024F000FB0EB66FB1C1B7F0B86BB2C1B9F0BA6B31
:10250000B3C1BBF0BC6BB5C1BDF0BE6BB6C1BFF013
:10251000C06BB7C1C1F0C26BFDECB7F01200000197
:102520008EBF95EF92F098EF92F0010E99EF92F036
:10253000000E956F9551D8B4A0EF92F0A2EF92F0F3
:10254000A6EF92F08D6D8E1FD8B08E2BD8BFABEF5B
:1025500092F0ADEF92F0AEEF92F0E193D8BFB5EF0D
:1025600092F0B3EF92F0BBEF92F0000E926F010E7B
:10257000916FBFEF92F0D7C091F0D8C092F0D5C064
:1025800093F0D6C094F09551D8B4C9EF92F0CBEF48
:1025900092F0E2EF92F09307D8A094079551D8A457
:1025A000D4EF92F0D6EF92F0DCEF92F0000E906F45
:1025B0002B0E8F6FE0EF92F0000E906F2D0E8F6F4D
:1025C0008FC095F0000E976F1F0E966F000E0101E1
:1025D000766F1CEF93F09607D8A09707570E9625B5
:1025E000D96E010E9721DA6E8DC061F08EC062F057
:1025F000000E646F0A0E636F9EECACF061C067F072
:1026000062C068F0BDECB5F000016751300FDF6EBD
:102610009107D8A092079307D8A094078DC061F0C6
:102620008EC062F0000E646F0A0E636FB0ECA9F00A
:1026300061C08DF062C08EF0000197BF28EF93F06B
:10264000975108E19605D8A028EF93F02AEF93F070
:1026500054EF93F08D518E11D8A431EF93F033EFF6
:1026600093F0EBEF92F092BF40EF93F0925106E1BE
:102670009105D8B03EEF93F040EF93F0EBEF92F07E
:1026800094BF4BEF93F0945108E19305D8A04BEF22
:1026900093F04DEF93F054EF93F0E1B352EF93F0DA
:1026A00054EF93F0EBEF92F09551D8B45AEF93F0CA
:1026B0005CEF93F067EF93F09607D8A09707570E5B
:1026C0009625D96E010E9721DA6E95C0DFFF8BC07B
:1026D00080F08CC081F0570E9625826F010E9721F5
:1026E000836F93C084F094C085F0F7ECACF01200D7
:1026F000A0980001D951DA11D8B481EF93F083EF9B
:1027000093F091EF93F0D9C0D9FFDAC0DAFFDFAED2
:102710008CEF93F08EEF93F091EF93F0A0884AEF57
:1027200094F0030EF019D8A498EF93F09AEF93F079
:102730009CEF93F0000EF06FF051D8A4A2EF93F04D
:10274000A4EF93F0A7EF93F0A0884AEF94F0020E65
:10275000F019D8A4AEEF93F0B0EF93F0C4EF93F07C
:10276000010E616F000E626F000E636F000E646FEA
:10277000020EA3EC9AF061C0D9F062C0DAF0030E49
:102780000001F06F49EF94F0F005D8A4CAEF93F080
:10279000CCEF93F049EF94F0400EE365D2EF93F065
:1027A000D4EF93F0D8EF93F0400E6D6FDAEF93F023
:1027B000E3C06DF06D51E35DE36F800E0101256FA5
:1027C000020E266F6DC06CF00001E251D8A4EBEF51
:1027D00093F0EDEF93F01BEF94F000EF94F028C12D
:1027E000D9FF29C1DAFF25C1E1FF26C1E2FFDFCF12
:1027F000E7FF0101254B262B284B292B00016C07F5
:102800006C51D8A406EF94F008EF94F0EFEF93F03A
:1028100023EF94F028C1D9FF29C1DAFF25C1E1FFD8
:1028200026C1E2FFDFCFE7FF0101254B262B284B16
:10283000292B00016C076C51D8A421EF94F023EFF1
:1028400094F00AEF94F0E351D8A429EF94F02BEF21
:1028500094F03AEF94F0400E6D19D8A432EF94F052
:1028600034EF94F038EF94F0020EF06F3AEF94F0FA
:10287000030EF06F010E616F800E626F020E636FC8
:102880006DC064F0020EA3EC9AF061C0D9F062C092
:10289000DAF0A088120021EEDDF010EE7EF0060ED8
:1028A000DBCFE3FFE806FCE27BC089F07CC08AF066
:1028B000000189518A11D8A460EF94F062EF94F07E
:1028C00066EF94F07E0E896F000E8A6F89C061F00A
:1028D0008AC062F0B1ECB3F061C08DF062C08EF0DE
:1028E000D7C08BF0D8C08CF000018CBF7AEF94F089
:1028F0007CEF94F091EF94F08D518B5D8C51800AB8
:102900007D6F8E51800A7D59D8A089EF94F08BEFAE
:1029100094F08DEF94F091EF94F08BC08DF08CC01B
:102920008EF08DC08BF08EC08CF0D5C087F0D6C0F5
:1029300088F0E1B19EEF94F0A0EF94F0BEEF94F038
:10294000AFEF94F0000E716F200E706F79C072F0CF
:102950007AC073F04AECA9F000018D4B8E2B8751A1
:102960008D5D8E51800A7D6F8851800A7D59D8A077
:10297000BCEF94F0BEEF94F0A2EF94F0000E866FDF
:10298000000E856FE5EF94F089C0F6FF8AC0F7FF6F
:10299000000EF86E0F0EF76403D00800F55005D056
:1029A000F6CFE9FFF7CFEAFFEF5000017D6F7D51D1
:1029B000706F716B79C072F07AC073F04AECA9F055
:1029C0000001894B8A2B854B862B8B51855D865167
:1029D000800A7D6F8C51800A7D59D8A0F2EF94F067
:1029E000F4EF94F0C4EF94F0E1A1F9EF94F0FBEF71
:1029F00094F019EF95F00AEF95F0000E716F200E2C
:102A0000706F79C072F07AC073F04AECA9F00001DF
:102A10008D4B8E2B87518D5D8E51800A7D6F885135
:102A2000800A7D59D8A017EF95F019EF95F0FDEFCA
:102A300094F01200800E0D013019D8A422EF95F009
:102A400024EF95F0D8EF95F0C00E3A6EBEEF95F0FA
:102A5000340E376EF90E386E000E3C6E120E3B6E61
:102A6000D8EF95F00D013251D8A439EF95F03BEF36
:102A700095F080EF95F03251020D4C0EF324F66E76
:102A8000F60EF420F76EF86A000EF8220900F5CF72
:102A900037F00A00F5CF38F0020E37240001616FDD
:102AA000000E3820626F61C0F6FF62C0F7FF000EB3
:102AB000F86E0F0EF76403D00800F55005D0F6CF7E
:102AC000E9FFF7CFEAFFEF503B6E030E372400011A
:102AD000616F000E3820626F61C0F6FF62C0F7FFC1
:102AE000000EF86E0F0EF76403D00800F55005D005
:102AF000F6CFE9FFF7CFEAFFEF503C6ED8EF95F045
:102B0000000E3A6ED8EF95F0030E0D0132618BEF97
:102B100095F08DEF95F0B6EF95F03251020D460E1F
:102B2000F324F66EF60EF420F76EF86A000EF82223
:102B30000900F5CF37F00A00F5CF38F037C0F6FFBF
:102B400038C0F7FF000EF86E0F0EF76403D00800D0
:102B5000F55005D0F6CFE9FFF7CFEAFFEF500001BF
:102B6000616F61513B6E3C6AD8EF95F0000E3A6E92
:102B7000D8EF95F0000E3A6ED8EF95F03351000182
:102B8000616F626B6251000AD8B4C9EF95F0BAEF79
:102B900095F06151010AD8B428EF95F0030AD8B432
:102BA00032EF95F0010AD8B484EF95F0BAEF95F0C2
:102BB000120061C06BF062C06CF0000165516611DB
:102BC000D8A4E5EF95F0E7EF95F0E9EF95F094EFF5
:102BD00096F06BC0D9FF6CC0DAFF63C0DFFF6551B0
:102BE0006B25676F66516C21686FFF0E6725D96E84
:102BF000FF0E6821DA6E63C0DFFF665107E1030E46
:102C0000655DD8B006EF96F008EF96F00AEF96F003
:102C100094EF96F020EE01F06B51D9266C51DA2238
:102C200063C0DFFF20EE02F06B51D9266C51DA222F
:102C300063C0DFFF65516B25676F66516C21686F5C
:102C4000FE0E6725D96EFF0E6821DA6E63C0DFFFC6
:102C500065516B25676F66516C21686FFD0E6725A6
:102C6000D96EFF0E6821DA6E63C0DFFF665107E19F
:102C7000070E655DD8B03FEF96F041EF96F043EF59
:102C800096F094EF96F020EE03F06B51D9266C513C
:102C9000DA2263C0DFFF65516B25676F66516C21D7
:102CA000686FFC0E6725D96EFF0E6821DA6E63C06F
:102CB000DFFF665107E1090E655DD8B062EF96F05F
:102CC00064EF96F066EF96F094EF96F06BC067F0C5
:102CD0006CC068F0671F681F674B682B030E671591
:102CE000696F6A6B69516B276A516C236951655F23
:102CF0006A51665BFC0E6517FF0E66178BEF96F048
:102D00006BC0D9FF6CC0DAFF63C0DFFF6507D8A0D6
:102D100066076B4B6C2B65516611D8A492EF96F049
:102D200094EF96F080EF96F0120001C00BF002C015
:102D30000CF005500610D8A4A0EF96F0A2EF96F084
:102D4000A4EF96F04FEF97F00BC0D9FF0CC0DAFF5D
:102D500003C0DFFF05500B24076E06500C20086EE1
:102D6000FF0E0724D96EFF0E0820DA6E03C0DFFFC6
:102D7000065007E1030E055CD8B0C1EF96F0C3EF33
:102D800096F0C5EF96F04FEF97F020EE01F00B5064
:102D9000D9260C50DA2203C0DFFF20EE02F00B50E0
:102DA000D9260C50DA2203C0DFFF05500B24076E32
:102DB00006500C20086EFE0E0724D96EFF0E082068
:102DC000DA6E03C0DFFF05500B24076E06500C209F
:102DD000086EFD0E0724D96EFF0E0820DA6E03C0C0
:102DE000DFFF065007E1070E055CD8B0FAEF96F05A
:102DF000FCEF96F0FEEF96F04FEF97F020EE03F029
:102E00000B50D9260C50DA2203C0DFFF05500B24EB
:102E1000076E06500C20086EFC0E0724D96EFF0EBC
:102E20000820DA6E03C0DFFF065007E1090E055CDB
:102E3000D8B01DEF97F01FEF97F021EF97F04FEF0D
:102E400097F00BC007F00CC008F0071E081E074AD9
:102E5000082A030E0714096E0A6A09500B260A5045
:102E60000C220950055E0A50065AFC0E0516FF0E8C
:102E7000061646EF97F00BC0D9FF0CC0DAFF03C06F
:102E8000DFFF0506D8A006060B4A0C2A05500610DF
:102E9000D8A44DEF97F04FEF97F03BEF97F012006B
:102EA000800E0D013019D8A458EF97F05AEF97F023
:102EB00008EF98F0C00E3A6EEFEF97F0340E376ED1
:102EC000F90E386E000E3C6E120E3B6E08EF98F055
:102ED0003251D8A46EEF97F070EF97F0B3EF97F000
:102EE0003251020D4C0EF324F66EF60EF420F76EFE
:102EF000F86A000EF8220900F5CF37F00A00F5CF86
:102F000038F0020E3724016E000E3820026E01C028
:102F1000F6FF02C0F7FF000EF86E0F0EF76403D045
:102F20000800F55005D0F6CFE9FFF7CFEAFFEF50E4
:102F30003B6E030E3724016E000E3820026E01C076
:102F4000F6FF02C0F7FF000EF86E0F0EF76403D015
:102F50000800F55005D0F6CFE9FFF7CFEAFFEF50B4
:102F60003C6E08EF98F0000E3A6E08EF98F0030EF2
:102F70003261BDEF97F0BFEF97F0E7EF97F0325176
:102F8000020D460EF324F66EF60EF420F76EF86A84
:102F9000000EF8220900F5CF37F00A00F5CF38F01F
:102FA00037C0F6FF38C0F7FF000EF86E0F0EF7645B
:102FB00003D00800F55005D0F6CFE9FFF7CFEAFFC0
:102FC000EF50016E01503B6E3C6A08EF98F0000E26
:102FD0003A6E08EF98F0000E3A6E08EF98F0335111
:102FE000016E026A0250000AD8B4F9EF97F0EBEFD5
:102FF00097F00150010AD8B45EEF97F0030AD8B4F5
:1030000068EF97F0010AD8B4B7EF97F0EBEF97F0BD
:1030100012000001D8BF0FEF98F011EF98F012EFF7
:1030200098F0E193D8BF19EF98F017EF98F01FEFE1
:1030300098F0000E956F010E946F23EF98F0D7C0B3
:1030400094F0D8C095F0D5C096F0D6C097F0000E99
:10305000996F1F0E986F000E0101766F6CEF98F05C
:103060009807D8A099078D510F0B9A6F090E9A6592
:103070003CEF98F03EEF98F046EF98F0570E9A2507
:10308000926F936B000E93234CEF98F0300E9A25BD
:10309000926F936B000E932392C09AF0570E98256F
:1030A000D96E010E9921DA6E9AC0DFFF9407D8A07D
:1030B00095079607D8A097078DC08FF08EC090F027
:1030C000040E916FD89090338F33912F62EF98F068
:1030D0008FC08DF090C08EF0000199BF79EF98F00D
:1030E000995109E1020E985DD8A079EF98F07BEF35
:1030F00098F0A5EF98F08D518E11D8A482EF98F03A
:1031000084EF98F030EF98F095BF91EF98F09551DB
:1031100006E19405D8B08FEF98F091EF98F030EF7A
:1031200098F097BF9CEF98F0975108E19605D8A0CA
:103130009CEF98F09EEF98F0A5EF98F0E1B3A3EF25
:1031400098F0A5EF98F030EF98F08BC080F08CC02D
:1031500081F0570E9825826F010E9921836F96C0DA
:1031600084F097C085F0F7ECACF01200A098000E48
:10317000636E000E626E000E0F01266F270E0001B7
:10318000616F0F0E626F000E646F000E636F000EB2
:10319000666F020E656FD9EC95F0160E0F01396F50
:1031A0009F0E376F7B0E366F000E00016D6F6D51F5
:1031B000040D000EF324D96E0D0EF420DA6EDE6AD3
:1031C000DE6ADE6ADD6A6D2B0B0E6D65EAEF98F044
:1031D000ECEF98F0D7EF98F0658C000E0F01386F88
:1031E0006598659C6296000E3A6E000E316E000E78
:1031F000336E000E326E62B600EF99F002EF99F076
:10320000F2EF98F0010E536E010E526E000E516EE9
:10321000000E506E000E566E000E00016D6F6D5167
:10322000020D3D0EF324D96E000EF420DA6EDE6A34
:10323000DD6A6D51020DCF0EF324D96E000EF4201D
:10324000DA6EDE6ADD6A460E6D25D96EDA6A000E28
:10325000DA22DF6A430E6D25D96EDA6A000EDA22B1
:10326000DF6A6D2B020E6D6538EF99F03AEF99F039
:103270000FEF99F0080E3D6E0D0E3E6E160E0F010B
:10328000266F0D0E0D01036F300E026F080E016FD9
:10329000040E006F008F000E0001FD6F000E010193
:1032A000216F000E226F000E236F000E246F000EA0
:1032B0004F6E000E0001F26F1200A098000E636EB8
:1032C000000E626E000E0F01266F270E016E0F0EAC
:1032D000026E000E046E000E036E000E066E020EED
:1032E000056E95EC96F0160E0F01396F9F0E376F35
:1032F0007B0E366F000E0D6E0D50040D000EF32484
:10330000D96E0D0EF420DA6EDE6ADE6ADE6ADD6AE0
:103310000D2A0B0E0D648FEF99F091EF99F07CEF71
:1033200099F0658C000E0F01386F6598659C629668
:10333000000E3A6E000E316E000E336E000E326ECD
:1033400062B6A5EF99F0A7EF99F097EF99F0010E0B
:10335000536E010E526E000E516E000E506E000E36
:10336000566E000E0D6E0D50020D3D0EF324D96EFB
:10337000000EF420DA6EDE6ADD6A0D50020DCF0E0B
:10338000F324D96E000EF420DA6EDE6ADD6A460E92
:103390000D24D96EDA6A000EDA22DF6A430E0D249C
:1033A000D96EDA6A000EDA22DF6A0D2A020E0D6487
:1033B000DCEF99F0DEEF99F0B3EF99F0080E3D6E77
:1033C0000D0E3E6E160E0F01266F0D0E0D01036FD2
:1033D000300E026F080E016F040E006F008F000E9A
:1033E0000001FD6F000E0101216F000E226F000E23
:1033F000236F000E246F000E4F6E000E0001F26F5F
:10340000120020EE01F04B50D9264C50DA22DF504A
:103410000001626F6251325C000E3358D8B013EF76
:103420009AF015EF9AF017EF9AF032C062F06251FD
:10343000325E000E335A000E616F2EEF9AF0380E96
:103440006125D96EDA6A0D0EDA222EC0E1FF2FC097
:10345000E2FFDFCFE7FF2E4A2F2A612B6251615D29
:10346000D8A035EF9AF037EF9AF01FEF9AF032506C
:103470003310D8B43EEF9AF040EF9AF079EF9AF01B
:1034800020EE01F04950D9264A50DA22080EDF6EAC
:1034900020EE02F04950D9264A50DA22380EDE6E6C
:1034A0000D0EDD6E4BC0D9FF4CC0DAFFDFBC5BEF09
:1034B0009AF05DEF9AF06BEF9AF049C0D9FF4AC0DD
:1034C000DAFF480EDF6E49C0D9FF4AC0DAFF000EAE
:1034D000DB8EA2EF9AF049C0D9FF4AC0DAFF080E8E
:1034E000DF6E49C0D9FF4AC0DAFF000EDB8EA2EFC3
:1034F0009AF020EE01F04950D9264A50DA22080EFF
:10350000DF6E20EE02F04950D9264A50DA22300E02
:10351000DE6E0D0EDD6E49C0D9FF4AC0DAFF040E23
:10352000DF6E49C0D9FF4AC0DAFF000EDB8E319E44
:103530005450D8A49EEF9AF0A0EF9AF0A2EF9AF020
:10354000C4ECA5F012000001696F00016151D8B40C
:10355000ACEF9AF0AEEF9AF0BCEF9AF06951020D21
:103560003D0EF324D96E000EF420DA6EDECF6AF041
:10357000DDCF6BF0C8EF9AF06951020DCF0EF32446
:10358000D96E000EF420DA6EDECF6AF0DDCF6BF07C
:103590006A516B11D8A4CFEF9AF0D1EF9AF0D7EF20
:1035A0009AF0000E616F000E626F43EF9BF020EE09
:1035B00002F06A51D9266B51DA2262C0DEFF63C085
:1035C000DDFF20EE01F06A51D9266B51DA2264C08A
:1035D000DFFF6AC0D9FF6BC0DAFF400EDF166AC09A
:1035E000D9FF6BC0DAFF000EDB866AC0D9FF6BC063
:1035F000DAFF000EDB8E6151D8B401EF9BF003EFD0
:103600009BF022EF9BF06951020D3D0EF324D96E21
:10361000000EF420DA6EDECF65F0DDCF66F0040E2A
:103620006519676F6651686F6951020D3D0EF3248D
:10363000D96E000EF420DA6E67C0DEFF68C0DDFFD1
:103640003FEF9BF06951020DCF0EF324D96E000EAF
:10365000F420DA6EDECF65F0DDCF66F0040E65197A
:10366000676F6651686F6951020DCF0EF324D96EF2
:10367000000EF420DA6E67C0DEFF68C0DDFF6AC0AE
:1036800061F06BC062F0120020EE01F04B50D926C1
:103690004C50DA22DF50026E0250325C000E33587A
:1036A000D8B055EF9BF057EF9BF059EF9BF032C02D
:1036B00002F00250325E000E335A000E016E70EFBF
:1036C0009BF0380E0124D96EDA6A0D0EDA222EC074
:1036D000E1FF2FC0E2FFDFCFE7FF2E4A2F2A012AAA
:1036E0000250015CD8A077EF9BF079EF9BF061EF7F
:1036F0009BF032503310D8B480EF9BF082EF9BF0F8
:10370000BBEF9BF020EE01F04950D9264A50DA2257
:10371000080EDF6E20EE02F04950D9264A50DA2218
:10372000380EDE6E0D0EDD6E4BC0D9FF4CC0DAFFD9
:10373000DFBC9DEF9BF09FEF9BF0ADEF9BF049C08E
:10374000D9FF4AC0DAFF480EDF6E49C0D9FF4AC030
:10375000DAFF000EDB8EE4EF9BF049C0D9FF4AC0D0
:10376000DAFF080EDF6E49C0D9FF4AC0DAFF000E4B
:10377000DB8EE4EF9BF020EE01F04950D9264A5051
:10378000DA22080EDF6E20EE02F04950D9264A50A8
:10379000DA22300EDE6E0D0EDD6E49C0D9FF4AC052
:1037A000DAFF040EDF6E49C0D9FF4AC0DAFF000E0F
:1037B000DB8E319E5450D8A4E0EF9BF0E2EF9BF0FB
:1037C000E4EF9BF03BECA6F0120065983ABEEBEFFD
:1037D0009BF0EDEF9BF032EF9CF031AEF2EF9BF0FF
:1037E000F4EF9BF006EF9CF0020E586E5050D8A4F8
:1037F000FCEF9BF0FEEF9BF000EF9CF0FFECADF0D8
:10380000000E526E000E536E84EF9CF020EE01F01D
:103810004950D9264A50DA22080EDF6E20EE02F017
:103820004950D9264A50DA22300EDE6E0D0EDD6E7A
:1038300049C0D9FF4AC0DAFF0C0EDF6E49C0D9FF7C
:103840004AC0DAFF000EDB8E3DC0D9FF3EC0DAFF72
:10385000040EDF6E3DC0D9FF3EC0DAFF000EDB8EE6
:1038600084EF9CF00D0130AF38EF9CF03AEF9CF004
:1038700056EF9CF0010E586E5150D8A442EF9CF0C8
:1038800044EF9CF046EF9CF0FFECADF0000E526E62
:10389000000E536E5450D8A450EF9CF052EF9CF0A1
:1038A00084EF9CF0C4ECA5F084EF9CF0020E586EFF
:1038B00020EE01F04950D9264A50DA22080EDF6E78
:1038C00020EE02F04950D9264A50DA22300EDE6E40
:1038D0000D0EDD6E49C0D9FF4AC0DAFF040EDF6E5F
:1038E00049C0D9FF4AC0DAFF000EDB8E000E526ECF
:1038F000000E536E5450D8A480EF9CF082EF9CF0E1
:1039000084EF9CF052EF9CF0120065983ABE8BEF6A
:103910009CF08DEF9CF0D2EF9CF031AE92EF9CF0DA
:1039200094EF9CF0A6EF9CF0020E586E5050D8A475
:103930009CEF9CF09EEF9CF0A0EF9CF055ECAEF05D
:10394000000E526E000E536E24EF9DF020EE01F03B
:103950004950D9264A50DA22080EDF6E20EE02F0D6
:103960004950D9264A50DA22300EDE6E0D0EDD6E39
:1039700049C0D9FF4AC0DAFF0C0EDF6E49C0D9FF3B
:103980004AC0DAFF000EDB8E3DC0D9FF3EC0DAFF31
:10399000040EDF6E3DC0D9FF3EC0DAFF000EDB8EA5
:1039A00024EF9DF00D0130AFD8EF9CF0DAEF9CF0E2
:1039B000F6EF9CF0010E586E5150D8A4E2EF9CF047
:1039C000E4EF9CF0E6EF9CF055ECAEF0000E526E8A
:1039D000000E536E5450D8A4F0EF9CF0F2EF9CF020
:1039E00024EF9DF03BECA6F024EF9DF0020E586E04
:1039F00020EE01F04950D9264A50DA22080EDF6E37
:103A000020EE02F04950D9264A50DA22300EDE6EFE
:103A10000D0EDD6E49C0D9FF4AC0DAFF040EDF6E1D
:103A200049C0D9FF4AC0DAFF000EDB8E000E526E8D
:103A3000000E536E5450D8A420EF9DF022EF9DF05D
:103A400024EF9DF0F2EF9CF01200000EFEECAEF0C1
:103A50009B8C0F013985F19E700ED36E1F0E486F3F
:103A60001F0E496F000E926E300E936E000E946E14
:103A70000F0E956E000E806E000E816E000E826E2F
:103A8000000E836E92909292929493948980898290
:103A900095869584000E0001626F0A0E616F9CECA2
:103AA000B6F02EECB3F0D3ECB8F0DEECB5F0F1EC00
:103AB000B8F084ECB8F0B6EC98F054ECB4F0010E29
:103AC0000001F16F9EECB8F03EEC8EF05AECB8F0CD
:103AD000E50E0001B56FFE0EB66FFDECB7F0AAEC77
:103AE000B8F04BECB8F01EECB6F04E0E0001B56F1E
:103AF000FF0EB66F74CFB7F0B86BFDECB7F09F0E4A
:103B00000001B56FFF0EB66F000EB86F010EB76FF4
:103B1000FDECB7F0780E0001B56FFF0EB66F000E2A
:103B2000B86F000EB76FFDECB7F0120E0001B56F65
:103B3000FE0EB66FFDECB7F04EECB1F076ECB8F0DF
:103B4000E806D8A4A6EF9DF0A8EF9DF0ACEF9DF09D
:103B5000E4ECB8F096EC91F068ECB8F0E806D8A484
:103B6000B4EF9DF0B6EF9DF0BAEF9DF0E0ECB8F049
:103B7000F2ECB8F081EC90F012ECB7F014ECA0F09D
:103B80009EEF9DF013EF00F0096E0150D8B4CBEF1B
:103B90009DF0CDEF9DF0DBEF9DF00950020D3D0E45
:103BA000F324D96E000EF420DA6EDECF0AF0DDCFFA
:103BB0000BF0E7EF9DF00950020DCF0EF324D96E04
:103BC000000EF420DA6EDECF0AF0DDCF0BF00A50E3
:103BD0000B10D8A4EEEF9DF0F0EF9DF0F6EF9DF006
:103BE000000E016E000E026E62EF9EF020EE02F0FB
:103BF0000A50D9260B50DA2202C0DEFF03C0DDFFD7
:103C000020EE01F00A50D9260B50DA2204C0DFFF63
:103C10000AC0D9FF0BC0DAFF400EDF160AC0D9FF79
:103C20000BC0DAFF000EDB860AC0D9FF0BC0DAFF3B
:103C3000000EDB8E0150D8B420EF9EF022EF9EF0F4
:103C400041EF9EF00950020D3D0EF324D96E000E97
:103C5000F420DA6EDECF05F0DDCF06F0040E051895
:103C6000076E0650086E0950020D3D0EF324D96E02
:103C7000000EF420DA6E07C0DEFF08C0DDFF5EEF45
:103C80009EF00950020DCF0EF324D96E000EF420E1
:103C9000DA6EDECF05F0DDCF06F0040E0518076EF4
:103CA0000650086E0950020DCF0EF324D96E000E97
:103CB000F420DA6E07C0DEFF08C0DDFF0AC001F0A5
:103CC0000BC002F012000D013039E832030B00097D
:103CD000D8B46DEF9EF06FEF9EF0B9EF9EF0F3EF6A
:103CE0009EF03A8E080EF26FF3EF9EF01AEC95F00C
:103CF000F3EF9EF0B2ECA6F0F3EF9EF0FD0E376E00
:103D0000000E386E3A80010E3B6E3A8EF3EF9EF055
:103D1000F4EC9EF0F3EF9EF06FEC84F0F3EF9EF086
:103D2000FA0E0D013425376E386A000E38223A80BB
:103D3000010E3B6E3A8EF3EF9EF03A8EFA0E0D01B5
:103D40003425D96EDA6A000EDA2232CDDFFFF3EFC6
:103D50009EF0000E706F020E6F6F000E716F000EFE
:103D6000726F000E746F000E736F45ECACF0F3EFE2
:103D70009EF0315100017E6F7F6B7F51000AD8B4F5
:103D8000C4EF9EF0F3EF9EF07E51000AD8B488EFA6
:103D90009EF0010AD8B48CEF9EF0020AD8B48CEFE2
:103DA0009EF0060AD8B471EF9EF0030AD8B476EFFD
:103DB0009EF0010AD8B4A9EF9EF00F0AD8B47EEFA6
:103DC0009EF0010AD8B47AEF9EF0030AD8B490EFBF
:103DD0009EF0010AD8B49DEF9EF0070AD8B4F3EF25
:103DE0009EF0F3EF9EF01200000E0D01386F000EF2
:103DF000396F5BEF9FF03A8E5704D8A402EF9FF023
:103E000004EF9FF076EF9FF00D01388376EF9FF07F
:103E10003A8E76EF9FF03A8E0D0134510F0B000968
:103E2000D8B415EF9FF017EF9FF076EF9FF034BFF7
:103E30001CEF9FF01EEF9FF030EF9FF034510F0BFF
:103E40000001616F6151020DCF0EF324D96E000E97
:103E5000F420DA6EDECF63F0DDCF64F040EF9FF048
:103E600034510F0B0001616F6151020D3D0EF324BF
:103E7000D96E000EF420DA6EDECF63F0DDCF64F091
:103E800063C0D9FF64C0DAFFDFAE49EF9FF04BEFAC
:103E90009FF076EF9FF063C0D9FF64C0DAFFDFA424
:103EA00054EF9FF056EF9FF076EF9FF0010E0D015B
:103EB000386F76EF9FF030511F0B0001616F626B1E
:103EC0006251000AD8B467EF9FF076EF9FF061511E
:103ED000000AD8B4FBEF9EF0010AD8B408EF9FF0B7
:103EE000030AD8B40BEF9FF076EF9FF03AAE7BEF6A
:103EF0009FF07DEF9FF084EF9FF0380E376E0D0E30
:103F0000386E3A80020E3B6E12000D013039E832F5
:103F1000030B0009D8B48FEF9FF091EF9FF0DAEF19
:103F20009FF013EFA0F03A8E080E0001F26F13EF2E
:103F3000A0F050EC97F013EFA0F028ECA7F013EFEF
:103F4000A0F0FD0E376E000E386E3A80010E3B6E0B
:103F50003A8E13EFA0F09FECA0F013EFA0F090ECDE
:103F600089F013EFA0F0FA0E3425376E386A000E90
:103F700038223A80010E3B6E3A8E13EFA0F03A8E53
:103F8000FA0E3425D96EDA6A000EDA2232CDDFFF5E
:103F900013EFA0F0000E106E020E0F6E000E116EE9
:103FA000000E126E000E146E000E136E4FECADF08C
:103FB00013EFA0F031511E6E1F6A1F50000AD8B4D3
:103FC000E4EF9FF013EFA0F01E50000AD8B4ABEF5F
:103FD0009FF0010AD8B4AFEF9FF0020AD8B4AFEF58
:103FE0009FF0060AD8B493EF9FF0030AD8B499EF74
:103FF0009FF0010AD8B4CAEF9FF00F0AD8B4A1EF1E
:104000009FF0010AD8B49DEF9FF0030AD8B4B3EF34
:104010009FF0010AD8B4BFEF9FF0070AD8B413EF9E
:10402000A0F013EFA0F01200200E0001F2611BEFD0
:10403000A0F01DEFA0F030EFA0F0EE51D8A423EFD8
:10404000A0F025EFA0F09EEFA0F0840EB56FFE0E5D
:10405000B66FFDECB7F0010E0001EE6F9EEFA0F021
:10406000EE05D8A436EFA0F038EFA0F041EFA0F0B5
:10407000920EB56FFF0EB66FFDECB7F0020E0001A9
:10408000EE6F65A246EFA0F048EFA0F050EFA0F071
:104090003F0EB56FFF0EB66FFDECB7F09EEFA0F0D0
:1040A000F051D8A456EFA0F058EFA0F09CEFA0F08C
:1040B000EF51D8B45EEFA0F060EFA0F09CEFA0F05D
:1040C000000EC56F000EC525D96EDA6A020EDA221F
:1040D000DF50D8B46EEFA0F070EFA0F080EFA0F04A
:1040E000000EC525D96EDA6A020EDA22C00EC52589
:1040F000E16EE26A020EE222DFCFE7FF8BEFA0F073
:10410000C00EC525D96EDA6A020EDA22DF6A000E09
:10411000EF6F94EFA0F0C52B3F0EC56592EFA0F0B6
:1041200094EFA0F062EFA0F0C00E616F020E626F1C
:10413000C5C063F0BDECB7F078EC93F01200000E50
:104140000D01386F000E396F01EFA1F03A8E570460
:10415000D8A4ADEFA0F0AFEFA0F01BEFA1F0388333
:104160001BEFA1F03A8E1BEFA1F03A8E34510F0BEA
:104170000009D8B4BEEFA0F0C0EFA0F01BEFA1F093
:1041800034BFC5EFA0F0C7EFA0F0D8EFA0F03451D6
:104190000F0B016E0150020DCF0EF324D96E000EED
:1041A000F420DA6EDECF03F0DDCF04F0E7EFA0F00D
:1041B00034510F0B016E0150020D3D0EF324D96EE8
:1041C000000EF420DA6EDECF03F0DDCF04F003C082
:1041D000D9FF04C0DAFFDFAEF0EFA0F0F2EFA0F0FD
:1041E0001BEFA1F003C0D9FF04C0DAFFDFA4FBEF8F
:1041F000A0F0FDEFA0F01BEFA1F0010E386F1BEF58
:10420000A1F030511F0B016E026A0250000AD8B4AF
:104210000CEFA1F01BEFA1F00150000AD8B4A6EFFB
:10422000A0F0010AD8B4B2EFA0F0030AD8B4B5EFF9
:10423000A0F01BEFA1F03AAE20EFA1F022EFA1F029
:1042400029EFA1F0380E376E0D0E386E3A80020E4F
:104250003B6E1200080E0001616F3C5007E1080E32
:104260003B5CD8B036EFA1F038EFA1F050EFA1F0F1
:104270003BC061F05950D8A440EFA1F042EFA1F04B
:1042800046EFA1F0010E596E50EFA1F05904D8A4E9
:104290004CEFA1F04EEFA1F050EFA1F0020E596EDD
:1042A00061513B5E000E3C5A20EE01F03D50D92694
:1042B0003E50DA2261C0DFFF380EDD6F0D0EDE6F7B
:1042C0003AB065EFA1F067EFA1F0ABEFA1F085EF99
:1042D000A1F037C0F6FF38C0F7FF000EF86EDDC062
:1042E000D9FFDEC0DAFF0F0EF76403D00800F550E7
:1042F00005D0F6CFE9FFF7CFEAFFEF50DF6E374A80
:10430000382A0001DD4BDE2B61076151D8A48BEF09
:10431000A1F08DEFA1F069EFA1F0B3EFA1F037C0EC
:10432000F6FF38C0F7FF000EF86EDDC0D9FFDEC023
:10433000DAFF0F0EF76403D00800F55005D0F6CF72
:10434000E9FFF7CFEAFFEF50DF6E374A382A000166
:10435000DD4BDE2B61076151D8A4B1EFA1F0B3EFC3
:10436000A1F08FEFA1F01200080E016E3C5007E1A2
:10437000080E3B5CD8B0BFEFA1F0C1EFA1F0D9EFC0
:10438000A1F03BC001F05950D8A4C9EFA1F0CBEF88
:10439000A1F0CFEFA1F0010E596ED9EFA1F05904B1
:1043A000D8A4D5EFA1F0D7EFA1F0D9EFA1F0020E7C
:1043B000596E01503B5E000E3C5A20EE01F03D501C
:1043C000D9263E50DA2201C0DFFF380E0001DD6F32
:1043D0000D0EDE6F3AB0EFEFA1F0F1EFA1F035EF87
:1043E000A2F00FEFA2F037C0F6FF38C0F7FF000EC3
:1043F000F86EDDC0D9FFDEC0DAFF0F0EF76403D020
:104400000800F55005D0F6CFE9FFF7CFEAFFEF50EF
:10441000DF6E374A382A0001DD4BDE2B01060150E2
:10442000D8A415EFA2F017EFA2F0F3EFA1F03DEF43
:10443000A2F037C0F6FF38C0F7FF000EF86EDDC0FF
:10444000D9FFDEC0DAFF0F0EF76403D00800F55085
:1044500005D0F6CFE9FFF7CFEAFFEF50DF6E374A1E
:10446000382A0001DD4BDE2B01060150D8A43BEFBA
:10447000A2F03DEFA2F019EFA2F012003DC0D9FF6B
:104480003EC0DAFF000EDFBC010E0001626F040EB9
:104490003D183D6E3E503E6E080EF219D8A453EF03
:1044A000A2F055EFA2F06AEFA2F00D0132517F0B9E
:1044B0000F01386F3851D8B460EFA2F062EFA2F06C
:1044C00067EFA2F0100E0001F26F6AEFA2F0040E87
:1044D0000001F26F5804D8A470EFA2F072EFA2F0BE
:1044E000BAEFA2F020EE02F03D50D9263E50DA227B
:1044F000380EDE6E0D0EDD6E2AECA1F0020E59189C
:10450000D8A485EFA2F087EFA2F095EFA2F03DC00E
:10451000D9FF3EC0DAFF040EDF6E3DC0D9FF3EC0BA
:10452000DAFF000EDB8EC4EFA2F000016251D8A4C6
:104530009CEFA2F09EEFA2F0ACEFA2F03DC0D9FF3D
:104540003EC0DAFF480EDF6E3DC0D9FF3EC0DAFF45
:10455000000EDB8EC4EFA2F03DC0D9FF3EC0DAFFF3
:10456000080EDF6E3DC0D9FF3EC0DAFF000EDB8EC5
:10457000C4EFA2F031AEBFEFA2F0C1EFA2F0C2EFE4
:10458000A2F0319E000E586E12003DC0D9FF3EC011
:10459000DAFF000EDFBC010E026E040E3D183D6E08
:1045A0003E503E6E080E0001F219D8A4DAEFA2F0D8
:1045B000DCEFA2F0F1EFA2F00D0132517F0B0F0101
:1045C000386F3851D8B4E7EFA2F0E9EFA2F0EEEF80
:1045D000A2F0100E0001F26FF1EFA2F0040E000144
:1045E000F26F5804D8A4F7EFA2F0F9EFA2F040EF71
:1045F000A3F020EE02F03D50D9263E50DA22380ECC
:10460000DE6E0D0EDD6EB4ECA1F0020E5918D8A4CA
:104610000CEFA3F00EEFA3F01CEFA3F03DC0D9FF09
:104620003EC0DAFF040EDF6E3DC0D9FF3EC0DAFFA8
:10463000000EDB8E4AEFA3F00250D8A422EFA3F0C5
:1046400024EFA3F032EFA3F03DC0D9FF3EC0DAFF64
:10465000480EDF6E3DC0D9FF3EC0DAFF000EDB8E94
:104660004AEFA3F03DC0D9FF3EC0DAFF080EDF6E6F
:104670003DC0D9FF3EC0DAFF000EDB8E4AEFA3F04B
:1046800031AE45EFA3F047EFA3F048EFA3F0319E22
:10469000000E586E12000D0130511F0BE806D8B401
:1046A00054EFA3F056EFA3F058EFA3F0CEEFA3F032
:1046B0003039E832030BE806D8B461EFA3F063EFBA
:1046C000A3F065EFA3F0CEEFA3F03451D8B46BEFB5
:1046D000A3F06DEFA3F0ACEFA3F03405D8B473EF03
:1046E000A3F075EFA3F0ACEFA3F0CEEFA3F0770E3D
:1046F000376E010E386E000E3C6E080E3B6E3A802F
:104700003A8ECEEFA3F0770E376E010E386E3A8EEA
:10471000CEEFA3F036CD32F037CD33F0F30E2E6E60
:10472000000E2F6E000E346E000E356E000E366ECB
:10473000318ECEEFA3F0F30E376E000E386E000E02
:104740003C6E070E3B6EC10E3A6ECEEFA3F032CD3B
:1047500031F13A8ECEEFA3F031510001616F626BFF
:104760006251000AD8B4B7EFA3F0CEEFA3F06151C5
:10477000000AD8B477EFA3F0010AD8B483EFA3F00E
:10478000210AD8B48AEFA3F0010AD8B49BEFA3F0B2
:10479000030AD8B4A7EFA3F0CEEFA3F012000D01E7
:1047A00030511F0BE806D8B4D8EFA3F0DAEFA3F02E
:1047B000DCEFA3F051EFA4F03039E832030BE80648
:1047C000D8B4E5EFA3F0E7EFA3F0E9EFA3F051EFE2
:1047D000A4F03451D8B4EFEFA3F0F1EFA3F030EF31
:1047E000A4F03405D8B4F7EFA3F0F9EFA3F030EF5D
:1047F000A4F051EFA4F0770E376E010E386E000E64
:104800003C6E080E3B6E3A803A8E51EFA4F0770E64
:10481000376E010E386E3A8E51EFA4F036CD32F07D
:1048200037CD33F0F30E2E6E000E2F6E000E346E69
:10483000000E356E000E366E318E51EFA4F0F30E81
:10484000376E000E386E000E3C6E070E3B6EC10ECA
:104850003A6E51EFA4F032CD31F13A8E51EFA4F01F
:104860003151016E026A0250000AD8B43AEFA4F046
:1048700051EFA4F00150000AD8B4FBEFA3F0010AF5
:10488000D8B407EFA4F0210AD8B40EEFA4F0010ABF
:10489000D8B41FEFA4F0030AD8B42BEFA4F051EF63
:1048A000A4F0120061C068F062C069F063C06AF0F1
:1048B00064C06BF000016507D8A06607652906E1B2
:1048C0006629D8A466EFA4F068EFA4F075EFA4F011
:1048D000000E626F000E616FCDEFA4F0684B692B84
:1048E0006A4B6B2B6507D8A0660768C0F6FF69C0E6
:1048F000F7FF000EF86E0800F5500009D8B483EFFA
:10490000A4F085EFA4F0B7EFA4F06AC0F6FF6BC087
:10491000F7FF000EF86E0800F5500009D8B493EFC9
:10492000A4F095EFA4F0B7EFA4F065516611D8B4E8
:104930009CEFA4F09EEFA4F0B7EFA4F068C0F6FFE0
:1049400069C0F7FF000EF86E0800F5CF67F06AC087
:10495000F6FF6BC0F7FF000EF86E0800F550671900
:10496000D8B4B5EFA4F0B7EFA4F06EEFA4F068C030
:10497000F6FF69C0F7FF000EF86E0800F5CF67F08C
:104980006AC0F6FF6BC0F7FF000EF86E0800F55026
:10499000675D616F626BD8A06207120065A2D3EFFA
:1049A000A4F0D5EFA4F034EFA5F0010EEAECB4F0DA
:1049B00048EFA5F04D044E10D8A4E1EFA4F0E3EFCA
:1049C000A4F0E8EFA4F0010EC5ECB4F046EFA5F0BA
:1049D0004B0E4D184E10D8A4F0EFA4F0F2EFA4F057
:1049E000F7EFA4F0010EEAECB4F046EFA5F04E505C
:1049F00009E1970E4D5CD8A000EFA5F002EFA5F0FD
:104A000008EFA5F0000E4E6E000E4D6E46EFA5F0BD
:104A100046EFA5F04D044E10D8A411EFA5F013EF0A
:104A2000A5F018EFA5F0010EC5ECB4F046EFA5F027
:104A3000320E4D184E10D8A420EFA5F022EFA5F0AD
:104A400027EFA5F0010EEAECB4F046EFA5F0B70EA3
:104A50004D5C030E4E58D8A030EFA5F032EFA5F014
:104A600046EFA5F002EFA5F00001F251646F656B0F
:104A70006551000AD8B43FEFA5F00AEFA5F06451E4
:104A8000200AD8B4DAEFA4F00AEFA5F04D4A4E2A76
:104A9000120065A24EEFA5F050EFA5F0AFEFA5F024
:104AA000010E79ECB5F0C3EFA5F04D044E10D8A47B
:104AB0005CEFA5F05EEFA5F063EFA5F0010E56ECFC
:104AC000B5F0C1EFA5F04B0E4D184E10D8A46BEF0A
:104AD000A5F06DEFA5F072EFA5F0010E79ECB5F041
:104AE000C1EFA5F04E5009E1970E4D5CD8A07BEFC9
:104AF000A5F07DEFA5F083EFA5F0000E4E6E000E41
:104B00004D6EC1EFA5F0C1EFA5F04D044E10D8A435
:104B10008CEFA5F08EEFA5F093EFA5F0010E56EC0B
:104B2000B5F0C1EFA5F0320E4D184E10D8A49BEF92
:104B3000A5F09DEFA5F0A2EFA5F0010E79ECB5F080
:104B4000C1EFA5F0B70E4D5C030E4E58D8A0ABEFE9
:104B5000A5F0ADEFA5F0C1EFA5F07DEFA5F0000148
:104B6000F251046E056A0550000AD8B4BAEFA5F0F8
:104B700085EFA5F00450200AD8B455EFA5F085EFD5
:104B8000A5F04D4A4E2A12005350D8A4CAEFA5F002
:104B9000CCEFA5F03AEFA6F0010E536E5250D8A418
:104BA000D4EFA5F0D6EFA5F03AEFA6F0010E526EC5
:104BB000020E5818D8A4DFEFA5F0E1EFA5F0F6EF4C
:104BC000A5F020EE01F03D50D9263E50DA22DF6AF2
:104BD0003DC0D9FF3EC0DAFF480EDF6E3DC0D9FFB1
:104BE0003EC0DAFF000EDB8E3AEFA6F05804D8A4E0
:104BF000FCEFA5F0FEEFA5F03AEFA6F0000E556E23
:104C000020EE01F04B50D9264C50DA22080EDF6E10
:104C100020EE02F04B50D9264C50DA22300EDE6ED8
:104C20000D0EDD6E4BC0D9FF4CC0DAFF040EDF6EF7
:104C30004BC0D9FF4CC0DAFF000EDB8E010E556E63
:104C400020EE01F04950D9264A50DA22080EDF6ED4
:104C500020EE02F04950D9264A50DA22300EDE6E9C
:104C60000D0EDD6E49C0D9FF4AC0DAFF800EDF6E3F
:104C70003AEFA6F012005350D8A441EFA6F043EF4C
:104C8000A6F0B1EFA6F0010E536E5250D8A44BEF30
:104C9000A6F04DEFA6F0B1EFA6F0010E526E020E97
:104CA0005818D8A456EFA6F058EFA6F06DEFA6F06E
:104CB00020EE01F03D50D9263E50DA22DF6A3DC099
:104CC000D9FF3EC0DAFF480EDF6E3DC0D9FF3EC0BF
:104CD000DAFF000EDB8EB1EFA6F05804D8A473EF14
:104CE000A6F075EFA6F0B1EFA6F0000E556E20EE1F
:104CF00001F04B50D9264C50DA22080EDF6E20EE20
:104D000002F04B50D9264C50DA22300EDE6E0D0EDA
:104D1000DD6E4BC0D9FF4CC0DAFF040EDF6E4BC016
:104D2000D9FF4CC0DAFF000EDB8E010E556E20EE6F
:104D300001F04950D9264A50DA22080EDF6E20EEE3
:104D400002F04950D9264A50DA22300EDE6E0D0E9E
:104D5000DD6E49C0D9FF4AC0DAFF800EDF6EB1EFC9
:104D6000A6F012003A8E270E0001616F0F0E626FDF
:104D7000000E646F000E636F000E666F020E656FAB
:104D8000D9EC95F0000E0001616F0D0E626F000E00
:104D9000646F000E636F000E666F300E656FD9ECA6
:104DA00095F0658C000E0001776F460E7725D96E61
:104DB000DA6A000EDA22DF6A430E7725D96EDA6AE4
:104DC000000EDA22DF6A772B020E7765EAEFA6F093
:104DD000ECEFA6F0D5EFA6F0FA0E616F000E626F51
:104DE000000E646F000E636F000E666F020E656F3B
:104DF000D9EC95F0659C080E3D6E0D0E3E6E000ED2
:104E00004B6E0D0E4C6E4BC049F04CC04AF032CD8B
:104E1000FDF00001FD51D8A410EFA7F012EFA7F0AC
:104E200016EFA7F0100EF26F27EFA7F0000E706FCD
:104E3000010E6F6FFD0E716F000E726F000E746FBA
:104E4000010E736F45ECACF0200E0001F26F120002
:104E50003A8E270E016E0F0E026E000E046E000ECB
:104E6000036E000E066E020E056E95EC96F0000EB7
:104E7000016E0D0E026E000E046E000E036E000E2B
:104E8000066E300E056E95EC96F0658C000E176E72
:104E9000460E1724D96EDA6A000EDA22DF6A430E54
:104EA0001724D96EDA6A000EDA22DF6A172A020E98
:104EB00017645DEFA7F05FEFA7F048EFA7F0FA0ED9
:104EC000016E000E026E000E046E000E036E000EE8
:104ED000066E020E056E95EC96F0659C080E3D6E12
:104EE0000D0E3E6E000E4B6E0D0E4C6E4BC049F01B
:104EF0004CC04AF032CDFDF00001FD51D8A483EF43
:104F0000A7F085EFA7F089EFA7F0100EF26F9AEFE8
:104F1000A7F0000E106E010E0F6EFD0E116E000E4A
:104F2000126E000E146E010E136E4FECADF0200EDB
:104F30000001F26F12000F013FB9A1EFA7F0A3EF3C
:104F4000A7F09BEFA7F03F813F833ACF65F00001C8
:104F5000655191ECB8F063C0D9FF64C0DAFFDF6E31
:104F60000F013B513A513F0B0001656F20EE02F0FB
:104F70006351D9266451DA22655191ECB8F0DF6EA5
:104F80000F013B511F0B0001656F20EE01F06351D3
:104F9000D9266451DA22655191ECB8F0DF6E0F0129
:104FA0003A513F0B0001656F20EE04F06351D926A2
:104FB0006451DA22655191ECB8F0DF6E0F013B517C
:104FC000070B0001656F20EE03F06351D926645191
:104FD000DA22655191ECB8F0DF6E0F013A517F0B88
:104FE0000001656F20EE06F06351D9266451DA2284
:104FF000655191ECB8F0DF6E0F013B517F0B000162
:10500000656F20EE05F06351D9266451DA226551AF
:1050100091ECB8F0DF6E1200E9CF22F0EACF23F076
:10502000E1CF24F0E2CF25F0D9CF26F0DACF27F078
:10503000F3CF28F0F4CF29F0F6CF2AF0F7CF2BF0FA
:10504000F8CF2CF0F5CF2DF0F2A429EFA8F02BEF3C
:10505000A8F034EFA8F0F294F29A2FECB2F0FB0E25
:10506000D76E600ED66EF28A9EA039EFA8F03BEFA5
:10507000A8F046EFA8F09E909D907DECB6F0F7EC7E
:10508000B1F0150ECF6EA00ECE6E9D80A4A04BEF9A
:10509000A8F04DEFA8F052EFA8F0A490A390F3EC85
:1050A000B8F0A380A1A857EFA8F059EFA8F05EEFE1
:1050B000A8F0A198A098EEECB8F0A0882DC0F5FF5C
:1050C0002CC0F8FF2BC0F7FF2AC0F6FF29C0F4FF61
:1050D00028C0F3FF27C0DAFF26C0D9FF25C0E2FFB2
:1050E00024C0E1FF23C0EAFF22C0E9FF5B92110068
