:0400000013EF00F00A
:060008005B8279EFAEF00F
:100018005B80E0CF60F060C0E0FF5B9010005BEFBA
:02002800B5F031
:10F53600000101000B0102000B0201000C02020097
:10F546000C03010108030201080101000B0102007E
:10F556000B0401000C0402000C050000008CF509E8
:10F566009AF60554F8014D5347454E44000052455E
:10F57600532D53540000434F4D2D5354000084F82F
:10F5860020F8ECF7A9F70D0A564C3533204D454EB9
:10F5960055450000000000000000000000000000CB
:10F5A6000000000020312E564C35335F494E495439
:10F5B6000000000000000000000000000000000045
:10F5C600000020322E434F4E5449494F5553205286
:10F5D600414E47494E470000000000000000000071
:10F5E60020332E53494E474C452052414E47494EF3
:10F5F600470000000000000000000000000020346A
:10F606002E53494E474C452052414E47494E4720BE
:10F6160048410000000000000000000020352E5385
:10F62600494E474C452052414E47494E4720485384
:10F636000000000000000000000020362E53494E56
:10F64600474C452052414E47494E47204C520000F8
:10F65600000000000000000020372E564C353320F5
:10F666004461746120444953504C415900000000E4
:10F6760000000000000020722E455849540000008A
:10F686000000000000000000000000000000000074
:10F69600000000000D0A5253343835204D454E55B2
:10F6A600450000000000000000000000000000000F
:10F6B600000020312E5258204D4F444500000000D6
:10F6C6000000000000000000000000000000000034
:10F6D60020322E5458204D4F4445000000000000B3
:10F6E60000000000000000000000000000002033C1
:10F6F6002E4F5645522052554E204552524F5220BB
:10F70600434C5200000000000000000020722E450D
:10F7160058495400000000000000000000000000EE
:10F72600000000000000000000000072746300008A
:10F736000000000000017265670000000000000084
:10F74600026932630000000000000003766C353366
:10F75600000000000000047062320000000000009B
:10F7660000056C6F6700000000000000066C6F6704
:10F776006F666600000000076C6F676F6E00000022
:10F786000000086C6F67636C7200000000097273FA
:10F7960034383500000000000A6E6F6E6500000008
:10F7A60000000009024300020100C0320904000003
:10F7B60001020201000524001001042402020524AE
:10F7C6000600010524010001070581030A0002095C
:10F7D600040100020A0000000705020240000007BB
:10F7E6000582024000003403430044004300200029
:10F7F600520053002D003200330032002000450035
:10F806006D0075006C006100740069006F006E0089
:10F816002000440065006D006F0034034D00690050
:10F82600630072006F0063006800690070002000CA
:10F8360054006500630068006E006F006C006F0086
:10F8460067007900200049006E0063002E000D0A53
:10F856005253343835205458203D20000000000013
:10F86600000000000000000000000000120100027D
:10F8760002000008D8040A00000101020001040386
:10F8860009042050494520202020203D203078259D
:10F896003032782C203078253032782C203078257C
:10F8A6003032782C203078253032782C203078256C
:10F8B6003032780D0A002050495220202020203D69
:10F8C600203078253032782C203078253032782C4C
:10F8D600203078253032782C203078253032782C3C
:10F8E600203078253032780D0A00204950522020E9
:10F8F6002020203D203078253032782C2030782585
:10F906003032782C203078253032782C203078250B
:10F916003032782C203078253032780D0A00493D77
:10F9260025642C533D253032782C43313D25303229
:10F93600782C43323D253032782C42463D253032F4
:10F9460078202025730D0A0064743D307825303206
:10F95600782C20636F6D5F737465705F666C673DAE
:10F9660025642C7263766E756D3D25640D0A002044
:10F976002A20202020202A202A2020202020202A59
:10F98600202A2A2A20202A2020202A200D0A0D0A91
:10F9960000202A20202020202A202020202A202063
:10F9A6002020202A2A2A20202A2020202A200D0A48
:10F9B60000202A202A202A202A2020202A202A2025
:10F9C600202020202A2020202A2A20202A200D0A32
:10F9D60000202A20202A20202A20202A2A2A2A2AF1
:10F9E600202020202A2020202A202A202A200D0A12
:10F9F60000202A20202020202A20202A2020202003
:10FA06002A2020202A2020202A20202A2A200D0AE7
:10FA160000533D253032782C43313D253032782C49
:10FA260043323D253032782C42463D25303278200F
:10FA3600002A2A2A204F5343494C4C41544F522006
:10FA46002A2A2A2A2A2A2A2A2A2A2A2A0D0A002A77
:10FA56002A2A20494E54455252555054202A2A2AC1
:10FA66002A2A2A2A2A2A2A2A2A0D0A00446973637C
:10FA7600617264207265636569766564206D65737D
:10FA860073616765200D0A000D0A2A2A2A2055533C
:10FA9600422D434443205365747570202A2A2A0D4B
:10FAA6000A000A2A2A2A205541525431202A2A2A93
:10FAB6002A2A2A2A2A2A2A2A2A0D0A000A2A2A2A27
:10FAC600205541525432202A2A2A2A2A2A2A2A2A08
:10FAD6002A2A2A0D0A00205350425247312020205C
:10FAE600203D20307825303278253032780D0A00D6
:10FAF60020535042524732202020203D2030782586
:10FB0600303278253032780D0A000D0A434F4D4DBC
:10FB1600414E44204D455353414745203D200D0A53
:10FB260020000D0A524553504F4E53204D45535316
:10FB3600414745203D200D0A20000D0A323025643C
:10FB46002F25642F25642025643A25643A25640D03
:10FB56000A002A2A2A20504F5254202A2A2A2A2AC0
:10FB66002A2A2A2A2A2A2A0D0A002A2A2A20493239
:10FB760043202A2A2A2A2A2A2A2A2A2A2A2A0D0A0D
:10FB86000049324320726567697374612064697342
:10FB9600706C61790D0A0020535350314144442062
:10FBA600203D203078253032780D0A0A0020535344
:10FBB600503241444420203D203078253032780DA3
:10FBC6000A0A00436F6D6D616E64206E6F74206665
:10FBD6006F756E642E200D0A002A2A2A205553417D
:10FBE6005254205365747570202A2A2A0D0A002063
:10FBF600524353544131202020203D203078253077
:10FC060032780D0A002054585354413120202020C8
:10FC16003D203078253032780D0A00205458535450
:10FC26004132202020203D203078253032780D0AC0
:10FC36000020524353544133202020203D20307869
:10FC4600253032780D0A002042415544434F4E314B
:10FC560020203D203078253032780D0A00204241A0
:10FC66005544434F4E3220203D203078253032789F
:10FC76000D0A00433D25642C696E6465783D256454
:10FC86002C666C673D256420005541525434383546
:10FC96005F52435354413D253032780D0A00554199
:10FCA60052543438355F54585354413D25303278D8
:10FCB6000D0A006765746368343835282920646145
:10FCC60074613D25780D0A00204F534354554E4527
:10FCD600203D203078253032780D0A0A0020535313
:10FCE6005031434F4E31203D203078253032780D4B
:10FCF6000A002053535032434F4E31203D20307876
:10FD0600253032780D0A002053535031434F4E327E
:10FD1600203D203078253032780D0A00205353508C
:10FD260032434F4E32203D203078253032780D0A4E
:10FD360000205353503153544154203D20307825F0
:10FD46003032780D0A002053535032535441542018
:10FD56003D203078253032780D0A00205452495320
:10FD66004520203D203078253032780D0A0A0020C3
:10FD760052434F4E202020203D20307825303278C7
:10FD86000D0A00204F5343434F4E20203D2030782C
:10FD9600253032780D0A0020494E54434F4E20201C
:10FDA6003D203078253032780D0A00204F534343EA
:10FDB6004F4E32203D203078253032780D0A002013
:10FDC600494E54434F4E32203D203078253032780C
:10FDD6000D0A0020494E54434F4E33203D203078C3
:10FDE600253032780D0A006D61696E5F6C6F6F7039
:10FDF6005F6469737028290D0A00496E6974696128
:10FE06006C697A6520456E640D0A0D0A002054520D
:10FE160049534120203D203078253032780D0A00A4
:10FE260020545249534220203D20307825303278E4
:10FE36000D0A0020545249534320203D2030782596
:10FE46003032780D0A0020545249534420203D2078
:10FE56003078253032780D0A00555342204E4F54E3
:10FE660020434F4E4543540D0A0025643A25643A13
:10FE760025642025642E256420002020535350320B
:10FE8600434F4E313D25780D0A0020205353503202
:10FE9600434F4E323D25780D0A00202053535032F1
:10FEA600535441543D25780D0A005750543D25645E
:10FEB6002C5250543D25640D0A0054696D65725FDD
:10FEC600696E697428290D0A002020535350324167
:10FED60044443D25780D0A007075746368343835DE
:10FEE600282578290D0A004C4F47204F4646203DCD
:10FEF6002025640D0A00525334383520433D3078AE
:10FF060025780D0A00443D25642C696E6465783DAC
:10FF1600256420005553422053555350454E4454B2
:10FF26000D0A0020205353504144443D25780D0AC4
:10FF3600004C4F47204F4E203D2025640D0A0025DA
:10FF46003032642E253033642E25642000434F4D15
:10FF56004D414E443D25640D0A00202066616C73B8
:10FF6600653D25780D0A004352454E2052455345BE
:10FF7600540D0A0055534220434F4E4543540D0A33
:10FF8600002020747275653D25780D0A004C4F4798
:10FF960020434C4541520D0A00636D645F6D6573E5
:10FFA600673D200020205344413D25780D0A00205E
:10FFB6002053434C3D25780D0A00427574746F6ECC
:10FFC600310D0A00427574746F6E320D0A00203AC4
:10FFD6003A2025730D0A004C4F472053544F5000CA
:10FFE6005553423E2000533D2564200020257320B2
:0AFFF600006C6C7300082008000086
:020000040001F9
:10000000000E0001D46F000ED66FD569000EDA6FB6
:10001000000ED96FD9EF80F0D951C725D96EDA51CA
:10002000C821DA6EDF50CB6F7C0EF66EF50EF76EE0
:10003000000EF86E0800F550CB19D8A422EF80F01E
:1000400024EF80F0D7EF80F0D951C725CB6FDA517C
:10005000C821CC6F010ECB25D96E000ECC21DA6EF3
:10006000DF50CD6F7D0EF66EF50EF76E000EF86E5A
:100070000800F550CD19D8A440EF80F042EF80F091
:10008000D7EF80F0D951C725CB6FDA51C821CC6F9B
:10009000020ECB25D96E000ECC21DA6EDF50CD6F6B
:1000A0007E0EF66EF50EF76E000EF86E0800F55037
:1000B000CD19D8A45EEF80F060EF80F0D7EF80F02C
:1000C000D951C725CB6FDA51C821CC6F030ECB2590
:1000D000D96E000ECC21DA6EDF50CD6F7F0EF66E3A
:1000E000F50EF76E000EF86E0800F550CD19D8A485
:1000F0007CEF80F07EEF80F0D7EF80F0D951C725FC
:10010000CB6FDA51C821CC6F040ECB25D96E000E0F
:10011000CC21DA6EDF50CD6F800EF66EF50EF76EE5
:10012000000EF86E0800F550CD19D8A49AEF80F0B3
:100130009CEF80F0D7EF80F0D951C725CB6FDA5113
:10014000C821CC6F050ECB25D96E000ECC21DA6EFE
:10015000DF50CD6F810EF66EF50EF76E000EF86E65
:100160000800F550CD19D8A4B8EF80F0BAEF80F0B0
:10017000D7EF80F0D9C0D5F0DAC0D6F0D951C72575
:10018000CB6FDA51C821CC6F070ECB25D96E000E8C
:10019000CC21DA6E020EDE18D8A4D1EF80F0D3EFB6
:1001A00080F0E4EF80F0010ED46FE4EF80F0D94BE3
:1001B000DA2BC551D95DC651DA59D8A0E2EF80F0EB
:1001C000E4EF80F00CEF80F0D529D611D8A4EBEF46
:1001D00080F0EDEF80F0B4EF81F0000EDA6F000EEA
:1001E000D96FA9EF81F0D951C725D96EDA51C8214D
:1001F000DA6EDF50CB6F740EF66EF50EF76E000EF2
:10020000F86E0800F550CB19D8A409EF81F00BEF78
:1002100081F0A7EF81F0D951C725CB6FDA51C82102
:10022000CC6F010ECB25D96E000ECC21DA6EDF50DB
:10023000CD6F750EF66EF50EF76E000EF86E0800B7
:10024000F550CD19D8A427EF81F029EF81F0A7EF61
:1002500081F0D951C725CB6FDA51C821CC6F020E7E
:10026000CB25D96E000ECC21DA6EDF50CD6F760E25
:10027000F66EF50EF76E000EF86E0800F550CD190B
:10028000D8A445EF81F047EF81F0A7EF81F0D95175
:10029000C725CB6FDA51C821CC6F030ECB25D96EA1
:1002A000000ECC21DA6EDF50CD6F770EF66EF50EB4
:1002B000F76E000EF86E0800F550CD19D8A463EF64
:1002C00081F065EF81F0A7EF81F0D951C725CB6FA1
:1002D000DA51C821CC6F040ECB25D96E000ECC218B
:1002E000DA6EDF50CD6F780EF66EF50EF76E000EFB
:1002F000F86E0800F550CD19D8A481EF81F083EF96
:1003000081F0A7EF81F0D951C725CB6FDA51C82111
:10031000CC6F050ECB25D96E000ECC21DA6EDF50E6
:10032000CD6F790EF66EF50EF76E000EF86E0800C2
:10033000F550CD19D8A49FEF81F0A1EF81F0A7EF80
:1003400081F0D9C0D5F0DAC0D6F0B4EF81F0D94B46
:10035000DA2BC551D95DC651DA59D8A0B2EF81F078
:10036000B4EF81F0F3EF80F0000EDA6F000ED96F7A
:1003700072EF82F0D951C725D96EDA51C821DA6EF1
:10038000DF50CB6F6C0EF66EF50EF76E000EF86E4A
:100390000800F550CB19D8A4D0EF81F0D2EF81F04E
:1003A00070EF82F0D951C725CB6FDA51C821CC6FDD
:1003B000010ECB25D96E000ECC21DA6EDF50CD6F49
:1003C0006D0EF66EF50EF76E000EF86E0800F55025
:1003D000CD19D8A4EEEF81F0F0EF81F070EF82F04C
:1003E000D951C725CB6FDA51C821CC6F020ECB256E
:1003F000D96E000ECC21DA6EDF50CD6F6E0EF66E28
:10040000F50EF76E000EF86E0800F550CD19D8A461
:100410000CEF82F00EEF82F070EF82F0D951C72519
:10042000CB6FDA51C821CC6F030ECB25D96E000EED
:10043000CC21DA6EDF50CD6F6F0EF66EF50EF76ED3
:10044000000EF86E0800F550CD19D8A42AEF82F0FE
:100450002CEF82F070EF82F0D951C725CB6FDA51C3
:10046000C821CC6F040ECB25D96E000ECC21DA6EDC
:10047000DF50CD6F700EF66EF50EF76E000EF86E53
:100480000800F550CD19D8A448EF82F04AEF82F069
:1004900070EF82F0D951C725CB6FDA51C821CC6FEC
:1004A000050ECB25D96E000ECC21DA6EDF50CD6F54
:1004B000710EF66EF50EF76E000EF86E0800F55030
:1004C000CD19D8A466EF82F068EF82F070EF82F069
:1004D000060ED925CE6F000EDA21CF6F7DEF82F0A8
:1004E000D94BDA2BC551D95DC651DA59D8A07BEF6B
:1004F00082F07DEF82F0BAEF81F0000ED86F000E2F
:10050000D76FD5C0D9F0D6C0DAF099EF82F0D951C3
:10051000C725D96EDA51C821DA6ED751C925E16EE7
:10052000D851CA21E26EDFCFE7FFD74BD82BD94B8A
:10053000DA2BCE51D95DCF51DA59D8A0A2EF82F093
:10054000A4EF82F087EF82F0000EDA6F000ED96F11
:10055000E1EF82F0D951C925D96EDA51CA21DA6E9C
:100560001F0EDF64B6EF82F0B8EF82F0D3EF82F0B7
:10057000D951C925D96EDA51CA21DA6E7F0EDF60F2
:10058000C4EF82F0C6EF82F0D3EF82F0D951C925D3
:10059000D96EDA51CA21DA6EDF50CB6FCB51D06FF2
:1005A000D16BD7EF82F0000ED16F2E0ED06FA00E60
:1005B000D925D96E020EDA21DA6ED0C0DFFFD94B11
:1005C000DA2BD751D95DD851DA59D8A0EAEF82F0A9
:1005D000ECEF82F0AAEF82F0100EB56FFB0EB66F53
:1005E00048ECBFF0000E0001DA6F000ED96F0DEF7E
:1005F00083F0310EB56FFA0EB66FD951C925D96E99
:10060000DA51CA21DA6EDF50CB6FCB51B76FB86BBE
:1006100048ECBFF00001D94BDA2BD751D95DD85146
:10062000DA59D8A016EF83F018EF83F0F9EF82F0D3
:10063000240EB56FFB0EB66F48ECBFF0000E000144
:10064000D36F000EDA6F000ED96F3CEF83F0A00E6F
:10065000D925D96E020EDA21DA6EDF50D26FF20E92
:10066000B56FFF0EB66FD20EB76F000EB86F48ECC5
:10067000BFF00001D94BDA2BD751D95DD851DA59E7
:10068000D8A045EF83F047EF83F027EF83F0940E77
:10069000B56FF90EB66F48ECBFF00001D4511200EF
:1006A000940E0001B56FF90EB66F48ECBFF0B00EB6
:1006B0000001B56FFE0EB66F44C7B7F045C7B8F07E
:1006C00046C7B9F047C7BAF048ECBFF046C7D1F00B
:1006D00047C7D2F0000E0001CA6F000EC96FD1C02B
:1006E00061F0D2C062F0000E646F1D0E636F5CECAF
:1006F000BFF0040E00016125D96E050E6221DA6E8D
:100700000A0EDE18D8A487EF83F089EF83F09BEF01
:1007100083F0D1C061F0D2C062F0000E646F1D0E94
:10072000636F5CECBFF0040E00016125D96E050E0D
:100730006221DA6EDF6AD1C061F0D2C062F0000ED1
:10074000646F1D0E636F5CECBFF0010E000161254C
:10075000D96E050E6221DA6EDF50C56FC551CF6FBD
:10076000D06BD1C061F0D2C062F0000E646F1D0E7C
:10077000636F5CECBFF0020E00016125D96E050EBF
:100780006221DA6EDECFCDF0DDCFCEF0D1C061F0E8
:10079000D2C062F0000E646F1D0E636F5CECBFF0A0
:1007A000040E00016125D96E050E6221DA6EDF505C
:1007B000C56FC551CB6FCC6B450EB56FFF0EB66FD5
:1007C000CFC0B7F0D0C0B8F0CDC0B9F0CEC0BAF04D
:1007D000CBC0BBF0CCC0BCF048ECBFF036EF85F02E
:1007E000D1C061F0D2C062F0000E646F1D0E636F65
:1007F0005CECBFF0190E00016125D96E050E622177
:10080000DA6EDF50C56FC551CF6FD06BD1C061F0CC
:10081000D2C062F0000E646F1D0E636F5CECBFF01F
:100820001A0E00016125D96E050E6221DA6EDF50C5
:10083000C56FC551CD6FCE6BD1C061F0D2C062F033
:10084000000E646F1D0E636F5CECBFF01B0E0001A9
:100850006125D96E050E6221DA6EDF50C56FC55174
:10086000CB6FCC6BD1C061F0D2C062F0000E646F70
:100870001D0E636F5CECBFF01C0E00016125D96E8C
:10088000050E6221DA6EDF50C56FC551C76FC86BA8
:10089000170EB56FFA0EB66FCFC0B7F0D0C0B8F074
:1008A000CDC0B9F0CEC0BAF0CBC0BBF0CCC0BCF06C
:1008B000C7C0BDF0C8C0BEF048ECBFF06DEF85F01A
:1008C000D1C061F0D2C062F0000E646F1D0E636F84
:1008D0005CECBFF0190E00016125D96E050E622196
:1008E000DA6EDF50C56FC551CF6FD06BEC0EB56FB0
:1008F000FF0EB66FCFC0B7F0D0C0B8F048ECBFF075
:100900006DEF85F0D1C061F0D2C062F0000E646F6F
:100910001D0E636F5CECBFF0190E00016125D96EEE
:10092000050E6221DA6EDF50C56FC551CF6FD06BF7
:10093000D1C061F0D2C062F0000E646F1D0E636F13
:100940005CECBFF01A0E00016125D96E050E622124
:10095000DA6EDF50C56FC551CD6FCE6BD1C061F07F
:10096000D2C062F0000E646F1D0E636F5CECBFF0CE
:100970001B0E00016125D96E050E6221DA6EDF5073
:10098000C56FC551CB6FCC6B790EB56FFC0EB66FD2
:10099000CFC0B7F0D0C0B8F0CDC0B9F0CEC0BAF07B
:1009A000CBC0BBF0CCC0BCF048ECBFF06DEF85F025
:1009B000D1C061F0D2C062F0000E646F1D0E636F93
:1009C0005CECBFF0190E00016125D96E050E6221A5
:1009D000DA6EDF50C56FC551CF6FD06BD1C061F0FB
:1009E000D2C062F0000E646F1D0E636F5CECBFF04E
:1009F0001A0E00016125D96E050E6221DA6EDF50F4
:100A0000C56FC551CD6FCE6B0B0EB56FFF0EB66FB8
:100A1000CFC0B7F0D0C0B8F0CDC0B9F0CEC0BAF0FA
:100A200048ECBFF06DEF85F0D1C061F0D2C062F04C
:100A3000000E646F1D0E636F5CECBFF0190E0001B9
:100A40006125D96E050E6221DA6EDF50C56FC55182
:100A5000CF6FD06B100EB56FFF0EB66FCFC0B7F073
:100A6000D0C0B8F048ECBFF06DEF85F0D1C061F0B8
:100A7000D2C062F0000E0001646F1D0E636F5CEC6B
:100A8000BFF0000E00016125D96E050E6221DA6EFD
:100A9000DF50C56FC66BC651000AD8B452EF85F05F
:100AA0006DEF85F0C551000AD8B4F0EF83F0010A6C
:100AB000D8B460EF84F0030AD8B482EF84F0010A5E
:100AC000D8B4D8EF84F0070AD8B414EF85F0010A3F
:100AD000D8B46DEF85F06DEF85F0D1C061F0D2C074
:100AE00062F0000E0001646F1D0E636F5CECBFF0DE
:100AF000050E00016125CF6F050E6221D06F490EF2
:100B0000B56FF90EB66FCFC0B7F0D0C0B8F048ECF3
:100B1000BFF00001D14BD22BD25109E1150ED15DAE
:100B2000D8A095EF85F097EF85F09BEF85F0000E4C
:100B3000D26F000ED16F27EE44F0D151DE1807E1DD
:100B4000D251DE18D8A4A7EF85F0A9EF85F0ABEF5E
:100B500085F0B8EF85F0C94BCA2BCA5109E1140ED4
:100B6000C95DD8A0B6EF85F0B8EF85F06FEF83F0E0
:100B70001200010E00016D6F000E6F6F000E6E6FA0
:100B80006AC0D9FF6BC0DAFFDE6ADD6A68C0D9FFD0
:100B900069C0DAFF300EDE18D8A4D1EF85F0D3EFAC
:100BA00085F0F6EF86F020EE01F06851D926695104
:100BB000DA22780EDE18D8A4E0EF85F0E2EF85F0B7
:100BC000F6EF86F0020E706F70516825D96E000E38
:100BD0006921DA6EDF50D8A4F0EF85F0F2EF85F0EE
:100BE000F4EF85F06FEF86F070516825D96E000E36
:100BF0006921DA6E600EDF6400EF86F002EF86F0A6
:100C000010EF86F070516825D96E000E6921DA6EFA
:100C1000660EDF640EEF86F010EF86F048EF86F088
:100C200070516825D96E000E6921DA6E400EDF64BE
:100C30001CEF86F01EEF86F02CEF86F070516825D1
:100C4000D96E000E6921DA6E460EDF642AEF86F057
:100C50002CEF86F048EF86F070516825D96E000EB3
:100C60006921DA6E2F0EDF6438EF86F03AEF86F0F6
:100C700062EF86F070516825D96E000E6921DA6E38
:100C80003A0EDF6046EF86F048EF86F062EF86F0BE
:100C90006E516F11D8A44FEF86F051EF86F057EFE9
:100CA00086F0000E6F6F010E6E6F66EF86F06E3B82
:100CB0006F3BF00E6F176E510F0B6F13F00E6E1728
:100CC00066EF86F0000E6D6F6FEF86F0702B070EEB
:100CD00070656DEF86F06FEF86F0E4EF85F06D05DF
:100CE000D8A475EF86F077EF86F09FEF87F0020EBD
:100CF000706F70516825D96E000E6921DA6EDF5071
:100D0000D8A485EF86F087EF86F089EF86F09FEF15
:100D100087F070516825D96E000E6921DA6E2F0EAA
:100D2000DF6495EF86F097EF86F0C3EF86F07051A1
:100D30006825D96E000E6921DA6E3A0EDF60A3EFE6
:100D400086F0A5EF86F0C3EF86F070516825D96E66
:100D5000000E6921DA6EDF506C6F0F0E6C176C514C
:100D6000616F626B6EC063F06FC064F05CECBFF0EB
:100D70006AC0D9FF6BC0DAFF00016151DE26625103
:100D8000DD22E2EF86F070516825D96E000E6921F0
:100D9000DA6EDF506C6F0F0E6C17090E6C25616FE9
:100DA000626B000E62236EC063F06FC064F05CEC97
:100DB000BFF06AC0D9FF6BC0DAFF00016151DE26C7
:100DC0006251DD226E3B6F3B0F0E6E176F51F00BC1
:100DD0006E130F0E6F17702B070E7065F2EF86F013
:100DE000F4EF86F079EF86F09FEF87F0000E706FDA
:100DF00070516825D96E000E6921DA6EDF50D8A4D3
:100E000004EF87F006EF87F008EF87F051EF87F0E7
:100E100070516825D96E000E6921DA6E2F0EDF64DD
:100E200014EF87F016EF87F043EF87F070516825D5
:100E3000D96E000E6921DA6E3A0EDF6022EF87F07C
:100E400024EF87F043EF87F06E516F11D8A42BEF9A
:100E500087F02DEF87F033EF87F0000E6F6F010EF4
:100E60006E6F47EF87F06EC061F06FC062F0000EEA
:100E7000646F0A0E636F5CECBFF061C06EF062C01D
:100E80006FF047EF87F0000E6D6F51EF87F00001B4
:100E9000702B070E70654FEF87F051EF87F0F8EF7A
:100EA00086F06D05D8A457EF87F059EF87F09FEFD4
:100EB00087F0000E706F70516825D96E000E6921A1
:100EC000DA6EDF50D8A467EF87F069EF87F06BEF39
:100ED00087F09FEF87F070516825D96E000E692169
:100EE000DA6EDF506C6F0F0E6C176C51616F626BB6
:100EF0006EC063F06FC064F05CECBFF06AC0D9FFF5
:100F00006BC0DAFF00016151DE266251DD226EC046
:100F100061F06FC062F0000E646F0A0E636FFFEC49
:100F2000B7F061C06EF062C06FF00001702B070E69
:100F300070659DEF87F09FEF87F05BEF87F0120001
:100F4000000E0101AC6F000EA56F000EA16F000E28
:100F5000A26F240EA36F410EA46FA1C161F0A2C1C4
:100F600062F0A3C163F0A4C164F018ECAAF061C000
:100F7000A7F162C0A8F163C0A9F164C0AAF167EF4C
:100F800089F0C1ECBEF00001DB6F800E0101382555
:100F9000D96E040E3921DA6EDBC0DFFF384B392BF6
:100FA00038C161F039C162F0800E0001636F040E38
:100FB000646F94EC98F0000161516211D8B4E3EFD2
:100FC00087F0E5EF87F00EEF88F038C1C5F039C142
:100FD000C6F0800EC76F040EC86FC00EC96F020E38
:100FE000CA6F00EC80F0E806D8A4F9EF87F0FBEFB9
:100FF00087F000EF88F0020E0101F46F07EF88F030
:10100000720E0001B56FFA0EB66F48ECBFF0000E1D
:101010000101396F000E386F7EEF89F0E851D8A4D6
:1010200014EF88F016EF88F0C1EF87F07EEF89F0BB
:10103000CAC2A6F1530EB56FFF0EB66FA6C1B7F0C8
:10104000B86B48ECBFF0000E0101AB6F740EAB251E
:10105000F66EF76AF50EF722F86A000EF822720EA5
:10106000AB25D96EDA6A010EDA220800F5CFDFFF70
:10107000AB2B050EAB653FEF88F041EF88F026EF14
:1010800088F0060EAC6F230E786FAC2B720EAC2579
:10109000D96EDA6A010EDA22DF6AAC2B720EAC2549
:1010A000D96EDA6A010EDA22020EDF6EAC2B720EF6
:1010B000AC25D96EDA6A010EDA222A0EDF6EAC2B6D
:1010C000720EAC25D96EDA6A010EDA22A6C1DFFFF4
:1010D000AC2BF4EF88F0720E0101AC25D96EDA6A00
:1010E000010EDA22DF6AAC2B720EAC25D96EDA6AF9
:1010F000010EDA22DF6AAC2B720EAC25D96EDA6AE9
:10110000010EDA22DF6AAC2B720EAC25D96EDA6AD8
:10111000010EDA22DF6AAC2B12EF89F0720E0101A8
:10112000AC25D96EDA6A010EDA22DF6AAC2B720EB8
:10113000AC25D96EDA6A010EDA22100EDF6EAC2B06
:10114000720EAC25D96EDA6A010EDA22010EDF6E5C
:10115000AC2B720EAC25D96EDA6A010EDA22DF6A88
:10116000AC2B720EAC25D96EDA6A010EDA22DF6A78
:10117000AC2B12EF89F0720E0101AC25D96EDA6A40
:10118000010EDA22DF6A8BEF88F0720E0101AC25C6
:10119000D96EDA6A010EDA22DF6AAC2B720EAC2548
:1011A000D96EDA6A010EDA22A7C1DFFFAC2B720E0C
:1011B000AC25D96EDA6A010EDA22A8C1DFFFAC2BAA
:1011C000720EAC25D96EDA6A010EDA22A9C1DFFFF0
:1011D000AC2B720EAC25D96EDA6A010EDA22AAC1E6
:1011E000DFFFAC2B12EF89F0A6510001DB6FDC6B47
:1011F000DC51000AD8B4FFEF88F012EF89F0DB5120
:10120000010AD8B46BEF88F0030AD8B48EEF88F0E7
:10121000010AD8B4BBEF88F0070AD8B4C5EF88F04C
:1012200012EF89F0060E0101AB6F20EF89F0720E0C
:10123000AB25D96EDA6A010EDA22DF50A527AB2B77
:10124000AC51AB5DD8A027EF89F029EF89F017EFFB
:1012500089F0720EAC25D96EDA6A010EDA22240EFC
:10126000DF6EAC2B720EAC25D96EDA6A010EDA2273
:10127000A5C1DFFFAC2B000EAB6F6C0EAB25F66E7D
:10128000F76AF50EF722F86A000EF822720EAC2506
:10129000D96EDA6A010EDA220800F5CFDFFFAC2B37
:1012A000AB2B050EAB6557EF89F059EF89F03DEF99
:1012B00089F0720E0001C56F010EC66FACC1C7F098
:1012C00020EC9BF0010E0101F46F7EEF89F001012B
:1012D000F4510001DB6FDC6BDC51000AD8B473EF12
:1012E00089F07EEF89F0DB51010AD8B40EEF88F067
:1012F000030AD8B418EF88F07EEF89F012000D01D0
:101300003205D8A486EF89F088EF89F0A2EF89F042
:1013100030511F0B0009D8A490EF89F092EF89F0AB
:10132000A2EF89F00D8E030E3119D8A49AEF89F03F
:101330009CEF89F0A0EF89F0010E2B6EA2EF89F0EF
:10134000000E2B6E3251D8A4A8EF89F0AAEF89F0D5
:1013500039EF8BF030511F0B020AD8A4B2EF89F09D
:10136000B4EF89F039EF8BF034510F0B0009D8B48A
:10137000BCEF89F0BEEF89F039EF8BF034510F0BE1
:101380000001776F030E7761C8EF89F0CAEF89F02B
:1013900039EF8BF0200EF419D8A4D1EF89F0D3EFF8
:1013A00089F039EF8BF00D8E0D0134BFDAEF89F043
:1013B000DCEF89F0FCEF89F034510F0B0001776FFF
:1013C0007751020D240EF324D96E010EF420DA6E4B
:1013D000DECF7CF0DDCF7DF00D0134510F0B00012D
:1013E000776F786B160E7725D96E000E7821DA6E3E
:1013F000DF507B6F1AEF8AF034510F0B0001776FCB
:101400007751020D100EF324D96E000EF420DA6E1F
:10141000DECF7CF0DDCF7DF00D0134510F0B0001EC
:10142000776F786B190E7725D96E000E7821DA6EFA
:10143000DF507B6F7BB11FEF8AF021EF8AF029EF3D
:101440008AF0FB0E7C157C6FFF0E7D157D6F2EEFF5
:101450008AF0040E7C117C6F7D517D6F0D0134BFCD
:1014600034EF8AF036EF8AF048EF8AF034510F0BF0
:101470000001776F7751020D240EF324D96E010E0F
:10148000F420DA6E7CC0DEFF7DC0DDFF58EF8AF00D
:1014900034510F0B0001776F7751020D100EF324BA
:1014A000D96E000EF420DA6E7CC0DEFF7DC0DDFF59
:1014B000030E0D013119D8A460EF8AF062EF8AF0B3
:1014C0009EEF8AF07CC0D9FF7DC0DAFF0001DFAE5D
:1014D0006CEF8AF06EEF8AF090EF8AF00D0134BF66
:1014E00074EF8AF076EF8AF084EF8AF034510F0BB4
:1014F0000001776F786B160E7725D96E000E782174
:10150000DA6EDF8290EF8AF034510F0B0001776FB3
:10151000786B190E7725D96E000E7821DA6EDF828E
:101520007CC0D9FF7DC0DAFF000EDB847CC0D9FF10
:101530007DC0DAFF000EDB8E39EF8BF0040E000168
:101540007C197C6F7D517D6F7CC0D9FF7DC0DAFF37
:10155000DFAEADEF8AF0AFEF8AF0CBEF8AF07CC060
:10156000D9FF7DC0DAFF7F0EDF167CC0D9FF7DC0BA
:10157000DAFF000EDB8C000E706F050E6F6F7CC003
:1015800071F07DC072F0000E746F020E736FA1ECEB
:10159000B3F0D1EF8AF07CC0D9FF7DC0DAFF000E36
:1015A000DB8C040E00017C197C6F7D517D6F7BB359
:1015B000DCEF8AF0DEEF8AF0E9EF8AF07CC0D9FF39
:1015C0007DC0DAFFDFAEE7EF8AF0E9EF8AF021EFC6
:1015D0008BF00D0134BFEFEF8AF0F1EF8AF0FFEFEF
:1015E0008AF034510F0B0001776F786B160E772558
:1015F000D96E000E7821DA6EDF920BEF8BF034514A
:101600000F0B0001776F786B190E7725D96E000EDE
:101610007821DA6EDF927CC0D9FF7DC0DAFF3B0E05
:10162000DF16000E706F050E6F6F7CC071F07DC00D
:1016300072F0000E746F020E736FA1ECB3F027EF1F
:101640008BF07CC0D9FF7DC0DAFF3B0EDF160D01A9
:1016500034510F0B0001776F786B260E7725796F69
:101660000F0E78217A6F79C0D9FF7AC0DAFFFE0EAB
:10167000DF1612009DC0D9FF9EC0DAFFDECFF6FF55
:10168000DDCFF7FF000EF86E0800F550250AD8A44C
:101690004CEF8BF04EEF8BF0DDEF8CF09DC0D9FF5F
:1016A0009EC0DAFFDE2A000EDD22000E0001DE6F92
:1016B000000EDD6FDDC0E3F0DF69E069000EA46FAE
:1016C000000EA36F90EF8BF0E3839DC0D9FF9EC007
:1016D000DAFFDE2A000EDD2290EF8BF0000EA46F01
:1016E000010EA36F90EF8BF09DC0D9FF9EC0DAFF73
:1016F000DECFF6FFDDCFF7FF000EF86E0800F550E5
:10170000A16FA26BA251000AD8B489EF8BF06EEFE3
:101710008BF0A151300AD8B464EF8BF06EEF8BF0F0
:10172000A351A411D8B497EF8BF099EF8BF074EF1D
:101730008BF09DC067F09EC068F09FC069F0A0C0AC
:101740006AF03CECB0F067C0DDF068C0DEF000018C
:10175000DEBFAFEF8BF0ADEF8BF0B4EF8BF0E3813A
:10176000DD6DDE1FD8B0DE2B9DC0D9FF9EC0DAFF35
:10177000DECFABF0DDCFACF0ABC0F6FFACC0F7FF17
:10178000000EF86E0800F550640AD8B4CAEF8BF06A
:10179000CCEF8BF0DCEF8BF0ABC0F6FFACC0F7FF0B
:1017A000000EF86E0800F550690AD8A4DAEF8BF045
:1017B000DCEF8BF00AEF8CF09FC0D9FFA0C0DAFFFE
:1017C000DFCFA1F0020EDE26DFCFA2F0000EDD2279
:1017D000A1C0D9FFA2C0DAFFDECFA7F0DDCFA8F00D
:1017E000010EAB25A16F000EAC21A26F9DC0D9FFE9
:1017F0009EC0DAFFA1C0DEFFA2C0DDFF9BC08BF060
:101800009CC08CF0A7C08DF0A8C08EF0ABEC97F018
:10181000F4EF8CF0ABC0F6FFACC0F7FF000EF86E33
:101820000800F550780AD8A418EF8CF01AEF8CF065
:1018300062EF8CF09FC0D9FFA0C0DAFFDFCFA1F02C
:10184000020EDE26DFCFA2F0000EDD22A1C0D9FFFE
:10185000A2C0DAFFDECFA7F0DDCFA8F0010EAB25E6
:10186000A16F000EAC21A26F9DC0D9FF9EC0DAFF10
:10187000A1C0DEFFA2C0DDFF4AEF8CF09BC08BF061
:101880009CC08CF0A7C08DF0A8C08EF0D3EC9EF069
:10189000F4EF8CF0ABC0F6FFACC0F7FF000EF86EB3
:1018A0000800F550A16FA26BA251000AD8B45BEFFB
:1018B0008CF062EF8CF0A151780AD8B43EEF8CF036
:1018C00062EF8CF09DC0D9FF9EC0DAFFDECFF6FF3D
:1018D000DDCFF7FF000EF86E0800F550730AD8B49C
:1018E00074EF8CF076EF8CF092EF8CF09DC0D9FF06
:1018F0009EC0DAFFDECF61F0DDCF62F0F70E636FDE
:10190000FF0E646F000E666F030E656FA3ECABF005
:10191000000161516211D8A490EF8CF092EF8CF02D
:10192000D4EF8CF09DC0D9FF9EC0DAFFDECFF6FF6A
:10193000DDCFF7FF000EF86E0800F550730AD8B43B
:10194000A4EF8CF0A6EF8CF0ACEF8CF0000EA66F3D
:10195000030EA56FB0EF8CF0000EA66F010EA56F01
:101960009DC0D9FF9EC0DAFFA551DE26A651DD221B
:101970009BC079F09CC07AF09FC0D9FFA0C0DAFF6D
:10198000DFCFA1F0020EDE26DFCFA2F0000EDD22B7
:10199000A1C0D9FFA2C0DAFFDECF7BF0DDCF7CF0A3
:1019A00051EC9AF0F4EF8CF09DC0D9FF9EC0DAFFA5
:1019B000DE2A000EDD22F4EF8CF09DC0D9FF9EC020
:1019C000DAFFDECFF6FFDDCFF7FF000EF86E08007E
:1019D000F5500001706F716B9BC072F09CC073F08A
:1019E000A5ECB0F0D4EF8CF0120040ECBEF000019A
:1019F0007051CA6FCA51D8B400EF8DF002EF8DF06C
:101A0000A7EF8EF092EF8EF0000E0101436F000EF3
:101A1000426F010E0001EF6FE00ECA25C56FC66B65
:101A2000FF0EC623C65107E15F0EC55DD8B01BEFA0
:101A30008DF01DEF8DF03CEF8DF0010143BF2CEFD9
:101A40008DF0435107E10F0E425DD8B02AEF8DF0C3
:101A50002CEF8DF03CEF8DF04E0E4225D96E010E2D
:101A60004321DA6ECAC0DFFF424B432B0001CA514B
:101A7000D0ECB1F0A7EF8EF0080E0001CA19D8A47F
:101A800044EF8DF046EF8DF060EF8DF0010143BF24
:101A900052EF8DF0435108E14205D8A052EF8DF08E
:101AA00054EF8DF060EF8DF04207D8A04307FB0E96
:101AB0000001B56FFF0EB66F48ECBFF0A7EF8EF0D8
:101AC0000D0E0001CA19D8A468EF8DF06AEF8DF0F1
:101AD00090EF8EF04E0E01014225D96E010E43218A
:101AE000DA6EDF6A940E0001B56FF90EB66F48EC3E
:101AF000BFF0020E0001EF6F000EC76F000E010174
:101B00005E6F000E666F000E6F6F000E6E6F000E40
:101B1000716F000E706F000E0001C96F000EC86F6C
:101B2000000ECC6F000ECB6F4E0ECB25D96E010E82
:101B3000CC21DA6EDF50D8A4A0EF8DF0A2EF8DF0AB
:101B4000D1EF8DF0B8EF8DF05E0EC825D96E010E85
:101B5000C921DA6EDF6AC84BC92B79EF8EF0660EA9
:101B6000C825D96E010EC921DA6EDF6A79EF8EF0D1
:101B7000C751C56FC66BC651000AD8B4C2EF8DF00D
:101B800079EF8EF0C551000AD8B479EF8EF0010AD2
:101B9000D8B4A4EF8DF0030AD8B4AFEF8DF079EF8D
:101BA0008EF04E0ECB25D96E010ECC21DA6E200EB2
:101BB000DE18D8A4DEEF8DF0E0EF8DF052EF8EF05E
:101BC00017EF8EF04E0ECB25D96E010ECC21DA6EBA
:101BD000DF6AC72B6BEF8EF001015E51D8B4F3EFD3
:101BE0008DF0F5EF8DF06BEF8EF05E0E0001C825E5
:101BF000D96E010EC921DA6EDF6AC72B000EC96FDC
:101C0000000EC86F6BEF8EF001016651D8B40BEF78
:101C10008EF00DEF8EF06BEF8EF0660E0001C82592
:101C2000D96E010EC921DA6EDF6A6BEF8EF0C751F3
:101C3000C56FC66BC651000AD8B421EF8EF06BEFAA
:101C40008EF0C551000AD8B4E2EF8DF0010AD8B485
:101C5000ECEF8DF0030AD8B404EF8EF06BEF8EF04A
:101C60004E0ECB25D96E010ECC21DA6E5E0EC82544
:101C7000E16E010EC921E26EDFCFE7FFC84BC92B31
:101C80006BEF8EF04E0ECB25D96E010ECC21DA6EA5
:101C9000660EC825E16E010EC921E26EDFCFE7FFB7
:101CA0003EEF8EF0C751C56FC66BC651000AD8B45F
:101CB0005CEF8EF06BEF8EF0C551000AD8B46BEF7D
:101CC0008EF0010AD8B430EF8EF0030AD8B442EF98
:101CD0008EF06BEF8EF00001CB4BCC2BCC5109E199
:101CE000100ECB5DD8A077EF8EF079EF8EF094EFE9
:101CF0008DF05E0E686F010E696F6E0E6A6F010ED9
:101D00006B6FB9EC85F0660E0001686F010E696FAC
:101D1000700E6A6F010E6B6FB9EC85F0A7EF8EF055
:101D2000A7EF8EF0EF51C56FC66BC651000AD8B44D
:101D30009CEF8EF0A7EF8EF0C551000AD8B404EFE7
:101D40008DF0010AD8B40CEF8DF0A7EF8EF00001F2
:101D5000EF5112000D013205D8A4B1EF8EF0B3EFB0
:101D60008EF0CDEF8EF030511F0B0009D8A4BBEFE1
:101D70008EF0BDEF8EF0CDEF8EF00D8E030E31198B
:101D8000D8A4C5EF8EF0C7EF8EF0CBEF8EF0010E2A
:101D90002B6ECDEF8EF0000E2B6E3251D8A4D3EF08
:101DA0008EF0D5EF8EF051EF90F030511F0B020AFC
:101DB000D8A4DDEF8EF0DFEF8EF051EF90F03451CC
:101DC0000F0B0009D8B4E7EF8EF0E9EF8EF051EF7A
:101DD00090F034510F0B446E030E4460F2EF8EF01E
:101DE000F4EF8EF051EF90F0200E0001F419D8A41A
:101DF000FCEF8EF0FEEF8EF051EF90F00D8E0D01A6
:101E000034BF05EF8FF007EF8FF024EF8FF03451E0
:101E10000F0B446E4450020D240EF324D96E010EB4
:101E2000F420DA6EDECF49F0DDCF4AF034510F0BEB
:101E3000446E456A160E4424D96E000E4520DA6EB3
:101E4000DF50486E3FEF8FF034510F0B446E44501B
:101E5000020D100EF324D96E000EF420DA6EDECFE0
:101E600049F0DDCF4AF034510F0B446E456A190E2C
:101E70004424D96E000E4520DA6EDF50486E48B01B
:101E800044EF8FF046EF8FF04EEF8FF0FB0E4914CA
:101E9000496EFF0E4A144A6E53EF8FF0040E49103C
:101EA000496E4A504A6E34BF58EF8FF05AEF8FF0A8
:101EB0006BEF8FF034510F0B446E4450020D240E23
:101EC000F324D96E010EF420DA6E49C0DEFF4AC059
:101ED000DDFF7AEF8FF034510F0B446E4450020D4A
:101EE000100EF324D96E000EF420DA6E49C0DEFF26
:101EF0004AC0DDFF030E3119D8A481EF8FF083EFC4
:101F00008FF0BBEF8FF049C0D9FF4AC0DAFFDFAED8
:101F10008CEF8FF08EEF8FF0ADEF8FF034BF93EF3B
:101F20008FF095EF8FF0A2EF8FF034510F0B446ECE
:101F3000456A160E4424D96E000E4520DA6EDF8203
:101F4000ADEF8FF034510F0B446E456A190E4424E7
:101F5000D96E000E4520DA6EDF8249C0D9FF4AC033
:101F6000DAFF000EDB8449C0D9FF4AC0DAFF000E59
:101F7000DB8E51EF90F0040E4918496E4A504A6EBC
:101F800049C0D9FF4AC0DAFFDFAEC9EF8FF0CBEF0F
:101F90008FF0E7EF8FF049C0D9FF4AC0DAFF7F0E1C
:101FA000DF1649C0D9FF4AC0DAFF000EDB8C000EF5
:101FB0003D6E050E3C6E49C03EF04AC03FF0000E3B
:101FC000416E020E406EABECB4F0EDEF8FF049C005
:101FD000D9FF4AC0DAFF000EDB8C040E4918496EA7
:101FE0004A504A6E48B2F7EF8FF0F9EF8FF004EFE6
:101FF00090F049C0D9FF4AC0DAFFDFAE02EF90F09F
:1020000004EF90F03AEF90F00D0134BF0AEF90F03A
:102010000CEF90F019EF90F034510F0B446E456ABD
:10202000160E4424D96E000E4520DA6EDF9224EF9E
:1020300090F034510F0B446E456A190E4424D96E4A
:10204000000E4520DA6EDF9249C0D9FF4AC0DAFFA0
:102050003B0EDF16000E3D6E050E3C6E49C03EF095
:102060004AC03FF0000E416E020E406EABECB4F081
:1020700040EF90F049C0D9FF4AC0DAFF3B0EDF16AF
:102080000D0134510F0B446E456A260E4424466EF2
:102090000F0E4520476E46C0D9FF47C0DAFFFE0E3F
:1020A000DF161200940E0001B56FF90EB66F48EC02
:1020B000BFF0700E0001B56FFB0EB66F48ECBFF0BD
:1020C000370E0001B56FFD0EB66FC7CFB7F0B86B16
:1020D00048ECBFF0E30E0001B56FFC0EB66FC6CF43
:1020E000B7F0B86B48ECBFF00D0E0001B56FFD0EF8
:1020F000B66FC5CFB7F0B86B48ECBFF09D0E0001CE
:10210000B56FFB0EB66FC8CFB7F0B86B48ECBFF039
:102110004C0E0001B56FFD0EB66F73CFB7F0B86B04
:1021200048ECBFF0F80E0001B56FFC0EB66F72CF31
:10213000B7F0B86B48ECBFF0220E0001B56FFD0E92
:10214000B66F71CFB7F0B86B48ECBFF0B30E0001BB
:10215000B56FFB0EB66F74CFB7F0B86B48ECBFF03D
:10216000580E0001B56FFB0EB66F48ECBFF0130EB2
:102170000001B56FFE0EB66F92CFB7F0B86B48ECAA
:10218000BFF0260E0001B56FFE0EB66F93CFB7F00D
:10219000B86B48ECBFF0390E0001B56FFE0EB66F9C
:1021A00094CFB7F0B86B48ECBFF04C0E0001B56FA0
:1021B000FE0EB66F95CFB7F0B86B48ECBFF0610E6E
:1021C0000001B56FFD0EB66F96CFB7F0B86B48EC57
:1021D000BFF0370E0001B56FFA0EB66F48ECBFF0D6
:1021E000890E0001B56FFD0EB66FD3CFB7F0B86B97
:1021F00048ECBFF0B10E0001B56FFD0EB66F87CF92
:10220000B7F0B86B48ECBFF0CE0E0001B56FFC0E16
:10221000B66F9BCFB7F0B86B48ECBFF0550E00011E
:10222000B56FFA0EB66F48ECBFF0750E0001B56FD2
:10223000FD0EB66FD0CFB7F0B86B48ECBFF09D0E77
:102240000001B56FFD0EB66FF2CFB7F0B86B48EC7A
:10225000BFF0C50E0001B56FFD0EB66FF1CFB7F040
:10226000B86B48ECBFF0D90E0001B56FFD0EB66F2C
:10227000F0CFB7F0B86B48ECBFF0BC0E0001B56F03
:10228000F80EB66F9ECFB7F0B86BA1CFB9F0BA6BAE
:10229000A4CFBBF0BC6B8FCFBDF0BE6B98CFBFF0AF
:1022A000C06B48ECBFF0880E0001B56FF80EB66F3A
:1022B0009DCFB7F0B86BA0CFB9F0BA6BA3CFBBF08E
:1022C000BC6B8ECFBDF0BE6B91CFBFF0C06B48EC46
:1022D000BFF0F00E0001B56FF80EB66F9FCFB7F0EC
:1022E000B86BA2CFB9F0BA6BA5CFBBF0BC6B90CFE7
:1022F000BDF0BE6B99CFBFF0C06B48ECBFF0A80E2D
:102300000001B56FFA0EB66F48ECBFF00B0E00017E
:10231000B56FFC0EB66FADCFB7F0B86B48ECBFF041
:10232000F50E0001B56FFB0EB66FACCFB7F0B86B12
:1023300048ECBFF04D0E0001B56FFC0EB66F7ECFBE
:10234000B7F0B86B48ECBFF0DC0E0001B56FFA0EC9
:10235000B66F7FCFB7F0B86BB0CFB9F0BA6B48ECBF
:10236000BFF0C20E0001B56FFA0EB66F48ECBFF0B9
:10237000210E0001B56FFC0EB66FA8CFB7F0B86B99
:1023800048ECBFF0370E0001B56FFC0EB66F9CCF66
:10239000B7F0B86B48ECBFF0630E0001B56FFC0EF0
:1023A000B66F7CCFB7F0B86B48ECBFF0F60E00010B
:1023B000B56FFA0EB66F7DCFB7F0B86BABCFB9F093
:1023C000BA6B48ECBFF012000001716F01014A5175
:1023D000D8B4EDEF91F0EFEF91F0F1EF91F059EF0C
:1023E00093F04B51D8A4F7EF91F0F9EF91F0F1EFA2
:1023F00091F0010E4B6F44C761F045C762F0000ECB
:102400000001646F1D0E636F5CECBFF0010E0001F4
:102410006125D96E050E6221DA6E4EECC0F0DF6EDA
:1024200044C761F045C762F0000E0001646F1D0EE5
:10243000636F5CECBFF0020E00016125D96E050EE2
:102440006221DA6E3AECC0F0000161C0DEFF62C0CA
:10245000DDFF44C761F045C762F0000E646F1D0EDA
:10246000636F5CECBFF0040E00016125D96E050EB0
:102470006221DA6E4BECC0F0DF6E44C761F045C7F5
:1024800062F0000E0001646F1D0E636F5CECBFF024
:10249000190E00016125D96E050E6221DA6E69C040
:1024A000DFFF44C761F045C762F0000E646F1D0E88
:1024B000636F5CECBFF01A0E00016125D96E050E4A
:1024C0006221DA6E6AC0DFFF44C761F045C762F07F
:1024D000000E646F1D0E636F5CECBFF01B0E0001FD
:1024E0006125D96E050E6221DA6E6BC0DFFF44C72D
:1024F00061F045C762F0000E646F1D0E636F5CEC07
:10250000BFF01C0E00016125D96E050E6221DA6E46
:102510006CC0DFFF44C761F045C762F0000E646F16
:102520001D0E636F5CECBFF0000E00016125D96EDB
:10253000050E6221DA6E71C0DFFF000E736F000EB0
:10254000726FECEF92F067C0F6FF68C0F7FF000E05
:10255000F86E44C761F045C762F0000E646F1D0E4F
:10256000636F5CECBFF0050E000161256D6F050E19
:1025700062216E6F72516D25D96E73516E21DA6EC4
:102580000800F5CFDFFF735109E1150E725DD8A089
:10259000CCEF92F0CEEF92F0E8EF92F044C761F00A
:1025A00045C762F0000E646F1D0E636F5CECBFF0F8
:1025B000050E000161256D6F050E62216E6F72516F
:1025C0006D25D96E73516E21DA6EDF6AFCEF92F0E1
:1025D000724B732B674B682B67C0F6FF68C0F7FF21
:1025E000000EF86E0800F5500009D8A4FAEF92F03A
:1025F000FCEF92F0A3EF92F044C761F045C762F0A0
:10260000000E646F1D0E636F5CECBFF0050E0001E1
:1026100061256D6F050E62216E6F72516D25D96E49
:1026200073516E21DA6EDF6A27EE44F0DE2A000E67
:10263000DD2227EE44F0010EDB5009E1150EDE5CD1
:10264000D8A025EF93F027EF93F02DEF93F0000E35
:10265000E8CF44F7000EE8CF45F727EE46F017EE37
:1026600044F0DE50E61807E1DE50E618D8A43BEF50
:1026700093F03DEF93F056EF93F027EE46F0DE2A0D
:10268000000EDD2227EE46F0010EDB5009E1150EAB
:10269000DE5CD8A04EEF93F050EF93F056EF93F03E
:1026A000000EE8CF46F7000EE8CF47F7000E010115
:1026B0004B6F12000001F405D8A461EF93F063EFB3
:1026C00093F072EF93F065BA68EF93F06AEF93F0CE
:1026D00072EF93F0000E626E0F0136813689020EA2
:1026E0000001F46F62A477EF93F079EF93F084EF39
:1026F00093F00F0136A57FEF93F081EF93F084EF15
:1027000093F0629427ECBDF065A289EF93F08BEF14
:1027100093F08EEF93F0A1987CEF94F062A093EF8A
:1027200093F095EF93F0A4EF93F00F0136A19BEF98
:1027300093F09DEF93F0A4EF93F080EC9FF0A088CE
:10274000040E0001F46F629062A8A9EF93F0ABEF62
:1027500093F0B5EF93F00F0136A9B1EF93F0B3EF1B
:1027600093F0B5EF93F091ECBEF062ACBAEF93F05A
:10277000BCEF93F0EAEF93F00F0136ADC2EF93F0A8
:10278000C4EF93F0D3EF93F0000E0001706F730E5F
:102790006F6F000E716F000E726F000E746F010E7E
:1027A000736FA1ECB3F0629C5DECBEF00001EC51E4
:1027B000D8B4DDEF93F0DFEF93F0E0EF93F0EC07A8
:1027C000EC51D8A4E6EF93F0E8EF93F0EAEF93F042
:1027D00015ECADF062AAEFEF93F0F1EF93F0FBEFA1
:1027E00093F00F0136ABF7EF93F0F9EF93F0FBEFB7
:1027F00093F034ECBAF062A200EF94F002EF94F0A0
:102800001AEF94F00F0136A308EF94F00AEF94F05A
:102810001AEF94F07F0E0001706F6F69000E716FF8
:10282000000E726F000E746F010E736FA1ECB3F0A7
:10283000000E636E040E0001F46121EF94F023EFAB
:1028400094F026EF94F0A1987CEF94F00F0136A756
:102850002CEF94F02EEF94F07BEF94F0000E00013B
:10286000816F62A636EF94F038EF94F07BEF94F02E
:1028700064CFF7F0F731E832E8320F0BED6F629674
:10288000F7B545EF94F047EF94F050EF94F0160E43
:10289000ED25D96EDA6A000EDA22DF7057EF94F078
:1028A000190EED25D96EDA6A000EDA22DF70ED51CD
:1028B000D8A45DEF94F05FEF94F063EF94F031EC07
:1028C000B2F071EF94F0000E706F720E6F6FF70E32
:1028D000716F000E726F000E746F000E736FA1ECBB
:1028E000B3F00001812B030E816579EF94F07BEF4B
:1028F00094F031EF94F0A19812000001F405D8A4EF
:1029000084EF94F086EF94F095EF94F065BA8BEF36
:1029100094F08DEF94F095EF94F0000E626E0F013D
:1029200036813689020E0001F46F62A49AEF94F0AA
:102930009CEF94F0A7EF94F00F0136A5A2EF94F06E
:10294000A4EF94F0A7EF94F06294A9ECBDF065A217
:10295000ACEF94F0AEEF94F0B1EF94F0A1989CEF4F
:1029600095F062A0B6EF94F0B8EF94F0C7EF94F052
:102970000F0136A1BEEF94F0C0EF94F0C7EF94F0D2
:1029800027ECA0F0A088040E0001F46F629062A80A
:10299000CCEF94F0CEEF94F0D8EF94F00F0136A97D
:1029A000D4EF94F0D6EF94F0D8EF94F0EFECBEF0C3
:1029B00062ACDDEF94F0DFEF94F00CEF95F00F01D7
:1029C00036ADE5EF94F0E7EF94F0F5EF94F0000EFC
:1029D0003D6E730E3C6E000E3E6E000E3F6E000E9E
:1029E000416E010E406EABECB4F0629C77ECBEF031
:1029F0000001EC51D8B4FFEF94F001EF95F002EF35
:102A000095F0EC07EC51D8A408EF95F00AEF95F09B
:102A10000CEF95F08CECADF062AA11EF95F013EF8E
:102A200095F01DEF95F00F0136AB19EF95F01BEF08
:102A300095F01DEF95F065ECBAF062A222EF95F0EB
:102A400024EF95F03BEF95F00F0136A32AEF95F0B8
:102A50002CEF95F03BEF95F07F0E3D6E3C68000E3D
:102A60003E6E000E3F6E000E416E010E406EABECEE
:102A7000B4F0000E636E040E0001F46142EF95F0B5
:102A800044EF95F047EF95F0A1989CEF95F00F017A
:102A900036A74DEF95F04FEF95F09BEF95F0000EB8
:102AA0004E6E62A656EF95F058EF95F09BEF95F0BD
:102AB00064CFF7F00001F731E832E8320F0BED6F29
:102AC0006296F7B566EF95F068EF95F071EF95F0C7
:102AD000160EED25D96EDA6A000EDA22DF7078EF75
:102AE00095F0190EED25D96EDA6A000EDA22DF7044
:102AF000ED51D8A47EEF95F080EF95F084EF95F03E
:102B00008EECB2F092EF95F0000E3D6E720E3C6EC0
:102B1000F70E3E6E000E3F6E000E416E000E406ED0
:102B2000ABECB4F04E2A030E4E6499EF95F09BEF98
:102B300095F051EF95F0A1981200F5EC8CF0020A97
:102B4000D8A4A5EF95F0A7EF95F0B1EF96F0000EA1
:102B50000001EF6F4E0E676F010E686FFE0E696F1A
:102B6000FF0E6A6F87ECB7F0000167516811D8B4A7
:102B7000BCEF95F0BEEF95F0ADEF96F0EE05D8A462
:102B8000C4EF95F0C6EF95F0C8EF95F0ADEF96F075
:102B9000020EEE19D8A4CFEF95F0D1EF95F00FEF1C
:102BA00096F0ECEF95F0030EEE6FADEF96F06D0E34
:102BB000B56FFF0EB66F48ECBFF0AC98000E000189
:102BC000626F010E616FC9ECBDF0AC88ADEF96F09D
:102BD000000EEE6FADEF96F001014E510001D36F84
:102BE000D46BD451000AD8B4F8EF95F0ADEF96F05D
:102BF000D351310AD8B4ADEF96F0030AD8B4D3EF6D
:102C000095F0010AD8B4D7EF95F0610AD8B4E8EF8F
:102C100095F0200AD8B4E8EF95F0ADEF96F0030EEA
:102C2000EE19D8A416EF96F018EF96F076EF96F01E
:102C3000DE0EB56FFE0EB66F4EC1B7F0B86B48EC46
:102C4000BFF001014E5133ECBFF0020E0001EE6FF8
:102C5000ADEF96F0010EC4ECB7F0ADEF96F052EC8C
:102C600090F0ADEF96F0010EEE6FADEF96F08AA406
:102C70003CEF96F03EEF96F041EF96F08A94ADEF80
:102C800096F08A84ADEF96F050EC83F0ADEF96F0BD
:102C9000000EF06FED0EB56FFE0EB66FF0C0B7F020
:102CA000B86B48ECBFF0ADEF96F0F02B370EB56F78
:102CB000FF0EB66FF0C0B7F0B86B48ECBFF0ADEFE9
:102CC00096F0930EB56FFF0EB66F48ECBFF0DAECDE
:102CD000BFF0000E23ECBEF0ADEF96F0C90EB56F5D
:102CE000FB0EB66F48ECBFF0ADEF96F0D3ECAFF053
:102CF0000001D36FD46BD451000AD8B482EF96F0A0
:102D0000ADEF96F0D351000AD8B42AEF96F0010A3D
:102D1000D8B42FEF96F0020AD8B433EF96F0070A32
:102D2000D8B437EF96F0010AD8B444EF96F0030A0E
:102D3000D8B448EF96F0010AD8B455EF96F00F0AD0
:102D4000D8B461EF96F0010AD8B425EF96F0030AE3
:102D5000D8B46EEF96F0ADEF96F00001EE516EEC48
:102D6000B1F0120083B4B7EF96F0B9EF96F071EFBF
:102D700097F0CA0E0001B56FFF0EB66F48ECBFF0BA
:102D800080A0C5EF96F0C7EF96F0CAEF96F0899055
:102D9000CBEF96F08980A10E0001B56F010EB66FE2
:102DA000870EB76FFB0EB86F6CECBBF0A10E000185
:102DB0006E6F010E6F6F29ECC0F0A10E0001B56FB0
:102DC000010EB66FB50EB76FFF0EB86F95B0EBEF93
:102DD00096F0EFEF96F0C96BC92BF1EF96F000017A
:102DE000C96BC951B96FBA6B6CECBBF0A10E000195
:102DF0006E6F010E6F6F29ECC0F0A10E0001B56F70
:102E0000010EB66FAA0EB76FFF0EB86F95B20BEF3B
:102E100097F00FEF97F0C96BC92B11EF97F00001F6
:102E2000C96BC951B96FBA6B6CECBBF0A10E000154
:102E30006E6F010E6F6F29ECC0F0A10E0001B56F2F
:102E4000010EB66FA00EB76FFE0EB86F73CFB9F05C
:102E5000BA6B6CECBBF0A10E00016E6F010E6F6FD0
:102E600029ECC0F0A10E0001B56F010EB66F800E07
:102E7000B76FFE0EB86F72CFB9F0BA6B6CECBBF0E7
:102E8000A10E00016E6F010E6F6F29ECC0F0A10E54
:102E90000001B56F010EB66F900EB76FFE0EB86FE2
:102EA00071CFB9F0BA6B6CECBBF0A10E00016E6F84
:102EB000010E6F6F29ECC0F0A10E0001B56F010E7D
:102EC000B66FCF0EB76FFE0EB86F74CFB9F0BA6B96
:102ED0006CECBBF0A10E00016E6F010E6F6F29EC60
:102EE000C0F083B676EF97F078EF97F0AAEF97F0FF
:102EF00080A27DEF97F07FEF97F082EF97F08992B5
:102F000083EF97F08982C00E0001B56FFF0EB66F98
:102F100048ECBFF0D30E0001636F010E646F62ECEA
:102F2000AFF0400E0001B56FFB0EB66FD3C1B7F026
:102F3000B86BD4C1B9F0BA6BD5C1BBF0BC6BD7C10B
:102F4000BDF0BE6BD8C1BFF0C06BD9C1C1F0C26BC0
:102F500048ECBFF0120000018EBFB1EF97F0B4EF64
:102F600097F0010EB5EF97F0000E956F9551D8B41C
:102F7000BCEF97F0BEEF97F0C2EF97F08D6D8E1F0C
:102F8000D8B08E2BE0BFC7EF97F0C9EF97F0CAEF2C
:102F900097F0E393E0BFD1EF97F0CFEF97F0D7EF43
:102FA00097F0000E926F010E916FDBEF97F0DFC08C
:102FB00091F0E0C092F0DDC093F0DEC094F0955146
:102FC000D8B4E5EF97F0E7EF97F0FEEF97F09307AF
:102FD000D8A094079551D8A4F0EF97F0F2EF97F0AE
:102FE000F8EF97F0000E906F2B0E8F6FFCEF97F0BD
:102FF000000E906F2D0E8F6F8FC095F0000E976FA3
:103000001F0E966F000E02019F6F38EF98F0960723
:10301000D8A09707800E9625D96E020E9721DA6EFA
:103020008DC061F08EC062F0000E646F0A0E636F97
:10303000FAECB3F061C067F062C068F048ECBDF034
:1030400000016751300FDF6E9107D8A092079307F8
:10305000D8A094078DC061F08EC062F0000E646F3E
:103060000A0E636F0BECB1F061C08DF062C08EF0A0
:10307000000197BF44EF98F0975108E19605D8A05A
:1030800044EF98F046EF98F070EF98F08D518E1164
:10309000D8A44DEF98F04FEF98F007EF98F092BF5B
:1030A0005CEF98F0925106E19105D8B05AEF98F094
:1030B0005CEF98F007EF98F094BF67EF98F09451A9
:1030C00008E19305D8A067EF98F069EF98F070EFEA
:1030D00098F0E3B36EEF98F070EF98F007EF98F088
:1030E0009551D8B476EF98F078EF98F083EF98F098
:1030F0009607D8A09707800E9625D96E020E9721C5
:10310000DA6E95C0DFFF8BC080F08CC081F0800E3E
:103110009625826F020E9721836F93C084F094C02E
:1031200085F053ECB4F01200000E0001696F000E40
:10313000686F000E6B6F000E6A6F6CEF99F0060EF1
:103140006A25656F000E6B21666F6551615D665182
:103150006259D8B0AEEF98F0B0EF98F0B6EF98F0B3
:10316000000E696F000E686F77EF99F06A51632562
:10317000D96E6B516421DA6EDF50656F6C0EF66E9E
:10318000F50EF76E000EF86E0800F5506519D8A41C
:10319000CCEF98F0CEEF98F06AEF99F06A51632582
:1031A000656F6B516421666F010E6525D96E000E47
:1031B0006621DA6EDF50676F6D0EF66EF50EF76EF4
:1031C000000EF86E0800F5506719D8A4EAEF98F0E1
:1031D000ECEF98F06AEF99F06A516325656F6B51D7
:1031E0006421666F020E6525D96E000E6621DA6EC7
:1031F000DF50676F6E0EF66EF50EF76E000EF86E0E
:103200000800F5506719D8A408EF99F00AEF99F073
:103210006AEF99F06A516325656F6B516421666F9F
:10322000030E6525D96E000E6621DA6EDF50676FDA
:103230006F0EF66EF50EF76E000EF86E0800F55084
:103240006719D8A426EF99F028EF99F06AEF99F062
:103250006A516325656F6B516421666F040E6525A5
:10326000D96E000E6621DA6EDF50676F700EF66E53
:10327000F50EF76E000EF86E0800F5506719D8A429
:1032800044EF99F046EF99F06AEF99F06A5163259F
:10329000656F6B516421666F050E6525D96E000E52
:1032A0006621DA6EDF50676F710EF66EF50EF76EFF
:1032B000000EF86E0800F5506719D8A462EF99F077
:1032C00064EF99F06AEF99F06AC068F06BC069F03A
:1032D00077EF99F06A4B6B2B61516A5D62516B59C4
:1032E000D8A075EF99F077EF99F09FEF98F068C04C
:1032F00061F069C062F01200A09801013A513B11DF
:10330000D8B485EF99F087EF99F095EF99F03AC12D
:10331000D9FF3BC1DAFFDFAE90EF99F092EF99F061
:1033200095EF99F0A08850EF9AF0030E0001F31981
:10333000D8A49DEF99F09FEF99F0A1EF99F0000EBE
:10334000F36FF351D8A4A7EF99F0A9EF99F0ACEF80
:1033500099F0A08850EF9AF0020EF319D8A4B3EFB9
:1033600099F0B5EF99F0C9EF99F0010E616F000E79
:10337000626F000E636F000E646F020E6DECA1F0C1
:1033800061C03AF162C03BF1030E0001F36F4FEFF1
:103390009AF0F305D8A4CFEF99F0D1EF99F04FEF61
:1033A0009AF0400EEA65D7EF99F0D9EF99F0DDEF8A
:1033B00099F0400E6D6FDFEF99F0EAC06DF06D513E
:1033C000EA5DEA6F240E0101326F030E336F6DC0A8
:1033D0006CF04751D8A4EFEF99F0F1EF99F020EF9E
:1033E0009AF004EF9AF035C1D9FF36C1DAFF32C145
:1033F000E1FF33C1E2FFDFCFE7FF0101324B332BA7
:10340000354B362B00016C0700016C51D8A40BEF33
:103410009AF00DEF9AF0F3EF99F029EF9AF035C199
:10342000D9FF36C1DAFF32C1E1FF33C1E2FFDFCF9E
:10343000E7FF0101324B332B354B362B00016C0774
:1034400000016C51D8A427EF9AF029EF9AF00FEF02
:103450009AF0EA51D8A42FEF9AF031EF9AF040EFAA
:103460009AF0400E6D19D8A438EF9AF03AEF9AF01E
:103470003EEF9AF0020EF36F40EF9AF0030EF36FF7
:10348000010E616F240E626F030E636F6DC064F0F6
:10349000020E6DECA1F061C03AF162C03BF1A08870
:1034A000120021EEEDF010EE7EF0060EDBCFE3FF12
:1034B000E806FCE27BC089F07CC08AF000018951FB
:1034C0008A11D8A466EF9AF068EF9AF06CEF9AF040
:1034D0007E0E896F000E8A6F89C061F08AC062F02B
:1034E00019ECBBF061C08DF062C08EF0DFC08BF0D4
:1034F000E0C08CF000018CBF80EF9AF082EF9AF070
:1035000097EF9AF08D518B5D8C51800A7D6F8E51B3
:10351000800A7D59D8A08FEF9AF091EF9AF093EF3F
:103520009AF097EF9AF08BC08DF08CC08EF08DC022
:103530008BF08EC08CF0DDC087F0DEC088F0E3B188
:10354000A4EF9AF0A6EF9AF0C4EF9AF0B5EF9AF0D4
:10355000000E716F200E706F79C072F07AC073F038
:10356000A5ECB0F000018D4B8E2B87518D5D8E51F7
:10357000800A7D6F8851800A7D59D8A0C2EF9AF0E9
:10358000C4EF9AF0A8EF9AF0000E866F000E856FD8
:10359000EBEF9AF089C0F6FF8AC0F7FF000EF86ED5
:1035A0000F0EF76403D00800F55005D0F6CFE9FF01
:1035B000F7CFEAFFEF5000017D6F7D51706F716BA7
:1035C00079C072F07AC073F0A5ECB0F00001894BBD
:1035D0008A2B854B862B8B51855D8651800A7D6FAA
:1035E0008C51800A7D59D8A0F8EF9AF0FAEF9AF042
:1035F000CAEF9AF0E3A1FFEF9AF001EF9BF01FEF03
:103600009BF010EF9BF0000E716F200E706F79C071
:1036100072F07AC073F0A5ECB0F000018D4B8E2BE8
:1036200087518D5D8E51800A7D6F8851800A7D594A
:10363000D8A01DEF9BF01FEF9BF003EF9BF0120053
:10364000000E0001CD6F5BEF9BF0CD51C525D96E0B
:10365000000EC621DA6E1F0EDF6431EF9BF033EFF0
:103660009BF04EEF9BF0CD51C525D96E000EC621C3
:10367000DA6E7F0EDF603FEF9BF041EF9BF04EEF85
:103680009BF0CD51C525D96E000EC621DA6EDF50F4
:10369000C86FC851C96FCA6B52EF9BF0000ECA6F5A
:1036A0002E0EC96FA00ECD25D96EDA6A020EDA226F
:1036B000C9C0DFFFCD2BC751CD5DD8A062EF9BF015
:1036C00064EF9BF025EF9BF0280EB56FFB0EB66FF5
:1036D00048ECBFF0000E0001CD6F82EF9BF0310E81
:1036E000B56FFA0EB66FCD51C525D96E000EC62145
:1036F000DA6EDF50C86FC851B76FB86B48ECBFF0D7
:103700000001CD2BC751CD5DD8A089EF9BF08BEF89
:103710009BF06FEF9BF0240EB56FFB0EB66F48EC7D
:10372000BFF0000E0001CC6F000ECD6FACEF9BF030
:10373000A00ECD25D96EDA6A020EDA22DF50CB6FE9
:10374000F20EB56FFF0EB66FCB0EB76F000EB86FEF
:1037500048ECBFF00001CD2BC751CD5DD8A0B3EF31
:103760009BF0B5EF9BF098EF9BF0940EB56FF90EC0
:10377000B66F48ECBFF08984000E0001CD6FD2EF28
:103780009BF0ADA2C6EF9BF0C8EF9BF0C1EF9BF0A2
:103790000001CD51C525D96E000EC621DA6EDF506D
:1037A000AE6ECD2BC751CD5DD8A0D9EF9BF0DBEF2E
:1037B0009BF0C1EF9BF0ADA2E0EF9BF0E2EF9BF03E
:1037C000DBEF9BF089941200800E0D013019D8A414
:1037D000ECEF9BF0EEEF9BF0A2EF9CF0C00E0D6EB5
:1037E00088EF9CF0720E0A6EF80E0B6E000E0F6ED4
:1037F000120E0E6EA2EF9CF00D013251D8A403EF11
:103800009CF005EF9CF04AEF9CF03251020D8A0EBD
:10381000F324F66EF50EF420F76EF86A000EF82227
:103820000900F5CF0AF00A00F5CF0BF0020E0A24CA
:103830000001616F000E0B20626F61C0F6FF62C075
:10384000F7FF000EF86E0F0EF76403D00800F55076
:1038500005D0F6CFE9FFF7CFEAFFEF500E6E030E6B
:103860000A240001616F000E0B20626F61C0F6FF39
:1038700062C0F7FF000EF86E0F0EF76403D0080069
:10388000F55005D0F6CFE9FFF7CFEAFFEF500F6E06
:10389000A2EF9CF0000E0D6EA2EF9CF0030E0D0146
:1038A000326155EF9CF057EF9CF080EF9CF0325165
:1038B000020D840EF324F66EF50EF420F76EF86A0E
:1038C000000EF8220900F5CF0AF00A00F5CF0BF040
:1038D0000AC0F6FF0BC0F7FF000EF86E0F0EF7647C
:1038E00003D00800F55005D0F6CFE9FFF7CFEAFF87
:1038F000EF500001616F61510E6E0F6AA2EF9CF0F4
:10390000000E0D6EA2EF9CF0000E0D6EA2EF9CF06B
:1039100033510001616F626B6251000AD8B493EFBA
:103920009CF084EF9CF06151010AD8B4F2EF9BF057
:10393000030AD8B4FCEF9BF0010AD8B44EEF9CF018
:1039400084EF9CF0120061C06BF062C06CF000016B
:1039500065516611D8A4AFEF9CF0B1EF9CF0B3EFC6
:103960009CF05EEF9DF06BC0D9FF6CC0DAFF63C0C6
:10397000DFFF65516B25676F66516C21686FFF0E25
:103980006725D96EFF0E6821DA6E63C0DFFF6651CE
:1039900007E1030E655DD8B0D0EF9CF0D2EF9CF04C
:1039A000D4EF9CF05EEF9DF020EE01F06B51D92634
:1039B0006C51DA2263C0DFFF20EE02F06B51D92692
:1039C0006C51DA2263C0DFFF65516B25676F66516A
:1039D0006C21686FFE0E6725D96EFF0E6821DA6EC6
:1039E00063C0DFFF65516B25676F66516C21686F9F
:1039F000FD0E6725D96EFF0E6821DA6E63C0DFFF0A
:103A0000665107E1070E655DD8B009EF9DF00BEF39
:103A10009DF00DEF9DF05EEF9DF020EE03F06B51F9
:103A2000D9266C51DA2263C0DFFF65516B25676FC1
:103A300066516C21686FFC0E6725D96EFF0E6821F8
:103A4000DA6E63C0DFFF665107E1090E655DD8B02D
:103A50002CEF9DF02EEF9DF030EF9DF05EEF9DF08E
:103A60006BC067F06CC068F0671F681F674B682BFE
:103A7000030E6715696F6A6B69516B276A516C2376
:103A80006951655F6A51665BFC0E6517FF0E66172C
:103A900055EF9DF06BC0D9FF6CC0DAFF63C0DFFF4C
:103AA0006507D8A066076B4B6C2B65516611D8A4CF
:103AB0005CEF9DF05EEF9DF04AEF9DF012002EC08E
:103AC00038F02FC039F032503310D8A46AEF9DF08F
:103AD0006CEF9DF06EEF9DF019EF9EF038C0D9FFAE
:103AE00039C0DAFF30C0DFFF32503824346E335033
:103AF0003920356EFF0E3424D96EFF0E3520DA6E74
:103B000030C0DFFF335007E1030E325CD8B08BEFDB
:103B10009DF08DEF9DF08FEF9DF019EF9EF020EE60
:103B200001F03850D9263950DA2230C0DFFF20EEBC
:103B300002F03850D9263950DA2230C0DFFF325037
:103B40003824346E33503920356EFE0E3424D96E4D
:103B5000FF0E3520DA6E30C0DFFF32503824346E6D
:103B600033503920356EFD0E3424D96EFF0E3520CA
:103B7000DA6E30C0DFFF335007E1070E325CD8B099
:103B8000C4EF9DF0C6EF9DF0C8EF9DF019EF9EF0D9
:103B900020EE03F03850D9263950DA2230C0DFFF4A
:103BA00032503824346E33503920356EFC0E3424B4
:103BB000D96EFF0E3520DA6E30C0DFFF335007E1DB
:103BC000090E325CD8B0E7EF9DF0E9EF9DF0EBEF26
:103BD0009DF019EF9EF038C034F039C035F0341E36
:103BE000351E344A352A030E3414366E376A365081
:103BF0003826375039223650325E3750335AFC0E51
:103C00003216FF0E331610EF9EF038C0D9FF39C0C0
:103C1000DAFF30C0DFFF3206D8A03306384A392A2F
:103C200032503310D8A417EF9EF019EF9EF005EF35
:103C30009EF01200800E0D013019D8A422EF9EF0E4
:103C400024EF9EF0D2EF9EF0C00E0D6EB9EF9EF005
:103C5000720E0A6EF80E0B6E000E0F6E120E0E6EC6
:103C6000D2EF9EF03251D8A438EF9EF03AEF9EF09A
:103C70007DEF9EF03251020D8A0EF324F66EF50EA2
:103C8000F420F76EF86A000EF8220900F5CF0AF06A
:103C90000A00F5CF0BF0020E0A242E6E000E0B2048
:103CA0002F6E2EC0F6FF2FC0F7FF000EF86E0F0E1E
:103CB000F76403D00800F55005D0F6CFE9FFF7CF41
:103CC000EAFFEF500E6E030E0A242E6E000E0B203C
:103CD0002F6E2EC0F6FF2FC0F7FF000EF86E0F0EEE
:103CE000F76403D00800F55005D0F6CFE9FFF7CF11
:103CF000EAFFEF500F6ED2EF9EF0000E0D6ED2EF86
:103D00009EF0030E326187EF9EF089EF9EF0B1EFD7
:103D10009EF03251020D840EF324F66EF50EF4205F
:103D2000F76EF86A000EF8220900F5CF0AF00A00D3
:103D3000F5CF0BF00AC0F6FF0BC0F7FF000EF86ED0
:103D40000F0EF76403D00800F55005D0F6CFE9FF59
:103D5000F7CFEAFFEF502E6E2E500E6E0F6AD2EFA5
:103D60009EF0000E0D6ED2EF9EF0000E0D6ED2EFA3
:103D70009EF033512E6E2F6A2F50000AD8B4C3EF35
:103D80009EF0B5EF9EF02E50010AD8B428EF9EF0B9
:103D9000030AD8B432EF9EF0010AD8B481EF9EF046
:103DA000B5EF9EF012000001E0BFD9EF9EF0DBEF0F
:103DB0009EF0DCEF9EF0E393E0BFE3EF9EF0E1EFD7
:103DC0009EF0E9EF9EF0000E956F010E946FEDEFFF
:103DD0009EF0DFC094F0E0C095F0DDC096F0DEC04C
:103DE00097F0000E996F1F0E986F000E02019F6FE3
:103DF00036EF9FF09807D8A099078D510F0B9A6F57
:103E0000090E9A6506EF9FF008EF9FF010EF9FF004
:103E1000570E9A25926F936B000E932316EF9FF027
:103E2000300E9A25926F936B000E932392C09AF0F6
:103E3000800E9825D96E020E9921DA6E9AC0DFFFA6
:103E40009407D8A095079607D8A097078DC08FF044
:103E50008EC090F0040E916FD89090338F33912FD5
:103E60002CEF9FF08FC08DF090C08EF0000199BFB5
:103E700043EF9FF0995109E1020E985DD8A043EFFE
:103E80009FF045EF9FF06FEF9FF08D518E11D8A4FA
:103E90004CEF9FF04EEF9FF0FAEF9EF095BF5BEF77
:103EA0009FF0955106E19405D8B059EF9FF05BEF74
:103EB0009FF0FAEF9EF097BF66EF9FF0975108E1F1
:103EC0009605D8A066EF9FF068EF9FF06FEF9FF028
:103ED000E3B36DEF9FF06FEF9FF0FAEF9EF08BC0B2
:103EE00080F08CC081F0800E9825826F020E99219F
:103EF000836F96C084F097C085F053ECB4F0120045
:103F0000A098000E636E000E626E000E0F01266F09
:103F1000270E0001616F0F0E626F000E646F000EBE
:103F2000636F000E666F020E656FA3EC9CF0160EB9
:103F30000F01396F9F0E376F7B0E366F000E000139
:103F40006D6F6D51040D000EF324D96E0D0EF4202B
:103F5000DA6EDE6ADE6ADE6ADD6A6D2B0B0E6D6577
:103F6000B4EF9FF0B6EF9FF0A1EF9FF0658C000ECD
:103F70000F01386F6598659C6296000E0D6E000EFD
:103F8000046E000E066E000E056E62B6CAEF9FF05C
:103F9000CCEF9FF0BCEF9FF0010E276E010E266E56
:103FA000000E256E000E246E000E2A6E000E00011B
:103FB0006D6F6D51020D100EF324D96E000EF420BA
:103FC000DA6EDE6ADD6A6D51020D240EF324D96EBD
:103FD000010EF420DA6EDE6ADD6A190E6D25D96EE7
:103FE000DA6A000EDA22DF6A160E6D25D96EDA6AF9
:103FF000000EDA22DF6A6D2B020E6D6502EFA0F073
:1040000004EFA0F0D9EF9FF0080E106E0D0E116EA8
:10401000160E0F01266F0D0E0D01036F300E026F8D
:10402000080E016F040E006F008F000E0001F86F84
:10403000000E01012E6F000E2F6F000E306F000E6C
:10404000316F000E236E000E0001F46F1200A09875
:10405000000E636E000E626E000E0F01266F270EBB
:104060002E6E0F0E2F6E000E316E000E306E000E93
:10407000336E020E326E5FEC9DF0160E0F01396F3B
:104080009F0E376F7B0E366F000E3A6E3A50040D5E
:10409000000EF324D96E0D0EF420DA6EDE6ADE6AAD
:1040A000DE6ADD6A3A2A0B0E3A6459EFA0F05BEF44
:1040B000A0F046EFA0F0658C000E0F01386F6598F8
:1040C000659C6296000E0D6E000E046E000E066E6C
:1040D000000E056E62B66FEFA0F071EFA0F061EF19
:1040E000A0F0010E276E010E266E000E256E000E4A
:1040F000246E000E2A6E000E3A6E3A50020D100E1B
:10410000F324D96E000EF420DA6EDE6ADD6A3A50CE
:10411000020D240EF324D96E010EF420DA6EDE6A4D
:10412000DD6A190E3A24D96EDA6A000EDA22DF6AE5
:10413000160E3A24D96EDA6A000EDA22DF6A3A2ABB
:10414000020E3A64A6EFA0F0A8EFA0F07DEFA0F079
:10415000080E106E0D0E116E160E0F01266F0D0E4D
:104160000D01036F300E026F080E016F040E006F19
:10417000008F000E0001F86F000E01012E6F000E7F
:104180002F6F000E306F000E316F000E236E000E89
:104190000001F46F120020EE01F01E50D9261F50CE
:1041A000DA22DF500001626F6251055C000E065892
:1041B000D8B0DDEFA0F0DFEFA0F0E1EFA0F005C098
:1041C00062F06251055E000E065A000E616FF8EF54
:1041D000A0F0380E6125D96EDA6A0D0EDA2201C020
:1041E000E1FF02C0E2FFDFCFE7FF014A022A612BB5
:1041F0006251615DD8A0FFEFA0F001EFA1F0E9EFFF
:10420000A0F005500610D8B408EFA1F00AEFA1F015
:1042100043EFA1F020EE01F01C50D9261D50DA2208
:10422000080EDF6E20EE02F01C50D9261D50DA2257
:10423000380EDE6E0D0EDD6E1EC0D9FF1FC0DAFF18
:10424000DFBC25EFA1F027EFA1F035EFA1F01CC0F6
:10425000D9FF1DC0DAFF480EDF6E1CC0D9FF1DC09C
:10426000DAFF000EDB8E6CEFA1F01CC0D9FF1DC081
:10427000DAFF080EDF6E1CC0D9FF1DC0DAFF000E8A
:10428000DB8E6CEFA1F020EE01F01C50D9261D5002
:10429000DA22080EDF6E20EE02F01C50D9261D50E7
:1042A000DA22300EDE6E0D0EDD6E1CC0D9FF1DC091
:1042B000DAFF040EDF6E1CC0D9FF1DC0DAFF000E4E
:1042C000DB8E049E2850D8A468EFA1F06AEFA1F01D
:1042D0006CEFA1F015ECADF012000001696F000168
:1042E0006151D8B476EFA1F078EFA1F086EFA1F09C
:1042F0006951020D100EF324D96E000EF420DA6E0F
:10430000DECF6AF0DDCF6BF092EFA1F06951020DC4
:10431000240EF324D96E010EF420DA6EDECF6AF09B
:10432000DDCF6BF06A516B11D8A499EFA1F09BEF30
:10433000A1F0A1EFA1F0000E616F000E626F0DEF12
:10434000A2F020EE02F06A51D9266B51DA2262C047
:10435000DEFF63C0DDFF20EE01F06A51D9266B510C
:10436000DA2264C0DFFF6AC0D9FF6BC0DAFF400EFB
:10437000DF166AC0D9FF6BC0DAFF000EDB866AC0A9
:10438000D9FF6BC0DAFF000EDB8E6151D8B4CBEFE2
:10439000A1F0CDEFA1F0ECEFA1F06951020D100EEC
:1043A000F324D96E000EF420DA6EDECF65F0DDCF97
:1043B00066F0040E6519676F6651686F6951020DEA
:1043C000100EF324D96E000EF420DA6E67C0DEFF03
:1043D00068C0DDFF09EFA2F06951020D240EF3243D
:1043E000D96E010EF420DA6EDECF65F0DDCF66F017
:1043F000040E6519676F6651686F6951020D240ECE
:10440000F324D96E010EF420DA6E67C0DEFF68C0B7
:10441000DDFF6AC061F06BC062F0120020EE01F0B7
:104420001E50D9261F50DA22DF502F6E2F50055C08
:10443000000E0658D8B01FEFA2F021EFA2F023EF34
:10444000A2F005C02FF02F50055E000E065A000E98
:104450002E6E3AEFA2F0380E2E24D96EDA6A0D0EC7
:10446000DA2201C0E1FF02C0E2FFDFCFE7FF014A2D
:10447000022A2E2A2F502E5CD8A041EFA2F043EF43
:10448000A2F02BEFA2F005500610D8B44AEFA2F02C
:104490004CEFA2F085EFA2F020EE01F01C50D926DF
:1044A0001D50DA22080EDF6E20EE02F01C50D926D5
:1044B0001D50DA22380EDE6E0D0EDD6E1EC0D9FFE5
:1044C0001FC0DAFFDFBC67EFA2F069EFA2F077EF61
:1044D000A2F01CC0D9FF1DC0DAFF480EDF6E1CC061
:1044E000D9FF1DC0DAFF000EDB8EAEEFA2F01CC0BC
:1044F000D9FF1DC0DAFF080EDF6E1CC0D9FF1DC03A
:10450000DAFF000EDB8EAEEFA2F020EE01F01C50C1
:10451000D9261D50DA22080EDF6E20EE02F01C5064
:10452000D9261D50DA22300EDE6E0D0EDD6E1CC057
:10453000D9FF1DC0DAFF040EDF6E1CC0D9FF1DC0FD
:10454000DAFF000EDB8E049E2850D8A4AAEFA2F05A
:10455000ACEFA2F0AEEFA2F08CECADF012006598DB
:104560000DBEB5EFA2F0B7EFA2F0FCEFA2F004AEE3
:10457000BCEFA2F0BEEFA2F0D0EFA2F0020E2C6EC4
:104580002450D8A4C6EFA2F0C8EFA2F0CAEFA2F060
:10459000B2ECB5F0000E266E000E276E4EEFA3F0C3
:1045A00020EE01F01C50D9261D50DA22080EDF6ED5
:1045B00020EE02F01C50D9261D50DA22300EDE6E9D
:1045C0000D0EDD6E1CC0D9FF1DC0DAFF0C0EDF6EB4
:1045D0001CC0D9FF1DC0DAFF000EDB8E10C0D9FF52
:1045E00011C0DAFF040EDF6E10C0D9FF11C0DAFF70
:1045F000000EDB8E4EEFA3F00D0130AF02EFA3F003
:1046000004EFA3F020EFA3F0010E2C6E2550D8A4E8
:104610000CEFA3F00EEFA3F010EFA3F0B2ECB5F0A7
:10462000000E266E000E276E2850D8A41AEFA3F0B5
:104630001CEFA3F04EEFA3F015ECADF04EEFA3F09E
:10464000020E2C6E20EE01F01C50D9261D50DA22ED
:10465000080EDF6E20EE02F01C50D9261D50DA2223
:10466000300EDE6E0D0EDD6E1CC0D9FF1DC0DAFFF0
:10467000040EDF6E1CC0D9FF1DC0DAFF000EDB8EFA
:10468000000E266E000E276E2850D8A44AEFA3F025
:104690004CEFA3F04EEFA3F01CEFA3F012006598CF
:1046A0000DBE55EFA3F057EFA3F09CEFA3F004AEBF
:1046B0005CEFA3F05EEFA3F070EFA3F0020E2C6EA0
:1046C0002450D8A466EFA3F068EFA3F06AEFA3F03C
:1046D00008ECB6F0000E266E000E276EEEEFA3F08B
:1046E00020EE01F01C50D9261D50DA22080EDF6E94
:1046F00020EE02F01C50D9261D50DA22300EDE6E5C
:104700000D0EDD6E1CC0D9FF1DC0DAFF0C0EDF6E72
:104710001CC0D9FF1DC0DAFF000EDB8E10C0D9FF10
:1047200011C0DAFF040EDF6E10C0D9FF11C0DAFF2E
:10473000000EDB8EEEEFA3F00D0130AFA2EFA3F081
:10474000A4EFA3F0C0EFA3F0010E2C6E2550D8A467
:10475000ACEFA3F0AEEFA3F0B0EFA3F008ECB6F02F
:10476000000E266E000E276E2850D8A4BAEFA3F0D4
:10477000BCEFA3F0EEEFA3F08CECADF0EEEFA3F006
:10478000020E2C6E20EE01F01C50D9261D50DA22AC
:10479000080EDF6E20EE02F01C50D9261D50DA22E2
:1047A000300EDE6E0D0EDD6E1CC0D9FF1DC0DAFFAF
:1047B000040EDF6E1CC0D9FF1DC0DAFF000EDB8EB9
:1047C000000E266E000E276E2850D8A4EAEFA3F044
:1047D000ECEFA3F0EEEFA3F0BCEFA3F01200366E07
:1047E0002E50D8B4F6EFA3F0F8EFA3F006EFA4F044
:1047F0003650020D100EF324D96E000EF420DA6E3E
:10480000DECF37F0DDCF38F012EFA4F03650020DD6
:10481000240EF324D96E010EF420DA6EDECF37F0C9
:10482000DDCF38F037503810D8A419EFA4F01BEFC3
:10483000A4F021EFA4F0000E2E6E000E2F6E8DEF6F
:10484000A4F020EE02F03750D9263850DA222FC0DB
:10485000DEFF30C0DDFF20EE01F03750D9263850A2
:10486000DA2231C0DFFF37C0D9FF38C0DAFF400E8F
:10487000DF1637C0D9FF38C0DAFF000EDB8637C03D
:10488000D9FF38C0DAFF000EDB8E2E50D8B44BEFC4
:10489000A4F04DEFA4F06CEFA4F03650020D100E12
:1048A000F324D96E000EF420DA6EDECF32F0DDCFC5
:1048B00033F0040E3218346E3350356E3650020D1C
:1048C000100EF324D96E000EF420DA6E34C0DEFF31
:1048D00035C0DDFF89EFA4F03650020D240EF3241D
:1048E000D96E010EF420DA6EDECF32F0DDCF33F078
:1048F000040E3218346E3350356E3650020D240ECD
:10490000F324D96E010EF420DA6E34C0DEFF35C018
:10491000DDFF37C02EF038C02FF01200000E5EEC25
:10492000B6F09B8C0F013985F19E700ED36E1F0E71
:10493000486F1F0E496F000E926E300E936E000E80
:10494000946E0F0E956E000E806E000E816E000E3E
:10495000826E000E836E92909292929493948980CC
:10496000898295869584000E0001626F0A0E616F40
:10497000C9ECBDF096ECBAF032ECC0F09BECBCF0A8
:10498000DAECBFF080EC9FF0BCECBBF0010E010153
:104990004D6FF4ECBFF05AEC93F0A3ECBFF0C00EF7
:1049A0000001B56FFE0EB66F48ECBFF000ECC0F032
:1049B00094ECBFF089ECBDF0290E0001B56FFF0E3D
:1049C000B66F74CFB7F0B86B48ECBFF0870E00013C
:1049D000B56FFF0EB66F000EB86F010EB76F48ECE3
:1049E000BFF0600E0001B56FFF0EB66F000EB86F1E
:1049F000000EB76F48ECBFF0ED0E0001B56FFD0E75
:104A0000B66F48ECBFF022ECB9F0BFECBFF0E8069F
:104A1000D8A40DEFA5F00FEFA5F013EFA5F043EC30
:104A2000C0F0B2EC96F0B1ECBFF0E806D8A41BEFF2
:104A3000A5F01DEFA5F021EFA5F03FECC0F054EC80
:104A4000C0F09DEC95F0A0EC87F06BECA7F005EFC3
:104A5000A5F013EF00F00D013039E832030B000927
:104A6000D8B435EFA5F037EFA5F081EFA5F0BBEF97
:104A7000A5F00D8E080EF46FBBEFA5F0E4EC9BF0F3
:104A8000BBEFA5F003ECAEF0BBEFA5F0F80E0A6E9D
:104A9000000E0B6E0D80010E0E6E0D8EBBEFA5F09D
:104AA000BCECA5F0BBEFA5F07FEC89F0BBEFA5F067
:104AB000F50E0D0134250A6E0B6A000E0B220D80D7
:104AC000010E0E6E0D8EBBEFA5F00D8EF50E0D01D5
:104AD0003425D96EDA6A000EDA2232CDDFFFBBEF61
:104AE000A5F0000E706F020E6F6F000E716F000E5A
:104AF000726F000E746F000E736FA1ECB3F0BBEF1A
:104B0000A5F0315100017E6F7F6B7F51000AD8B450
:104B10008CEFA5F0BBEFA5F07E51000AD8B450EFA2
:104B2000A5F0010AD8B454EFA5F0020AD8B454EFA6
:104B3000A5F0060AD8B439EFA5F0030AD8B43EEFC1
:104B4000A5F0010AD8B471EFA5F00F0AD8B446EF6A
:104B5000A5F0010AD8B442EFA5F0030AD8B458EF83
:104B6000A5F0010AD8B465EFA5F0070AD8B4BBEFE9
:104B7000A5F0BBEFA5F01200000E0D01386F000E7E
:104B8000396F23EFA6F00D8E2B04D8A4CAEFA5F041
:104B9000CCEFA5F03EEFA6F00D0138833EEFA6F076
:104BA0000D8E3EEFA6F00D8E0D0134510F0B000956
:104BB000D8B4DDEFA5F0DFEFA5F03EEFA6F034BFEF
:104BC000E4EFA5F0E6EFA5F0F8EFA5F034510F0BF8
:104BD0000001616F6151020D240EF324D96E010EA4
:104BE000F420DA6EDECF63F0DDCF64F008EFA6F0DC
:104BF00034510F0B0001616F6151020D100EF3244F
:104C0000D96E000EF420DA6EDECF63F0DDCF64F0F3
:104C100063C0D9FF64C0DAFFDFAE11EFA6F013EF77
:104C2000A6F03EEFA6F063C0D9FF64C0DAFFDFA4B0
:104C30001CEFA6F01EEFA6F03EEFA6F0010E0D0150
:104C4000386F3EEFA6F030511F0B0001616F626BB1
:104C50006251000AD8B42FEFA6F03EEFA6F06151E2
:104C6000000AD8B4C3EFA5F0010AD8B4D0EFA5F07C
:104C7000030AD8B4D3EFA5F03EEFA6F00DAE43EF94
:104C8000A6F045EFA6F04CEFA6F0380E0A6E0D0E1A
:104C90000B6E0D80020E0E6E1200080E0001616F89
:104CA0000F5007E1080E0E5CD8B059EFA6F05BEF8D
:104CB000A6F073EFA6F00EC061F02D50D8A463EFFC
:104CC000A6F065EFA6F069EFA6F0010E2D6E73EF6A
:104CD000A6F02D04D8A46FEFA6F071EFA6F073EF45
:104CE000A6F0020E2D6E61510E5E000E0F5A20EEE0
:104CF00001F01050D9261150DA2261C0DFFF380EC2
:104D000001013C6F0D0E3D6F0DB089EFA6F08BEFEA
:104D1000A6F0D2EFA6F0AAEFA6F00AC0F6FF0BC0ED
:104D2000F7FF000EF86E3CC1D9FF3DC1DAFF0F0E50
:104D3000F76403D00800F55005D0F6CFE9FFF7CFB0
:104D4000EAFFEF50DF6E0A4A0B2A01013C4B3D2B74
:104D50000001610700016151D8A4B1EFA6F0B3EFE3
:104D6000A6F08DEFA6F0DBEFA6F00AC0F6FF0BC0B1
:104D7000F7FF000EF86E3CC1D9FF3DC1DAFF0F0E00
:104D8000F76403D00800F55005D0F6CFE9FFF7CF60
:104D9000EAFFEF50DF6E0A4A0B2A01013C4B3D2B24
:104DA0000001610700016151D8A4D9EFA6F0DBEF43
:104DB000A6F0B5EFA6F012000D013039E832030B72
:104DC0000009D8B4E6EFA6F0E8EFA6F031EFA7F0BF
:104DD0006AEFA7F00D8E080E0001F46F6AEFA7F0DE
:104DE0001AEC9EF06AEFA7F0EFECAEF06AEFA7F0D6
:104DF000F80E0A6E000E0B6E0D80010E0E6E0D8EFB
:104E00006AEFA7F0F6ECA7F06AEFA7F0AAEC8EF035
:104E10006AEFA7F0F50E34250A6E0B6A000E0B221E
:104E20000D80010E0E6E0D8E6AEFA7F00D8EF50E41
:104E30003425D96EDA6A000EDA2232CDDFFF6AEF4E
:104E4000A7F0000E3D6E020E3C6E000E3E6E000E90
:104E50003F6E000E416E000E406EABECB4F06AEF98
:104E6000A7F031514B6E4C6A4C50000AD8B43BEF5E
:104E7000A7F06AEFA7F04B50000AD8B402EFA7F0F2
:104E8000010AD8B406EFA7F0020AD8B406EFA7F0DB
:104E9000060AD8B4EAEFA6F0030AD8B4F0EFA6F0F9
:104EA000010AD8B421EFA7F00F0AD8B4F8EFA6F0A2
:104EB000010AD8B4F4EFA6F0030AD8B40AEFA7F0B9
:104EC000010AD8B416EFA7F0070AD8B46AEFA7F022
:104ED0006AEFA7F01200200E0001F46172EFA7F054
:104EE00074EFA7F087EFA7F0F151D8A47AEFA7F0FD
:104EF0007CEFA7F0F5EFA7F05F0EB56FFE0EB66F73
:104F000048ECBFF0010E0001F16FF5EFA7F0F105DD
:104F1000D8A48DEFA7F08FEFA7F098EFA7F07A0E47
:104F2000B56FFF0EB66F48ECBFF0020E0001F16FD7
:104F300065A29DEFA7F09FEFA7F0A7EFA7F01A0ECD
:104F4000B56FFF0EB66F48ECBFF0F5EFA7F0F35169
:104F5000D8A4ADEFA7F0AFEFA7F0F3EFA7F0F251B1
:104F6000D8B4B5EFA7F0B7EFA7F0F3EFA7F0000EB6
:104F7000C56F000EC525D96EDA6A020EDA22DF503F
:104F8000D8B4C5EFA7F0C7EFA7F0D7EFA7F0000E92
:104F9000C525D96EDA6A020EDA22640EC525E16EE5
:104FA000E26A030EE222DFCFE7FFE2EFA7F0640E32
:104FB000C525D96EDA6A030EDA22DF6A000EF26FB7
:104FC000EBEFA7F0C52B3F0EC565E9EFA7F0EBEFC0
:104FD000A7F0B9EFA7F0640E616F030E626FC5C052
:104FE00063F0A9ECBEF07CEC99F01200000E0D010C
