:0400000013EF00F00A
:060008005B82E8EFBEF090
:100018005B80E0CF60F060C0E0FF5B901000C1EF54
:02002800C3F023
:10F3F000000101000B0102000B0201000C020200DF
:10F400000C03010108030201080101000B010200C5
:10F410000B0401000C0402000C0500000046F40976
:10F4200054F5050EF7014D5347454E440000524533
:10F43000532D53540000434F4D2D535400003EF7BD
:10F44000DAF6A6F663F60D0A564C3533204D454ED6
:10F450005545000000000000000000000000000012
:10F460000000000020312E564C35335F494E495480
:10F47000000000000000000000000000000000008C
:10F48000000020322E434F4E5449494F55532052CD
:10F49000414E47494E4700000000000000000000B8
:10F4A00020332E53494E474C452052414E47494E3A
:10F4B00047000000000000000000000000002034B1
:10F4C0002E53494E474C452052414E47494E472006
:10F4D00048410000000000000000000020352E53CD
:10F4E000494E474C452052414E47494E47204853CC
:10F4F0000000000000000000000020362E53494E9E
:10F50000474C452052414E47494E47204C5200003F
:10F51000000000000000000020372E564C3533203C
:10F520004461746120444953504C4159000000002B
:10F5300000000000000020722E45584954000000D1
:10F5400000000000000000000000000000000000BB
:10F55000000000000D0A5253343835204D454E55F9
:10F560004500000000000000000000000000000056
:10F57000000020312E5258204D4F4445000000001D
:10F58000000000000000000000000000000000007B
:10F5900020322E5458204D4F4445000000000000FA
:10F5A0000000000000000000000000000000203308
:10F5B0002E4F5645522052554E204552524F522002
:10F5C000434C5200000000000000000020722E4555
:10F5D0005849540000000000000000000000000036
:10F5E00000000000000000000000007274630000D2
:10F5F00000000000000172656700000000000000CC
:10F60000026932630000000000000003766C3533AD
:10F6100000000000000004706232000000000000E2
:10F6200000056C6F6700000000000000066C6F674B
:10F630006F666600000000076C6F676F6E00000069
:10F640000000086C6F67636C720000000009727341
:10F6500034383500000000000A6E6F6E650000004F
:10F6600000000009024300020100C032090400004A
:10F6700001020201000524001001042402020524F5
:10F680000600010524010001070581030A000209A3
:10F69000040100020A000000070502024000000702
:10F6A0000582024000003403430044004300200070
:10F6B000520053002D00320033003200200045007C
:10F6C0006D0075006C006100740069006F006E00D1
:10F6D0002000440065006D006F0034034D00690098
:10F6E000630072006F006300680069007000200012
:10F6F00054006500630068006E006F006C006F00CE
:10F7000067007900200049006E0063002E000D0A9A
:10F710005253343835205458203D2000000000005A
:10F7200000000000000000000000000012010002C4
:10F7300002000008D8040A000001010200010403CD
:10F7400009042050494520202020203D20307825E4
:10F750003032782C203078253032782C20307825C3
:10F760003032782C203078253032782C20307825B3
:10F770003032780D0A002050495220202020203DB0
:10F78000203078253032782C203078253032782C93
:10F79000203078253032782C203078253032782C83
:10F7A000203078253032780D0A0020495052202030
:10F7B0002020203D203078253032782C20307825CC
:10F7C0003032782C203078253032782C2030782553
:10F7D0003032782C203078253032780D0A0045728E
:10F7E000726F72203A20436F6D6D616E64202F201E
:10F7F000526573706F6E73204461746120656E642E
:10F8000020747874206E6F6E65200D0A000D0A4317
:10F810004F4D4D414E44204D455353414745203AAD
:10F82000204D61737465722D3E416E6F7468657210
:10F8300020446576696365200D0A20000D0A524553
:10F8400053504F4E53204D455353414745203A2086
:10F850004D7920446576696365202D3E204D6173A6
:10F860007465720D0A20000D0A434F4D4D414E4400
:10F87000204D455353414745203A204D61737465EF
:10F88000722D3E4D7920446576696365200D0A200E
:10F8900000493D25642C533D253032782C43313DC1
:10F8A000253032782C43323D253032782C42463D8B
:10F8B00025303278202025730D0A004572726F7250
:10F8C000203A20526573706F6E732044617461201A
:10F8D000737461727420747874206E6F6E65200D7D
:10F8E0000A00202A20202020202A202A2020202030
:10F8F00020202A202A2A2A20202A2020202A200DDF
:10F900000A0D0A004572726F72203A2052657370B8
:10F910006F6E7320646174612073697A65206F76FD
:10F9200065720D0A004572726F72203A205265733B
:10F93000706F6E7320646174612063686B73756DA2
:10F9400020656F6F7200202A20202020202A20208E
:10F9500020202A20202020202A2A2A20202A202075
:10F96000202A200D0A00202A202A202A202A2020AE
:10F97000202A202A20202020202A2020202A2A2055
:10F98000202A200D0A00202A20202A20202A202098
:10F990002A2A2A2A2A202020202A2020202A202A17
:10F9A000202A200D0A00202A20202020202A202082
:10F9B0002A202020202A2020202A2020202A20201F
:10F9C0002A2A200D0A00533D253032782C43313D40
:10F9D000253032782C43323D253032782C42463D5A
:10F9E0002530327820006474385B5D3D202530324C
:10F9F0007820253032782025303278202530327832
:10FA0000200D0A002A2A2A204F5343494C4C4154C6
:10FA10004F52202A2A2A2A2A2A2A2A2A2A2A2A0D20
:10FA20000A002A2A2A20494E544552525550542041
:10FA30002A2A2A2A2A2A2A2A2A2A2A2A0D0A004473
:10FA400069736361726420726563656976656420B9
:10FA50006D657373616765200D0A000D0A2A2A2AF5
:10FA6000205553422D434443205365747570202A1A
:10FA70002A2A0D0A000A2A2A2A20554152543120E6
:10FA80002A2A2A2A2A2A2A2A2A2A2A2A0D0A000A5D
:10FA90002A2A2A205541525432202A2A2A2A2A2A3E
:10FAA0002A2A2A2A2A2A0D0A002053504252473174
:10FAB000202020203D2030782530327825303278C3
:10FAC0000D0A0020535042524732202020203D2072
:10FAD000307825303278253032780D0A000D0A3220
:10FAE0003025642F25642F25642025643A25643A47
:10FAF00025640D0A002A2A2A20504F5254202A2A0F
:10FB00002A2A2A2A2A2A2A2A2A2A0D0A002A2A2ABC
:10FB100020493243202A2A2A2A2A2A2A2A2A2A2A19
:10FB20002A0D0A00493243207265676973746120A7
:10FB3000646973706C61790D0A0020535350314130
:10FB4000444420203D203078253032780D0A0A00C8
:10FB5000205353503241444420203D2030782530FA
:10FB600032780D0A0A00436F6D6D616E64206E6F0E
:10FB70007420666F756E642E200D0A002A2A2A20D2
:10FB80005553415254205365747570202A2A2A0D0A
:10FB90000A0020524353544131202020203D203080
:10FBA00078253032780D0A002054585354413120C2
:10FBB0002020203D203078253032780D0A00205456
:10FBC0005853544132202020203D203078253032B7
:10FBD000780D0A0020524353544133202020203D09
:10FBE000203078253032780D0A00204241554443B8
:10FBF0004F4E3120203D203078253032780D0A00DC
:10FC00002042415544434F4E3220203D203078253C
:10FC10003032780D0A00433D25642C696E646578A6
:10FC20003D25642C666C673D256420006765746320
:10FC300068343835282920646174613D25780D0ABF
:10FC400000204F534354554E45203D2030782530F9
:10FC500032780D0A0A002053535031434F4E312061
:10FC60003D203078253032780D0A00205353503231
:10FC7000434F4E31203D203078253032780D0A0038
:10FC80002053535031434F4E32203D2030782530A1
:10FC900032780D0A002053535032434F4E32203DEC
:10FCA000203078253032780D0A00205353503153DC
:10FCB000544154203D203078253032780D0A002000
:10FCC0005353503253544154203D20307825303224
:10FCD000780D0A0020545249534520203D203078A9
:10FCE000253032780D0A0A002052434F4E20202042
:10FCF000203D203078253032780D0A00204F5343C4
:10FD0000434F4E20203D203078253032780D0A00B8
:10FD100020494E54434F4E20203D2030782530322C
:10FD2000780D0A00204F5343434F4E32203D203080
:10FD300078253032780D0A0020494E54434F4E3218
:10FD4000203D203078253032780D0A0020494E546D
:10FD5000434F4E33203D203078253032780D0A0055
:10FD60006D61696E5F6C6F6F705F64697370282975
:10FD70000D0A00496E697469616C697A6520456E87
:10FD8000640D0A0D0A0020545249534120203D20A1
:10FD90003078253032780D0A0020545249534220E1
:10FDA000203D203078253032780D0A002054524909
:10FDB000534320203D203078253032780D0A002032
:10FDC000545249534420203D203078253032780D5C
:10FDD0000A00555342204E4F5420434F4E45435442
:10FDE0000D0A0025643A25643A25642025642E25F1
:10FDF000642000202053535032434F4E313D25782C
:10FE00000D0A00202053535032434F4E323D257887
:10FE10000D0A00202053535032535441543D25784D
:10FE20000D0A005750543D25642C5250543D256412
:10FE30000D0A0020202A7074663D2025670D0A0DEA
:10FE40000A0054696D65725F696E697428290D0A2C
:10FE5000002020535350324144443D25780D0A0080
:10FE60007075746368343835282578290D0A004C7C
:10FE70004F47204F4646203D2025640D0A0052532F
:10FE800034383520433D307825780D0A00443D252F
:10FE9000642C696E6465783D2564200055534220CA
:10FEA00053555350454E44540D0A00202064746647
:10FEB0003D2025640D0A0D0A00434F4D4D414E442F
:10FEC0003D2025640D0A0020205353504144443DF9
:10FED00025780D0A004C4F47204F4E203D202564C9
:10FEE0000D0A00253032642E253033642E2564201F
:10FEF0000020202A7074663D2025670D0A0020200E
:10FF000066616C73653D25780D0A004352454E20AD
:10FF100052455345540D0A0055534220434F4E4518
:10FF200043540D0A00646F75626C653D25640D0ACB
:10FF30000020206474663D2025650D0A00202064A1
:10FF400074663D2025660D0A0020206474663D20FD
:10FF500025670D0A002020747275653D25780D0A0D
:10FF6000004C4F4720434C4541520D0A00666C6FD0
:10FF700061743D25640D0A0073686F72743D2564D9
:10FF80000D0A0020205344413D25780D0A00202011
:10FF900053434C3D25780D0A006474663D2564206A
:10FFA0000D0A006C6F6E673D25640D0A0063686181
:10FFB000723D25640D0A00427574746F6E310D0A2E
:10FFC00000427574746F6E320D0A00696E743D25BF
:10FFD000640D0A004C4F472053544F500055534274
:10FFE0003E2000533D256420002025732000696ECB
:0FFFF00066006E616E006C6C73000820080000E4
:020000040001F9
:10000000000E0001B86F90C0B9F091C0BAF092C074
:10001000BBF093C0BCF0BCBF12EF80F010EF80F0DB
:1000200026EF80F0010EB86FB9C061F0BAC062F07F
:10003000BBC063F0BCC064F0F6ECCFF061C0B9F0B7
:1000400062C0BAF063C0BBF064C0BCF0000E000137
:10005000C26F000EC16F2FC1AEF030C1AFF0B8510A
:10006000D8B435EF80F037EF80F04BEF80F0B85127
:10007000D8A43DEF80F03FEF80F045EF80F0000E18
:10008000996F2B0E986F49EF80F0000E996F2D0E2F
:10009000986F98C0B8F0B9C061F0BAC062F0BBC048
:1000A00063F0BCC064F090ECBBF00001610562112C
:1000B000D8A45DEF80F05FEF80F091EF80F0B85151
:1000C000D8B465EF80F067EF80F070EF80F0B8C0D3
:1000D00057F2AE07D8A0AF07000EC26F010EC16F76
:1000E000570EC125616F020EC221626FEE0E636F63
:1000F000FF0E646F36ECCEF00001FD0EAE27FF0E52
:10010000AF238EC080F08FC081F0570E826F020E39
:10011000836FAEC084F0AFC085F02FECC6F060EF07
:1001200086F0B9C061F0BAC062F0BBC063F0BCC079
:1001300064F090ECBBF0000161516211D8A4A3EF10
:1001400080F0A5EF80F0C4EF80F0B851D8B4ABEFE9
:1001500080F0ADEF80F0B6EF80F0B8C057F2AE0798
:10016000D8A0AF07000EC26F010EC16F570EC12598
:10017000616F020EC221626FF20E636FFF0E646F39
:1001800036ECCEF07CEF80F0000EC36F000EC46F33
:10019000800EC56F3F0EC66F000EBE6F000EBD6FA6
:1001A000B9C061F0BAC062F0BBC063F0BCC064F01B
:1001B000000E656F000E666F000E676F000E686FB1
:1001C000DDECC6F00001D8B0E8EF80F0EAEF80F097
:1001D000CCEF81F0F6EF80F0AAC0C3F0ABC0C4F062
:1001E000ACC0C5F0ADC0C6F0BD4BBE2BC3C061F006
:1001F000C4C062F0C5C063F0C6C064F0000E656F95
:10020000000E666F200E676F410E686F77EC94F0FA
:1002100061C0AAF062C0ABF063C0ACF064C0ADF0E6
:100220000001AA51B95D616FAB51BA59626FAC510F
:10023000BB59636FAD51BC59646FD6ECCAF0000175
:1002400064BF2EEF81F064516311621109E1020E67
:10025000615DD8A02EEF81F030EF81F0ECEF80F0FF
:10026000AAC07AF0ABC07BF0ACC07CF0ADC07DF032
:10027000B9C07EF0BAC07FF0BBC080F0BCC081F0D6
:100280008AECBAF00001D8A048EF81F04AEF81F083
:10029000ECEF80F0C351B95D616FC451BA59626F20
:1002A000C551BB59636FC651BC59646FD6ECCAF0D7
:1002B000000164BF69EF81F064516311621107E1CD
:1002C000020E615DD8B067EF81F069EF81F0B2EFA7
:1002D00081F0C3C0B9F0C4C0BAF0C5C0BBF0C6C09D
:1002E000BCF0CCEF81F0C3C061F0C4C062F0C5C007
:1002F00063F0C6C064F0000E656F000E666F200EDE
:10030000676F410E686F74EC98F061C0C3F062C013
:10031000C4F063C0C5F064C0C6F00001BD07D8A03A
:10032000BE07C351B95D616FC451BA59626FC551FF
:10033000BB59636FC651BC59646FD6ECCAF000015B
:1003400064BFB0EF81F064516311621107E1020EE6
:10035000615DD8B0AEEF81F0B0EF81F0B2EF81F027
:1003600069EF81F0B9C07AF0BAC07BF0BBC07CF015
:10037000BCC07DF0C3C07EF0C4C07FF0C5C080F0BB
:10038000C6C081F08AECBAF00001D8A0CAEF81F0B3
:10039000CCEF81F073EF81F094C0A9F0A9C0A8F070
:1003A000670EA919D8A4D7EF81F0D9EF81F0FFEF3C
:1003B00081F01C501D10D8A4E0EF81F0E2EF81F035
:1003C000E6EF81F0000E1D6E010E1C6E1DBEF3EFF8
:1003D00081F01D5006E11C04D8B0F1EF81F0F3EF7D
:1003E00081F0F9EF81F0000EA76F060EA66F08EFFF
:1003F00082F01CC0A6F01DC0A7F008EF82F01DBE61
:1004000004EF82F006EF82F0F3EF81F0F9EF81F074
:10041000670EA919D8A40FEF82F011EF82F03AEF1E
:1004200082F0BEAF1FEF82F0FC0EBD5DFF0EBE5925
:10043000D8A01DEF82F01FEF82F038EF82F0FF0EA0
:10044000A625956FFF0EA721966FBD51955D96511C
:10045000800A976FBE51800A9759D8A032EF82F078
:1004600034EF82F038EF82F0660EA86F3AEF82F038
:10047000650EA86FA6C0A2F0A7C0A3F0670EA919C9
:10048000D8A445EF82F047EF82F057EF82F0660E76
:10049000A819D8A44EEF82F050EF82F059EF82F005
:1004A000BEBF57EF82F055EF82F059EF82F0A24BBA
:1004B000A32B660EA819D8A460EF82F062EF82F039
:1004C00082EF82F0BEBF69EF82F067EF82F075EFD6
:1004D00082F0000EC36F000EC46F800EC56F3F0E1A
:1004E000C66F000EBE6F000EBD6F670EA919D8B49F
:1004F0007CEF82F07EEF82F082EF82F0BD51A22786
:10050000BE51A323000EC06F000EBF6FB9C0B0F084
:10051000BAC0B1F0BBC0B2F0BCC0B3F0C3C0AAF067
:10052000C4C0ABF0C5C0ACF0C6C0ADF014EF83F0F2
:10053000B0C061F0B1C062F0B2C063F0B3C064F0AB
:10054000C3C065F0C4C066F0C5C067F0C6C068F03F
:1005500074EC98F061C07AF062C07BF063C07CF00C
:1005600064C07DF0BEECA5F07AC0B4F07BC0B5F0FD
:100570007CC0B6F07DC0B7F0B4C061F0B5C062F029
:10058000B6C063F0B7C064F006ECBAF061C0A4F086
:1005900062C0A5F0B0C07AF0B1C07BF0B2C07CF010
:1005A000B3C07DF0B4C065F0B5C066F0B6C067F00A
:1005B000B7C068F0C3C061F0C4C062F0C5C063F0EA
:1005C000C6C064F077EC94F061C07EF062C07FF04A
:1005D00063C080F064C081F0A8ECCDF07AC0B0F0C8
:1005E0007BC0B1F07CC0B2F07DC0B3F0C3C061F09D
:1005F000C4C062F0C5C063F0C6C064F0000E000164
:10060000656F000E666F200E676F410E686F74ECA9
:1006100098F061C0C3F062C0C4F063C0C5F064C0AC
:10062000C6F00001BF4BC02BA251BF5DC051800A74
:10063000956FA351800A9559D8A021EF83F023EF3D
:1006400083F098EF82F0C3C061F0C4C062F0C5C00F
:1006500063F0C6C064F0000E656F000E666FA00EFA
:10066000676F400E686F77EC94F061C0B4F062C0C1
:10067000B5F063C0B6F064C0B7F0B0C07AF0B1C0F6
:100680007BF0B2C07CF0B3C07DF0B4C07EF0B5C0EA
:100690007FF0B6C080F0B7C081F08AECBAF00001FC
:1006A000D8B055EF83F057EF83F061EF83F0000E81
:1006B000B46F000EB56F000EB66F000EB76F8AEF05
:1006C00083F0B0C061F0B1C062F0B2C063F0B3C0FB
:1006D00064F0B4C065F0B5C066F0B6C067F0B7C0EE
:1006E00068F0DDECC6F00001D8A079EF83F07BEF75
:1006F00083F08AEF83F0A4B180EF83F082EF83F080
:100700008AEF83F0000EB46F000EB56F000EB66F67
:10071000000EB76FB9C061F0BAC062F0BBC063F041
:10072000BCC064F0B4C065F0B5C066F0B6C067F098
:10073000B7C068F0FFEC8FF061C0B0F062C0B1F0FC
:1007400063C0B2F064C0B3F0B0C07AF0B1C07BF067
:10075000B2C07CF0B3C07DF0000E0001656F000EEA
:10076000666F200E676F410E686FAAC061F0ABC064
:1007700062F0ACC063F0ADC064F077EC94F061C09F
:100780007EF062C07FF063C080F064C081F08AECCC
:10079000BAF00001D8A0CFEF83F0D1EF83F0F9EFEA
:1007A00083F0BD4BBE2BAAC061F0ABC062F0ACC001
:1007B00063F0ADC064F0000E656F000E666F200E32
:1007C000676F410E686F77EC94F061C0AAF062C069
:1007D000ABF063C0ACF064C0ADF0660E0001A819C8
:1007E000D8A4F5EF83F0F7EF83F0F9EF83F0A24B95
:1007F000A32BAAC0C3F0ABC0C4F0ACC0C5F0ADC061
:10080000C6F0650EA819D8B408EF84F00AEF84F09A
:1008100010EF84F0BDC0A0F0BEC0A1F014EF84F0D2
:10082000000EA16F000EA06F000E9C6F000E9F6F58
:10083000000E9E6F000EC06F000EBF6F23EF85F09D
:10084000B0C061F0B1C062F0B2C063F0B3C064F098
:10085000C3C065F0C4C066F0C5C067F0C6C068F02C
:1008600074EC98F061C07AF062C07BF063C07CF0F9
:1008700064C07DF0BEECA5F07AC0B4F07BC0B5F0EA
:100880007CC0B6F07DC0B7F0B4C061F0B5C062F016
:10089000B6C063F0B7C064F006ECBAF0000162BF06
:1008A0005DEF84F0625107E10A0E615DD8B05BEF45
:1008B00084F05DEF84F06DEF84F0B4C061F0B5C0FA
:1008C00062F0B6C063F0B7C064F006ECBAF061C085
:1008D000A4F062C0A5F071EF84F0000EA56F090EC0
:1008E000A46F0001A451A511D8A479EF84F07BEF87
:1008F00084F08FEF84F0670EA919D8A482EF84F0FA
:1009000084EF84F08FEF84F0A1BF8BEF84F089EF48
:1009100084F08FEF84F09E4B9F2BD6EF84F09C5198
:10092000D8A495EF84F097EF84F0BFEF84F0A1BFD7
:100930009EEF84F09CEF84F0BFEF84F0570EC1254A
:10094000D96E020EC221DA6E2E0EDF6EC14BC22BA3
:10095000AE07D8A0AF07010E9C6FBFEF84F0570E13
:10096000C125D96E020EC221DA6E300EDF6EC14B88
:10097000C22BAE07D8A0AF079E07D8A09F079E51F5
:100980009F11D8A4C6EF84F0C8EF84F0AFEF84F0D5
:10099000570EC125D96E020EC221DA6EA451300F56
:1009A000DF6EC14BC22BAE07D8A0AF07B0C07AF044
:1009B000B1C07BF0B2C07CF0B3C07DF0B4C065F0D4
:1009C000B5C066F0B6C067F0B7C068F0C3C061F0EC
:1009D000C4C062F0C5C063F0C6C064F077EC94F0A8
:1009E00061C07EF062C07FF063C080F064C081F0BF
:1009F000A8ECCDF07AC0B0F07BC0B1F07CC0B2F012
:100A00007DC0B3F0C3C061F0C4C062F0C5C063F084
:100A1000C6C064F0000E0001656F000E666F200E08
:100A2000676F410E686F74EC98F061C0C3F062C0EC
:100A3000C4F063C0C5F064C0C6F00001A007D8A030
:100A4000A107BF4BC02BA251BF5DC051800A956F5B
:100A5000A351800A9559D8B030EF85F032EF85F078
:100A600040EF85F0C2BF3EEF85F0C25109E14B0E69
:100A7000C15DD8A03EEF85F040EF85F020EF84F017
:100A8000000EC06F4F0EBF6F570EBF25D96E020EFE
:100A9000C021DA6EDF6A650EA819D8A452EF85F07E
:100AA00054EF85F0D9EF85F0000E9D6FBEBF5DEF6E
:100AB00085F05BEF85F063EF85F0010E9D6FBD6DF6
:100AC000BE1FD8B0BE2B000EA76F020EA66F95EF0B
:100AD00085F0BF07D8A0C007570EBF25D96E020EFC
:100AE000C021DA6EBDC061F0BEC062F0000E646F5E
:100AF0000A0E636FCFECC4F000016151300FDF6E5E
:100B0000BDC061F0BEC062F0000E646F0A0E636F7C
:100B1000E1ECC1F061C0BDF062C0BEF00001A6070B
:100B2000D8A0A707AE07D8A0AF07BD51BE11D8A463
:100B30009CEF85F09EEF85F069EF85F0A7BFABEFE6
:100B400085F0A75106E1A605D8B0A9EF85F0ABEF77
:100B500085F069EF85F0BF07D8A0C0079D51D8A4E4
:100B6000B4EF85F0B6EF85F0BCEF85F0000E9B6F1B
:100B70002B0E9A6FC0EF85F0000E9B6F2D0E9A6FB3
:100B8000570EBF25D96E020EC021DA6E9AC0DFFF64
:100B9000AE07D8A0AF07BF07D8A0C007570EBF2524
:100BA000D96E020EC021DA6E650EDF6EAE07D8A0D8
:100BB000AF07570E956F020E966FC151955FC251E8
:100BC000965BBF519525616FC0519621626F570E9C
:100BD000636F020E646FC1C065F0C2C066F074EC52
:100BE000CCF00001C151BF5DC16FC251C059C26F8D
:100BF000B851D8A4FEEF85F001EF86F0010E02EFA8
:100C000086F0000EBF6FC06B24A209EF86F00BEFD9
:100C100086F039EF86F01BEF86F0C107D8A0C20737
:100C2000570EC125D96E020EC221DA6E300EDF6E6C
:100C3000AE07D8A0AF07AE51BF5DC051800A956F17
:100C4000AF51800A9559D8B028EF86F02AEF86F088
:100C500039EF86F0C151BF5DC051800A956FC25116
:100C6000800A9559D8A037EF86F039EF86F00DEF5E
:100C700086F0B851D8B43FEF86F041EF86F04CEFE4
:100C800086F0C107D8A0C207570EC125D96E020E43
:100C9000C221DA6EB8C0DFFFBF51AE5FC051AF5B9B
:100CA0008EC080F08FC081F0570EC125826F020E7A
:100CB000C221836FAEC084F0AFC085F02FECC6F0C8
:100CC0001200010E0101C16F020EBA6FBF69C06947
:100CD000000EC36F000EC26F41EF87F0C2510001DA
:100CE000F425D96E0101C3510001F521DA6EDF5000
:100CF000F66F2E0EF66EF40EF76E000EF86E08000C
:100D0000F550F619D8A487EF86F089EF86F03EEF0C
:100D100087F00101C2510001F425F66F0101C351B2
:100D20000001F521F76F010EF625D96E000EF721AF
:100D3000DA6EDF50F86F2F0EF66EF40EF76E000EBF
:100D4000F86E0800F550F819D8A4A9EF86F0ABEFBB
:100D500086F03EEF87F00101C2510001F425F66FE5
:100D60000101C3510001F521F76F020EF625D96E7E
:100D7000000EF721DA6EDF50F86F300EF66EF40ECB
:100D8000F76E000EF86E0800F550F819D8A4CBEFF6
:100D900086F0CDEF86F03EEF87F00101C2510001F1
:100DA000F425F66F0101C3510001F521F76F030E21
:100DB000F625D96E000EF721DA6EDF50F86F310E8E
:100DC000F66EF40EF76E000EF86E0800F550F81986
:100DD000D8A4EDEF86F0EFEF86F03EEF87F001014B
:100DE000C2510001F425F66F0101C3510001F52144
:100DF000F76F040EF625D96E000EF721DA6EDF507C
:100E0000F86F320EF66EF40EF76E000EF86E0800F4
:100E1000F550F819D8A40FEF87F011EF87F03EEFE7
:100E200087F00101C2510001F425F66F0101C351A1
:100E30000001F521F76F050EF625D96E000EF7219A
:100E4000DA6EDF50F86F330EF66EF40EF76E000EAA
:100E5000F86E0800F550F819D8A431EF87F033EF99
:100E600087F03EEF87F0010E0101BA6F000EC16FEF
:100E7000C2C1BFF1C3C1C0F150EF87F00101C24B45
:100E8000C32B0001F2510101C25D0001F3510101C8
:100E9000C359D8A04EEF87F050EF87F06EEF86F081
:100EA000BF2906E1C029D8A458EF87F05AEF87F090
:100EB00040EF88F0000EC36F000EC26F31EF88F074
:100EC000C2510001F425D96E0101C3510001F52181
:100ED000DA6EDF50F66F360EF66EF40EF76E000E19
:100EE000F86E0800F550F619D8A479EF87F07BEF7B
:100EF00087F02EEF88F00101C2510001F425F66F52
:100F00000101C3510001F521F76F010EF625D96EDD
:100F1000000EF721DA6EDF50F86F370EF66EF40E22
:100F2000F76E000EF86E0800F550F819D8A49BEF84
:100F300087F09DEF87F02EEF88F00101C25100018C
:100F4000F425F66F0101C3510001F521F76F020E80
:100F5000F625D96E000EF721DA6EDF50F86F380EE5
:100F6000F66EF40EF76E000EF86E0800F550F819E4
:100F7000D8A4BDEF87F0BFEF87F02EEF88F0010116
:100F8000C2510001F425F66F0101C3510001F521A2
:100F9000F76F030EF625D96E000EF721DA6EDF50DB
:100FA000F86F390EF66EF40EF76E000EF86E08004C
:100FB000F550F819D8A4DFEF87F0E1EF87F02EEFB6
:100FC00088F00101C2510001F425F66F0101C351FF
:100FD0000001F521F76F040EF625D96E000EF721FA
:100FE000DA6EDF50F86F3A0EF66EF40EF76E000E02
:100FF000F86E0800F550F819D8A401EF88F003EF57
:1010000088F02EEF88F00101C2510001F425F66F3F
:101010000101C3510001F521F76F050EF625D96EC8
:10102000000EF721DA6EDF50F86F3B0EF66EF40E0D
:10103000F76E000EF86E0800F550F819D8A423EFEB
:1010400088F025EF88F02EEF88F0000E0101BA6FCE
:10105000C2C1BFF1C3C1C0F140EF88F00101C24B72
:10106000C32B0001F2510101C25D0001F3510101E6
:10107000C359D8A03EEF88F040EF88F060EF87F0CA
:10108000BF2906E1C029D8A448EF88F04AEF88F0CC
:1010900053EF88F0000EC16FBB0E0001E26FF80E37
:1010A000E36F01ECD1F00101BD69BE69000EC36FB1
:1010B000000EC26F2DEF89F0C2510001F425D96EE8
:1010C0000101C3510001F521DA6EDF50F66F260EE3
:1010D000F66EF40EF76E000EF86E0800F550F61975
:1010E000D8A475EF88F077EF88F02AEF89F0010136
:1010F000C2510001F425F66F0101C3510001F52131
:10110000F76F010EF625D96E000EF721DA6EDF506B
:10111000F86F270EF66EF40EF76E000EF86E0800EC
:10112000F550F819D8A497EF88F099EF88F02AEFD6
:1011300089F00101C2510001F425F66F0101C3518C
:101140000001F521F76F020EF625D96E000EF7218A
:10115000DA6EDF50F86F280EF66EF40EF76E000EA2
:10116000F86E0800F550F819D8A4B9EF88F0BBEF75
:1011700088F02AEF89F00101C2510001F425F66FD1
:101180000101C3510001F521F76F030EF625D96E59
:10119000000EF721DA6EDF50F86F290EF66EF40EAE
:1011A000F76E000EF86E0800F550F819D8A4DBEFC2
:1011B00088F0DDEF88F02AEF89F00101C2510001CB
:1011C000F425F66F0101C3510001F521F76F040EFC
:1011D000F625D96E000EF721DA6EDF50F86F2A0E71
:1011E000F66EF40EF76E000EF86E0800F550F81962
:1011F000D8A4FDEF88F0FFEF88F02AEF89F0010115
:10120000C2510001F425F66F0101C3510001F5211F
:10121000F76F050EF625D96E000EF721DA6EDF5056
:10122000F86F2B0EF66EF40EF76E000EF86E0800D7
:10123000F550F819D8A41FEF89F021EF89F02AEFB3
:1012400089F0060E0101C225BD6F000EC321BE6FDD
:101250003CEF89F00101C24BC32B0001F2510101A7
:10126000C25D0001F3510101C359D8A03AEF89F0E2
:101270003CEF89F05CEF88F0BD2906E1BE29D8A4D7
:1012800044EF89F046EF89F04FEF89F0000EC16F0F
:10129000DE0E0001E26FF70EE36F01ECD1F0010109
:1012A000C105D8A456EF89F058EF89F0B2EF89F064
:1012B000000EC36F000EC26FA70EC225D96E020EBC
:1012C000C321DA6EDF6AC24BC32BC35109E1220E80
:1012D000C25DD8A06EEF89F070EF89F05CEF89F005
:1012E000000EBC6F000EBB6FBFC1C2F1C0C1C3F125
:1012F000A7EF89F0BC5107E1220EBB5DD8B083EFA8
:1013000089F085EF89F099EF89F0C2510001F42549
:10131000D96E0101C3510001F521DA6EA70E01015A
:10132000BB25E16E020EBC21E26EDFCFE7FFA2EF2C
:1013300089F0000EC16F040E0001E26FF90EE36F39
:1013400001ECD1F00101BB4BBC2BC24BC32BBD51F7
:10135000C25DBE51C359D8A0B0EF89F0B2EF89F099
:101360007AEF89F0C105D8A4B8EF89F0BAEF89F017
:10137000D7EF89F01A0E0001616FA70E626F020E9F
:10138000636F060E9FECCFF00201C219D8B4CBEF09
:1013900089F0CDEF89F0D7EF89F0000E0101C16F20
:1013A000250E0001E26FF90EE36F01ECD1F0000EA3
:1013B0000101C36F000EC26FA70EC225D96E020EC7
:1013C000C321DA6E1F0EDF64E8EF89F0EAEF89F0DF
:1013D00007EF8AF0A70EC225D96E020EC321DA6E7E
:1013E0007F0EDF60F6EF89F0F8EF89F007EF8AF003
:1013F000A70EC225D96E020EC321DA6EDF5000019E
:10140000F66FF6510101B66FB76B0BEF8AF0000E65
:10141000B76F2E0EB66F240EC225D96E020EC321F1
:10142000DA6EB6C1DFFFC24BC32BC35109E1220EF6
:10143000C25DD8A01EEF8AF020EF8AF0DCEF89F0C1
:10144000020E0201B019D8A428EF8AF02AEF8AF020
:1014500033EF8AF0670E0001E26FF80EE36F01ECE4
:10146000D1F03AEF8AF00D0E0001E26FF80EE36F53
:1014700001ECD1F0000E0101C36F000EC26FE00E4F
:101480000001E26FF90EE36FA70E0101C225D96ECC
:10149000020EC321DA6EDF500001F66FF651E46FE1
:1014A000E56B01ECD1F00101C24BC32BC35109E143
:1014B000220EC25DD8A05FEF8AF061EF8AF03FEFA5
:1014C0008AF0380E0001E26FF80EE36F01ECD1F004
:1014D000000E0101B96F000EC36F000EC26F240E23
:1014E000C225D96E020EC321DA6EDF50B86FE90E45
:1014F0000001E26FFF0EE36FB80EE46F010EE56FBF
:1015000001ECD1F00101C24BC32BC35109E1220E02
:10151000C25DD8A08EEF8AF090EF8AF06FEF8AF06C
:10152000010E0001E26FF90EE36F01ECD1F0010151
:10153000BA05D8A49EEF8AF0A0EF8AF0A2EF8AF055
:10154000000EC16F020E0201B019D8B4AAEF8AF0E2
:10155000ACEF8AF0AFEF8AF0000E0101C16F01011C
:10156000C1511200C9C0D9FFCAC0DAFFDECFF6FFF1
:10157000DDCFF7FF000EF86E0800F550250AD8A45D
:10158000C4EF8AF0C6EF8AF05FEF8DF0C9C0D9FFD3
:10159000CAC0DAFFDE2A000EDD22000E0101306F24
:1015A000000E2F6F2FC124F01C681D68000E000173
:1015B000D06F000ECF6F09EF8BF02482C9C0D9FF26
:1015C000CAC0DAFFDE2A000EDD2209EF8BF0000E22
:1015D000D06F010ECF6F09EF8BF0C9C0D9FFCAC021
:1015E000DAFFDECFF6FFDDCFF7FF000EF86E080062
:1015F000F550CD6FCE6BCE51000AD8B402EF8BF010
:10160000E7EF8AF0CD51300AD8B4DDEF8AF0E7EF8A
:101610008AF0CF51D011D8B410EF8BF012EF8BF0CD
:10162000EDEF8AF0C9C067F0CAC068F0CBC069F0BE
:10163000CCC06AF0ABECC0F067C02FF168C030F1ED
:10164000010130BF28EF8BF026EF8BF02DEF8BF0F0
:1016500024802F6D301FD8B0302BC9C0D9FFCAC02D
:10166000DAFFDECFD8F0DDCFD9F0D8C0F6FFD9C091
:10167000F7FF000EF86E0800F550640AD8B443EF87
:101680008BF045EF8BF055EF8BF0D8C0F6FFD9C04B
:10169000F7FF000EF86E0800F550690AD8A453EF62
:1016A0008BF055EF8BF084EF8BF0CBC0D9FFCCC023
:1016B000DAFFDFCFCDF0020EDE26DFCFCEF0000E58
:1016C000DD22CDC0D9FFCEC0DAFFDECFD4F0DDCF32
:1016D000D5F0010E0001D825CD6F000ED921CE6FB7
:1016E000C9C0D9FFCAC0DAFFCDC0DEFFCEC0DDFF62
:1016F000C7C08BF0C8C08CF0D4C08DF0D5C08EF0C0
:10170000C2ECA7F076EF8DF0D8C0F6FFD9C0F7FF96
:10171000000EF86E0800F550780AD8A492EF8BF00E
:1017200094EF8BF0DDEF8BF0CBC0D9FFCCC0DAFFAC
:10173000DFCFCDF0020EDE26DFCFCEF0000EDD22B1
:10174000CDC0D9FFCEC0DAFFDECFD4F0DDCFD5F0EB
:10175000010E0001D825CD6F000ED921CE6FC9C072
:10176000D9FFCAC0DAFFCDC0DEFFCEC0DDFFC5EFB6
:101770008BF0C7C08BF0C8C08CF0D4C08DF0D5C042
:101780008EF02AECAEF076EF8DF0D8C0F6FFD9C01F
:10179000F7FF000EF86E0800F550CD6FCE6BCE51FE
:1017A000000AD8B4D6EF8BF0DDEF8BF0CD51780A7C
:1017B000D8B4B9EF8BF0DDEF8BF0C9C0D9FFCAC048
:1017C000DAFFDECFF6FFDDCFF7FF000EF86E080080
:1017D000F550730AD8B4EFEF8BF0F1EF8BF00EEF0A
:1017E0008CF0C9C0D9FFCAC0DAFFDECF61F0DDCF0F
:1017F00062F0F60E0001636FFF0E646F000E666FFD
:10180000030E656F10ECBCF0000161516211D8A4A9
:101810000CEF8CF00EEF8CF052EF8CF0C9C0D9FFBA
:10182000CAC0DAFFDECFF6FFDDCFF7FF000EF86E9D
:101830000800F550730AD8B420EF8CF022EF8CF03A
:1018400029EF8CF0000E0001D26F030ED16F2EEF46
:101850008CF0000E0001D26F010ED16FC9C0D9FF0C
:10186000CAC0DAFFD151DE26D251DD22C7C079F0DD
:10187000C8C07AF0CBC0D9FFCCC0DAFFDFCFCDF043
:10188000020EDE26DFCFCEF0000EDD22CDC0D9FF66
:10189000CEC0DAFFDECF7BF0DDCF7CF06CECAAF0BF
:1018A00076EF8DF0C9C0D9FFCAC0DAFFDECFD8F01D
:1018B000DDCFD9F0D8C0F6FFD9C0F7FF000EF86E23
:1018C0000800F5CFD3F071EF8CF0D84BD92B92EF05
:1018D0008CF06C0ED36F92EF8CF0000ED36F92EF02
:1018E0008CF0D351CD6FCE6BCE51000AD8B47BEFC4
:1018F0008CF06DEF8CF0CD514C0AD8B465EF8CF0C4
:10190000290AD8B469EF8CF0030AD8B469EF8CF0D7
:10191000010AD8B469EF8CF00B0AD8B465EF8CF0EB
:101920006DEF8CF0D8C0F6FFD9C0F7FF000EF86E4F
:101930000800F550650AD8B4A0EF8CF0A2EF8CF047
:10194000F8EF8CF0D8C0F6FFD9C0F7FF000EF86EA4
:101950000800F550660AD8B4B0EF8CF0B2EF8CF006
:10196000F8EF8CF0D8C0F6FFD9C0F7FF000EF86E84
:101970000800F550670AD8A4C0EF8CF0C2EF8CF0D5
:1019800056EF8DF0F8EF8CF0CBC0D9FFCCC0DAFF6A
:10199000DFCFCDF0040EDE26DFCFCEF0000EDD224D
:1019A000CDC0D9FFCEC0DAFFDECFD4F0DECFD5F088
:1019B000DECFD6F0DECFD7F00DEF8DF0CBC0D9FF64
:1019C000CCC0DAFFDFCFCDF0040EDE26DFCFCEF0C5
:1019D000000EDD22CDC0D9FFCEC0DAFFDECFD4F0BD
:1019E000DECFD5F0DECFD6F0DECFD7F00DEF8DF025
:1019F000D351CD6FCE6BCE51000AD8B402EF8DF02B
:101A00000DEF8DF0CD514C0AD8B4DEEF8CF0200AEA
:101A1000D8B4C4EF8CF00DEF8DF0010ED825CD6F4A
:101A2000000ED921CE6FC9C0D9FFCAC0DAFFCDC020
:101A3000DEFFCEC0DDFF36EF8DF0C7C08EF0C8C030
:101A40008FF0D4C090F0D5C091F0D6C092F0D7C03E
:101A500093F0D8C0F6FFD9C0F7FF000EF86E08006B
:101A6000F5CF94F000EC80F076EF8DF0D8C0F6FF63
:101A7000D9C0F7FF000EF86E0800F550CD6FCE6BA1
:101A8000CE51000AD8B447EF8DF056EF8DF0CD510E
:101A9000650AD8B41DEF8DF0030AD8B41DEF8DF0A0
:101AA000010AD8B41DEF8DF056EF8DF0C9C0D9FFF3
:101AB000CAC0DAFFDE2A000EDD2276EF8DF0C9C043
:101AC000D9FFCAC0DAFFDECFF6FFDDCFF7FF000E89
:101AD000F86E0800F5500001706F716BC7C072F0AE
:101AE000C8C073F07BECC1F056EF8DF01200010E10
:101AF0000001E26FF90EE36F01ECD1F0230E00015B
:101B0000E26FFE0EE36FC4C7E4F0C5C7E5F0C6C7D9
:101B1000E6F0C7C7E7F001ECD1F0C6C7C0F1C7C710
:101B2000C1F1000E0101B96F000EB86FC0C161F0C4
:101B3000C1C162F0000E0001646F1D0E636F15ECF1
:101B4000D1F0840E00016125D96E050E6221DA6E96
:101B50000A0EDE18D8A4AFEF8DF0B1EF8DF0C3EF11
:101B60008DF0C0C161F0C1C162F0000E646F1D0E46
:101B7000636F15ECD1F0840E00016125D96E050E5E
:101B80006221DA6EDF6AC0C161F0C1C162F0000E8D
:101B9000646F1D0E636F15ECD1F0810E000161259D
:101BA000D96E050E6221DA6EDF50F26FF25101013B
:101BB000BE6FBF6BC0C161F0C1C162F0000E000119
:101BC000646F1D0E636F15ECD1F0820E000161256C
:101BD000D96E050E6221DA6EDECFBCF1DDCFBDF12C
:101BE000C0C161F0C1C162F0000E646F1D0E636F71
:101BF00015ECD1F0840E00016125D96E050E62212D
:101C0000DA6EDF50F26FF2510101BA6FBB6BE30E77
:101C10000001E26FFE0EE36FBEC1E4F0BFC1E5F06C
:101C2000BCC1E6F0BDC1E7F0BAC1E8F0BBC1E9F064
:101C300001ECD1F078EF8FF0C0C161F0C1C162F06A
:101C4000000E646F1D0E636F15ECD1F0990E00014C
:101C50006125D96E050E6221DA6EDF50F26FF25106
:101C60000101BE6FBF6BC0C161F0C1C162F0000E67
:101C70000001646F1D0E636F15ECD1F09A0E000128
:101C80006125D96E050E6221DA6EDF50F26FF251D6
:101C90000101BC6FBD6BC0C161F0C1C162F0000E3B
:101CA0000001646F1D0E636F15ECD1F09B0E0001F7
:101CB0006125D96E050E6221DA6EDF50F26FF251A6
:101CC0000101BA6FBB6BC0C161F0C1C162F0000E0F
:101CD0000001646F1D0E636F15ECD1F09C0E0001C6
:101CE0006125D96E050E6221DA6EDF50F26FF25176
:101CF0000101B66FB76BC60E0001E26FF90EE36F1C
:101D0000BEC1E4F0BFC1E5F0BCC1E6F0BDC1E7F083
:101D1000BAC1E8F0BBC1E9F0B6C1EAF0B7C1EBF077
:101D200001ECD1F0AFEF8FF0C0C161F0C1C162F042
:101D3000000E646F1D0E636F15ECD1F0990E00015B
:101D40006125D96E050E6221DA6EDF50F26FF25115
:101D50000101BE6FBF6BE30E0001E26FFF0EE36F88
:101D6000BEC1E4F0BFC1E5F001ECD1F0AFEF8FF000
:101D7000C0C161F0C1C162F0000E646F1D0E636FDF
:101D800015ECD1F0990E00016125D96E050E622186
:101D9000DA6EDF50F26FF2510101BE6FBF6BC0C14E
:101DA00061F0C1C162F0000E0001646F1D0E636F2F
:101DB00015ECD1F09A0E00016125D96E050E622155
:101DC000DA6EDF50F26FF2510101BC6FBD6BC0C122
:101DD00061F0C1C162F0000E0001646F1D0E636FFF
:101DE00015ECD1F09B0E00016125D96E050E622124
:101DF000DA6EDF50F26FF2510101BA6FBB6B160E53
:101E00000001E26FFC0EE36FBEC1E4F0BFC1E5F07C
:101E1000BCC1E6F0BDC1E7F0BAC1E8F0BBC1E9F072
:101E200001ECD1F0AFEF8FF0C0C161F0C1C162F041
:101E3000000E646F1D0E636F15ECD1F0990E00015A
:101E40006125D96E050E6221DA6EDF50F26FF25114
:101E50000101BE6FBF6BC0C161F0C1C162F0000E75
:101E60000001646F1D0E636F15ECD1F09A0E000136
:101E70006125D96E050E6221DA6EDF50F26FF251E4
:101E80000101BC6FBD6B8D0E0001E26FFE0EE36FB2
:101E9000BEC1E4F0BFC1E5F0BCC1E6F0BDC1E7F0F2
:101EA00001ECD1F0AFEF8FF0C0C161F0C1C162F0C1
:101EB000000E646F1D0E636F15ECD1F0990E0001DA
:101EC0006125D96E050E6221DA6EDF50F26FF25194
:101ED0000101BE6FBF6B920E0001E26FFE0EE36F59
:101EE000BEC1E4F0BFC1E5F001ECD1F0AFEF8FF07F
:101EF000C0C161F0C1C162F0000E0001646F1D0E2F
:101F0000636F15ECD1F0800E00016125D96E050ECE
:101F10006221DA6EDF50F26FF36BF351000AD8B42E
:101F200094EF8FF0AFEF8FF0F251000AD8B41CEFAE
:101F30008EF0010AD8B494EF8EF0030AD8B4B8EF4B
:101F40008EF0010AD8B414EF8FF0070AD8B454EF1A
:101F50008FF0010AD8B4AFEF8FF0AFEF8FF0C0C1B0
:101F600061F0C1C162F0000E0001646F1D0E636F6D
:101F700015ECD1F0850E000161250101BE6F050E43
:101F8000000162210101BF6FB60E0001E26FF80E81
:101F9000E36FBEC1E4F0BFC1E5F001ECD1F0010197
:101FA000C04BC12BC15109E1150EC05DD8A0DBEFBC
:101FB0008FF0DDEF8FF0E1EF8FF0000EC16F000EBC
:101FC000C06F27EEC4F0C051DE1807E1C151DE1822
:101FD000D8A4EDEF8FF0EFEF8FF0F1EF8FF0FEEF81
:101FE0008FF0B84BB92BB95109E1140EB85DD8A0E8
:101FF000FCEF8FF0FEEF8FF096EF8DF012000001F6
:102000006451800B6D6F645164256F6F63AF0BEF8C
:1020100090F00DEF90F00EEF90F06F816F51D8B40B
:1020200014EF90F016EF90F02BEF90F06F29D8A4FA
:102030001CEF90F01EEF90F026EF90F0000E616F15
:10204000000E626F000E636F000E646F638F000EF0
:10205000646F33EF90F0000E616F000E626F000E40
:10206000636F000E646F6851800B6E6F6D516E1957
:10207000D8B43DEF90F03FEF90F040EF90F06D8DD1
:10208000685168256E6F67AF48EF90F04AEF90F0A7
:102090004BEF90F06E816E51D8B451EF90F053EF4A
:1020A00090F068EF90F06E29D8A459EF90F05BEFB4
:1020B00090F063EF90F0000E656F000E666F000EFB
:1020C000676F000E686F678F000E686F70EF90F09B
:1020D000000E656F000E666F000E676F000E686F72
:1020E0006F516E5DD8B077EF90F079EF90F0A0EF80
:1020F00090F06DAD7EEF90F080EF90F082EF90F079
:10210000800E6D1B6FC070F06EC06FF070C06EF00F
:1021100061C070F065C061F070C065F062C070F0C1
:1021200066C062F070C066F063C070F067C063F0B4
:1021300070C067F064C070F068C064F070C068F090
:10214000000E706F6F516EC069F06A6B695F000EB0
:102150006A5B6ABFB5EF90F06A5109E11A0E695DDA
:10216000D8A0B5EF90F0B7EF90F0EEEF90F061519E
:10217000621163116411D8A4C0EF90F0C3EF90F026
:10218000010EC4EF90F0000E706F000E616F000E34
:10219000626F000E636F000E646F6EC06FF0F7EF3A
:1021A00090F070A1D6EF90F0D8EF90F0DEEF90F0C5
:1021B000D89070310109706FE0EF90F0D8907033D3
:1021C00061A1E5EF90F0E7EF90F0E8EF90F0708F0D
:1021D000643564336333623361336F2B6E516F5DEB
:1021E000D8A0F5EF90F0F7EF90F0D1EF90F06DBD43
:1021F000FCEF90F0FEEF90F03EEF91F06F51D8A41D
:1022000004EF91F006EF91F010EF91F0000E616F86
:10221000000E626F000E636F000E646F5FEF92F04E
:1022200065516127665162236751632368516423B6
:1022300064A11DEF91F01FEF91F0CBEF91F070A131
:1022400024EF91F026EF91F02CEF91F0D8907031BF
:102250000109706F2EEF91F0D890703361A133EFC8
:1022600091F035EF91F036EF91F0708F6435643373
:102270006333623361336F2BCBEF91F06551615D56
:1022800066516259675163596451800A696F685198
:10229000800A6959D8B04FEF91F051EF91F07CEF7F
:1022A00091F06151655D696F625166596A6F635162
:1022B00067596B6F645168596C6FFF0E6925616FC8
:1022C000FF0E6A21626FFF0E6B21636FFF0E6C21A0
:1022D000646F800E6D1B706D7051D8A472EF91F019
:1022E00074EF91F084EF91F0010E6127000E6223EC
:1022F0006323642384EF91F06551615F6651625BF3
:102300006751635B6851645B6151621163116411D1
:10231000D8A48DEF91F08FEF91F0C4EF91F0705150
:10232000D8A495EF91F097EF91F0C4EF91F0000EE3
:10233000616F000E626F000E636F000E646F5FEFDF
:1023400092F0D890613762376337643770AFABEF84
:1023500091F0ADEF91F0AEEF91F0618170A1B3EF2C
:1023600091F0B5EF91F0B9EF91F0D8807037BBEFF5
:1023700091F0D89070376F51D8B4C1EF91F0C3EF9E
:1023800091F0C4EF91F06F0763AFC9EF91F0CBEF1D
:1023900091F0A1EF91F0000E6E6F70AFD2EF91F05F
:1023A000D4EF91F0ECEF91F070C069F07F0E6917F7
:1023B000D8B4DDEF91F0DFEF91F0E3EF91F0010E93
:1023C0006E6FECEF91F061A1E8EF91F0EAEF91F020
:1023D000ECEF91F0DFEF91F06E51D8B4F2EF91F0A5
:1023E000F4EF91F01FEF92F0010E6127000E6223CF
:1023F0006323642364A1FFEF91F001EF92F01FEFDC
:1024000092F061C069F062C06AF063C06BF064C0B2
:102410006CF06C356C336B336A33693369C061F0CF
:102420006AC062F06BC063F06CC064F06F29D8B40E
:102430001CEF92F01EEF92F01FEF92F06F2B6F29BE
:10244000D8B425EF92F027EF92F02FEF92F06F5172
:10245000D8A42DEF92F02FEF92F041EF92F0000E02
:10246000616F000E626F000E636F000E646F6F513C
:10247000D8A43DEF92F03FEF92F041EF92F0000EC2
:102480006D6F6FA146EF92F048EF92F04BEF92F034
:10249000638F4CEF92F0639FD8906F31646F6DAF94
:1024A00054EF92F056EF92F057EF92F0648F61C0C4
:1024B00061F062C062F063C063F064C064F0120057
:1024C0005FEF94F013ECD0F00001F96F000E010102
:1024D0003325D96E040E3421DA6EF9C0DFFF334B99
:1024E000342B33C161F034C162F0000E0001636F20
:1024F000040E646FABECA8F0000161516211D8B416
:1025000084EF92F086EF92F0B7EF92F033C1F2F0E1
:1025100034C1F3F0000EF46F040EF56F61EC86F039
:10252000E806D8A496EF92F098EF92F0A9EF92F017
:10253000020E0101F96FB4C2CFF1B90E0001E26FD2
:10254000FE0EE36FCFC1E4F0E56B01ECD1F0B0EF2C
:1025500092F03F0E0001E26FFA0EE36F01ECD1F052
:10256000000E0101346F000E336F76EF94F001011D
:102570004951D8A4BEEF92F0C0EF92F062EF92F012
:1025800076EF94F0000E0101D06F830ED025D96E46
:10259000DA6A010EDA22DF6AD02B210ED065D3EF82
:1025A00092F0D5EF92F0C5EF92F0000ED06FD0C14F
:1025B000C8F12E0ED025F66EF76AF40EF722F86AEF
:1025C000000EF822830EC825D96EDA6A010EDA22CF
:1025D0000800F5CFDFFFD02B050ED065F2EF92F0AB
:1025E000F4EF92F0D7EF92F0ADC289F1AEC28AF16A
:1025F000230E8B6F000E8C6F020E8D6F6AEF93F0BF
:102600002A0E01018F6FCFC190F1000E916F000E65
:10261000926F000E936F88EF93F02A0E01018F6F77
:10262000CFC190F1000E916F120E926F010E936F59
:10263000340E946F200E956F88EF93F02A0E0101EF
:102640008F6FCFC190F1000E916F88EF93F02A0E3B
:1026500001018F6FCFC190F1000E916F000EC96F15
:10266000000ECA6F240ECB6F410ECC6FC90ECD6F1A
:10267000010ECE6F990E0001E26FFF0EE36FC9C12C
:10268000E4F0CAC1E5F0CBC1E6F0CCC1E7F001EC63
:10269000D1F0CDC1D9FFCEC1DAFFDF500101926F79
:1026A00020EE01F0CD51D926CE51DA22DF50936FC2
:1026B00020EE02F0CD51D926CE51DA22DF50946FB0
:1026C00020EE03F0CD51D926CE51DA22DF50956F9E
:1026D00088EF93F0CF510001F96FFA6BFA51000ABD
:1026E000D8B475EF93F088EF93F0F951010AD8B49C
:1026F00000EF93F0030AD8B40DEF93F0010AD8B4B9
:102700001EEF93F0070AD8B427EF93F088EF93F009
:10271000240E01019D6F1A0E0001616F830E626F1E
:10272000010E636F060E9FECCFF001019E6F000E4D
:10273000D06FD0511C0FC86F260ED025F66EF76AE9
:10274000F40EF722F86A000EF822830EC825D96E1F
:10275000DA6A010EDA220800F5CFDFFFD02B050E72
:10276000D065B5EF93F0B7EF93F099EF93F0000ECB
:10277000D06F830ED025D96EDA6A010EDA221F0ED1
:10278000DF64C5EF93F0C7EF93F0E4EF93F0830EAF
:10279000D025D96EDA6A010EDA227F0EDF60D3EF20
:1027A00093F0D5EF93F0E4EF93F0830ED025D96E3C
:1027B000DA6A010EDA22DF500001F96FF9510101E6
:1027C000C46FC56BE8EF93F0000EC56F2E0EC46F9B
:1027D000240ED025D96EDA6A020EDA22C4C1DFFFD8
:1027E000D02B210ED065F7EF93F0F9EF93F0B9EF0E
:1027F00093F03C0E0001E26FF80EE36F01ECD1F0B4
:10280000000E0101D06FE00E0001E26FF90EE36FE0
:10281000830E0101D025D96EDA6A010EDA22DF506B
:102820000001F96FF951E46FE56B01ECD1F00101A2
:10283000D02B210ED0651FEF94F021EF94F003EF21
:1028400094F0380E0001E26FF80EE36F01ECD1F066
:10285000000E0101C76F000ED06F240ED025D96E77
:10286000DA6A020EDA22DF50C66FE90E0001E26F6B
:10287000FF0EE36FC60EE46F010EE56F01ECD1F0C1
:102880000101D02B210ED06548EF94F04AEF94F06F
:102890002DEF94F0010E0001E26FF90EE36F01ECF1
:1028A000D1F0830E0001616F010E626F220E636F23
:1028B0004BECCCF0010E0101F96F76EF94F00101C1
:1028C000F9510001F96FFA6BFA51000AD8B46BEFB5
:1028D00094F076EF94F0F951010AD8B4B7EF92F082
:1028E000030AD8B4C2EF92F076EF94F01200000120
:1028F0006451800B6D6F64516425736F63AF83EF18
:1029000094F085EF94F086EF94F073817351D8B40E
:102910008CEF94F08EEF94F0A1EF94F07329D8A48B
:1029200094EF94F096EF94F09EEF94F0000E616FA8
:10293000000E626F000E636F000E646F638FA9EF6D
:1029400094F0000E616F000E626F000E636F000E58
:10295000646F6851800B6D1B685168256E6F67AF9F
:10296000B4EF94F0B6EF94F0B7EF94F06E816E513F
:10297000D8B4BDEF94F0BFEF94F0D2EF94F06E298D
:10298000D8A4C5EF94F0C7EF94F0CFEF94F0000E09
:10299000656F000E666F000E676F000E686F678FC1
:1029A000DAEF94F0000E656F000E666F000E676F31
:1029B000000E686F6E51D8B4E0EF94F0E2EF94F03F
:1029C000EAEF94F07351D8A4E8EF94F0EAEF94F0B2
:1029D000F4EF94F0000E616F000E626F000E636FF3
:1029E000000E646F8CEF96F067516103F3CF78F0BF
:1029F000F4CF79F078516F6F706B716B726B7951A6
:102A0000746F756B766B776B66516203F3CF78F0FA
:102A1000F4CF79F078516F27000E70237123722361
:102A200079517427000E752376237723655163034C
:102A3000F3CF78F0F4CF79F078516F27000E702340
:102A40007123722379517427000E7523762377231F
:102A500071C072F070C071F06FC070F06F6B655133
:102A60006203F3CF78F0F4CF79F078516F27795182
:102A70007023000E7123000E722366516103F3CFA1
:102A800078F0F4CF79F078516F2779517023000EE8
:102A90007123000E722371C072F070C071F06FC0AC
:102AA00070F06F6B65516103F3CF78F0F4CF79F07C
:102AB00078516F2779517023000E7123000E722315
:102AC00067516203F3CF78F0F4CF79F0785174272F
:102AD00079517523000E7623000E77236651630328
:102AE000F3CF78F0F4CF79F07851742779517523CA
:102AF000000E7623000E772367516303F3CF78F03F
:102B0000F4CF79F07851696F79516A6F6B6B6C6BA8
:102B10006BC06CF06AC06BF069C06AF0696B695198
:102B200074276A5175236B5176236C5177236FC0DC
:102B300069F070C06AF071C06BF072C06CF0190E71
:102B4000A7EF95F0D8906C336B336A336933E82E76
:102B5000A2EF95F0695174276A5175236B51762362
:102B60006C51772371C072F070C071F06FC070F05B
:102B70006F6B6E5173C069F06A6B6927000E6A2330
:102B8000820E6925786FFF0E6A21796FDDEF95F06F
:102B9000D890743775377637773772AFD2EF95F0B4
:102BA000D4EF95F0D5EF95F07481D8906F377037EA
:102BB000713772377807D8A0790776AFE2EF95F0D2
:102BC000E4EF95F0C8EF95F0000E6E6F72AFEBEF8B
:102BD00095F0EDEF95F011EF96F0FF0E6F15696F20
:102BE000FF0E70156A6FFF0E71156B6F7F0E7215F9
:102BF0006C6F69516A116B116C11D8B402EF96F0C9
:102C000004EF96F008EF96F0010E6E6F11EF96F05C
:102C100074A10DEF96F00FEF96F011EF96F004EF20
:102C200096F06E51D8B417EF96F019EF96F03DEF8D
:102C300096F0010E7427000E75237623772377A173
:102C400024EF96F026EF96F03DEF96F074C069F011
:102C500075C06AF076C06BF077C06CF06C356C3381
:102C60006B336A33693369C074F06AC075F06BC046
:102C700076F06CC077F0784B792B79BF48EF96F0FF
:102C8000795108E17829D8A048EF96F04AEF96F0FC
:102C900054EF96F0000E746F000E756F800E766F15
:102CA0007F0E776F82EF96F079BF61EF96F07951E2
:102CB00006E17805D8B05FEF96F061EF96F06DEF22
:102CC00096F0000E746F000E756F000E766F000E9A
:102CD000776F000E6D6F82EF96F078C073F0FF0E85
:102CE0007417FF0E75177F0E7617000E771773A1F6
:102CF0007CEF96F07EEF96F07FEF96F0768FD8908F
:102D00007331776F6D51771374C061F075C062F0E5
:102D100076C063F077C064F01200010E00016D6FA1
:102D2000000E6F6F000E6E6F6AC0D9FF6BC0DAFFC6
:102D3000DE6ADD6A68C0D9FF69C0DAFF300EDE18CE
:102D4000D8A4A5EF96F0A7EF96F0CAEF97F020EE83
:102D500001F06851D9266951DA22780EDE18D8A41C
:102D6000B4EF96F0B6EF96F0CAEF97F0020E706FE0
:102D700070516825D96E000E6921DA6EDF50D8A433
:102D8000C4EF96F0C6EF96F0C8EF96F043EF97F0D9
:102D900070516825D96E000E6921DA6E600EDF640D
:102DA000D4EF96F0D6EF96F0E4EF96F070516825E8
:102DB000D96E000E6921DA6E660EDF64E2EF96F0DE
:102DC000E4EF96F01CEF97F070516825D96E000E75
:102DD0006921DA6E400EDF64F0EF96F0F2EF96F0C4
:102DE00000EF97F070516825D96E000E6921DA6EF8
:102DF000460EDF64FEEF96F000EF97F01CEF97F0C1
:102E000070516825D96E000E6921DA6E2F0EDF64CD
:102E10000CEF97F00EEF97F036EF97F070516825B2
:102E2000D96E000E6921DA6E3A0EDF601AEF97F064
:102E30001CEF97F036EF97F06E516F11D8A423EF87
:102E400097F025EF97F02BEF97F0000E6F6F010EC4
:102E50006E6F3AEF97F06E3B6F3BF00E6F176E514F
:102E60000F0B6F13F00E6E173AEF97F0000E6D6FA9
:102E700043EF97F0702B070E706541EF97F043EF2B
:102E800097F0B8EF96F06D05D8A449EF97F04BEFA7
:102E900097F073EF98F0020E706F70516825D96E3D
:102EA000000E6921DA6EDF50D8A459EF97F05BEF7E
:102EB00097F05DEF97F073EF98F070516825D96E39
:102EC000000E6921DA6E2F0EDF6469EF97F06BEF69
:102ED00097F097EF97F070516825D96E000E692131
:102EE000DA6E3A0EDF6077EF97F079EF97F097EFB1
:102EF00097F070516825D96E000E6921DA6EDF50A7
:102F00006C6F0F0E6C176C51616F626B6EC063F06B
:102F10006FC064F015ECD1F06AC0D9FF6BC0DAFF66
:102F200000016151DE266251DD22B6EF97F070514B
:102F30006825D96E000E6921DA6EDF506C6F0F0EB6
:102F40006C17090E6C25616F626B000E62236EC0F8
:102F500063F06FC064F015ECD1F06AC0D9FF6BC0AC
:102F6000DAFF00016151DE266251DD226E3B6F3BCC
:102F70000F0E6E176F51F00B6E130F0E6F17702B35
:102F8000070E7065C6EF97F0C8EF97F04DEF97F01A
:102F900073EF98F0000E706F70516825D96E000EB7
:102FA0006921DA6EDF50D8A4D8EF97F0DAEF97F006
:102FB000DCEF97F025EF98F070516825D96E000E80
:102FC0006921DA6E2F0EDF64E8EF97F0EAEF97F0F1
:102FD00017EF98F070516825D96E000E6921DA6EEE
:102FE0003A0EDF60F6EF97F0F8EF97F017EF98F0F2
:102FF0006E516F11D8A4FFEF97F001EF98F007EF33
:1030000098F0000E6F6F010E6E6F1BEF98F06EC0A0
:1030100061F06FC062F0000E646F0A0E636F15EC12
:10302000D1F061C06EF062C06FF01BEF98F0000E3F
:103030006D6F25EF98F00001702B070E706523EF80
:1030400098F025EF98F0CCEF97F06D05D8A42BEF12
:1030500098F02DEF98F073EF98F0000E706F7051AC
:103060006825D96E000E6921DA6EDF50D8A43BEFD7
:1030700098F03DEF98F03FEF98F073EF98F07051B3
:103080006825D96E000E6921DA6EDF506C6F0F0E65
:103090006C176C51616F626B6EC063F06FC064F04F
:1030A00015ECD1F06AC0D9FF6BC0DAFF00016151A5
:1030B000DE266251DD226EC061F06FC062F0000E4C
:1030C000646F0A0E636FD6ECC8F061C06EF062C028
:1030D0006FF00001702B070E706571EF98F073EFC1
:1030E00098F02FEF98F0120000016451800B716F7F
:1030F00064516425786F63AF80EF98F082EF98F0A9
:1031000083EF98F078817851D8B489EF98F08BEFFD
:1031100098F0A0EF98F07829D8A491EF98F093EF69
:1031200098F09BEF98F0000E616F000E626F000E3A
:10313000636F000E646F638F000E646FA8EF98F0EA
:10314000000E616F000E626F000E636F000E646F01
:103150006851800B711B68516825796F67AFB3EFB9
:1031600098F0B5EF98F0B6EF98F079817951D8B42E
:10317000BCEF98F0BEEF98F0D3EF98F07929D8A47F
:10318000C4EF98F0C6EF98F0CEEF98F0000E656FA0
:10319000000E666F000E676F000E686F678F000E7F
:1031A000686FDBEF98F0000E656F000E666F000E23
:1031B000676F000E686F6551661167116811D8A4BA
:1031C000E4EF98F0E6EF98F0FEEF98F0000E616FF4
:1031D000000E626F000E636F000E646F800E63134B
:1031E0007F0E64137151641361C061F062C062F0BC
:1031F00063C063F064C064F041EF9AF07851D8A4E2
:1032000004EF99F006EF99F010EF99F0000E616F5E
:10321000000E626F000E636F000E646F41EF9AF054
:10322000795178C069F06A6B695F000E6A5B7F0E46
:103230006925726F000E6A21736F61C06DF062C004
:103240006EF063C06FF064C070F0000E616F000E2E
:10325000626F000E636F000E646F000E746F000EDD
:10326000756F000E766F000E776F000E796F71EF3D
:1032700099F07951D8B43FEF99F041EF99F058EFB8
:1032800099F0D8906D376E376F377037D8906137B7
:1032900062376337643777AF50EF99F052EF99F0A8
:1032A00053EF99F06181D890743775377637773757
:1032B00065516D5D66516E5967516F59685170590E
:1032C000D8A065EF99F067EF99F070EF99F0778DDE
:1032D00065516D5F66516E5B67516F5B6851705BE6
:1032E000792B190E796577EF99F079EF99F039EF2D
:1032F00099F06D516E116F117011D8B482EF99F081
:1033000084EF99F09CEF99F074819CEF99F0D8903C
:10331000613762376337643777AF91EF99F093EF96
:1033200099F094EF99F06181D890743775377637BA
:1033300077377207D8A0730763AFA1EF99F0A3EFB7
:1033400099F087EF99F0000E796F77AFAAEF99F0B7
:10335000ACEF99F0D0EF99F0FF0E7415696FFF0E86
:1033600075156A6FFF0E76156B6F7F0E77156C6F94
:1033700069516A116B116C11D8B4C1EF99F0C3EFA8
:1033800099F0C7EF99F0010E796FD0EF99F061A134
:10339000CCEF99F0CEEF99F0D0EF99F0C3EF99F020
:1033A0007951D8B4D6EF99F0D8EF99F0FCEF99F0B5
:1033B000010E6127000E62236323642364A1E3EFFF
:1033C00099F0E5EF99F0FCEF99F061C069F062C007
:1033D0006AF063C06BF064C06CF06C356C336B33B7
:1033E0006A33693369C061F06AC062F06BC063F030
:1033F0006CC064F0724B732B73BF07EF9AF073517C
:1034000008E17229D8A007EF9AF009EF9AF014EFBB
:103410009AF0000E736F7269000E616F000E626F9A
:10342000000E636F000E646F73BF21EF9AF073514B
:1034300006E17205D8B01FEF9AF021EF9AF02FEF56
:103440009AF0000E736F000E726F000E616F000E27
:10345000626F000E636F000E646F000E716F72C0BA
:1034600078F078A136EF9AF038EF9AF03BEF9AF0C7
:10347000638F3CEF9AF0639FD8907831646FF2EFDE
:1034800098F012000D013205D8A449EF9AF04BEFE5
:103490009AF065EF9AF030511F0B0009D8A453EF52
:1034A0009AF055EF9AF065EF9AF00D8E030E3119F0
:1034B000D8A45DEF9AF05FEF9AF063EF9AF0010EF7
:1034C000286E65EF9AF0000E286E3251D8A46BEF8B
:1034D0009AF06DEF9AF0FCEF9BF030511F0B020A4F
:1034E000D8A475EF9AF077EF9AF0FCEF9BF0345187
:1034F0000F0B0009D8B47FEF9AF081EF9AF0FCEF40
:103500009BF034510F0B0001776F030E77618BEF47
:103510009AF08DEF9AF0FCEF9BF0200EFC19D8A4E6
:1035200094EF9AF096EF9AF0FCEF9BF00D8E0D0160
:1035300034BF9DEF9AF09FEF9AF0BFEF9AF03451AD
:103540000F0B0001776F7751020D130EF324D96E24
:10355000010EF420DA6EDECF7CF0DDCF7DF00D01C0
:1035600034510F0B0001776F786B160E7725D96EEB
:10357000000E7821DA6EDF507B6FDDEF9AF0345168
:103580000F0B0001776F7751020D100EF324D96EE7
:10359000000EF420DA6EDECF7CF0DDCF7DF00D0181
:1035A00034510F0B0001776F786B190E7725D96EA8
:1035B000000E7821DA6EDF507B6F7BB1E2EF9AF07C
:1035C000E4EF9AF0ECEF9AF0FB0E7C157C6FFF0EA7
:1035D0007D157D6FF1EF9AF0040E7C117C6F7D51AB
:1035E0007D6F0D0134BFF7EF9AF0F9EF9AF00BEF12
:1035F0009BF034510F0B0001776F7751020D130EC2
:10360000F324D96E010EF420DA6E7CC0DEFF7DC09B
:10361000DDFF1BEF9BF034510F0B0001776F7751EB
:10362000020D100EF324D96E000EF420DA6E7CC069
:10363000DEFF7DC0DDFF030E0D013119D8A423EF9D
:103640009BF025EF9BF061EF9BF07CC0D9FF7DC024
:10365000DAFF0001DFAE2FEF9BF031EF9BF053EF6D
:103660009BF00D0134BF37EF9BF039EF9BF047EF34
:103670009BF034510F0B0001776F786B160E772596
:10368000D96E000E7821DA6EDF8253EF9BF0345151
:103690000F0B0001776F786B190E7725D96E000E2E
:1036A0007821DA6EDF827CC0D9FF7DC0DAFF000EA0
:1036B000DB847CC0D9FF7DC0DAFF000EDB8EFCEF1F
:1036C0009BF0040E00017C197C6F7D517D6F7CC0E6
:1036D000D9FF7DC0DAFFDFAE70EF9BF072EF9BF099
:1036E0008EEF9BF07CC0D9FF7DC0DAFF7F0EDF1626
:1036F0007CC0D9FF7DC0DAFF000EDB8C000E706F3E
:10370000050E6F6F7CC071F07DC072F0000E746F9B
:10371000020E736F76ECC4F094EF9BF07CC0D9FF7F
:103720007DC0DAFF000EDB8C040E00017C197C6F7B
:103730007D517D6F7BB39FEF9BF0A1EF9BF0ACEFD2
:103740009BF07CC0D9FF7DC0DAFFDFAEAAEF9BF013
:10375000ACEF9BF0E4EF9BF00D0134BFB2EF9BF0B8
:10376000B4EF9BF0C2EF9BF034510F0B0001776F69
:10377000786B160E7725D96E000E7821DA6EDF92FF
:10378000CEEF9BF034510F0B0001776F786B190E61
:103790007725D96E000E7821DA6EDF927CC0D9FFD2
:1037A0007DC0DAFF3B0EDF16000E706F050E6F6FE7
:1037B0007CC071F07DC072F0000E746F020E736FEA
:1037C00076ECC4F0EAEF9BF07CC0D9FF7DC0DAFF55
:1037D0003B0EDF160D0134510F0B0001776F786B34
:1037E000260E7725796F0F0E78217A6F79C0D9FF71
:1037F0007AC0DAFFFE0EDF161200D9ECCFF000011E
:103800007051F76FF751D8B408EF9CF00AEF9CF0B5
:10381000B2EF9DF09BEF9DF0000E0101406F000E96
:103820003F6F010E586FE00E0001F725F26FF36B4A
:10383000FF0EF323F35107E15F0EF25DD8B023EFE3
:103840009CF025EF9CF044EF9CF0010140BF34EF69
:103850009CF0405107E10F0E3F5DD8B032EF9CF075
:1038600034EF9CF044EF9CF05F0E3F25D96E010EC3
:103870004021DA6EF7C0DFFF3F4B402B0001F751CC
:10388000A6ECC2F0B2EF9DF0080E0001F719D8A423
:103890004CEF9CF04EEF9CF068EF9CF0010140BFB4
:1038A0005AEF9CF0405108E13F05D8A05AEF9CF038
:1038B0005CEF9CF068EF9CF03F07D8A04007FA0E41
:1038C0000001E26FFF0EE36F01ECD1F0B2EF9DF06B
:1038D0000D0E0001F719D8A470EF9CF072EF9CF068
:1038E00099EF9DF05F0E01013F25D96E010E402139
:1038F000DA6EDF6A010E0001E26FF90EE36F01EC90
:10390000D1F0020E0101586F000E0001F46F000E9D
:1039100001016F6F000E776F000E806F000E7F6FDA
:10392000000E826F000E816F000E0001F66F000E18
:10393000F56F000EF96F000EF86F5F0EF825D96E67
:10394000010EF921DA6EDF50D8A4A9EF9CF0ABEF9D
:103950009CF0DAEF9CF0C1EF9CF06F0EF525D96E6C
:10396000010EF621DA6EDF6AF54BF62B82EF9DF041
:10397000770EF525D96E010EF621DA6EDF6A82EF39
:103980009DF0F451F26FF36BF351000AD8B4CBEF12
:103990009CF082EF9DF0F251000AD8B482EF9DF0C6
:1039A000010AD8B4ADEF9CF0030AD8B4B8EF9CF08C
:1039B00082EF9DF05F0EF825D96E010EF921DA6EC7
:1039C000200EDE18D8A4E7EF9CF0E9EF9CF05BEF47
:1039D0009DF020EF9DF05F0EF825D96E010EF921C4
:1039E000DA6EDF6AF42B74EF9DF001016F51D8B4E9
:1039F000FCEF9CF0FEEF9CF074EF9DF06F0E000169
:103A0000F525D96E010EF621DA6EDF6AF42B000E71
:103A1000F66F000EF56F74EF9DF001017751D8B489
:103A200014EF9DF016EF9DF074EF9DF0770E0001FE
:103A3000F525D96E010EF621DA6EDF6A74EF9DF07E
:103A4000F451F26FF36BF351000AD8B42AEF9DF0F2
:103A500074EF9DF0F251000AD8B4EBEF9CF0010A2C
:103A6000D8B4F5EF9CF0030AD8B40DEF9DF074EFD5
:103A70009DF05F0EF825D96E010EF921DA6E6F0EFA
:103A8000F525E16E010EF621E26EDFCFE7FFF54B83
:103A9000F62B74EF9DF05F0EF825D96E010EF9211B
:103AA000DA6E770EF525E16E010EF621E26EDFCFBC
:103AB000E7FF47EF9DF0F451F26FF36BF351000A0B
:103AC000D8B465EF9DF074EF9DF0F251000AD8B4C0
:103AD00074EF9DF0010AD8B439EF9DF0030AD8B411
:103AE0004BEF9DF074EF9DF00001F84BF92BF9516D
:103AF00009E1100EF85DD8A080EF9DF082EF9DF0F7
:103B00009DEF9CF06F0E686F010E696F7F0E6A6FFC
:103B1000010E6B6F8DEC96F0770E0001686F010E51
:103B2000696F810E6A6F010E6B6F8DEC96F0B2EFCC
:103B30009DF0B2EF9DF0010158510001F26FF36B5F
:103B4000F351000AD8B4A7EF9DF0B2EF9DF0F25107
:103B5000000AD8B40CEF9CF0010AD8B413EF9CF023
:103B6000B2EF9DF00101585112000D013205D8A4A9
:103B7000BCEF9DF0BEEF9DF0D8EF9DF030511F0BD4
:103B80000009D8A4C6EF9DF0C8EF9DF0D8EF9DF0D6
:103B90000D8E030E3119D8A4D0EF9DF0D2EF9DF019
:103BA000D6EF9DF0010E286ED8EF9DF0000E286E26
:103BB0003251D8A4DEEF9DF0E0EF9DF05CEF9FF076
:103BC00030511F0B020AD8A4E8EF9DF0EAEF9DF0F8
:103BD0005CEF9FF034510F0B0009D8B4F2EF9DF069
:103BE000F4EF9DF05CEF9FF034510F0B446E030E29
:103BF0004460FDEF9DF0FFEF9DF05CEF9FF0200E25
:103C00000001FC19D8A407EF9EF009EF9EF05CEFCD
:103C10009FF00D8E0D0134BF10EF9EF012EF9EF05D
:103C20002FEF9EF034510F0B446E4450020D130ED3
:103C3000F324D96E010EF420DA6EDECF49F0DDCF29
:103C40004AF034510F0B446E456A160E4424D96E67
:103C5000000E4520DA6EDF50486E4AEF9EF0345178
:103C60000F0B446E4450020D100EF324D96E000E5B
:103C7000F420DA6EDECF49F0DDCF4AF034510F0B7D
:103C8000446E456A190E4424D96E000E4520DA6E42
:103C9000DF50486E48B04FEF9EF051EF9EF059EF65
:103CA0009EF0FB0E4914496EFF0E4A144A6E5EEFF9
:103CB0009EF0040E4910496E4A504A6E34BF63EFBD
:103CC0009EF065EF9EF076EF9EF034510F0B446E40
:103CD0004450020D130EF324D96E010EF420DA6E57
:103CE00049C0DEFF4AC0DDFF85EF9EF034510F0B67
:103CF000446E4450020D100EF324D96E000EF420D1
:103D0000DA6E49C0DEFF4AC0DDFF030E3119D8A4C8
:103D10008CEF9EF08EEF9EF0C6EF9EF049C0D9FF6B
:103D20004AC0DAFFDFAE97EF9EF099EF9EF0B8EF52
:103D30009EF034BF9EEF9EF0A0EF9EF0ADEF9EF0A0
:103D400034510F0B446E456A160E4424D96E000E92
:103D50004520DA6EDF82B8EF9EF034510F0B446ECF
:103D6000456A190E4424D96E000E4520DA6EDF82B2
:103D700049C0D9FF4AC0DAFF000EDB8449C0D9FF31
:103D80004AC0DAFF000EDB8E5CEF9FF0040E49188C
:103D9000496E4A504A6E49C0D9FF4AC0DAFFDFAEC9
:103DA000D4EF9EF0D6EF9EF0F2EF9EF049C0D9FF1F
:103DB0004AC0DAFF7F0EDF1649C0D9FF4AC0DAFFDA
:103DC000000EDB8C000E3D6E050E3C6E49C03EF0D1
:103DD0004AC03FF0000E416E020E406E28ECC5F066
:103DE000F8EF9EF049C0D9FF4AC0DAFF000EDB8C25
:103DF000040E4918496E4A504A6E48B202EF9FF0CD
:103E000004EF9FF00FEF9FF049C0D9FF4AC0DAFFDF
:103E1000DFAE0DEF9FF00FEF9FF045EF9FF00D012C
:103E200034BF15EF9FF017EF9FF024EF9FF0345150
:103E30000F0B446E456A160E4424D96E000E4520C1
:103E4000DA6EDF922FEF9FF034510F0B446E456A0C
:103E5000190E4424D96E000E4520DA6EDF9249C057
:103E6000D9FF4AC0DAFF3B0EDF16000E3D6E050E8D
:103E70003C6E49C03EF04AC03FF0000E416E020E5B
:103E8000406E28ECC5F04BEF9FF049C0D9FF4AC007
:103E9000DAFF3B0EDF160D0134510F0B446E456AFD
:103EA000260E4424466E0F0E4520476E46C0D9FFAD
:103EB00047C0DAFFFE0EDF161200010E0001E26FAE
:103EC000F90EE36F01ECD1F00D0E0001E26FFB0E75
:103ED000E36F01ECD1F0AA0E0001E26FFC0EE36F7C
:103EE000C7CFE4F0E56B01ECD1F0560E0001E26FB4
:103EF000FC0EE36FC6CFE4F0E56B01ECD1F0800E71
:103F00000001E26FFC0EE36FC5CFE4F0E56B01EC5E
:103F1000D1F03A0E0001E26FFB0EE36FC8CFE4F080
:103F2000E56B01ECD1F0BF0E0001E26FFC0EE36F18
:103F300073CFE4F0E56B01ECD1F06B0E0001E26FA2
:103F4000FC0EE36F72CFE4F0E56B01ECD1F0950E5F
:103F50000001E26FFC0EE36F71CFE4F0E56B01EC62
:103F6000D1F0500E0001E26FFB0EE36F74CFE4F06E
:103F7000E56B01ECD1F0F50E0001E26FFA0EE36F94
:103F800001ECD1F0860E0001E26FFD0EE36F92CFDF
:103F9000E4F0E56B01ECD1F0990E0001E26FFD0E4B
:103FA000E36F93CFE4F0E56B01ECD1F0AC0E0001D0
:103FB000E26FFD0EE36F94CFE4F0E56B01ECD1F01E
:103FC000BF0E0001E26FFD0EE36F95CFE4F0E56BED
:103FD00001ECD1F0D40E0001E26FFC0EE36F96CF3E
:103FE000E4F0E56B01ECD1F0040E0001E26FFA0E93
:103FF000E36F01ECD1F0FC0E0001E26FFC0EE36F09
:10400000D3CFE4F0E56B01ECD1F0240E0001E26FB8
:10401000FD0EE36F87CFE4F0E56B01ECD1F0410ECC
:104020000001E26FFC0EE36F9BCFE4F0E56B01EC67
:10403000D1F0220E0001E26FFA0EE36F01ECD1F035
:10404000E80E0001E26FFC0EE36FD0CFE4F0E56B09
:1040500001ECD1F0100E0001E26FFD0EE36FF2CF24
:10406000E4F0E56B01ECD1F0380E0001E26FFD0EDB
:10407000E36FF1CFE4F0E56B01ECD1F04C0E000101
:10408000E26FFD0EE36FF0CFE4F0E56B01ECD1F0F1
:10409000760E0001E26FF70EE36F9ECFE4F0E56B62
:1040A000A1CFE6F0E76BA4CFE8F0E96B8FCFEAF0A1
:1040B000EB6B98CFECF0ED6B01ECD1F0420E000110
:1040C000E26FF70EE36F9DCFE4F0E56BA0CFE6F073
:1040D000E76BA3CFE8F0E96B8ECFEAF0EB6B91CF03
:1040E000ECF0ED6B01ECD1F0AA0E0001E26FF70EDF
:1040F000E36F9FCFE4F0E56BA2CFE6F0E76BA5CFCF
:10410000E8F0E96B90CFEAF0EB6B99CFECF0ED6B58
:1041100001ECD1F0750E0001E26FFA0EE36F01ECD5
:10412000D1F0A80E0001E26FFB0EE36FADCFE4F01B
:10413000E56B01ECD1F0920E0001E26FFB0EE36F34
:10414000ACCFE4F0E56B01ECD1F0EA0E0001E26FD8
:10415000FB0EE36F7ECFE4F0E56B01ECD1F0A90E2E
:104160000001E26FFA0EE36F7FCFE4F0E56BB0CFB2
:10417000E6F0E76B01ECD1F08F0E0001E26FFA0E72
:10418000E36F01ECD1F0BE0E0001E26FFB0EE36FB6
:10419000A8CFE4F0E56B01ECD1F0D40E0001E26FA2
:1041A000FB0EE36F9CCFE4F0E56B01ECD1F0000E69
:1041B0000001E26FFC0EE36F7CCFE4F0E56B01ECF5
:1041C000D1F0C30E0001E26FFA0EE36F7DCFE4F091
:1041D000E56BABCFE6F0E76B01ECD1F0120000012C
:1041E000716F01015951D8B4F8EFA0F0FAEFA0F0C7
:1041F000FCEFA0F064EFA2F05B51D8A402EFA1F0B5
:1042000004EFA1F0FCEFA0F0010E5B6FC4C761F0FA
:10421000C5C762F0000E0001646F1D0E636F15ECE0
:10422000D1F0810E00016125D96E050E6221DA6E92
:1042300006ECD2F0DF6EC4C761F0C5C762F0000EB5
:104240000001646F1D0E636F15ECD1F0820E00014A
:104250006125D96E050E6221DA6EF2ECD1F0000113
:1042600061C0DEFF62C0DDFFC4C761F0C5C762F098
:10427000000E646F1D0E636F15ECD1F0840E00010B
:104280006125D96E050E6221DA6E03ECD2F0DF6E85
:10429000C4C761F0C5C762F0000E0001646F1D0E57
:1042A000636F15ECD1F0990E00016125D96E050EF2
:1042B0006221DA6E69C0DFFFC4C761F0C5C762F072
:1042C000000E646F1D0E636F15ECD1F09A0E0001A5
:1042D0006125D96E050E6221DA6E6AC0DFFFC4C7A0
:1042E00061F0C5C762F0000E646F1D0E636F15ECC0
:1042F000D1F09B0E00016125D96E050E6221DA6EA8
:104300006BC0DFFFC4C761F0C5C762F0000E646F09
:104310001D0E636F15ECD1F09C0E00016125D96E66
:10432000050E6221DA6E6CC0DFFFC4C761F0C5C73D
:1043300062F0000E646F1D0E636F15ECD1F0800EFD
:1043400000016125D96E050E6221DA6E71C0DFFFB2
:10435000000E736F000E726FF7EFA1F067C0F6FFEB
:1043600068C0F7FF000EF86EC4C761F0C5C762F001
:10437000000E646F1D0E636F15ECD1F0850E000109
:1043800061256D6F050E62216E6F72516D25D96EBC
:1043900073516E21DA6E0800F5CFDFFF735109E12A
:1043A000150E725DD8A0D7EFA1F0D9EFA1F0F3EF11
:1043B000A1F0C4C761F0C5C762F0000E646F1D0EA6
:1043C000636F15ECD1F0850E000161256D6F050E50
:1043D00062216E6F72516D25D96E73516E21DA6E46
:1043E000DF6A07EFA2F0724B732B674B682B67C035
:1043F000F6FF68C0F7FF000EF86E0800F5500009E0
:10440000D8A405EFA2F007EFA2F0AEEFA1F0C4C769
:1044100061F0C5C762F0000E646F1D0E636F15EC8E
:10442000D1F0850E000161256D6F050E62216E6F62
:1044300072516D25D96E73516E21DA6EDF6A27EEE7
:10444000C4F0DE2A000EDD2227EEC4F0010EDB50A0
:1044500009E1150EDE5CD8A030EFA2F032EFA2F039
:1044600038EFA2F0000EE8CFC4F7000EE8CFC5F792
:1044700027EEC6F017EEC4F0DE50E61807E1DE5076
:10448000E618D8A446EFA2F048EFA2F061EFA2F040
:1044900027EEC6F0DE2A000EDD2227EEC6F0010E62
:1044A000DB5009E1150EDE5CD8A059EFA2F05BEFFE
:1044B000A2F061EFA2F0000EE8CFC6F7000EE8CF41
:1044C000C7F7000E01015B6F12000001FC05D8A4C4
:1044D0006CEFA2F06EEFA2F07DEFA2F065BA73EF81
:1044E000A2F075EFA2F07DEFA2F0000E626E0F0158
:1044F00036813689020E0001FC6F62A482EFA2F0C1
:1045000084EFA2F08FEFA2F00F0136A58AEFA2F0A0
:104510008CEFA2F08FEFA2F0629413ECCEF065A2C4
:1045200094EFA2F096EFA2F099EFA2F0A19886EF97
:10453000A3F062A09EEFA2F0A0EFA2F0AFEFA2F076
:104540000F0136A1A6EFA2F0A8EFA2F0AFEFA2F004
:10455000D8ECAEF0A088040E0001FC6F629062A857
:10456000B4EFA2F0B6EFA2F0C0EFA2F00F0136A9AF
:10457000BCEFA2F0BEEFA2F0C0EFA2F061ECD0F071
:1045800062ACC5EFA2F0C7EFA2F0F4EFA2F00F010A
:1045900036ADCDEFA2F0CFEFA2F0DEEFA2F0000E2D
:1045A0000001706F730E6F6F000E716F000E726FEF
:1045B000000E746F010E736F76ECC4F0629C2DECEC
:1045C000D0F02650D8B4E7EFA2F0E9EFA2F0EAEF7E
:1045D000A2F026062650D8A4F0EFA2F0F2EFA2F047
:1045E000F4EFA2F082ECBDF062AAF9EFA2F0FBEFCB
:1045F000A2F005EFA3F00F0136AB01EFA3F003EF3C
:10460000A3F005EFA3F03CECCBF062A20AEFA3F01D
:104610000CEFA3F024EFA3F00F0136A312EFA3F0E9
:1046200014EFA3F024EFA3F07F0E0001706F6F6909
:10463000000E716F000E726F000E746F010E736FBB
:1046400076ECC4F0000E636E040E0001FC612BEFEB
:10465000A3F02DEFA3F030EFA3F0A19886EFA3F025
:104660000F0136A736EFA3F038EFA3F085EFA3F0E4
:10467000000E0001816F62A640EFA3F042EFA3F0AD
:1046800085EFA3F064CFFDF0FD31E832E8320F0B87
:10469000276E6296FDB54FEFA3F051EFA3F05AEFEE
:1046A000A3F0160E2724D96EDA6A000EDA22DF7024
:1046B00061EFA3F0190E2724D96EDA6A000EDA2210
:1046C000DF702750D8A467EFA3F069EFA3F06DEF78
:1046D000A3F007ECC3F07BEFA3F0000E706F720E37
:1046E0006F6FFD0E716F000E726F000E746F000E13
:1046F000736F76ECC4F00001812B030E816583EFAC
:10470000A3F085EFA3F03BEFA3F0A1981200000106
:10471000FC05D8A48EEFA3F090EFA3F09FEFA3F0D9
:1047200065BA95EFA3F097EFA3F09FEFA3F0000E0B
:10473000626E0F0136813689020E0001FC6F62A4A1
:10474000A4EFA3F0A6EFA3F0B1EFA3F00F0136A5FD
:10475000ACEFA3F0AEEFA3F0B1EFA3F06294C2EC24
:10476000CEF065A2B6EFA3F0B8EFA3F0BBEFA3F0D5
:10477000A198A5EFA4F062A0C0EFA3F0C2EFA3F050
:10478000D1EFA3F00F0136A1C8EFA3F0CAEFA3F059
:10479000D1EFA3F025ECB0F0A088040E0001FC6F6F
:1047A000629062A8D6EFA3F0D8EFA3F0E2EFA3F0F7
:1047B0000F0136A9DEEFA3F0E0EFA3F0E2EFA3F0E4
:1047C0007AECD0F062ACE7EFA3F0E9EFA3F015EFDD
:1047D000A4F00F0136ADEFEFA3F0F1EFA3F0FFEF80
:1047E000A3F0000E3D6E730E3C6E000E3E6E000E8A
:1047F0003F6E000E416E010E406E28ECC5F0629CCB
:1048000047ECD0F02650D8B408EFA4F00AEFA4F09B
:104810000BEFA4F026062650D8A411EFA4F013EF56
:10482000A4F015EFA4F0FAECBDF062AA1AEFA4F020
:104830001CEFA4F026EFA4F00F0136AB22EFA4F09A
:1048400024EFA4F026EFA4F06DECCBF062A22BEFE6
:10485000A4F02DEFA4F044EFA4F00F0136A333EF42
:10486000A4F035EFA4F044EFA4F07F0E3D6E3C6859
:10487000000E3E6E000E3F6E000E416E010E406E49
:1048800028ECC5F0000E636E040E0001FC614BEFD6
:10489000A4F04DEFA4F050EFA4F0A198A5EFA4F080
:1048A0000F0136A756EFA4F058EFA4F0A4EFA4F040
:1048B000000E4E6E62A65FEFA4F061EFA4F0A4EFCD
:1048C000A4F064CFFDF00001FD31E832E8320F0BB7
:1048D000276E6296FDB56FEFA4F071EFA4F07AEF4A
:1048E000A4F0160E2724D96EDA6A000EDA22DF70E1
:1048F00081EFA4F0190E2724D96EDA6A000EDA22AD
:10490000DF702750D8A487EFA4F089EFA4F08DEFD3
:10491000A4F064ECC3F09BEFA4F0000E3D6E720EA9
:104920003C6EFD0E3E6E000E3F6E000E416E000EA0
:10493000406E28ECC5F04E2A030E4E64A2EFA4F0A0
:10494000A4EFA4F05AEFA4F0A1981200FDEC9BF0A4
:10495000020AD8A4AEEFA4F0B0EFA4F0BDEFA5F02A
:10496000000E0101586F5F0E0001676F010E686F46
:10497000FD0E696FFF0E6A6F5EECC8F000016751B3
:104980006811D8B4C6EFA4F0C8EFA4F0BAEFA5F050
:104990002B04D8A4CEEFA4F0D0EFA4F0D2EFA4F073
:1049A000BAEFA5F0020E2B18D8A4D9EFA4F0DBEFD4
:1049B000A4F019EFA5F0F6EFA4F0030E2B6EBAEFFA
:1049C000A5F00B0EE26FFF0EE36F01ECD1F0AC9897
:1049D000000E0001626F010E616F45ECCFF0AC88F4
:1049E000BAEFA5F0000E2B6EBAEFA5F001015F51F2
:1049F0000001FA6FFB6BFB51000AD8B402EFA5F07F
:104A0000BAEFA5F0FA51310AD8B4BAEFA5F0030A0B
:104A1000D8B4DDEFA4F0010AD8B4E1EFA4F0610A44
:104A2000D8B4F2EFA4F0200AD8B4F2EFA4F0BAEFB1
:104A3000A5F0030E2B18D8A420EFA5F022EFA5F0C7
:104A400083EFA5F0600EE26FFE0EE36F5FC1E4F04E
:104A5000E56B01ECD1F001015F51ECECD0F0020EFE
:104A60002B6EBAEFA5F0010E9BECC8F0BAEFA5F0E3
:104A70005DEC9FF0BAEFA5F0010E2B6EBAEFA5F03A
:104A80008AA445EFA5F047EFA5F04AEFA5F08A9478
:104A9000BAEFA5F08A84BAEFA5F077EC8DF0BAEF03
:104AA000A5F0000E01015A6F6F0E0001E26FFE0EBD
:104AB000E36F5AC1E4F0E56B01ECD1F0BAEFA5F079
:104AC00001015A2BD50E0001E26FFE0EE36F5AC1B1
:104AD000E4F0E56B01ECD1F0BAEFA5F0610EE26F06
:104AE000FF0EE36F01ECD1F097ECD1F0000EBCECBF
:104AF000CFF0BAEFA5F0660EE26FFB0EE36F01ECAC
:104B0000D1F0BAEFA5F042ECC0F00001FA6FFB6BF8
:104B1000FB51000AD8B48FEFA5F0BAEFA5F0FA5117
:104B2000000AD8B433EFA5F0010AD8B438EFA5F0E5
:104B3000020AD8B43CEFA5F0070AD8B440EFA5F0BC
:104B4000010AD8B44DEFA5F0030AD8B451EFA5F08F
:104B5000010AD8B460EFA5F00F0AD8B46EEFA5F043
:104B6000010AD8B42FEFA5F0030AD8B47BEFA5F063
:104B7000BAEFA5F02B5044ECC2F0120019C18AF034
:104B80001AC18BF01BC18CF01CC18DF07AC08AF069
:104B90007BC08BF07CC08CF07DC08DF0810E00015D
:104BA0007E6FFF0E7F6F8AC080F08BC081F08CC05B
:104BB00082F08DC083F0180EE3EFA5F0D890833318
:104BC000823381338033E82EDEEFA5F080517E25DD
:104BD000886F000E7F21896F89BFF8EFA5F089519A
:104BE00009E1170E885DD8A0F8EFA5F0FAEFA5F05F
:104BF00004EFA6F07AC07AF07BC07BF07CC07CF03A
:104C00007DC07DF0C8EFA6F089BF09EFA6F00BEFDD
:104C1000A6F07CEFA6F088C07EF0FF0E7F6FFF0E3F
:104C2000806F7F0E816F000E826F7E671AEFA6F095
:104C300022EFA6F082358233813380337F337E2F9B
:104C400015EFA6F07FC084F080C085F081C086F0AB
:104C500082C087F0000184518A157E6F85518B15C3
:104C60007F6F86518C15806F87518D15816F7E51B6
:104C70007F1180118111D8A440EFA6F042EFA6F079
:104C800044EFA6F0FAEFA5F08AC07EF08BC07FF06B
:104C90008CC080F08DC081F0200E54EFA6F0D8902B
:104CA000813380337F337E33E82E4FEFA6F07E5181
:104CB0007F1180118111D8B460EFA6F062EFA6F0E9
:104CC0006AEFA6F084518A2785518B2386518C2365
:104CD00087518D23841D7E6F851D7F6F861D806F9C
:104CE000871D816F7E518A177F518B1780518C17DA
:104CF00081518D17C0EFA6F08AC07EF08BC07FF087
:104D00008CC080F08DC081F0200E8CEFA6F0D89082
:104D1000813380337F337E33E82E87EFA6F07E51D8
:104D20007F1180118111D8A498EFA6F09AEFA6F018
:104D3000A4EFA6F0000E8A6F000E8B6F000E8C6F32
:104D4000000E8D6FC0EFA6F0D8908A357E6F8B3540
:104D50007F6F8C35806F8D35816F7E517F11801113
:104D60008111D8B4B6EFA6F0B8EFA6F0C0EFA6F068
:104D7000000E8A6F000E8B6F800E8C6FBF0E8D6FD2
:104D80008AC07AF08BC07BF08CC07CF08DC07DF047
:104D9000120083B4CEEFA6F0D0EFA6F088EFA7F014
:104DA000C10E0001E26FFF0EE36F01ECD1F080A0B5
:104DB000DCEFA6F0DEEFA6F0E1EFA6F08990E2EFDF
:104DC000A6F08980B60E0001E26F010EE36F240E9B
:104DD000E46FFB0EE56F9DECCCF0B60E00016E6F3C
:104DE000010E6F6FDCECD1F0B60E0001E26F010E28
:104DF000E36F8E0EE46FFF0EE56F95B002EFA7F044
:104E000006EFA7F0F66BF62B08EFA7F00001F66BA4
:104E1000F651E66FE76B9DECCCF0B60E00016E6FBD
:104E2000010E6F6FDCECD1F0B60E0001E26F010EE7
:104E3000E36F830EE46FFF0EE56F95B222EFA7F0EC
:104E400026EFA7F0F66BF62B28EFA7F00001F66B24
:104E5000F651E66FE76B9DECCCF0B60E00016E6F7D
:104E6000010E6F6FDCECD1F0B60E0001E26F010EA7
:104E7000E36F130EE46FFE0EE56F73CFE6F0E76BA2
:104E80009DECCCF0B60E00016E6F010E6F6FDCEC86
:104E9000D1F0B60E0001E26F010EE36FF30EE46F86
