:0400000013EF00F00A
:060008005B82C8EFABF0C3
:100018005B80E0CF60F060C0E0FF5B90100055EFC0
:02002800B3F033
:10F54200000101000B0102000B0201000C0202008B
:10F552000C03010108030201080101000B01020072
:10F562000B0401000C0402000C0500000080F509E8
:10F572008EF60548F80178F814F8E0F79DF70D0AC1
:10F58200564C3533204D454E5545000000000000D5
:10F5920000000000000000000000000020312E5694
:10F5A2004C35335F494E4954000000000000000012
:10F5B2000000000000000000000020322E434F4EE9
:10F5C2005449494F55532052414E47494E47000036
:10F5D200000000000000000020332E53494E474C2B
:10F5E200452052414E47494E4700000000000000AE
:10F5F20000000000000020342E53494E474C4520A5
:10F6020052414E47494E4720484100000000000049
:10F612000000000020352E53494E474C45205241F0
:10F622004E47494E472048530000000000000000AA
:10F63200000020362E53494E474C452052414E473A
:10F64200494E47204C52000000000000000000001C
:10F6520020372E564C35332044617461204449537F
:10F66200504C4159000000000000000000002072D0
:10F672002E45584954000000000000000000000020
:10F682000000000000000000000000000D0A5253BC
:10F69200343835204D454E5545000000000000002D
:10F6A2000000000000000000000020312E5258200F
:10F6B2004D4F444500000000000000000000000023
:10F6C200000000000000000020322E5458204D4F50
:10F6D200444500000000000000000000000000009F
:10F6E20000000000000020332E4F56455220525594
:10F6F2004E204552524F5220434C5200000000000F
:10F702000000000020722E455849540000000000FD
:10F7120000000000000000000000000000000000E7
:10F7220000000072746300000000000000017265B6
:10F732006700000000000000026932630000000060
:10F7420000000003766C35330000000000000470F6
:10F75200623200000000000000056C6F67000000CC
:10F7620000000000066C6F676F666600000000070D
:10F772006C6F676F6E0000000000086C6F67636C4F
:10F782007200000000097273343835000000000076
:10F792000A6E6F6E6500000000000009024300025D
:10F7A2000100C03209040000010202010005240028
:10F7B20010010424020205240600010524010001AF
:10F7C200070581030A000209040100020A00000081
:10F7D20007050202400000070582024000003403D0
:10F7E2004300440043002000520053002D00320029
:10F7F20033003200200045006D0075006C0061008E
:10F80200740069006F006E002000440065006D0006
:10F812006F0034034D006900630072006F006300E3
:10F8220068006900700020005400650063006800F1
:10F832006E006F006C006F006700790020004900C5
:10F842006E0063002E000D0A52533438352054588E
:10F85200203D200000000000000000000000000029
:10F86200000000001201000202000008D8040A0091
:10F87200000101020001040309042050494520202F
:10F882002020203D203078253032782C20307825F9
:10F892003032782C203078253032782C2030782580
:10F8A2003032782C203078253032780D0A00205002
:10F8B200495220202020203D203078253032782CDB
:10F8C200203078253032782C203078253032782C50
:10F8D200203078253032782C203078253032780D5F
:10F8E2000A002049505220202020203D2030782537
:10F8F2003032782C203078253032782C2030782520
:10F902003032782C203078253032782C203078250F
:10F912003032780D0A00493D25642C533D253032A2
:10F92200782C43313D253032782C43323D2530321C
:10F93200782C42463D25303278202025730D0A006E
:10F9420064743D3078253032782C20636F6D5F739C
:10F952007465705F666C673D25642C7263766E75A4
:10F962006D3D25640D0A00202A20202020202A2017
:10F972002A2020202020202A202A2A2A20202A2049
:10F9820020202A200D0A0D0A00202A2020202020D3
:10F992002A202020202A20202020202A2A2A202033
:10F9A2002A2020202A200D0A00202A202A202A206C
:10F9B2002A2020202A202A20202020202A2020201D
:10F9C2002A2A20202A200D0A00202A20202A20204C
:10F9D2002A20202A2A2A2A2A202020202A202020DF
:10F9E2002A202A202A200D0A00202A202020202036
:10F9F2002A20202A202020202A2020202A202020DD
:10FA02002A20202A2A200D0A00533D253032782C44
:10FA120043313D253032782C43323D253032782C2B
:10FA220042463D2530327820002A2A2A204F53436D
:10FA3200494C4C41544F52202A2A2A2A2A2A2A2A3D
:10FA42002A2A2A2A0D0A002A2A2A20494E544552D5
:10FA520052555054202A2A2A2A2A2A2A2A2A2A2A6B
:10FA62002A0D0A000D0A2A2A2A205553422D434400
:10FA720043205365747570202A2A2A0D0A000A2A27
:10FA82002A2A205541525431202A2A2A2A2A2A2A4D
:10FA92002A2A2A2A2A0D0A000A2A2A2A20554152EB
:10FAA2005432202A2A2A2A2A2A2A2A2A2A2A2A0DA9
:10FAB2000A0020535042524731202020203D20305E
:10FAC2007825303278253032780D0A0020535042A2
:10FAD200524732202020203D2030782530327825B0
:10FAE2003032780D0A000D0A323025642F25642F3A
:10FAF20025642025643A25643A25640D0A002A2AE1
:10FB02002A20504F5254202A2A2A2A2A2A2A2A2ACA
:10FB12002A2A2A0D0A0052533438355F434D445F76
:10FB22004D455355525F444154410D0A002A2A2A39
:10FB320020493243202A2A2A2A2A2A2A2A2A2A2AF7
:10FB42002A0D0A0049324320726567697374612085
:10FB5200646973706C61790D0A002053535031410E
:10FB6200444420203D203078253032780D0A0A00A6
:10FB7200205353503241444420203D2030782530D8
:10FB820032780D0A0A00436F6D6D616E64206E6FEC
:10FB92007420666F756E642E200D0A002A2A2A20B0
:10FBA2005553415254205365747570202A2A2A0DE8
:10FBB2000A0020524353544131202020203D20305E
:10FBC20078253032780D0A002054585354413120A0
:10FBD2002020203D203078253032780D0A00205434
:10FBE2005853544132202020203D20307825303295
:10FBF200780D0A0020524353544133202020203DE7
:10FC0200203078253032780D0A0020424155444395
:10FC12004F4E3120203D203078253032780D0A00B9
:10FC22002042415544434F4E3220203D203078251A
:10FC32003032780D0A00433D25642C696E64657884
:10FC42003D25642C666C673D256420005541525465
:10FC52003438355F52435354413D253032780D0AD2
:10FC620000554152543438355F54585354413D2560
:10FC72003032780D0A006765746368343835282994
:10FC820020646174613D25780D0A00204F5343546E
:10FC9200554E45203D203078253032780D0A0A0035
:10FCA2002053535031434F4E31203D203078253080
:10FCB20032780D0A002053535032434F4E31203DCB
:10FCC200203078253032780D0A00205353503143CA
:10FCD2004F4E32203D203078253032780D0A0020F8
:10FCE20053535032434F4E32203D2030782530322C
:10FCF200780D0A00205353503153544154203D2073
:10FD02003078253032780D0A002053535032535444
:10FD12004154203D203078253032780D0A0052536C
:10FD22003438355F434D445F56455253494F4E0D6B
:10FD32000A0020545249534520203D203078253076
:10FD420032780D0A0A002052434F4E202020203DD7
:10FD5200203078253032780D0A00204F5343434F2C
:10FD62004E20203D203078253032780D0A0020497F
:10FD72004E54434F4E20203D203078253032780DAE
:10FD82000A00204F5343434F4E32203D2030782506
:10FD92003032780D0A0020494E54434F4E32203DF6
:10FDA200203078253032780D0A0020494E54434FD6
:10FDB2004E33203D203078253032780D0A005253E0
:10FDC2003438355F434D445F5354415455530D0A03
:10FDD200006D61696E5F6C6F6F705F64697370282C
:10FDE200290D0A00496E697469616C697A6520455A
:10FDF2006E640D0A0D0A0020545249534120203DE1
:10FE0200203078253032780D0A002054524953426E
:10FE120020203D203078253032780D0A00205452BF
:10FE220049534320203D203078253032780D0A0096
:10FE320020545249534420203D20307825303278D6
:10FE42000D0A0052533438355F434D445F4D4553DC
:10FE520055520D0A00555342204E4F5420434F4EE7
:10FE62004543540D0A0025643A25643A2564202549
:10FE7200642E25642000202053535032434F4E31CC
:10FE82003D25780D0A00202053535032434F4E3205
:10FE92003D25780D0A0020205353503253544154CB
:10FEA2003D25780D0A005750543D25642C5250547C
:10FEB2003D25640D0A0053656E645F525334383534
:10FEC20028290D0A0054696D65725F696E6974288C
:10FED200290D0A002020535350324144443D2578D5
:10FEE2000D0A007075746368343835282578290D39
:10FEF2000A004C4F47204F4646203D2025640D0AFC
:10FF020000525334383520433D307825780D0A00AD
:10FF1200443D25642C696E6465783D256420005556
:10FF220053422053555350454E44540D0A0020204D
:10FF32005353504144443D25780D0A004C4F47200D
:10FF42004F4E203D2025640D0A00253032642E25B7
:10FF52003033642E25642000202066616C73653D79
:10FF620025780D0A004352454E2052455345540D03
:10FF72000A0055534220434F4E4543540D0A002078
:10FF820020747275653D25780D0A004C4F47204359
:10FF92004C4541520D0A005265735F6D7367203DF7
:10FFA2002000636D645F6D6573673D200020205300
:10FFB20044413D25780D0A00202053434C3D2578CD
:10FFC2000D0A00427574746F6E310D0A0042757429
:10FFD200746F6E320D0A00203A3A2025730D0A0022
:10FFE2004C4F472053544F50005553423E2000532C
:0EFFF2003D256420006C6C73000820080000A0
:020000040001F9
:10000000880E0001B56FF90EB66F92ECBCF0A80E29
:100010000001B56FFE0EB66FC4C6B7F0C5C6B8F026
:10002000C6C6B9F0C7C6BAF092ECBCF0C6C6D1F0ED
:10003000C7C6D2F0000E0001CA6F000EC96FD1C052
:1000400061F0D2C062F0000E646F1D0E636FA6EC0B
:10005000BCF0840E00016125D96E040E6221DA6EB7
:100060000A0EDE18D8A437EF80F039EF80F04BEF9E
:1000700080F0D1C061F0D2C062F0000E646F1D0E3E
:10008000636FA6ECBCF0840E00016125D96E040EEE
:100090006221DA6EDF6AD1C061F0D2C062F0000E78
:1000A000646F1D0E636FA6ECBCF0810E000161252C
:1000B000D96E040E6221DA6EDF50C56FC551CF6F65
:1000C000D06BD1C061F0D2C062F0000E646F1D0E23
:1000D000636FA6ECBCF0820E00016125D96E040EA0
:1000E0006221DA6EDECFCDF0DDCFCEF0D1C061F08F
:1000F000D2C062F0000E646F1D0E636FA6ECBCF000
:10010000840E00016125D96E040E6221DA6EDF5083
:10011000C56FC551CB6FCC6B4C0EB56FFF0EB66F74
:10012000CFC0B7F0D0C0B8F0CDC0B9F0CEC0BAF0F3
:10013000CBC0BBF0CCC0BCF092ECBCF0E6EF81F0E1
:10014000D1C061F0D2C062F0000E646F1D0E636F0B
:10015000A6ECBCF0990E00016125D96E040E622157
:10016000DA6EDF50C56FC551CF6FD06BD1C061F073
:10017000D2C062F0000E646F1D0E636FA6ECBCF07F
:100180009A0E00016125D96E040E6221DA6EDF50ED
:10019000C56FC551CD6FCE6BD1C061F0D2C062F0DA
:1001A000000E646F1D0E636FA6ECBCF09B0E000189
:1001B0006125D96E040E6221DA6EDF50C56FC5511C
:1001C000CB6FCC6BD1C061F0D2C062F0000E646F17
:1001D0001D0E636FA6ECBCF09C0E00016125D96E6C
:1001E000040E6221DA6EDF50C56FC551C76FC86B50
:1001F0000B0EB56FFA0EB66FCFC0B7F0D0C0B8F027
:10020000CDC0B9F0CEC0BAF0CBC0BBF0CCC0BCF012
:10021000C7C0BDF0C8C0BEF092ECBCF01DEF82F0CC
:10022000D1C061F0D2C062F0000E646F1D0E636F2A
:10023000A6ECBCF0990E00016125D96E040E622176
:10024000DA6EDF50C56FC551CF6FD06BF10EB56F51
:10025000FF0EB66FCFC0B7F0D0C0B8F092ECBCF0D4
:100260001DEF82F0D1C061F0D2C062F0000E646F69
:100270001D0E636FA6ECBCF0990E00016125D96ECE
:10028000040E6221DA6EDF50C56FC551CF6FD06B9F
:10029000D1C061F0D2C062F0000E646F1D0E636FBA
:1002A000A6ECBCF09A0E00016125D96E040E622105
:1002B000DA6EDF50C56FC551CD6FCE6BD1C061F026
:1002C000D2C062F0000E646F1D0E636FA6ECBCF02E
:1002D0009B0E00016125D96E040E6221DA6EDF509B
:1002E000C56FC551CB6FCC6B380EB56FFC0EB66FBA
:1002F000CFC0B7F0D0C0B8F0CDC0B9F0CEC0BAF022
:10030000CBC0BBF0CCC0BCF092ECBCF01DEF82F0D7
:10031000D1C061F0D2C062F0000E646F1D0E636F39
:10032000A6ECBCF0990E00016125D96E040E622185
:10033000DA6EDF50C56FC551CF6FD06BD1C061F0A1
:10034000D2C062F0000E646F1D0E636FA6ECBCF0AD
:100350009A0E00016125D96E040E6221DA6EDF501B
:10036000C56FC551CD6FCE6B120EB56FFF0EB66F58
:10037000CFC0B7F0D0C0B8F0CDC0B9F0CEC0BAF0A1
:1003800092ECBCF01DEF82F0D1C061F0D2C062F0FF
:10039000000E646F1D0E636FA6ECBCF0990E000199
:1003A0006125D96E040E6221DA6EDF50C56FC5512A
:1003B000CF6FD06B170EB56FFF0EB66FCFC0B7F013
:1003C000D0C0B8F092ECBCF01DEF82F0D1C061F06B
:1003D000D2C062F0000E0001646F1D0E636FA6ECC8
:1003E000BCF0800E00016125D96E040E6221DA6E28
:1003F000DF50C56FC66BC651000AD8B402EF82F059
:100400001DEF82F0C551000AD8B4A0EF80F0010AB8
:10041000D8B410EF81F0030AD8B432EF81F0010AAA
:10042000D8B488EF81F0070AD8B4C4EF81F0010A8C
:10043000D8B41DEF82F01DEF82F0D1C061F0D2C0C0
:1004400062F0000E0001646F1D0E636FA6ECBCF03D
:10045000850E00016125CF6F040E6221D06F3D0E25
:10046000B56FF90EB66FCFC0B7F0D0C0B8F092EC50
:10047000BCF00001D14BD22BD25109E1150ED15D58
:10048000D8A045EF82F047EF82F04BEF82F0000EEC
:10049000D26F000ED16F26EEC4F0D151DE1807E105
:1004A000D251DE18D8A457EF82F059EF82F05BEFFB
:1004B00082F068EF82F0C94BCA2BCA5109E1140ED1
:1004C000C95DD8A066EF82F068EF82F01FEF80F080
:1004D0001200000E0101B16F000EAF6F000EA76F8A
:1004E000000EA86F240EA96F410EAA6FA7C161F07C
:1004F000A8C162F0A9C163F0AAC164F067ECA7F0DB
:1005000061C0ABF162C0ACF163C0ADF164C0AEF1EB
:10051000B8EC8EF0080AD8A490EF82F092EF82F047
:1005200075EF84F0020E01010119D8A49AEF82F050
:100530009CEF82F06EEF84F050EF84F0C00EB56F48
:10054000FD0EB66F92ECBCF0230E0101846FB12B4F
:10055000840EB125D96EDA6A010EDA22DF6AB12B78
:10056000840EB125D96EDA6A010EDA22020EDF6E30
:10057000B12B840EB125D96EDA6A010EDA222A0E69
:10058000DF6EB12B840EB125D96EDA6A010EDA2244
:1005900004C1DFFFB12B840EB125D96EDA6A010EDA
:1005A000DA22DF6AB12B840EB125D96EDA6A010E28
:1005B000DA22DF6AB12B840EB125D96EDA6A010E18
:1005C000DA22DF6AB12B840EB125D96EDA6A010E08
:1005D000DA22DF6AB12B000EB06FF8EF82F0840EE2
:1005E000B025D96EDA6A010EDA22DF50AF27B02BC0
:1005F000B151B05DD8A0FFEF82F001EF83F0EFEFD3
:1006000082F0840EB125D96EDA6A010EDA22240E48
:10061000DF6EB12B840EB125D96EDA6A010EDA22B3
:10062000AFC1DFFFB12B840E0001C56F010EC66F95
:10063000B1C1C7F044ECA1F0000E0001EB6F000E59
:10064000E86F75EF84F0200EB56FFD0EB66F92EC7B
:10065000BCF0230E0101846FB12B840EB125D96E3D
:10066000DA6A010EDA22DF6AB12B840EB125D96E67
:10067000DA6A010EDA22020EDF6EB12B840EB1258A
:10068000D96EDA6A010EDA222A0EDF6EB12B840EE1
:10069000B125D96EDA6A010EDA2204C1DFFFB12B6F
:1006A000840EB125D96EDA6A010EDA22DF6AB12B27
:1006B000840EB125D96EDA6A010EDA22100EDF6ED1
:1006C000B12B840EB125D96EDA6A010EDA22010E41
:1006D000DF6EB12B840EB125D96EDA6A010EDA22F3
:1006E000DF6AB12B840EB125D96EDA6A010EDA22E7
:1006F000DF6AB12B000EB06F87EF83F0840EB02558
:10070000D96EDA6A010EDA22DF50AF27B02BB15171
:10071000B05DD8A08EEF83F090EF83F07EEF83F092
:1007200001EF83F0450EB56FFE0EB66F92ECBCF094
:10073000230E0101846FB12B840EB125D96EDA6AC4
:10074000010EDA22DF6AB12B840EB125D96EDA6A86
:10075000010EDA22020EDF6EB12B840EB125D96EA6
:10076000DA6A010EDA222A0EDF6EB12B840EB12571
:10077000D96EDA6A010EDA2204C1DFFFB12B840ED2
:10078000B125D96EDA6A010EDA22DF6AB12B000ECA
:10079000B06FD4EF83F0840EB025D96EDA6A010E03
:1007A000DA22DF50AF27B02BB151B05DD8A0DBEF1C
:1007B00083F0DDEF83F0CBEF83F001EF83F0180ED1
:1007C000B56FFB0EB66F92ECBCF0230E0101846F87
:1007D000B12B840EB125D96EDA6A010EDA22DF6AF6
:1007E000B12B840EB125D96EDA6A010EDA22020E1F
:1007F000DF6EB12B840EB125D96EDA6A010EDA22D2
:100800002A0EDF6EB12B840EB125D96EDA6A010E85
:10081000DA2204C1DFFFB12B840EB125D96EDA6A6A
:10082000010EDA22DF6AB12B840EB125D96EDA6AA5
:10083000010EDA22ABC1DFFFB12B840EB125D96ED8
:10084000DA6A010EDA22ACC1DFFFB12B840EB125CA
:10085000D96EDA6A010EDA22ADC1DFFFB12B840E48
:10086000B125D96EDA6A010EDA22AEC1DFFFB12BF3
:10087000000EB06F45EF84F0840EB025D96EDA6AB1
:10088000010EDA22DF50AF27B02BB151B05DD8A0F6
:100890004CEF84F04EEF84F03CEF84F001EF83F0F6
:1008A00004510001CF6FD06BD051000AD8B45BEF78
:1008B00084F075EF84F0CF51010AD8B49EEF82F036
:1008C000030AD8B423EF83F0010AD8B492EF83F07F
:1008D000070AD8B4DFEF83F075EF84F0000E000153
:1008E000EB6F000EE86F75EF84F01200010E00014F
:1008F0006D6F000E6F6F000E6E6F6AC0D9FF6BC018
:10090000DAFFDE6ADD6A68C0D9FF69C0DAFF300E3F
:10091000DE18D8A48EEF84F090EF84F0B3EF85F06A
:1009200020EE01F06851D9266951DA22780EDE18DE
:10093000D8A49DEF84F09FEF84F0B3EF85F0020E12
:10094000706F70516825D96E000E6921DA6EDF5024
:10095000D8A4ADEF84F0AFEF84F0B1EF84F02CEFCA
:1009600085F070516825D96E000E6921DA6E600E2F
:10097000DF64BDEF84F0BFEF84F0CDEF84F0705101
:100980006825D96E000E6921DA6E660EDF64CBEF42
:1009900084F0CDEF84F005EF85F070516825D96EB5
:1009A000000E6921DA6E400EDF64D9EF84F0DBEFD0
:1009B00084F0E9EF84F070516825D96E000E69214A
:1009C000DA6E460EDF64E7EF84F0E9EF84F005EFBE
:1009D00085F070516825D96E000E6921DA6E2F0EF0
:1009E000DF64F5EF84F0F7EF84F01FEF85F07051CE
:1009F0006825D96E000E6921DA6E3A0EDF6003EFCA
:100A000085F005EF85F01FEF85F06E516F11D8A4CA
:100A10000CEF85F00EEF85F014EF85F0000E6F6F90
:100A2000010E6E6F23EF85F06E3B6F3BF00E6F177C
:100A30006E510F0B6F13F00E6E1723EF85F0000E43
:100A40006D6F2CEF85F0702B070E70652AEF85F027
:100A50002CEF85F0A1EF84F06D05D8A432EF85F07E
:100A600034EF85F05CEF86F0020E706F70516825F0
:100A7000D96E000E6921DA6EDF50D8A442EF85F0FE
:100A800044EF85F046EF85F05CEF86F07051682505
:100A9000D96E000E6921DA6E2F0EDF6452EF85F0F9
:100AA00054EF85F080EF85F070516825D96E000E07
:100AB0006921DA6E3A0EDF6060EF85F062EF85F053
:100AC00080EF85F070516825D96E000E6921DA6ECD
:100AD000DF506C6F0F0E6C176C51616F626B6EC0E4
:100AE00063F06FC064F0A6ECBCF06AC0D9FF6BC0C5
:100AF000DAFF00016151DE266251DD229FEF85F0B1
:100B000070516825D96E000E6921DA6EDF506C6F66
:100B10000F0E6C17090E6C25616F626B000E62235D
:100B20006EC063F06FC064F0A6ECBCF06AC0D9FF81
:100B30006BC0DAFF00016151DE266251DD226E3B9F
:100B40006F3B0F0E6E176F51F00B6E130F0E6F177A
:100B5000702B070E7065AFEF85F0B1EF85F036EFC3
:100B600085F05CEF86F0000E706F70516825D96ECD
:100B7000000E6921DA6EDF50D8A4C1EF85F0C3EF13
:100B800085F0C5EF85F00EEF86F070516825D96EBF
:100B9000000E6921DA6E2F0EDF64D1EF85F0D3EFFE
:100BA00085F000EF86F070516825D96E000E69213E
:100BB000DA6E3A0EDF60DFEF85F0E1EF85F000EFEF
:100BC00086F06E516F11D8A4E8EF85F0EAEF85F05A
:100BD000F0EF85F0000E6F6F010E6E6F04EF86F080
:100BE0006EC061F06FC062F0000E646F0A0E636F3A
:100BF000A6ECBCF061C06EF062C06FF004EF86F04E
:100C0000000E6D6F0EEF86F00001702B070E706501
:100C10000CEF86F00EEF86F0B5EF85F06D05D8A4E9
:100C200014EF86F016EF86F05CEF86F0000E706F22
:100C300070516825D96E000E6921DA6EDF50D8A494
:100C400024EF86F026EF86F028EF86F05CEF86F042
:100C500070516825D96E000E6921DA6EDF506C6F15
:100C60000F0E6C176C51616F626B6EC063F06FC0DA
:100C700064F0A6ECBCF06AC0D9FF6BC0DAFF0001DB
:100C80006151DE266251DD226EC061F06FC062F0FC
:100C9000000E646F0A0E636F49ECB5F061C06EF030
:100CA00062C06FF00001702B070E70655AEF86F07E
:100CB0005CEF86F018EF86F012000D013205D8A423
:100CC00064EF86F066EF86F080EF86F030511F0B00
:100CD0000009D8A46EEF86F070EF86F080EF86F002
:100CE0000D8E030E3119D8A478EF86F07AEF86F0D6
:100CF0007EEF86F0010E2B6E80EF86F0000E2B6EDD
:100D00003251D8A486EF86F088EF86F017EF88F08E
:100D100030511F0B020AD8A490EF86F092EF86F0B4
:100D200017EF88F034510F0B0009D8B49AEF86F012
:100D30009CEF86F017EF88F034510F0B0001776FAE
:100D4000030E7761A6EF86F0A8EF86F017EF88F024
:100D5000200EF919D8A4AFEF86F0B1EF86F017EFA7
:100D600088F00D8E0D0134BFB8EF86F0BAEF86F033
:100D7000DAEF86F034510F0B0001776F7751020DD7
:100D8000D50EF324D96E000EF420DA6EDECF7CF09F
:100D9000DDCF7DF00D0134510F0B0001776F786BC3
:100DA000160E7725D96E000E7821DA6EDF507B6F34
:100DB000F8EF86F034510F0B0001776F7751020D79
:100DC000100EF324D96E000EF420DA6EDECF7CF024
:100DD000DDCF7DF00D0134510F0B0001776F786B83
:100DE000190E7725D96E000E7821DA6EDF507B6FF1
:100DF0007BB1FDEF86F0FFEF86F007EF87F0FB0E8B
:100E00007C157C6FFF0E7D157D6F0CEF87F0040E57
:100E10007C117C6F7D517D6F0D0134BF12EF87F027
:100E200014EF87F026EF87F034510F0B0001776F36
:100E30007751020DD50EF324D96E000EF420DA6E30
:100E40007CC0DEFF7DC0DDFF36EF87F034510F0B35
:100E50000001776F7751020D100EF324D96E000E4A
:100E6000F420DA6E7CC0DEFF7DC0DDFF030E0D01D5
:100E70003119D8A43EEF87F040EF87F07CEF87F080
:100E80007CC0D9FF7DC0DAFF0001DFAE4AEF87F0FA
:100E90004CEF87F06EEF87F00D0134BF52EF87F013
:100EA00054EF87F062EF87F034510F0B0001776F3A
:100EB000786B160E7725D96E000E7821DA6EDF82F8
:100EC0006EEF87F034510F0B0001776F786B190EBE
:100ED0007725D96E000E7821DA6EDF827CC0D9FFCB
:100EE0007DC0DAFF000EDB847CC0D9FF7DC0DAFF55
:100EF000000EDB8E17EF88F0040E00017C197C6F6A
:100F00007D517D6F7CC0D9FF7DC0DAFFDFAE8BEFF6
:100F100087F08DEF87F0A9EF87F07CC0D9FF7DC007
:100F2000DAFF7F0EDF167CC0D9FF7DC0DAFF000E2E
:100F3000DB8C000E706F050E6F6F7CC071F07DC092
:100F400072F0000E746F020E736FEFECB0F0AFEF43
:100F500087F07CC0D9FF7DC0DAFF000EDB8C040E69
:100F600000017C197C6F7D517D6F7BB3BAEF87F0F8
:100F7000BCEF87F0C7EF87F07CC0D9FF7DC0DAFFF8
:100F8000DFAEC5EF87F0C7EF87F0FFEF87F00D0109
:100F900034BFCDEF87F0CFEF87F0DDEF87F034512E
:100FA0000F0B0001776F786B160E7725D96E000E48
:100FB0007821DA6EDF92E9EF87F034510F0B0001F0
:100FC000776F786B190E7725D96E000E7821DA6E5F
:100FD000DF927CC0D9FF7DC0DAFF3B0EDF16000E2A
:100FE000706F050E6F6F7CC071F07DC072F0000EE7
:100FF000746F020E736FEFECB0F005EF88F07CC0F9
:10100000D9FF7DC0DAFF3B0EDF160D0134510F0B07
:101010000001776F786B260E7725796F0F0E782198
:101020007A6F79C0D9FF7AC0DAFFFE0EDF161200A0
:101030009DC0D9FF9EC0DAFFDECFF6FFDDCFF7FF00
:10104000000EF86E0800F550250AD8A42AEF88F0A3
:101050002CEF88F0BBEF89F09DC0D9FF9EC0DAFF6E
:10106000DE2A000EDD22000E0001DC6F000EDB6FB9
:10107000DBC0E5F0DD69DE69000EA46F000EA36F32
:101080006EEF88F0E5839DC0D9FF9EC0DAFFDE2AAF
:10109000000EDD226EEF88F0000EA46F010EA36F2C
:1010A0006EEF88F09DC0D9FF9EC0DAFFDECFF6FF5D
:1010B000DDCFF7FF000EF86E0800F550A16FA26BB0
:1010C000A251000AD8B467EF88F04CEF88F0A15124
:1010D000300AD8B442EF88F04CEF88F0A351A41145
:1010E000D8B475EF88F077EF88F052EF88F09DC0A4
:1010F00067F09EC068F09FC069F0A0C06AF08BECFA
:10110000ADF067C0DBF068C0DCF00001DCBF8DEF44
:1011100088F08BEF88F092EF88F0E581DB6DDC1FC3
:10112000D8B0DC2B9DC0D9FF9EC0DAFFDECFABF07C
:10113000DDCFACF0ABC0F6FFACC0F7FF000EF86E31
:101140000800F550640AD8B4A8EF88F0AAEF88F038
:10115000BAEF88F0ABC0F6FFACC0F7FF000EF86E38
:101160000800F550690AD8A4B8EF88F0BAEF88F003
:10117000E8EF88F09FC0D9FFA0C0DAFFDFCFA1F071
:10118000020EDE26DFCFA2F0000EDD22A1C0D9FFC5
:10119000A2C0DAFFDECFA7F0DDCFA8F0010EAB25AD
:1011A000A16F000EAC21A26F9DC0D9FF9EC0DAFFD7
:1011B000A1C0DEFFA2C0DDFF9BC08BF09CC08CF005
:1011C000A7C08DF0A8C08EF00DEC96F0D2EF89F09C
:1011D000ABC0F6FFACC0F7FF000EF86E0800F5508C
:1011E000780AD8A4F6EF88F0F8EF88F040EF89F09D
:1011F0009FC0D9FFA0C0DAFFDFCFA1F0020EDE262C
:10120000DFCFA2F0000EDD22A1C0D9FFA2C0DAFF1D
:10121000DECFA7F0DDCFA8F0010EAB25A16F000E49
:10122000AC21A26F9DC0D9FF9EC0DAFFA1C0DEFF36
:10123000A2C0DDFF28EF89F09BC08BF09CC08CF032
:10124000A7C08DF0A8C08EF089EC9BF0D2EF89F09A
:10125000ABC0F6FFACC0F7FF000EF86E0800F5500B
:10126000A16FA26BA251000AD8B439EF89F040EF08
:1012700089F0A151780AD8B41CEF89F040EF89F0C9
:101280009DC0D9FF9EC0DAFFDECFF6FFDDCFF7FFAE
:10129000000EF86E0800F550730AD8B452EF89F0CA
:1012A00054EF89F070EF89F09DC0D9FF9EC0DAFF3E
:1012B000DECF61F0DDCF62F0F70E636FFF0E646F7B
:1012C000000E666F030E656FF2ECA8F0000161512D
:1012D0006211D8A46EEF89F070EF89F0B2EF89F057
:1012E0009DC0D9FF9EC0DAFFDECFF6FFDDCFF7FF4E
:1012F000000EF86E0800F550730AD8B482EF89F03A
:1013000084EF89F08AEF89F0000EA66F030EA56FB7
:101310008EEF89F0000EA66F010EA56F9DC0D9FF5C
:101320009EC0DAFFA551DE26A651DD229BC079F0D2
:101330009CC07AF09FC0D9FFA0C0DAFFDFCFA1F038
:10134000020EDE26DFCFA2F0000EDD22A1C0D9FF03
:10135000A2C0DAFFDECF7BF0DDCF7CF0CBEC97F0E4
:10136000D2EF89F09DC0D9FF9EC0DAFFDE2A000EC1
:10137000DD22D2EF89F09DC0D9FF9EC0DAFFDECF1B
:10138000F6FFDDCFF7FF000EF86E0800F550000104
:10139000706F716B9BC072F09CC073F0F4ECADF099
:1013A000B2EF89F012008AECBBF000017051CA6FF5
:1013B000CA51D8B4DEEF89F0E0EF89F07BEF8BF013
:1013C00066EF8BF0000EE46F000EE36F010EF16F1D
:1013D000E00ECA25C56FC66BFF0EC623C65107E1D6
:1013E0005F0EC55DD8B0F7EF89F0F9EF89F016EF21
:1013F0008AF0E4BF07EF8AF0E45107E10F0EE35DE6
:10140000D8B005EF8AF007EF8AF016EF8AF04C0E9D
:10141000E325D96E010EE421DA6ECAC0DFFFE34B8B
:10142000E42BCA511FECAFF07BEF8BF0080ECA190A
:10143000D8A41DEF8AF01FEF8AF037EF8AF0E4BFDF
:101440002AEF8AF0E45108E1E305D8A02AEF8AF0F8
:101450002CEF8AF037EF8AF0E307D8A0E407FB0E01
:10146000B56FFF0EB66F92ECBCF07BEF8BF00D0EFC
:10147000CA19D8A43EEF8AF040EF8AF064EF8BF0EF
:101480004C0EE325D96E010EE421DA6EDF6A880E78
:10149000B56FF90EB66F92ECBCF0020E0001F16F61
:1014A000000EC76F000E01015C6F000E646F000E2E
:1014B0006D6F000E6C6F000E6F6F000E6E6F000E82
:1014C0000001C96F000EC86F000ECC6F000ECB6F0D
:1014D0004C0ECB25D96E010ECC21DA6EDF50D8A48C
:1014E00074EF8AF076EF8AF0A5EF8AF08CEF8AF03D
:1014F0005C0EC825D96E010EC921DA6EDF6AC84BB1
:10150000C92B4DEF8BF0640EC825D96E010EC92191
:10151000DA6EDF6A4DEF8BF0C751C56FC66BC651EF
:10152000000AD8B496EF8AF04DEF8BF0C551000A4F
:10153000D8B44DEF8BF0010AD8B478EF8AF0030AE3
:10154000D8B483EF8AF04DEF8BF04C0ECB25D96EDB
:10155000010ECC21DA6E200EDE18D8A4B2EF8AF08C
:10156000B4EF8AF026EF8BF0EBEF8AF04C0ECB2530
:10157000D96E010ECC21DA6EDF6AC72B3FEF8BF0FC
:1015800001015C51D8B4C7EF8AF0C9EF8AF03FEF90
:101590008BF05C0E0001C825D96E010EC921DA6EF0
:1015A000DF6AC72B000EC96F000EC86F3FEF8BF0CC
:1015B00001016451D8B4DFEF8AF0E1EF8AF03FEF28
:1015C0008BF0640E0001C825D96E010EC921DA6EB8
:1015D000DF6A3FEF8BF0C751C56FC66BC651000A7B
:1015E000D8B4F5EF8AF03FEF8BF0C551000AD8B4BC
:1015F000B6EF8AF0010AD8B4C0EF8AF0030AD8B473
:10160000D8EF8AF03FEF8BF04C0ECB25D96E010E50
:10161000CC21DA6E5C0EC825E16E010EC921E26EA6
:10162000DFCFE7FFC84BC92B3FEF8BF04C0ECB252C
:10163000D96E010ECC21DA6E640EC825E16E010E62
:10164000C921E26EDFCFE7FF12EF8BF0C751C56F04
:10165000C66BC651000AD8B430EF8BF03FEF8BF069
:10166000C551000AD8B43FEF8BF0010AD8B404EF9B
:101670008BF0030AD8B416EF8BF03FEF8BF000012C
:10168000CB4BCC2BCC5109E1100ECB5DD8A04BEF4E
:101690008BF04DEF8BF068EF8AF05C0E686F010EF7
:1016A000696F6C0E6A6F010E6B6F76EC84F0640EDE
:1016B0000001686F010E696F6E0E6A6F010E6B6F2D
:1016C00076EC84F07BEF8BF07BEF8BF0F151C56F04
:1016D000C66BC651000AD8B470EF8BF07BEF8BF06D
:1016E000C551000AD8B4E2EF89F0010AD8B4E8EF96
:1016F00089F07BEF8BF00001F15112000D013205F2
:10170000D8A485EF8BF087EF8BF0A1EF8BF03051F1
:101710001F0B0009D8A48FEF8BF091EF8BF0A1EF96
:101720008BF00D8E030E3119D8A499EF8BF09BEF3F
:101730008BF09FEF8BF0010E2B6EA1EF8BF0000E64
:101740002B6E3251D8A4A7EF8BF0A9EF8BF025EFC9
:101750008DF030511F0B020AD8A4B1EF8BF0B3EF1C
:101760008BF025EF8DF034510F0B0009D8B4BBEF8F
:101770008BF0BDEF8BF025EF8DF034510F0B446EE5
:10178000030E4460C6EF8BF0C8EF8BF025EF8DF0B1
:10179000200E0001F919D8A4D0EF8BF0D2EF8BF016
:1017A00025EF8DF00D8E0D0134BFD9EF8BF0DBEFFF
:1017B0008BF0F8EF8BF034510F0B446E4450020D58
:1017C000D50EF324D96E000EF420DA6EDECF49F088
:1017D000DDCF4AF034510F0B446E456A160E442497
:1017E000D96E000E4520DA6EDF50486E13EF8CF094
:1017F00034510F0B446E4450020D100EF324D96E79
:10180000000EF420DA6EDECF49F0DDCF4AF034511D
:101810000F0B446E456A190E4424D96E000E452004
:10182000DA6EDF50486E48B018EF8CF01AEF8CF08B
:1018300022EF8CF0FB0E4914496EFF0E4A144A6EDB
:1018400027EF8CF0040E4910496E4A504A6E34BF9F
:101850002CEF8CF02EEF8CF03FEF8CF034510F0B0F
:10186000446E4450020DD50EF324D96E000EF420C0
:10187000DA6E49C0DEFF4AC0DDFF4EEF8CF0345116
:101880000F0B446E4450020D100EF324D96E000E5F
:10189000F420DA6E49C0DEFF4AC0DDFF030E3119C5
:1018A000D8A455EF8CF057EF8CF08FEF8CF049C037
:1018B000D9FF4AC0DAFFDFAE60EF8CF062EF8CF048
:1018C00081EF8CF034BF67EF8CF069EF8CF076EF2E
:1018D0008CF034510F0B446E456A160E4424D96EB9
:1018E000000E4520DA6EDF8281EF8CF034510F0B51
:1018F000446E456A190E4424D96E000E4520DA6EF6
:10190000DF8249C0D9FF4AC0DAFF000EDB8449C03C
:10191000D9FF4AC0DAFF000EDB8E25EF8DF0040EF2
:101920004918496E4A504A6E49C0D9FF4AC0DAFF89
:10193000DFAE9DEF8CF09FEF8CF0BBEF8CF049C0D9
:10194000D9FF4AC0DAFF7F0EDF1649C0D9FF4AC06F
:10195000DAFF000EDB8C000E3D6E050E3C6E49C0BA
:101960003EF04AC03FF0000E416E020E406EF9ECB0
:10197000B1F0C1EF8CF049C0D9FF4AC0DAFF000EC8
:10198000DB8C040E4918496E4A504A6E48B2CBEFC0
:101990008CF0CDEF8CF0D8EF8CF049C0D9FF4AC065
:1019A000DAFFDFAED6EF8CF0D8EF8CF00EEF8DF0D3
:1019B0000D0134BFDEEF8CF0E0EF8CF0EDEF8CF03A
:1019C00034510F0B446E456A160E4424D96E000E36
:1019D0004520DA6EDF92F8EF8CF034510F0B446E35
:1019E000456A190E4424D96E000E4520DA6EDF9246
:1019F00049C0D9FF4AC0DAFF3B0EDF16000E3D6E2C
:101A0000050E3C6E49C03EF04AC03FF0000E416EEC
:101A1000020E406EF9ECB1F014EF8DF049C0D9FF21
:101A20004AC0DAFF3B0EDF160D0134510F0B446E36
:101A3000456A260E4424466E0F0E4520476E46C06A
:101A4000D9FF47C0DAFFFE0EDF161200880E000134
:101A5000B56FF90EB66F92ECBCF02F0E0001B56FAA
:101A6000FB0EB66F92ECBCF0F60E0001B56FFC0EEB
:101A7000B66FC7CFB7F0B86B92ECBCF0A20E000106
:101A8000B56FFC0EB66FC6CFB7F0B86B92ECBCF07A
:101A9000CC0E0001B56FFC0EB66FC5CFB7F0B86BBA
:101AA00092ECBCF05C0E0001B56FFB0EB66FC8CFB8
:101AB000B7F0B86B92ECBCF00B0E0001B56FFD0EE9
:101AC000B66F73CFB7F0B86B92ECBCF0B70E0001F5
:101AD000B56FFC0EB66F72CFB7F0B86B92ECBCF07E
:101AE000E10E0001B56FFC0EB66F71CFB7F0B86BA9
:101AF00092ECBCF0720E0001B56FFB0EB66F74CFA6
:101B0000B7F0B86B92ECBCF0000E0001B56FFB0EA5
:101B1000B66F92ECBCF0F90E0001B56FFD0EB66F1A
:101B200092CFB7F0B86B92ECBCF00C0E0001B56F21
:101B3000FE0EB66F93CFB7F0B86B92ECBCF01F0EF1
:101B40000001B56FFE0EB66F94CFB7F0B86B92EC94
:101B5000BCF0320E0001B56FFE0EB66F95CFB7F038
:101B6000B86B92ECBCF0340E0001B56FFD0EB66F91
:101B700096CFB7F0B86B92ECBCF02B0E0001B56FAE
:101B8000FA0EB66F92ECBCF05C0E0001B56FFD0E64
:101B9000B66FD3CFB7F0B86B92ECBCF0840E0001F7
:101BA000B56FFD0EB66F87CFB7F0B86B92ECBCF097
:101BB0008D0E0001B56FFC0EB66F9BCFB7F0B86B02
:101BC00092ECBCF0490E0001B56FFA0EB66F92ECC4
:101BD000BCF0480E0001B56FFD0EB66FD0CFB7F068
:101BE000B86B92ECBCF0700E0001B56FFD0EB66FD5
:101BF000F2CFB7F0B86B92ECBCF0980E0001B56F65
:101C0000FD0EB66FF1CFB7F0B86B92ECBCF0AC0E36
:101C10000001B56FFD0EB66FF0CFB7F0B86B92EC68
:101C2000BCF0B00E0001B56FF80EB66F9ECFB7F0E6
:101C3000B86BA1CFB9F0BA6BA4CFBBF0BC6B8FCFA0
:101C4000BDF0BE6B98CFBFF0C06B92ECBCF07C0EC9
:101C50000001B56FF80EB66F9DCFB7F0B86BA0CF8F
:101C6000B9F0BA6BA3CFBBF0BC6B8ECFBDF0BE6B2F
:101C700091CFBFF0C06B92ECBCF0E40E0001B56FE9
:101C8000F80EB66F9FCFB7F0B86BA2CFB9F0BA6BB2
:101C9000A5CFBBF0BC6B90CFBDF0BE6B99CFBFF0B2
:101CA000C06B92ECBCF0800E0001B56FFA0EB66FFF
:101CB00092ECBCF0CA0E0001B56FFB0EB66FADCF53
:101CC000B7F0B86B92ECBCF0B40E0001B56FFB0E30
:101CD000B66FACCFB7F0B86B92ECBCF00C0E000155
:101CE000B56FFC0EB66F7ECFB7F0B86B92ECBCF060
:101CF000B40E0001B56FFA0EB66F7FCFB7F0B86BB8
:101D0000B0CFB9F0BA6B92ECBCF09A0E0001B56F8F
:101D1000FA0EB66F92ECBCF0E00E0001B56FFB0E50
:101D2000B66FA8CFB7F0B86B92ECBCF0F60E00011E
:101D3000B56FFB0EB66F9CCFB7F0B86B92ECBCF0F2
:101D4000220E0001B56FFC0EB66F7CCFB7F0B86BFA
:101D500092ECBCF0CE0E0001B56FFA0EB66F7DCFDF
:101D6000B7F0B86BABCFB9F0BA6B92ECBCF0120025
:101D7000000E0001CC6FAC50E719D8B4C2EF8EF062
:101D8000C4EF8EF0CFEF8EF0ACCFE7F04E0EB56F14
:101D9000FC0EB66FE7C0B7F0B86B92ECBCF0AD507C
:101DA0000001E619D8B4D7EF8EF0D9EF8EF03DEFF1
:101DB00090F0ADCFE6F0630EB56FFC0EB66FE6C0E7
:101DC000B7F0B86B92ECBCF03DEF90F00BECBCF0D0
:101DD0000001CE6F00EF90F0230ECE19D8A4F3EFE0
:101DE0008EF0F5EF8EF02DEF90F0000EE825D96E15
:101DF000DA6A010EDA22CEC0DFFF010EEB6FE82BAC
:101E00002DEF90F0000EE825D96EDA6A010EDA2285
:101E1000CEC0DFFF020EEB6FFFEF8EF0000EE82565
:101E2000D96EDA6A010EDA22CEC0DFFF030EEB6F45
:101E3000FFEF8EF02A0ECE19D8A421EF8FF023EFFA
:101E40008FF02FEF8FF0000EE825D96EDA6A010EC1
:101E5000DA22CEC0DFFF040EEB6FFFEF8EF0000E34
:101E6000EB6F000EE86F2DEF90F0000EE825D96EB5
:101E7000DA6A010EDA22CEC0DFFF050EEB6FFFEF4C
:101E80008EF0240ECE19D8A448EF8FF04AEF8FF0D1
:101E900035EF8FF0000EE825D96EDA6A010EDA22EE
:101EA000CEC0DFFF060EEB6FFFEF8EF0000ECC6FA3
:101EB000000ECD6F65EF8FF0000ECD25D96EDA6A7A
:101EC000010EDA22DF50CC27CD2BFF0EE825C56F9F
:101ED000C66BFF0EC623CD51C76FC86BC551C75D1A
:101EE000C851800AC96FC651800AC959D8A07BEF72
:101EF0008FF07DEF8FF05CEF8FF0CE51CC19D8A42E
:101F000084EF8FF086EF8FF02FEF8FF0000EE82533
:101F1000D96EDA6A010EDA22CEC0DFFF080EEB6F4F
:101F2000E82BA40EB56FFF0EB66F92ECBCF0000E5E
:101F30000001CD6FE4EF8FF0250EB56FFA0EB66F8E
:101F4000000ECD25D96EDA6A010EDA22DF50C56F98
:101F5000C551B76FB86B92ECBCF0000E0001CD25F7
:101F6000D96EDA6A010EDA221F0EDF64BAEF8FF043
:101F7000BCEF8FF0D7EF8FF0000ECD25D96EDA6A67
:101F8000010EDA227F0EDF60C8EF8FF0CAEF8FF00C
:101F9000D7EF8FF0000ECD25D96EDA6A010EDA2266
:101FA000DF50C56FC551CA6FCB6BDBEF8FF0000EF2
:101FB000CB6F2E0ECA6F700ECD25D96EDA6A010E68
:101FC000DA22CAC0DFFFCD2BE851CD5DD8A0EBEF00
:101FD0008FF0EDEF8FF09CEF8FF0710ECD25D96E65
:101FE000DA6A010EDA22DF6AD90EB56FFF0EB66F1C
:101FF000700EB76F010EB86F92ECBCF02DEF90F041
:10200000EB51C56FC66BC651000AD8B40AEF90F009
:102010002DEF90F0C551000AD8B4ECEF8EF0010A14
:10202000D8B402EF8FF0030AD8B40EEF8FF0010A94
:10203000D8B41AEF8FF0070AD8B435EF8FF0010A41
:10204000D8B441EF8FF0030AD8B456EF8FF00E0AE0
:10205000D8B42DEF90F02DEF90F0420E0001B56F47
:10206000F90EB66FCEC0B7F0B86BEBC0B9F0BA6B73
:10207000EAC0BBF0BC6B92ECBCF00001EA51D8A402
:1020800044EF90F046EF90F0E6EF8EF0EB51120047
:102090000001716F0001F251D8B451EF90F053EF8D
:1020A00090F055EF90F0BBEF91F0F451D8A45BEFB6
:1020B00090F05DEF90F055EF90F0010EF46FC4C614
:1020C00061F0C5C662F0000E646F1D0E636FA6EC72
:1020D000BCF0810E00016125D96E040E6221DA6E1A
:1020E00098ECBDF0DF6EC4C661F0C5C662F0000EAC
:1020F0000001646F1D0E636FA6ECBCF0820E000140
:102100006125D96E040E6221DA6E84ECBDF0000107
:1021100061C0DEFF62C0DDFFC4C661F0C5C662F00B
:10212000000E646F1D0E636FA6ECBCF0840E000100
:102130006125D96E040E6221DA6E95ECBDF0DF6E7A
:10214000C4C661F0C5C662F0000E0001646F1D0ECA
:10215000636FA6ECBCF0990E00016125D96E040EE8
:102160006221DA6E69C0DFFFC4C661F0C5C662F0E5
:10217000000E646F1D0E636FA6ECBCF09A0E00019A
:102180006125D96E040E6221DA6E6AC0DFFFC4C613
:1021900061F0C5C662F0000E646F1D0E636FA6ECA1
:1021A000BCF09B0E00016125D96E040E6221DA6E2F
:1021B0006BC0DFFFC4C661F0C5C662F0000E646F7D
:1021C0001D0E636FA6ECBCF09C0E00016125D96E5C
:1021D000040E6221DA6E6CC0DFFFC4C661F0C5C6B2
:1021E00062F0000E646F1D0E636FA6ECBCF0800EF3
:1021F00000016125D96E040E6221DA6E71C0DFFF25
:10220000000E736F000E726F4FEF91F067C0F6FF14
:1022100068C0F7FF000EF86EC4C661F0C5C662F074
:10222000000E646F1D0E636FA6ECBCF0850E0001FE
:1022300061256D6F040E62216E6F72516D25D96E2E
:1022400073516E21DA6E0800F5CFDFFF735109E19B
:10225000150E725DD8A02FEF91F031EF91F04BEF9A
:1022600091F0C4C661F0C5C662F0000E646F1D0E29
:10227000636FA6ECBCF0850E000161256D6F040E46
:1022800062216E6F72516D25D96E73516E21DA6EB7
:10229000DF6A5FEF91F0724B732B674B682B67C05F
:1022A000F6FF68C0F7FF000EF86E0800F550000951
:1022B000D8A45DEF91F05FEF91F006EF91F0C4C606
:1022C00061F0C5C662F0000E646F1D0E636FA6EC70
:1022D000BCF0850E000161256D6F040E62216E6FEA
:1022E00072516D25D96E73516E21DA6EDF6A26EE5A
:1022F000C4F0DE2A000EDD2226EEC4F0010EDB5013
:1023000009E1150EDE5CD8A088EF91F08AEF91F01C
:1023100090EF91F0000EE8CFC4F6000EE8CFC5F6BE
:1023200026EEC6F016EEC4F0DE50E61807E1DE50E9
:10233000E618D8A49EEF91F0A0EF91F0B9EF91F0DC
:1023400026EEC6F0DE2A000EDD2226EEC6F0010ED5
:10235000DB5009E1150EDE5CD8A0B1EF91F0B3EFD0
:1023600091F0B9EF91F0000EE8CFC6F6000EE8CF7D
:10237000C7F6000EF46F12000001F905D8A4C3EFF0
:1023800091F0C5EF91F0D4EF91F065BACAEF91F0FA
:10239000CCEF91F0D4EF91F0000E626E0F01368118
:1023A0003689020E0001F96F62A4D9EF91F0DBEFDC
:1023B00091F0E6EF91F00F0136A5E1EF91F0E3EF38
:1023C00091F0E6EF91F0629471ECBAF065A2EBEF58
:1023D00091F0EDEF91F0F0EF91F0A198DEEF92F037
:1023E00062A0F5EF91F0F7EF91F006EF92F00F0198
:1023F00036A1FDEF91F0FFEF91F006EF92F036EC91
:102400009CF0A088040E0001F96F629062A80BEFA7
:1024100092F00DEF92F017EF92F00F0136A913EF43
:1024200092F015EF92F017EF92F0DBECBBF062AC9C
:102430001CEF92F01EEF92F04CEF92F00F0136ADD0
:1024400024EF92F026EF92F035EF92F0000E0001AB
:10245000706F730E6F6F000E716F000E726F000E53
:10246000746F010E736FEFECB0F0629CA7ECBBF0E1
:102470000001EE51D8B43FEF92F041EF92F042EFFD
:1024800092F0EE07EE51D8A448EF92F04AEF92F0A6
:102490004CEF92F064ECAAF062AA51EF92F053EF85
:1024A00092F05DEF92F00F0136AB59EF92F05BEFD7
:1024B00092F05DEF92F07EECB7F062A262EF92F0E4
:1024C00064EF92F07CEF92F00F0136A36AEF92F086
:1024D0006CEF92F07CEF92F07F0E0001706F6F69ED
:1024E000000E716F000E726F000E746F010E736F2D
:1024F000EFECB0F0000E636E040E0001F96183EFA3
:1025000092F085EF92F088EF92F0A198DEEF92F0D2
:102510000F0136A78EEF92F090EF92F0DDEF92F080
:10252000000E0001816F62A698EF92F09AEF92F090
:10253000DDEF92F064CFFCF0FC31E832E8320F0BB3
:10254000EF6F6296FCB5A7EF92F0A9EF92F0B2EFB1
:1025500092F0160EEF25D96EDA6A000EDA22DF70DD
:10256000B9EF92F0190EEF25D96EDA6A000EDA2271
:10257000DF70EF51D8A4BFEF92F0C1EF92F0C5EF3A
:1025800092F07FECAFF0D3EF92F0000E706F720E0E
:102590006F6FFC0E716F000E726F000E746F000E85
:1025A000736FEFECB0F00001812B030E8165DBEF60
:1025B00092F0DDEF92F093EF92F0A19812000001FB
:1025C000F905D8A4E6EF92F0E8EF92F0F7EF92F079
:1025D00065BAEDEF92F0EFEF92F0F7EF92F0000EA8
:1025E000626E0F0136813689020E0001F96F62A416
:1025F000FCEF92F0FEEF92F009EF93F00F0136A599
:1026000004EF93F006EF93F009EF93F06294F3EC8C
:10261000BAF065A20EEF93F010EF93F013EF93F082
:10262000A198FEEF93F062A018EF93F01AEF93F0E9
:1026300029EF93F00F0136A120EF93F022EF93F0F2
:1026400029EF93F0DDEC9CF0A088040E0001F96FF7
:10265000629062A82EEF93F030EF93F03AEF93F090
:102660000F0136A936EF93F038EF93F03AEF93F07D
:1026700039ECBCF062AC3FEF93F041EF93F06EEFBA
:1026800093F00F0136AD47EF93F049EF93F057EF1A
:1026900093F0000E3D6E730E3C6E000E3E6E000E0B
:1026A0003F6E000E416E010E406EF9ECB1F0629C7F
:1026B000C1ECBBF00001EE51D8B461EF93F063EFD1
:1026C00093F064EF93F0EE07EE51D8A46AEF93F025
:1026D0006CEF93F06EEF93F0DBECAAF062AA73EF6D
:1026E00093F075EF93F07FEF93F00F0136AB7BEF34
:1026F00093F07DEF93F07FEF93F0AFECB7F062A231
:1027000084EF93F086EF93F09DEF93F00F0136A3E3
:102710008CEF93F08EEF93F09DEF93F07F0E3D6E74
:102720003C68000E3E6E000E3F6E000E416E010EC4
:10273000406EF9ECB1F0000E636E040E0001F96119
:10274000A4EF93F0A6EF93F0A9EF93F0A198FEEF1A
:1027500093F00F0136A7AFEF93F0B1EF93F0FDEFD9
:1027600093F0000E4E6E62A6B8EF93F0BAEF93F0BE
:10277000FDEF93F064CFFCF00001FC31E832E83269
:102780000F0BEF6F6296FCB5C8EF93F0CAEF93F0B2
:10279000D3EF93F0160EEF25D96EDA6A000EDA2227
:1027A000DF70DAEF93F0190EEF25D96EDA6A000EBA
:1027B000DA22DF70EF51D8A4E0EF93F0E2EF93F06C
:1027C000E6EF93F0DCECAFF0F4EF93F0000E3D6E2B
:1027D000720E3C6EFC0E3E6E000E3F6E000E416EA1
:1027E000000E406EF9ECB1F04E2A030E4E64FBEF82
:1027F00093F0FDEF93F0B3EF93F0A1981200D3ECB8
:1028000089F0020AD8A407EF94F009EF94F013EFCF
:1028100095F0000E0001F16F4C0E676F010E686FAE
:10282000FE0E696FFF0E6A6FD1ECB4F000016751C4
:102830006811D8B41EEF94F020EF94F00FEF95F0EC
:10284000F005D8A426EF94F028EF94F02AEF94F046
:102850000FEF95F0020EF019D8A431EF94F033EF9A
:1028600094F071EF94F04EEF94F0030EF06F0FEFD1
:1028700095F0670EB56FFF0EB66F92ECBCF0AC989A
:10288000000E0001626F010E616F13ECBBF0AC88AB
:102890000FEF95F0000EF06F0FEF95F001014C5126
:1028A0000001D36FD46BD451000AD8B45AEF94F01E
:1028B0000FEF95F0D351310AD8B40FEF95F0030A1A
:1028C000D8B435EF94F0010AD8B439EF94F0610A26
:1028D000D8B44AEF94F0200AD8B44AEF94F00FEF3E
:1028E00095F0030EF019D8A478EF94F07AEF94F0F5
:1028F000D8EF94F0E50EB56FFE0EB66F4CC1B7F091
:10290000B86B92ECBCF001014C517DECBCF0020EB6
:102910000001F06F0FEF95F0010E0EECB5F00FEF28
:1029200095F026EC8DF00FEF95F0010EF06F0FEFA4
:1029300095F08AA49EEF94F0A0EF94F0A3EF94F0AA
:102940008A940FEF95F08A840FEF95F000EC80F0F9
:102950000FEF95F0000EF36FF40EB56FFE0EB66F2D
:10296000F3C0B7F0B86B92ECBCF00FEF95F0F32B1F
:102970003E0EB56FFF0EB66FF3C0B7F0B86B92ECBA
:10298000BCF00FEF95F08D0EB56FFF0EB66F92ECA9
:10299000BCF017ECBDF0000E6DECBBF00FEF95F046
:1029A000880EB56FFB0EB66F92ECBCF00FEF95F092
:1029B00022ECADF00001D36FD46BD451000AD8B42F
:1029C000E4EF94F00FEF95F0D351000AD8B48CEFF8
:1029D00094F0010AD8B491EF94F0020AD8B495EFBC
:1029E00094F0070AD8B499EF94F0010AD8B4A6EF8E
:1029F00094F0030AD8B4AAEF94F0010AD8B4B7EF60
:102A000094F00F0AD8B4C3EF94F0010AD8B487EF5A
:102A100094F0030AD8B4D0EF94F00FEF95F00001D2
:102A2000F051BDECAEF0120083B419EF95F01BEF3E
:102A300095F0D3EF95F0CF0E0001B56FFF0EB66F96
:102A400092ECBCF080A027EF95F029EF95F02CEFE9
:102A500095F089902DEF95F08980A70E0001B56F54
:102A6000010EB66F460EB76FFB0EB86FB6ECB8F03E
:102A7000A70E00016E6F010E6F6F73ECBDF0A70E15
:102A80000001B56F010EB66FBA0EB76FFF0EB86FCB
:102A900095B04DEF95F051EF95F0C96BC92B53EF01
:102AA00095F00001C96BC951B96FBA6BB6ECB8F0BB
:102AB000A70E00016E6F010E6F6F73ECBDF0A70ED5
:102AC0000001B56F010EB66FAF0EB76FFF0EB86F96
:102AD00095B26DEF95F071EF95F0C96BC92B73EF5F
:102AE00095F00001C96BC951B96FBA6BB6ECB8F07B
:102AF000A70E00016E6F010E6F6F73ECBDF0A70E95
:102B00000001B56F010EB66F980EB76FFE0EB86F6D
:102B100073CFB9F0BA6BB6ECB8F0A70E00016E6FC8
:102B2000010E6F6F73ECBDF0A70E0001B56F010EC3
:102B3000B66F780EB76FFE0EB86F72CFB9F0BA6B82
:102B4000B6ECB8F0A70E00016E6F010E6F6F73EC5C
:102B5000BDF0A70E0001B56F010EB66F880EB76FFE
:102B6000FE0EB86F71CFB9F0BA6BB6ECB8F0A70E25
:102B700000016E6F010E6F6F73ECBDF0A70E0001C8
:102B8000B56F010EB66FD60EB76FFE0EB86F74CF6D
:102B9000B9F0BA6BB6ECB8F0A70E00016E6F010E7B
:102BA0006F6F73ECBDF083B6D8EF95F0DAEF95F068
:102BB0000CEF96F080A2DFEF95F0E1EF95F0E4EFF7
:102BC00095F08992E5EF95F08982C50E0001B56F09
:102BD000FF0EB66F92ECBCF0D90E0001636F010ED0
:102BE000646FB1ECACF0E80E0001B56FFA0EB66F91
:102BF000D9C1B7F0B86BDAC1B9F0BA6BDBC1BBF0C1
:102C0000BC6BDDC1BDF0BE6BDEC1BFF0C06BDFC110
:102C1000C1F0C26B92ECBCF0120000018EBF13EF4A
:102C200096F016EF96F0010E17EF96F0000E956FE6
:102C30009551D8B41EEF96F020EF96F024EF96F061
:102C40008D6D8E1FD8B08E2BDEBF29EF96F02BEF47
:102C500096F02CEF96F0E593DEBF33EF96F031EF70
:102C600096F039EF96F0000E926F010E916F3DEFE6
:102C700096F0DDC091F0DEC092F0DBC093F0DCC0D6
:102C800094F09551D8B447EF96F049EF96F060EF85
:102C900096F09307D8A094079551D8A452EF96F0D8
:102CA00054EF96F05AEF96F0000E906F2B0E8F6F48
:102CB0005EEF96F0000E906F2D0E8F6F8FC095F027
:102CC000000E976F1F0E966F000E0201DF6F9AEFD6
:102CD00096F09607D8A09707C00E9625D96E020EDB
:102CE0009721DA6E8DC061F08EC062F0000E646FC5
:102CF0000A0E636F48ECB1F061C067F062C068F023
:102D000092ECBAF000016751300FDF6E9107D8A046
:102D100092079307D8A094078DC061F08EC062F02F
:102D2000000E646F0A0E636F5AECAEF061C08DF056
:102D300062C08EF0000197BFA6EF96F0975108E1B0
:102D40009605D8A0A6EF96F0A8EF96F0D2EF96F0F1
:102D50008D518E11D8A4AFEF96F0B1EF96F069EFD8
:102D600096F092BFBEEF96F0925106E19105D8B071
:102D7000BCEF96F0BEEF96F069EF96F094BFC9EF06
:102D800096F0945108E19305D8A0C9EF96F0CBEFE7
:102D900096F0D2EF96F0E5B3D0EF96F0D2EF96F042
:102DA00069EF96F09551D8B4D8EF96F0DAEF96F037
:102DB000E5EF96F09607D8A09707C00E9625D96E36
:102DC000020E9721DA6E95C0DFFF8BC080F08CC0B9
:102DD00081F0C00E9625826F020E9721836F93C0FB
:102DE00084F094C085F0A1ECB1F01200A09801012C
:102DF0003F514011D8B4FFEF96F001EF97F00FEF7D
:102E000097F03FC1D9FF40C1DAFFDFAE0AEF97F07C
:102E10000CEF97F00FEF97F0A088CAEF97F0030E32
:102E20000001F719D8A417EF97F019EF97F01BEFEF
:102E300097F0000EF76FF751D8A421EF97F023EF2A
:102E400097F026EF97F0A088CAEF97F0020EF719D7
:102E5000D8A42DEF97F02FEF97F043EF97F0010EE6
:102E6000616F000E626F000E636F000E646F020EE2
:102E700023EC9EF061C03FF162C040F1030E0001FF
:102E8000F76FC9EF97F0F705D8A449EF97F04BEF2C
:102E900097F0C9EF97F0400EEC6551EF97F053EFC4
:102EA00097F057EF97F0400E6D6F59EF97F0ECC029
:102EB0006DF06D51EC5DEC6F240E0101396F030E66
:102EC0003A6F6DC06CF04851D8A469EF97F06BEF82
:102ED00097F09AEF97F07EEF97F03CC1D9FF3DC194
:102EE000DAFF39C1E1FF3AC1E2FFDFCFE7FF0101BD
:102EF000394B3A2B3C4B3D2B00016C0700016C51C8
:102F0000D8A485EF97F087EF97F06DEF97F0A3EFD8
:102F100097F03CC1D9FF3DC1DAFF39C1E1FF3AC1A9
:102F2000E2FFDFCFE7FF0101394B3A2B3C4B3D2B52
:102F300000016C0700016C51D8A4A1EF97F0A3EF3A
:102F400097F089EF97F0EC51D8A4A9EF97F0ABEF89
:102F500097F0BAEF97F0400E6D19D8A4B2EF97F042
:102F6000B4EF97F0B8EF97F0020EF76FBAEF97F063
:102F7000030EF76F010E616F240E626F030E636F15
:102F80006DC064F0020E23EC9EF061C03FF162C0A0
:102F900040F1A088120021EEF3F010EE7EF0060E54
:102FA000DBCFE3FFE806FCE27BC089F07CC08AF05F
:102FB000000189518A11D8A4E0EF97F0E2EF97F071
:102FC000E6EF97F07E0E896F000E8A6F89C061F080
:102FD0008AC062F063ECB8F061C08DF062C08EF020
:102FE000DDC08BF0DEC08CF000018CBFFAEF97F0F3
:102FF000FCEF97F011EF98F08D518B5D8C51800AAA
:103000007D6F8E51800A7D59D8A009EF98F00BEFA3
:1030100098F00DEF98F011EF98F08BC08DF08CC008
:103020008EF08DC08BF08EC08CF0DBC087F0DCC0E2
:1030300088F0E5B11EEF98F020EF98F03EEF98F0A1
:103040002FEF98F0000E716F200E706F79C072F044
:103050007AC073F0F4ECADF000018D4B8E2B8751EC
:103060008D5D8E51800A7D6F8851800A7D59D8A070
:103070003CEF98F03EEF98F022EF98F0000E866F4C
:10308000000E856F65EF98F089C0F6FF8AC0F7FFE4
:10309000000EF86E0F0EF76403D00800F55005D04F
:1030A000F6CFE9FFF7CFEAFFEF5000017D6F7D51CA
:1030B000706F716B79C072F07AC073F0F4ECADF0A0
:1030C0000001894B8A2B854B862B8B51855D865160
:1030D000800A7D6F8C51800A7D59D8A072EF98F0DC
:1030E00074EF98F044EF98F0E5A179EF98F07BEF5A
:1030F00098F099EF98F08AEF98F0000E716F200E1B
:10310000706F79C072F07AC073F0F4ECADF000012A
:103110008D4B8E2B87518D5D8E51800A7D6F88512E
:10312000800A7D59D8A097EF98F099EF98F07DEF3D
:1031300098F01200800E0D013019D8A4A2EF98F07B
:10314000A4EF98F058EF99F0C00E0D6E3EEF99F095
:10315000660E0A6EF80E0B6E000E0F6E120E0E6EDD
:1031600058EF99F00D013251D8A4B9EF98F0BBEFA8
:1031700098F000EF99F03251020D7E0EF324F66EB6
:10318000F50EF420F76EF86A000EF8220900F5CF6C
:103190000AF00A00F5CF0BF0020E0A240001616F5D
:1031A000000E0B20626F61C0F6FF62C0F7FF000ED9
:1031B000F86E0F0EF76403D00800F55005D0F6CF77
:1031C000E9FFF7CFEAFFEF500E6E030E0A2400016D
:1031D000616F000E0B20626F61C0F6FF62C0F7FFE7
:1031E000000EF86E0F0EF76403D00800F55005D0FE
:1031F000F6CFE9FFF7CFEAFFEF500F6E58EF99F0E7
:10320000000E0D6E58EF99F0030E0D0132610BEFB9
:1032100099F00DEF99F036EF99F03251020D780EDA
:10322000F324F66EF50EF420F76EF86A000EF8221D
:103230000900F5CF0AF00A00F5CF0BF00AC0F6FF3F
:103240000BC0F7FF000EF86E0F0EF76403D00800F6
:10325000F55005D0F6CFE9FFF7CFEAFFEF500001B8
:10326000616F61510E6E0F6A58EF99F0000E0D6E8E
:1032700058EF99F0000E0D6E58EF99F033510001A0
:10328000616F626B6251000AD8B449EF99F03AEF6E
:1032900099F06151010AD8B4A8EF98F0030AD8B4A4
:1032A000B2EF98F0010AD8B404EF99F03AEF99F030
:1032B000120061C06BF062C06CF0000165516611D4
:1032C000D8A465EF99F067EF99F069EF99F014EFE2
:1032D0009AF06BC0D9FF6CC0DAFF63C0DFFF6551A5
:1032E0006B25676F66516C21686FFF0E6725D96E7D
:1032F000FF0E6821DA6E63C0DFFF665107E1030E3F
:10330000655DD8B086EF99F088EF99F08AEF99F073
:1033100014EF9AF020EE01F06B51D9266C51DA22AD
:1033200063C0DFFF20EE02F06B51D9266C51DA2228
:1033300063C0DFFF65516B25676F66516C21686F55
:10334000FE0E6725D96EFF0E6821DA6E63C0DFFFBF
:1033500065516B25676F66516C21686FFD0E67259F
:10336000D96EFF0E6821DA6E63C0DFFF665107E198
:10337000070E655DD8B0BFEF99F0C1EF99F0C3EFCC
:1033800099F014EF9AF020EE03F06B51D9266C51AE
:10339000DA2263C0DFFF65516B25676F66516C21D0
:1033A000686FFC0E6725D96EFF0E6821DA6E63C068
:1033B000DFFF665107E1090E655DD8B0E2EF99F0D5
:1033C000E4EF99F0E6EF99F014EF9AF06BC067F034
:1033D0006CC068F0671F681F674B682B030E67158A
:1033E000696F6A6B69516B276A516C236951655F1C
:1033F0006A51665BFC0E6517FF0E66170BEF9AF0BD
:103400006BC0D9FF6CC0DAFF63C0DFFF6507D8A0CF
:1034100066076B4B6C2B65516611D8A412EF9AF0BE
:1034200014EF9AF000EF9AF012002EC038F02FC07F
:1034300039F032503310D8A420EF9AF022EF9AF0EE
:1034400024EF9AF0CFEF9AF038C0D9FF39C0DAFFF5
:1034500030C0DFFF32503824346E33503920356E9F
:10346000FF0E3424D96EFF0E3520DA6E30C0DFFF38
:10347000335007E1030E325CD8B041EF9AF043EFCE
:103480009AF045EF9AF0CFEF9AF020EE01F0385025
:10349000D9263950DA2230C0DFFF20EE02F0385052
:1034A000D9263950DA2230C0DFFF32503824346E4A
:1034B00033503920356EFE0E3424D96EFF0E352080
:1034C000DA6E30C0DFFF32503824346E335039208A
:1034D000356EFD0E3424D96EFF0E3520DA6E30C005
:1034E000DFFF335007E1070E325CD8B07AEF9AF075
:1034F0007CEF9AF07EEF9AF0CFEF9AF020EE03F097
:103500003850D9263950DA2230C0DFFF3250382403
:10351000346E33503920356EFC0E3424D96EFF0ED4
:103520003520DA6E30C0DFFF335007E1090E325C20
:10353000D8B09DEF9AF09FEF9AF0A1EF9AF0CFEFFD
:103540009AF038C034F039C035F0341E351E344A94
:10355000352A030E3414366E376A36503826375003
:1035600039223650325E3750335AFC0E3216FF0E77
:103570003316C6EF9AF038C0D9FF39C0DAFF30C031
:10358000DFFF3206D8A03306384A392A32503310CA
:10359000D8A4CDEF9AF0CFEF9AF0BBEF9AF01200DB
:1035A000800E0D013019D8A4D8EF9AF0DAEF9AF016
:1035B00088EF9BF0C00E0D6E6FEF9BF0660E0A6EEB
:1035C000F80E0B6E000E0F6E120E0E6E88EF9BF053
:1035D0003251D8A4EEEF9AF0F0EF9AF033EF9BF06F
:1035E0003251020D7E0EF324F66EF50EF420F76EC6
:1035F000F86A000EF8220900F5CF0AF00A00F5CFAC
:103600000BF0020E0A242E6E000E0B202F6E2EC021
:10361000F6FF2FC0F7FF000EF86E0F0EF76403D011
:103620000800F55005D0F6CFE9FFF7CFEAFFEF50DD
:103630000E6E030E0A242E6E000E0B202F6E2EC06F
:10364000F6FF2FC0F7FF000EF86E0F0EF76403D0E1
:103650000800F55005D0F6CFE9FFF7CFEAFFEF50AD
:103660000F6E88EF9BF0000E0D6E88EF9BF0030E3F
:1036700032613DEF9BF03FEF9BF067EF9BF03251E3
:10368000020D780EF324F66EF50EF420F76EF86A4C
:10369000000EF8220900F5CF0AF00A00F5CF0BF072
:1036A0000AC0F6FF0BC0F7FF000EF86E0F0EF764AE
:1036B00003D00800F55005D0F6CFE9FFF7CFEAFFB9
:1036C000EF502E6E2E500E6E0F6A88EF9BF0000E9C
:1036D0000D6E88EF9BF0000E0D6E88EF9BF033515E
:1036E0002E6E2F6A2F50000AD8B479EF9BF06BEF43
:1036F0009BF02E50010AD8B4DEEF9AF0030AD8B43A
:10370000E8EF9AF0010AD8B437EF9BF06BEF9BF02B
:1037100012000001DEBF8FEF9BF091EF9BF092EF64
:103720009BF0E593DEBF99EF9BF097EF9BF09FEF47
:103730009BF0000E956F010E946FA3EF9BF0DDC020
:1037400094F0DEC095F0DBC096F0DCC097F0000E80
:10375000996F1F0E986F000E0201DF6FECEF9BF068
:103760009807D8A099078D510F0B9A6F090E9A658B
:10377000BCEF9BF0BEEF9BF0C6EF9BF0570E9A2577
:10378000926F936B000E9323CCEF9BF0300E9A2533
:10379000926F936B000E932392C09AF0C00E9825FF
:1037A000D96E020E9921DA6E9AC0DFFF9407D8A075
:1037B00095079607D8A097078DC08FF08EC090F020
:1037C000040E916FD89090338F33912FE2EF9BF0DE
:1037D0008FC08DF090C08EF0000199BFF9EF9BF083
:1037E000995109E1020E985DD8A0F9EF9BF0FBEF2B
:1037F0009BF025EF9CF08D518E11D8A402EF9CF028
:1038000004EF9CF0B0EF9BF095BF11EF9CF0955149
:1038100006E19405D8B00FEF9CF011EF9CF0B0EFEB
:103820009BF097BF1CEF9CF0975108E19605D8A03C
:103830001CEF9CF01EEF9CF025EF9CF0E5B323EF0E
:103840009CF025EF9CF0B0EF9BF08BC080F08CC01B
:1038500081F0C00E9825826F020E9921836F96C069
:1038600084F097C085F0A1ECB1F01200A098000E92
:10387000636E000E626E000E0F01266F270E0001B0
:10388000616F0F0E626F000E646F000E636F000EAB
:10389000666F020E656F59EC99F0160E0F01396FC5
:1038A0009F0E376F7B0E366F000E00016D6F6D51EE
:1038B000040D000EF324D96E0D0EF420DA6EDE6ACC
:1038C000DE6ADE6ADD6A6D2B0B0E6D656AEF9CF0B9
:1038D0006CEF9CF057EF9CF0658C000E0F01386F79
:1038E0006598659C6296000E0D6E000E046E000ECB
:1038F000066E000E056E62B680EF9CF082EF9CF0C3
:1039000072EF9CF0010E276E010E266E000E256EE2
:10391000000E246E000E2A6E000E00016D6F6D51B8
:10392000020D100EF324D96E000EF420DA6EDE6A5A
:10393000DD6A6D51020DD50EF324D96E000EF42010
:10394000DA6EDE6ADD6A190E6D25D96EDA6A000E4E
:10395000DA22DF6A160E6D25D96EDA6A000EDA22D7
:10396000DF6A6D2B020E6D65B8EF9CF0BAEF9CF02C
:103970008FEF9CF0080E106E0D0E116E160E0F01DB
:10398000266F0D0E0D01036F300E026F080E016FD2
:10399000040E006F008F000E0001FD6F000E01018C
:1039A000356F000E366F000E376F000E386F000E49
:1039B000236E000E0001F96F1200A098000E636ED6
:1039C000000E626E000E0F01266F270E2E6E0F0E78
:1039D0002F6E000E316E000E306E000E336E020E32
:1039E000326E15EC9AF0160E0F01396F9F0E376F7D
:1039F0007B0E366F000E3A6E3A50040D000EF32423
:103A0000D96E0D0EF420DA6EDE6ADE6ADE6ADD6AD9
:103A10003A2A0B0E3A640FEF9DF011EF9DF0FCEF88
:103A20009CF0658C000E0F01386F6598659C62965E
:103A3000000E0D6E000E046E000E066E000E056E7A
:103A400062B625EF9DF027EF9DF017EF9DF0010E78
:103A5000276E010E266E000E256E000E246E000EDF
:103A60002A6E000E3A6E3A50020D100EF324D96EF3
:103A7000000EF420DA6EDE6ADD6A3A50020DD50ED1
:103A8000F324D96E000EF420DA6EDE6ADD6A190EB8
:103A90003A24D96EDA6A000EDA22DF6A160E3A2468
:103AA000D96EDA6A000EDA22DF6A3A2A020E3A6426
:103AB0005CEF9DF05EEF9DF033EF9DF0080E106E11
:103AC0000D0E116E160E0F01266F0D0E0D01036FF8
:103AD000300E026F080E016F040E006F008F000E93
:103AE0000001FD6F000E0101356F000E366F000EF4
:103AF000376F000E386F000E236E000E0001F96F55
:103B0000120020EE01F01E50D9261F50DA22DF509D
:103B10000001626F6251055C000E0658D8B093EF49
:103B20009DF095EF9DF097EF9DF005C062F062511A
:103B3000055E000E065A000E616FAEEF9DF0380E66
:103B40006125D96EDA6A0D0EDA2201C0E1FF02C0EA
:103B5000E2FFDFCFE7FF014A022A612B6251615D7C
:103B6000D8A0B5EF9DF0B7EF9DF09FEF9DF0055009
:103B70000610D8B4BEEF9DF0C0EF9DF0F9EF9DF0B8
:103B800020EE01F01C50D9261D50DA22080EDF6EFF
:103B900020EE02F01C50D9261D50DA22380EDE6EBF
:103BA0000D0EDD6E1EC0D9FF1FC0DAFFDFBCDBEFDC
:103BB0009DF0DDEF9DF0EBEF9DF01CC0D9FF1DC027
:103BC000DAFF480EDF6E1CC0D9FF1DC0DAFF000E01
:103BD000DB8E22EF9EF01CC0D9FF1DC0DAFF080E5D
:103BE000DF6E1CC0D9FF1DC0DAFF000EDB8E22EF96
:103BF0009EF020EE01F01C50D9261D50DA22080E4E
:103C0000DF6E20EE02F01C50D9261D50DA22300E55
:103C1000DE6E0D0EDD6E1CC0D9FF1DC0DAFF040E76
:103C2000DF6E1CC0D9FF1DC0DAFF000EDB8E049EC4
:103C30002850D8A41EEF9EF020EF9EF022EF9EF0B9
:103C400064ECAAF012000001696F00016151D8B460
:103C50002CEF9EF02EEF9EF03CEF9EF06951020D8E
:103C6000100EF324D96E000EF420DA6EDECF6AF067
:103C7000DDCF6BF048EF9EF06951020DD50EF324B5
:103C8000D96E000EF420DA6EDECF6AF0DDCF6BF075
:103C90006A516B11D8A44FEF9EF051EF9EF057EF91
:103CA0009EF0000E616F000E626FC3EF9EF020EE7B
:103CB00002F06A51D9266B51DA2262C0DEFF63C07E
:103CC000DDFF20EE01F06A51D9266B51DA2264C083
:103CD000DFFF6AC0D9FF6BC0DAFF400EDF166AC093
:103CE000D9FF6BC0DAFF000EDB866AC0D9FF6BC05C
:103CF000DAFF000EDB8E6151D8B481EF9EF083EFC6
:103D00009EF0A2EF9EF06951020D100EF324D96EC1
:103D1000000EF420DA6EDECF65F0DDCF66F0040E23
:103D20006519676F6651686F6951020D100EF324B3
:103D3000D96E000EF420DA6E67C0DEFF68C0DDFFCA
:103D4000BFEF9EF06951020DD50EF324D96E000E1F
:103D5000F420DA6EDECF65F0DDCF66F0040E651973
:103D6000676F6651686F6951020DD50EF324D96EE5
:103D7000000EF420DA6E67C0DEFF68C0DDFF6AC0A7
:103D800061F06BC062F0120020EE01F01E50D926E7
:103D90001F50DA22DF502F6E2F50055C000E0658A0
:103DA000D8B0D5EF9EF0D7EF9EF0D9EF9EF005C0CA
:103DB0002FF02F50055E000E065A000E2E6EF0EF0B
:103DC0009EF0380E2E24D96EDA6A0D0EDA2201C06A
:103DD000E1FF02C0E2FFDFCFE7FF014A022A2E2AFD
:103DE0002F502E5CD8A0F7EF9EF0F9EF9EF0E1EF98
:103DF0009EF005500610D8B400EF9FF002EF9FF040
:103E00003BEF9FF020EE01F01C50D9261D50DA2226
:103E1000080EDF6E20EE02F01C50D9261D50DA226B
:103E2000380EDE6E0D0EDD6E1EC0D9FF1FC0DAFF2C
:103E3000DFBC1DEF9FF01FEF9FF02DEF9FF01CC028
:103E4000D9FF1DC0DAFF480EDF6E1CC0D9FF1DC0B0
:103E5000DAFF000EDB8E64EF9FF01CC0D9FF1DC09F
:103E6000DAFF080EDF6E1CC0D9FF1DC0DAFF000E9E
:103E7000DB8E64EF9FF020EE01F01C50D9261D5020
:103E8000DA22080EDF6E20EE02F01C50D9261D50FB
:103E9000DA22300EDE6E0D0EDD6E1CC0D9FF1DC0A5
:103EA000DAFF040EDF6E1CC0D9FF1DC0DAFF000E62
:103EB000DB8E049E2850D8A460EF9FF062EF9FF045
:103EC00064EF9FF0DBECAAF0120065980DBE6BEF7B
:103ED0009FF06DEF9FF0B2EF9FF004AE72EF9FF096
:103EE00074EF9FF086EF9FF0020E2C6E2450D8A442
:103EF0007CEF9FF07EEF9FF080EF9FF0A9ECB2F097
:103F0000000E266E000E276E04EFA0F020EE01F0EA
:103F10001C50D9261D50DA22080EDF6E20EE02F06A
:103F20001C50D9261D50DA22300EDE6E0D0EDD6ECD
:103F30001CC0D9FF1DC0DAFF0C0EDF6E1CC0D9FFFC
:103F40001DC0DAFF000EDB8E10C0D9FF11C0DAFFF2
:103F5000040EDF6E10C0D9FF11C0DAFF000EDB8E39
:103F600004EFA0F00D0130AFB8EF9FF0BAEF9FF073
:103F7000D6EF9FF0010E2C6E2550D8A4C2EF9FF013
:103F8000C4EF9FF0C6EF9FF0A9ECB2F0000E266ED2
:103F9000000E276E2850D8A4D0EF9FF0D2EF9FF0EC
:103FA00004EFA0F064ECAAF004EFA0F0020E2C6E77
:103FB00020EE01F01C50D9261D50DA22080EDF6ECB
:103FC00020EE02F01C50D9261D50DA22300EDE6E93
:103FD0000D0EDD6E1CC0D9FF1DC0DAFF040EDF6EB2
:103FE0001CC0D9FF1DC0DAFF000EDB8E000E266E4E
:103FF000000E276E2850D8A400EFA0F002EFA0F02A
:1040000004EFA0F0D2EF9FF0120065980DBE0BEF09
:10401000A0F00DEFA0F052EFA0F004AE12EFA0F070
:1040200014EFA0F026EFA0F0020E2C6E2450D8A4BE
:104030001CEFA0F01EEFA0F020EFA0F0FFECB2F01C
:10404000000E266E000E276EA4EFA0F020EE01F009
:104050001C50D9261D50DA22080EDF6E20EE02F029
:104060001C50D9261D50DA22300EDE6E0D0EDD6E8C
:104070001CC0D9FF1DC0DAFF0C0EDF6E1CC0D9FFBB
:104080001DC0DAFF000EDB8E10C0D9FF11C0DAFFB1
:10409000040EDF6E10C0D9FF11C0DAFF000EDB8EF8
:1040A000A4EFA0F00D0130AF58EFA0F05AEFA0F050
:1040B00076EFA0F0010E2C6E2550D8A462EFA0F090
:1040C00064EFA0F066EFA0F0FFECB2F0000E266EF9
:1040D000000E276E2850D8A470EFA0F072EFA0F069
:1040E000A4EFA0F0DBECAAF0A4EFA0F0020E2C6E7F
:1040F00020EE01F01C50D9261D50DA22080EDF6E8A
:1041000020EE02F01C50D9261D50DA22300EDE6E51
:104110000D0EDD6E1CC0D9FF1DC0DAFF040EDF6E70
:104120001CC0D9FF1DC0DAFF000EDB8E000E266E0C
:10413000000E276E2850D8A4A0EFA0F0A2EFA0F0A8
:10414000A4EFA0F072EFA0F01200366E2E50D8B49B
:10415000ACEFA0F0AEEFA0F0BCEFA0F03650020D37
:10416000100EF324D96E000EF420DA6EDECF37F095
:10417000DDCF38F0C8EFA0F03650020DD50EF32495
:10418000D96E000EF420DA6EDECF37F0DDCF38F0D6
:1041900037503810D8A4CFEFA0F0D1EFA0F0D7EF70
:1041A000A0F0000E2E6E000E2F6E43EFA1F020EE59
:1041B00002F03750D9263850DA222FC0DEFF30C047
:1041C000DDFF20EE01F03750D9263850DA2231C019
:1041D000DFFF37C0D9FF38C0DAFF400EDF1637C027
:1041E000D9FF38C0DAFF000EDB8637C0D9FF38C0F0
:1041F000DAFF000EDB8E2E50D8B401EFA1F003EFF2
:10420000A1F022EFA1F03650020D100EF324D96E6A
:10421000000EF420DA6EDECF32F0DDCF33F0040E84
:104220003218346E3350356E3650020D100EF324B2
:10423000D96E000EF420DA6E34C0DEFF35C0DDFF2B
:104240003FEFA1F03650020DD50EF324D96E000ECB
:10425000F420DA6EDECF32F0DDCF33F0040E321808
:10426000346E3350356E3650020DD50EF324D96EB0
:10427000000EF420DA6E34C0DEFF35C0DDFF37C03B
:104280002EF038C02FF01200B80E0001B56FFE0EF0
:10429000B66F92ECBCF0990E0001B56FFF0EB66FD1
:1042A00092ECBCF0000E0001CB6F9FEFA1F0250E49
:1042B000B56FFA0EB66FCB51C525D96E000EC6216B
:1042C000DA6EDF50C86FC851B76FB86B92ECBCF0B4
:1042D0000001CB51C525D96E000EC621DA6E1F0E26
:1042E000DF6475EFA1F077EFA1F092EFA1F0CB5171
:1042F000C525D96E000EC621DA6E7F0EDF6083EF12
:10430000A1F085EFA1F092EFA1F0CB51C525D96EB8
:10431000000EC621DA6EDF50C86FC851C96FCA6B74
:1043200096EFA1F0000ECA6F2E0EC96F700ECB254E
:10433000D96EDA6A010EDA22C9C0DFFFCB2BC75172
:10434000CB5DD8A0A6EFA1F0A8EFA1F057EFA1F0A8
:10435000700ECB25D96EDA6A010EDA22DF6AD90E29
:10436000B56FFF0EB66F700EB76F010EB86F92EC9F
:10437000BCF08984000E0001CB6FD0EFA1F0ADA29C
:10438000C4EFA1F0C6EFA1F0BFEFA1F00001CB5147
:10439000C525D96E000EC621DA6EDF50AE6ECB2B6E
:1043A000C751CB5DD8A0D7EFA1F0D9EFA1F0BFEFF7
:1043B000A1F0ADA2DEEFA1F0E0EFA1F0D9EFA1F006
:1043C00089941200000EA8ECB3F09B8C0F01398584
:1043D000F19E700ED36E1F0E486F1F0E496F000EB8
:1043E000926E300E936E000E946E0F0E956E000E50
:1043F000806E000E816E000E826E000E836E9290B3
:104400009292929493948980898295869584000EE5
:104410000001626F0A0E616F13ECBBF0E0ECB7F0C5
:104420007CECBDF0E5ECB9F017ECBDF036EC9CF09F
:1044300006ECB9F0010E0001F86F3EECBDF0BCECEB
:1044400091F0EDECBCF0C70E0001B56FFE0EB66F3B
:1044500092ECBCF04AECBDF0DEECBCF0D3ECBAF070
:10446000300E0001B56FFF0EB66F74CFB7F0B86BAA
:1044700092ECBCF0810E0001B56FFF0EB66F000E1E
:10448000B86F010EB76F92ECBCF05A0E0001B56F19
:10449000FF0EB66F000EB86F000EB76F92ECBCF057
:1044A000D30E0001B56FFD0EB66F92ECBCF06CEC54
:1044B000B6F009ECBDF0E806D8A461EFA2F063EF16
:1044C000A2F067EFA2F08DECBDF014EC95F0FBECE0
:1044D000BCF0E806D8A46FEFA2F071EFA2F075EF80
:1044E000A2F089ECBDF09EECBDF0FFEC93F069EC1E
:1044F00082F030ECA4F059EFA2F013EF00F00D01C0
:104500003039E832030B0009D8B489EFA2F08BEF01
:10451000A2F0D5EFA2F00FEFA3F00D8E080EF96F09
:104520000FEFA3F09AEC98F00FEFA3F052ECABF082
:104530000FEFA3F0FD0E0A6E000E0B6E0D80010E44
:104540000E6E0D8E0FEFA3F010ECA3F00FEFA3F0A3
:104550005DEC86F00FEFA3F0FA0E0D0134250A6E24
:104560000B6A000E0B220D80010E0E6E0D8E0FEFEA
:10457000A3F00D8EFA0E0D013425D96EDA6A000E05
:10458000DA2232CDDFFF0FEFA3F0000E706F020EC4
:104590006F6F000E716F000E726F000E746F000E61
:1045A000736FEFECB0F00FEFA3F0315100017E6FAD
:1045B0007F6B7F51000AD8B4E0EFA2F00FEFA3F0B9
:1045C0007E51000AD8B4A4EFA2F0010AD8B4A8EF33
:1045D000A2F0020AD8B4A8EFA2F0060AD8B48DEF70
:1045E000A2F0030AD8B492EFA2F0010AD8B4C5EF42
:1045F000A2F00F0AD8B49AEFA2F0010AD8B496EF4D
:10460000A2F0030AD8B4ACEFA2F0010AD8B4B9EF13
:10461000A2F0070AD8B40FEFA3F00FEFA3F0120037
:10462000000E0D01386F000E396F77EFA3F00D8E7D
:104630002B04D8A41EEFA3F020EFA3F092EFA3F079
:104640000D01388392EFA3F00D8E92EFA3F00D8E43
:104650000D0134510F0B0009D8B431EFA3F033EF43
:10466000A3F092EFA3F034BF38EFA3F03AEFA3F03A
:104670004CEFA3F034510F0B0001616F6151020D3B
:10468000D50EF324D96E000EF420DA6EDECF63F07F
:10469000DDCF64F05CEFA3F034510F0B0001616FCC
:1046A0006151020D100EF324D96E000EF420DA6E63
:1046B000DECF63F0DDCF64F063C0D9FF64C0DAFF02
:1046C000DFAE65EFA3F067EFA3F092EFA3F063C056
:1046D000D9FF64C0DAFFDFA470EFA3F072EFA3F09C
:1046E00092EFA3F0010E0D01386F92EFA3F030515D
:1046F0001F0B0001616F626B6251000AD8B483EF37
:10470000A3F092EFA3F06151000AD8B417EFA3F021
:10471000010AD8B424EFA3F0030AD8B427EFA3F01A
:1047200092EFA3F00DAE97EFA3F099EFA3F0A0EFF7
:10473000A3F0380E0A6E0D0E0B6E0D80020E0E6E7B
:1047400012000D013039E832030B0009D8B4ABEF89
:10475000A3F0ADEFA3F0F6EFA3F02FEFA4F00D8ED2
:10476000080E0001F96F2FEFA4F0D0EC9AF02FEFB4
:10477000A4F03EECACF02FEFA4F0FD0E0A6E000E9C
:104780000B6E0D80010E0E6E0D8E2FEFA4F0BBECA4
:10479000A4F02FEFA4F07EEC8BF02FEFA4F0FA0E34
:1047A00034250A6E0B6A000E0B220D80010E0E6E70
:1047B0000D8E2FEFA4F00D8EFA0E3425D96EDA6A25
:1047C000000EDA2232CDDFFF2FEFA4F0000E3D6E97
:1047D000020E3C6E000E3E6E000E3F6E000E416EED
:1047E000000E406EF9ECB1F02FEFA4F031514B6E9A
:1047F0004C6A4C50000AD8B400EFA4F02FEFA4F09C
:104800004B50000AD8B4C7EFA3F0010AD8B4CBEFDD
:10481000A3F0020AD8B4CBEFA3F0060AD8B4AFEFE6
:10482000A3F0030AD8B4B5EFA3F0010AD8B4E6EFB9
:10483000A3F00F0AD8B4BDEFA3F0010AD8B4B9EFC2
:10484000A3F0030AD8B4CFEFA3F0010AD8B4DBEF8A
:10485000A3F0070AD8B42FEFA4F02FEFA4F01200B2
:10486000200E0001F96137EFA4F039EFA4F04CEF0E
:10487000A4F0F551D8A43FEFA4F041EFA4F0BAEFB3
:10488000A4F0570EB56FFE0EB66F92ECBCF0010EA1
:104890000001F56FBAEFA4F0F505D8A452EFA4F02B
:1048A00054EFA4F05DEFA4F0740EB56FFF0EB66F79
:1048B00092ECBCF0020E0001F56F65A262EFA4F06D
:1048C00064EFA4F06CEFA4F0210EB56FFF0EB66F8D
:1048D00092ECBCF0BAEFA4F0F751D8A472EFA4F0B8
:1048E00074EFA4F0B8EFA4F0F651D8B47AEFA4F0C6
:1048F0007CEFA4F0B8EFA4F0000EC56F000EC52544
:10490000D96EDA6A020EDA22DF50D8B48AEFA4F048
:104910008CEFA4F09CEFA4F0000EC525D96EDA6AE6
:10492000020EDA22800EC525E16EE26A020EE22254
:10493000DFCFE7FFA7EFA4F0800EC525D96EDA6AB6
:10494000020EDA22DF6A000EF66FB0EFA4F0C52B7C
:104950003F0EC565AEEFA4F0B0EFA4F07EEFA4F07B
:10496000800E616F020E626FC5C063F0F3ECBBF0A6
:10497000F6EC96F01200000E0D01386F000E396F44
:104980001DEFA5F00D8E2B04D8A4C9EFA4F0CBEF3A
:10499000A4F037EFA5F0388337EFA5F00D8E37EF91
:1049A000A5F00D8E34510F0B0009D8B4DAEFA4F046
:1049B000DCEFA4F037EFA5F034BFE1EFA4F0E3EFB4
:1049C000A4F0F4EFA4F034510F0B2E6E2E50020D14
:1049D000D50EF324D96E000EF420DA6EDECF30F05F
:1049E000DDCF31F003EFA5F034510F0B2E6E2E50BA
:1049F000020D100EF324D96E000EF420DA6EDECF15
:104A000030F0DDCF31F030C0D9FF31C0DAFFDFAE9A
:104A10000CEFA5F00EEFA5F037EFA5F030C0D9FFF1
:104A200031C0DAFFDFA417EFA5F019EFA5F037EFDB
:104A3000A5F0010E386F37EFA5F030511F0B2E6E29
:104A40002F6A2F50000AD8B428EFA5F037EFA5F051
:104A50002E50000AD8B4C2EFA4F0010AD8B4CEEFA9
:104A6000A4F0030AD8B4D1EFA4F037EFA5F00DAE4F
:104A70003CEFA5F03EEFA5F045EFA5F0380E0A6E2D
:104A80000D0E0B6E0D80020E0E6E1200080E000150
:104A9000616F0F5007E1080E0E5CD8B052EFA5F021
:104AA00054EFA5F06CEFA5F00EC061F02D50D8A426
:104AB0005CEFA5F05EEFA5F062EFA5F0010E2D6EA4
:104AC0006CEFA5F02D04D8A468EFA5F06AEFA5F06F
:104AD0006CEFA5F0020E2D6E61510E5E000E0F5AA6
:104AE00020EE01F01050D9261150DA2261C0DFFF0C
:104AF000380EE16F0D0EE26F0DB081EFA5F083EF80
:104B0000A5F0C7EFA5F0A1EFA5F00AC0F6FF0BC016
:104B1000F7FF000EF86EE1C0D9FFE2C0DAFF0F0E1A
:104B2000F76403D00800F55005D0F6CFE9FFF7CFC2
:104B3000EAFFEF50DF6E0A4A0B2A0001E14BE22B3D
:104B400061076151D8A4A7EFA5F0A9EFA5F085EF03
:104B5000A5F0CFEFA5F00AC0F6FF0BC0F7FF000EDF
:104B6000F86EE1C0D9FFE2C0DAFF0F0EF76403D0A0
:104B70000800F55005D0F6CFE9FFF7CFEAFFEF5078
:104B8000DF6E0A4A0B2A0001E14BE22B61076151FB
:104B9000D8A4CDEFA5F0CFEFA5F0ABEFA5F01200B4
:104BA000080E2E6E0F5007E1080E0E5CD8B0DBEF3A
:104BB000A5F0DDEFA5F0F5EFA5F00EC02EF02D501D
:104BC000D8A4E5EFA5F0E7EFA5F0EBEFA5F0010E17
:104BD0002D6EF5EFA5F02D04D8A4F1EFA5F0F3EFBD
:104BE000A5F0F5EFA5F0020E2D6E2E500E5E000E14
:104BF0000F5A20EE01F01050D9261150DA222EC0A3
:104C0000DFFF380E0001E16F0D0EE26F0DB00BEF0C
:104C1000A6F00DEFA6F051EFA6F02BEFA6F00AC01C
:104C2000F6FF0BC0F7FF000EF86EE1C0D9FFE2C03F
:104C3000DAFF0F0EF76403D00800F55005D0F6CF69
:104C4000E9FFF7CFEAFFEF50DF6E0A4A0B2A0001B7
:104C5000E14BE22B2E062E50D8A431EFA6F033EF15
:104C6000A6F00FEFA6F059EFA6F00AC0F6FF0BC0B2
:104C7000F7FF000EF86EE1C0D9FFE2C0DAFF0F0EB9
:104C8000F76403D00800F55005D0F6CFE9FFF7CF61
:104C9000EAFFEF50DF6E0A4A0B2A0001E14BE22BDC
:104CA0002E062E50D8A457EFA6F059EFA6F035EFF8
:104CB000A6F0120010C0D9FF11C0DAFF000EDFBC51
:104CC000010E0001626F040E1018106E1150116E6B
:104CD000080EF919D8A46FEFA6F071EFA6F086EFD1
:104CE000A6F00D0132517F0B0F01386F3851D8B447
:104CF0007CEFA6F07EEFA6F083EFA6F0100E000189
:104D0000F96F86EFA6F0040E0001F96F2C04D8A409
:104D10008CEFA6F08EEFA6F0D6EFA6F020EE02F014
:104D20001050D9261150DA22380EDE6E0D0EDD6ECF
:104D300046ECA5F0020E2D18D8A4A1EFA6F0A3EF23
:104D4000A6F0B1EFA6F010C0D9FF11C0DAFF040E33
:104D5000DF6E10C0D9FF11C0DAFF000EDB8EE0EF6E
:104D6000A6F000016251D8A4B8EFA6F0BAEFA6F001
:104D7000C8EFA6F010C0D9FF11C0DAFF480EDF6EF1
:104D800010C0D9FF11C0DAFF000EDB8EE0EFA6F0F5
:104D900010C0D9FF11C0DAFF080EDF6E10C0D9FFB6
:104DA00011C0DAFF000EDB8EE0EFA6F004AEDBEF01
:104DB000A6F0DDEFA6F0DEEFA6F0049E000E2C6E4E
:104DC000120010C0D9FF11C0DAFF000EDFBC010EC7
:104DD0002F6E040E1018106E1150116E080E000187
:104DE000F919D8A4F6EFA6F0F8EFA6F00DEFA7F0AA
:104DF0000D0132517F0B0F01386F3851D8B403EFDA
:104E0000A7F005EFA7F00AEFA7F0100E0001F96F69
:104E10000DEFA7F0040E0001F96F2C04D8A413EFD6
:104E2000A7F015EFA7F05CEFA7F020EE02F010500E
:104E3000D9261150DA22380EDE6E0D0EDD6ED0EC62
:104E4000A5F0020E2D18D8A428EFA7F02AEFA7F09E
:104E500038EFA7F010C0D9FF11C0DAFF040EDF6EE3
:104E600010C0D9FF11C0DAFF000EDB8E66EFA7F08D
:104E70002F50D8A43EEFA7F040EFA7F04EEFA7F0D9
:104E800010C0D9FF11C0DAFF480EDF6E10C0D9FF85
:104E900011C0DAFF000EDB8E66EFA7F010C0D9FF5D
:104EA00011C0DAFF080EDF6E10C0D9FF11C0DAFFA3
:104EB000000EDB8E66EFA7F004AE61EFA7F063EFA4
:104EC000A7F064EFA7F0049E000E2C6E1200000104
:104ED000633564356A6F6A51D8A471EFA7F073EF38
:104EE000A7F07DEFA7F0000E616F000E626F000E5D
:104EF000636F000E646FEAEFA7F061C065F062C0F7
:104F000066F063C067F064C068F0200E8DEFA7F014
:104F1000D8906833673366336533E82E88EFA7F09F
:104F20006551696F638FFF0E6117FF0E6217FF0EE9
:104F30006317000E6417960E6A5F6ABFA4EFA7F0AE
:104F4000A2EFA7F0BAEFA7F06A51800A970FD8B086
:104F5000ACEFA7F0AEEFA7F0B0EFA7F073EFA7F0BC
:104F6000D89064336333623361336A3FB0EFA7F0A4
:104F7000D2EFA7F01F0E6A65C0EFA7F0C2EFA7F04F
:104F8000CAEFA7F073EFA7F0D890613762376337A5
:104F900064376A076A51D8A4D0EFA7F0D2EFA7F020
:104FA000C4EFA7F06951D8B4D8EFA7F0DAEFA7F0B3
:104FB000E2EFA7F0641F631F621F616D000E6223A2
:104FC0006323642361C061F062C062F063C063F078
:104FD00064C064F012000D0130511F0BE806D8B414
:104FE000F4EFA7F0F6EFA7F0F8EFA7F06EEFA8F058
